:020000040800F2
:10C00000D017002065C10008FBC9000883C40008E0
:10C01000F9C90008E5C2000881E700080000000037
:10C02000000000000000000000000000FDCD00083E
:10C03000FBC200080000000095CA00087DC100088E
:10C040003DE800087FC100087FC100087FC10008EB
:10C050007FC100087FC100087FC10008FDC2000841
:10C060007FC100087FC100087FC100087FC10008B0
:10C070007FC100087FC100087FC100087FC10008A0
:10C080007FC100087FC100087FC100087FC1000890
:10C090007FC100087FC100087FC100087FC1000880
:10C0A0007FC100087FC100087FC100087FC1000870
:10C0B000EDD20008F1D200087FC100087FC100085E
:10C0C0007FC100087FC100087FC100087FC1000850
:10C0D0007FC100087FC10008AFD600087FC10008FB
:10C0E0007FC100087FC100087FC100080000000078
:10C0F0000000000000000000000000000000000040
:10C100000000000000000000E9D300087FC1000823
:10C11000A9D600087FC100087FC100087FC10008C0
:10C120007FC100087FC100087FC100087FC10008EF
:10C130007FC100087FC100087FC100087FC10008DF
:10C140007FC100087FC100087FC1000889CA0008BC
:10C15000DFF80CD000F03EF8004800474DEF000833
:10C16000D01700200648804706480047FEE7FEE754
:10C17000FEE7FEE7FEE7FEE7FEE7FEE7FEE7FEE797
:10C18000A9D1000851C1000840EA01039B0703D070
:10C1900009E008C9121F08C0042AFAD203E011F806
:10C1A000013B00F8013B521EF9D27047D2B201E0C8
:10C1B00000F8012B491EFBD270470022F6E710B5AC
:10C1C00004460846114602462046FFF7EFFF204688
:10C1D00010BD0000064C074D06E0E06840F001038A
:10C1E00094E8070098471034AC42F6D3FFF7B4FF49
:10C1F0001CF700083CF7000870B501EB020410F8CA
:10C20000015B15F0070301D110F8013B2A1106D19B
:10C2100010F8012B03E010F8016B01F8016B5B1EB5
:10C22000F9D12B0705D40023521E0FD401F8013B8E
:10C23000FAE710F8013B02F10202A1EB030303E06D
:10C2400013F8015B01F8015B521EF9D5A142D6D368
:10C25000002070BD10B5074C2060084600F00CF8B7
:10C2600020680028FCD1BDE8104000214FF080403C
:10C2700001F0EEB8000000203EB504464FF08045C6
:10C280000021284601F0E4F800220121284601F0AF
:10C2900089F9022C02D0012C02D005E00B2001E02C
:10C2A00042F6DF60ADF804000520ADF80000002084
:10C2B000ADF80600ADF802006946284601F0A6F97F
:10C2C0000121284601F0C1F80121284601F0B0F80B
:10C2D00001221146284601F065F90121284601F0A6
:10C2E000B7F83EBDFEE7000010B5012002E000BF38
:10C2F00000F050FCC007FBD110BD704710B5022004
:10C3000000F016F8002809D00548D0F880004069F0
:10C310008047BDE81040022000F004B810BD0000C6
:10C32000B40E002001490860704700001404014069
:10C33000064A014600201268044B0A4014331B6869
:10C340000B4202D0002A00D00120704700040140B7
:10C350002DE9F041CB78002503F00F02DB0601D573
:10C360008B781A430B884FF00F0813F0FF0F4FF034
:10C37000010C1CD0D0F800400E880CFA05F31E40CA
:10C380009E4210D1AF0008FA07F624EA060602FA28
:10C3900007F43443CE78282E02D0482E02D002E093
:10C3A000436100E003616D1C082DE5D304600B8838
:10C3B000FF2B1DD94468002505F108060CFA06F389
:10C3C0000E881E409E420FD1AF0008FA07F624EAFD
:10C3D000060602FA07F43443CE78282E00D14361D2
:10C3E000CE78482E00D103616D1C082DE4D3446043
:10C3F000BDE8F081F0B5144C002801DAE36900E0F3
:10C400006368420D120185B2C0F301579540C0F335
:10C410000346032F05D0C2020AD50322B24093433C
:10C4200007E023F07062636823F07063636002E0EA
:10C43000AB4343F0706201B12A43002801DAE261A4
:10C44000F0BD6260F0BD0000000001400246002027
:10C4500092680A4200D00120704741617047016133
:10C460007047020AA13AC2EB0213C0B203EB4212B8
:10C4700000EB42004FF43E6202EB4010202200F03D
:10C480003FBCFEE72DE9F74F8B4CDFF8308288B0D8
:10C49000207815460101D8F80000FFF78EFEDFF87E
:10C4A00020B2E946DFF81CA2F7E000287DD06D1C21
:10C4B00080297BD915F8010B4FF6FF7600EB0120A0
:10C4C00080B200214FEA0B0201EB011332F8133066
:10C4D000B34203D16946FFF7C4FF0AE0834266D145
:10C4E00001EB01100BEB4001891C20226846FFF78D
:10C4F0004BFE012056463178002956D0227809EBB0
:10C500004001521C00FB02F7D8F8002011F8023C51
:10C5100002EB870707F8043C27788B797F1C474399
:10C5200002EB870707F8033C27788B7B7F1C474388
:10C5300002EB870707F8023C2378897D5B1C4343A5
:10C5400002EB8302401CC0B202F8011C0528D2D3C2
:10C5500000273078002828D020788200401C07FB74
:10C5600000F1D8F8000000EB8100011DFFF70CFE80
:10C570007F1CFFB2042FECD301203178002914D0A6
:10C58000227809EB4001521C00FB02F7D8F800208A
:10C5900011F8013C02EB870707F8043C2778CB79B8
:10C5A0007F1C474302EB870702E081E02EE02AE090
:10C5B00007F8033C2778CB7B7F1C474302EB8707B8
:10C5C00007F8023C2378C97D5B1C434302EB8302DE
:10C5D000401CC0B202F8011C0528CED300273078D9
:10C5E000002865D020788200401C07FB00F1D8F8B5
:10C5F000000000EB8100011DFFF7C6FD7F1CFFB2AC
:10C60000042FECD349E0491C89B25DE72E4A012092
:10C6100002EB0117D8F8002026783918761CA1F211
:10C620000123464302EB86061B7806F8043C267875
:10C63000A1F2FD13761C464302EB86061B7806F832
:10C64000033C2678A1F2F913761C464302EB8606DA
:10C650001B7806F8023C2378A1F2F5115B1C4343DA
:10C6600002EB8303401C0978C0B203F8011C0528C3
:10C67000D2D300269AF80000002819D02078D8F8E4
:10C6800000108200401C704301EB8000011DFFF789
:10C690007BFD761CF6B2042EECD329789AF80000C4
:10C6A00000297FF402AF002802D0099800F036FC80
:10C6B0000BB0BDE8F08F0000040000201400002043
:10C6C000EA06002006000020E90000202DE9F74FCF
:10C6D0008CB000200890DFF80CA3CDE90902834656
:10C6E0009AF80000C04F0101914610313868FFF7F9
:10C6F00064FDDFF8F88200BF98F8000000287DD0C4
:10C7000002F060FA18B1BBF1010F02D005E04FF062
:10C71000010B02F057FA012870D002F027FB18B184
:10C720000898012802D005E00120089002F01EFBC5
:10C73000012863D002F0AAFB18B10998012802D0A1
:10C7400005E00120099002F0A1FB012856D099F8DC
:10C75000000008B9DDF8289098F8000019F8011BCE
:10C7600080297DD9002849D019F8010BA04A00EB97
:10C77000012080B200214FF6FF7400BF01EB0113CE
:10C7800032F81330A34203D16946FFF76AFE0AE08C
:10C79000834266D101EB011002EB4001891C20228B
:10C7A0006846FFF7F1FC012098F80010002925D019
:10C7B0009AF800306E465B1C00FB03F53B6806EB05
:10C7C000400203EB850512F8024C05F8044C9AF878
:10C7D000005094796D1C454303EB850505F8034C27
:10C7E0009AF80050947B6D1C454303EB850505F8D2
:10C7F000024C9AF80010927D491C00E089E0414308
:10C8000003EB8101401CC0B201F8012C0528CBD3F9
:10C810007848002180F8001098F80000002878D0AF
:10C82000744C0D98217800F0EBFA2078401CC0B2CF
:10C8300020700828F0D300254FEA0A0498F8000079
:10C84000002866D021788A00491C05FB01F0396870
:10C8500001EB8000011DFFF797FC6D1CEDB201E0BC
:10C860005BE057E0042DE9D35FF0010098F8001079
:10C8700000294ED0227806EB4001521C00FB02F545
:10C880003A6811F8013C02EB850505F8043C25786F
:10C89000CB796D1C454302EB850505F8033C2578F3
:10C8A000CB7B6D1C454302EB850505F8023C2378E4
:10C8B000C97D5B1C434302EB8302401CC0B202F8FB
:10C8C000011C0528D2D34B4D0020287098F8000099
:10C8D00000281ED029780D9800F092FA2878401C84
:10C8E000C0B228700828F1D35FF0000598F8000066
:10C8F000002874D0207839688200401C684301EB1E
:10C900008000011DFFF740FC6D1CEDB2042DEDD33E
:10C91000F2E664E0491C89B230E700285FD0354A6E
:10C920000120521C02EB011654463A6804E000BF95
:10C9300098F80010002952D0257831186D1CA1F20A
:10C940000123454302EB85051B7805F8043C257857
:10C95000A1F2FD136D1C454302EB85051B7805F81C
:10C96000033C2578A1F2F9136D1C454302EB8505C4
:10C970001B7805F8023C2378A1F2F5115B1C4343B8
:10C9800002EB8303401C0978C0B203F8011C0528A0
:10C99000CED3184D0020287098F8000000281ED033
:10C9A00029780D9800F02CFA2878401CC0B2287025
:10C9B0000828F1D35FF0000598F8000000280ED099
:10C9C000207839688200401C684301EB8000011D1B
:10C9D000FFF7DAFB6D1CEDB2042DEDD38CE60FB042
:10C9E000BDE8F08F040000201400002006000020A5
:10C9F000EA060020E8000020FEE7704770B50F212E
:10CA0000C478027801234FF0E026E4B1124C246888
:10CA100004F4E064C4F5E064C4F30724C4F104053D
:10CA2000E1404478AC4085780D4025430B4C29010A
:10CA30001155007800F01F018B40400906EB800083
:10CA4000C0F8003170BD02F01F008340500906EBB2
:10CA50008000C0F8803170BD0CED00E000E400E023
:10CA60000249084302490860704700000000FA05C7
:10CA70000CED00E0024A114001430248016070479A
:10CA800080FFFF1F08ED00E0014800F0ABBE000092
:10CA90000809002070470000044A0029D16901D02C
:10CAA000014300E08143D161704700000010024063
:10CAB000044A0029916901D0014300E0814391615A
:10CAC000704700000010024070B52D494A682D4B98
:10CAD00012F00C0204D02C4D042A03D0082A03D0F3
:10CAE000036029E0056027E04A684B6802F4701291
:10CAF000920C03F480330D2A01D0921C00E0062230
:10CB0000BBB1CB6ACC6A13F4803F04F00F0404F18C
:10CB100001040AD0CB6AC3F30316CB6A761CB5FBBB
:10CB2000F6F5C3F303239B1C5D43B5FBF4F35343BA
:10CB3000D6E7164B5A4302604A68154B02F0F002E2
:10CB400012099C5C0268E24042604C6804F4E064B4
:10CB5000240A1C5D22FA04F484604C6804F46054D6
:10CB6000E40A1B5DDA40C2604968094B01F44041A8
:10CB7000890B1B1F595CB2FBF1F1016170BD000014
:10CB80000010024000127A0040787D0100093D004B
:10CB90001C08002070B5084D10212846FFF75DFCE9
:10CBA000052000F06BF800F065F8044610212846D7
:10CBB000FFF755FC204670BD0008014000290188A0
:10CBC00002D041F0400101E021F0400101807047B6
:10CBD00070B5012186B00803FFF76AFFA020ADF809
:10CBE00014000324214E8DF8164018258DF8175097
:10CBF00005A93046FFF7ACFB4020ADF814008DF8D6
:10CC0000175005A93046FFF7A3FB1020ADF814001C
:10CC10008DF816408DF8170005A93046FFF798FBF0
:10CC20000021ADF800104FF48270ADF80200ADF8AD
:10CC300008107015ADF80A00ADF80410ADF80C102E
:10CC400007200B4CADF80610ADF80E10ADF8100033
:10CC50006946204600F037F801212046FFF7AEFF75
:10CC600010213046FFF7FBFB06B070BD0008014005
:10CC700000300140002000F001B8000070B50B4CFE
:10CC800005460221204600F013F80028F9D0294675
:10CC9000204600F016F80121204600F009F800288F
:10CCA000F9D0204600F00BF8C0B270BD0030014052
:10CCB0000246002012890A4200D001207047808974
:10CCC00070478181704730B502884C8802F4415327
:10CCD0000A88CD8822438C882C4322430C89224326
:10CCE0004C8922438C892243CC8922431A430280F7
:10CCF000828B22F400628283098A018230BD0000A7
:10CD00002DE9F041DFF84C8005460F461646002419
:10CD100010214046FFF7A1FB0B20FFF7AFFFC5F343
:10CD20000740FFF7ABFFC5F30720FFF7A7FFE8B207
:10CD3000FFF7A4FF0020FFF7A1FF03E0FFF79AFF32
:10CD40003855641CB442F9D34046BDE8F041102187
:10CD5000FFF785BB000801402DE9F0410D4617465D
:10CD6000044600F05DF901F033FD01F01FFD224E95
:10CD700010213046FFF771FBAD20FFF77FFFC4F3B2
:10CD80000740FFF77BFFC4F30720FFF777FFE0B210
:10CD9000FFF774FF2878FFF771FF6878FFF76EFFE1
:10CDA00010213046FFF75BFB022415E07820401E7F
:10CDB000FDD110213046FFF750FBAD20FFF75EFF9D
:10CDC000285D641CFFF75AFF285D641CFFF756FFBF
:10CDD00010213046FFF743FBBC42E7D36420401EDE
:10CDE000FDD101F0CFFC10213046FFF736FBBDE846
:10CDF000F041FFF779BA00000008014070470000D9
:10CE00002DE9F05F88460826DFF8F8903E4DDFF800
:10CE1000FCB066E09BF80010002967D000243C4974
:10CE20002878C8F10807401C0968604301EB8001BD
:10CE30000020DC46D9F800A00EE000BF9CF80020DE
:10CE4000F2B311F8012BCB7802FA08F2FB401A4337
:10CE50000AF80020401CC0B22A78B0EB820FEDD354
:10CE60009BF80000DA4658B3042C0CD0002706E0EB
:10CE7000D9F80000C05D00F053F97F1CFFB228789C
:10CE8000B7EB800FF4D3234F04213846FFF7E7FABE
:10CE900021490020096800E0401C8842FCD39AF830
:10CEA000000068B1042C27D0204600F061F904216D
:10CEB0003846FFF7D2FA01213846FFF7D0FA00E0F2
:10CEC00014E00020401CFF28FCDB01213846FFF75E
:10CED000C4FA0020401C0F28FCDB641CE4B2042CC4
:10CEE0009DD33000A6F10106B6B293D1BDE8F05F44
:10CEF00004210848FFF7B3BA04213846FFF7ADFA1A
:10CF0000EBE70000180000200400002006000020CD
:10CF10001400002000100140100000202DE9F05FF7
:10CF20000227DFF8E480DFF8E490394DDFF8E4B061
:10CF30005DE0287800285CD0DFF8DCA0002499F8B8
:10CF40000000DAF80010401C604301EB80014A4603
:10CF50000020C446D8F8006006E02B78F3B311F83F
:10CF6000013B3354401CC0B21378B0EB830FF4D3B1
:10CF7000287898B3042C0DD0002606E0D8F80000DD
:10CF8000805D00F0CDF8761CF6B299F80000B6EBA3
:10CF9000800FF3D304215E465846FFF760FA1F491D
:10CFA0000020096800E0401C8842FCD32878A8B122
:10CFB000042C24D0204600F0DBF804213046FFF793
:10CFC0004CFA01213046FFF74AFA0020401CFF28A6
:10CFD000FCDB01213046FFF740FA00E009E00020C9
:10CFE000401C0F28FCDB641CE4B2042CA7D37F1E7A
:10CFF0009FD25846BDE8F05F0421FFF730BA042104
:10D000003046FFF72AFAEEE718000020040000205F
:10D010000600002000100140140000201000002035
:10D0200070B5044601F0D4FB01F0C0FB0D4D10219A
:10D030002846FFF712FA2020FFF720FEC4F307402E
:10D04000FFF71CFEC4F30720FFF718FEE0B2FFF75E
:10D0500015FE10212846FFF702FABDE87040FFF7E1
:10D0600043B900000008014029480021026842F449
:10D07000803202604FF4A063026801F1010112F4F2
:10D08000003F01D19942F7D1016889033FD5214979
:10D090000A6842F010020A600A6822F003020A607D
:10D0A0000A6842F002020A604168416041684160DA
:10D0B000416841F480614160C16A174A1140C16210
:10D0C000C16A164A1143C162016841F08061016082
:10D0D00001680901FCD5416821F47C114160416877
:10D0E00041F4E8114160016841F08071016001681C
:10D0F0008901FCD5416821F003014160416841F09C
:10D10000020141604168C1F381010229FAD17047EF
:10D11000001002400020024000F0FEFF4406010023
:10D1200070B5124E002504460020401CC0B20228F3
:10D13000FBD302213046FFF790F9E0074FF00801DA
:10D14000304602D0FFF78BF901E0FFF786F90020A7
:10D15000401CC0B20228FBD302213046FFF77FF902
:10D160006D1C6408EDB2082DDED370BD00100140C7
:10D1700070B504460B4D80074FF08001284602D55C
:10D18000FFF76DF901E0FFF768F9E0074FF04001A4
:10D19000284603D0BDE87040FFF761B9BDE8704094
:10D1A000FFF75BB9000C0140144810B5016841F06D
:10D1B000010101604168124A114041600168114A51
:10D1C00011400160016821F480210160416821F46F
:10D1D000FE014160016821F0A05101604FF47F0120
:10D1E00081600021C1624FF41F018160FFF73CFFA5
:10D1F00005494FF00060086010BD000000100240BB
:10D200000000FFF0FFFFF6FE08ED00E030B5048CF3
:10D2100024F001040484058B048C1B0542EA1343AB
:10D2200025F0F3050E4A2B4390420ED00D4A904252
:10D230000BD0B0F1804F08D00B4A904205D00B4A7A
:10D24000904202D00A4A904202D124F0020201E048
:10D2500024F00A020A4342F001010383018430BD35
:10D26000002C014000340140000400400008004050
:10D27000000C004070B5048C24F010040484068B6C
:10D28000048C26F473461B0746EA1343120643EA4E
:10D2900012420D05104B2D0C98420ED00F4B9842A8
:10D2A0000BD0B0F1804F08D00D4B984205D00D4BFC
:10D2B000984202D00C4B984205D124F0200129431A
:10D2C00041F0100104E024F0A0030B4343F01001EF
:10D2D0000283018470BD0000002C01400034014035
:10D2E0000004004000080040000C004000F0D0BAEC
:10D2F00070B53A4D0121284600F0B6F8384CA0B17F
:10D300002078010611D520F010002070010702D10D
:10D3100040F040002070C0B200F00F010E2901D291
:10D32000401C01E000F0700020700821284600F049
:10D330009BF888B32B48006858B10221284600F0BA
:10D3400039F90021284600F03CF9207840F010001F
:10D350003DE0284600F086F8A0800021284600F035
:10D3600029F92178C8062FD50806A0884FF4F9724C
:10D3700020D5A0F22D13934202D8A068400009E006
:10D38000A0F279534FF4C772934206D8A0684000C8
:10D3900040F00100A06017E01AE0A0F6990090426A
:10D3A00012D86078401C607001F0F00020700120FD
:10D3B000A07009E0A0F580506938904204D841F08F
:10D3C0008000207000206070207820F01000207015
:10D3D0002846BDE87040092100F034B80004004040
:10D3E000FC0700202001224210B50F4C01212046ED
:10D3F00000F03AF8002815D00C4A1068B0F57A7F92
:10D4000001D900201060411C1160C80707D001F04D
:10D4100065FB2046BDE81040012100F016B801F080
:10D4200055FBF6E710BD0000000C0040DC000020BA
:10D430000029018802D041F0800101E021F0800143
:10D4400001807047C94301827047C9430182704718
:10D450000029018802D041F0010101E021F0010121
:10D4600001807047808F7047038A002280890B42B9
:10D4700000EA010001D000B101221046704700000F
:10D480002DE9F05F0D4604460E884148DFF804C1DF
:10D49000DFF804A1DFF804E14988AA882B894FF05E
:10D4A000804B3EB3042E2ED0082E268C34D026F48A
:10D4B00080562684B4F81C90268C0F074FEA174834
:10D4C000120629F473471B0747EA124242EA134344
:10D4D00084420AD0644508D05C4506D0544504D047
:10D4E000744502D02E48844244D126F4005040EACC
:10D4F000080042E02046FFF789FEE9882046BDE8A3
:10D50000F05F00F060B82046FFF7B4FEE9882046DF
:10D51000BDE8F05F00F05FB826F480762684A78B24
:10D52000268C1B0527F0F30742EA13434FEA0168F4
:10D530003B434FEA184884420AD0644508D05C4512
:10D5400006D0544504D0744502D01548844204D115
:10D5500026F4007040EA080002E026F42060084348
:10D5600040F48070A3832084E9882046BDE8F05F02
:10D5700000F03AB826F40240084340F48050A383F8
:10D580002084E9882046BDE8F05F00F035B800004F
:10D59000002C01400034014000040040000800401D
:10D5A000000C0040002A828901D00A4300E08A432F
:10D5B00082817047028C22F4007242EA01210184C8
:10D5C000704781847047028B22F00C020283028B29
:10D5D0000A4302837047028B22F440620283028B6B
:10D5E00042EA012202837047828B22F00C0282837E
:10D5F000828B0A4382837047828B22F4406282834B
:10D60000828B42EA012282837047000030B5028893
:10D610001B4B1C4C98420DD0A0420BD0B0F1804F58
:10D6200008D0194DA84205D0184DA84202D0184D77
:10D63000A84203D122F070054A882A43154DA8421A
:10D6400006D0154DA84203D022F44075CA882A435B
:10D6500002808A8882850A88028598420AD0A04280
:10D6600008D00E4A904205D00D4A904202D00D4A91
:10D67000904201D1097A01860121818230BD0000EA
:10D68000002C01400034014000040040000800402C
:10D69000000C004000100040001400400040014019
:10D6A0000044014000480140042001F073BF022003
:10D6B00001F070BF0A0A01219140C94301807047FF
:10D6C0000029818902D041F4005101E021F4005188
:10D6D000818170470246002012880A4200D0012052
:10D6E000704710B5C1F3421301F01F040121A1409E
:10D6F000012B07D0022B07D01430002A026805D076
:10D700000A4304E00C30F8E71030F6E78A43026081
:10D7100010BD000030B50446008A85B00D464CF6B9
:10D72000FF710840E98801432182A1894EF6F31078
:10D730000140A8882A8910436A890A431043A081BE
:10D74000A08A4FF6FF410840A9890143A18268469B
:10D75000FFF7BAF91B48844201D1039800E0029810
:10D76000A1890904002900EBC00101EB0010296820
:10D7700002DA4FEA410101E04FEA8101B0FBF1F02A
:10D780006422B0FBF2F14FEA01114FEA11136FF07E
:10D7900018056B4300EB8300A3891D044FF032038F
:10D7A00006D503EBC000B0FBF2F000F0070005E087
:10D7B00003EB0010B0FBF2F000F00F0008432081F3
:10D7C00005B030BD003801408088C0F308007047C4
:10D7D0000121C0F81013002070470021C0F8101379
:10D7E0000846704738B505460024002000902846BA
:10D7F00000F0A6F8002847D0284600F0A9F80090CD
:10D80000009808B9002038BD0098C0F3C00018B1D6
:10D81000284600F08BFF04430098C0F3001018B1B5
:10D82000284600F0E4FE04430098C0F3401018B10D
:10D83000284600F022FD04430098C0F3806018B130
:10D84000284600F03FFE04430098C0F3406018B142
:10D85000284600F0EAF804430098C0F3006018B1CD
:10D86000284600F09FFD04430098C0F3407018B1B3
:10D87000284600F0A1F804430098C0F3405018B1C6
:10D88000284600F0AFF804432046BCE7002070476C
:10D8900010B501218C072046FFF7E6FD002809D0CE
:10D8A00001212046FFF7D1FD0649086818B1086834
:10D8B000401E086010BD2046BDE810400021FFF763
:10D8C000C7BD0000000000200121FEF7C3BC10B559
:10D8D00000EB8100002350F8901F4FF0004201241C
:10D8E00064F3DC420A610068016821F0804141F084
:10D8F00000410160184610BD10B500EB8101002207
:10D90000D1F89030196841F0404111F4402F09D00E
:10D91000C1F38144022C05D04069006910F47F0FE7
:10D9200003D004E0C068C06AF8E721F00041196044
:10D93000104610BD4269106861F301001060704725
:10D94000C068406900F00100012800D00020704745
:10D95000C0684169806908407047D0F8CC00006811
:10D9600020F02E007047406940697047034610B5AB
:10D9700008460021D21C9208D3F8D03003E01C687E
:10D9800040F8044B491C9142F9D310BD70B50446D0
:10D99000FFF7E3FF40F4807554F8CC0F05600A20D0
:10D9A000FFF792FF216825F4807008601420FFF7CC
:10D9B0008BFF012070BD000038B5044600200090A8
:10D9C00007480068816820468847009820F000508A
:10D9D00000F1005000900098E1684861012038BDD6
:10D9E000140800200CB50146D1F8900000680090A2
:10D9F000009820F0004000F100400090009820F0D6
:10DA0000804000F180400090009AD1F890000260C0
:10DA100000200190019820F4001000F50010019002
:10DA20000198CA68506101200CBD7CB505460024F0
:10DA300000262846FFF797FF019000BF1BE00198E2
:10DA400080B20121A140084214D005F1900050F8A5
:10DA50002400006800900098C0F3C03028B121462F
:10DA6000284600F00DF8064304E02146284600F061
:10DA70001CFA0643641C2878A042E0D830467CBDDE
:10DA800070B586B005460C4605F1900050F824604C
:10DA9000B0680590F0680490DDE904100840059036
:10DAA00005F1900050F824000068039000200490D5
:10DAB0000598C0F38000D0B100200190019820F0BB
:10DAC0000400001D01900198B06005F1900050F82D
:10DAD0002400C0680190019820F00200801C019091
:10DAE00005F1900050F824000199C16073E0059899
:10DAF000C0F3401048B100200190019820F02000B0
:10DB0000203001900198B06065E00598C0F3C00036
:10DB100078B305F1900050F82400C0680190019896
:10DB200020F00200801C019005F1900050F82400C4
:10DB30000199C160052105F5637001550020019030
:10DB4000019820F01000103001900198B060002082
:10DB50000190019820F00800083001900198B06011
:10DB6000059820F010000590E1B22846FFF7C4FEAA
:10DB700031E0FFE70598C0F3802060B305F1900025
:10DB800050F82400C0680190019820F00200801C29
:10DB9000019005F1900050F824000199C160E1B2B4
:10DBA0002846FFF7A9FE00200190019820F0100000
:10DBB000103001900198B060082105F5637001559F
:10DBC00000200190019820F4806000F580600190B1
:10DBD0000198B06000BF0598C0F34020F8B105F18E
:10DBE000900050F82400C0680190019820F00200D5
:10DBF000801C019005F1900050F824000199C1604B
:10DC0000E1B22846FFF778FE00200190019820F449
:10DC1000007000F5007001900198B06042E1059835
:10DC2000C0F30000002871D0E878012812D105F176
:10DC3000900050F824000069029005F56B7000EB2D
:10DC4000441000690299C1F31201411A05F554709C
:10DC500040F82410012105F5637001550021783842
:10DC600040F8241000200190019820F00100401C91
:10DC700001900198B0600398C0F3814020B10398EF
:10DC8000C0F3814002282AD105F1900050F8240009
:10DC9000C0680190019820F00200801C019005F1FD
:10DCA000900050F824000199C160E1B22846FFF7C6
:10DCB00023FE00200190019820F010001030019008
:10DCC0000198B06005F56B7000EB4410007E80F0A9
:10DCD000010105F56B7000EB44100176E2E003985A
:10DCE000C0F38140032899D1039820F0005000F13F
:10DCF0000050039005F1900050F824000399016052
:10DD0000012105F29B300155CCE0FFE70598C0F3F7
:10DD10004000002851D005F1900050F82400C06860
:10DD20000190019820F00200019005F1900050F858
:10DD300024000199C16005F56370005D012804D1DC
:10DD4000012105F29B3001552DE005F56370005D62
:10DD5000052804D1042105F29B30015523E005F587
:10DD60006370005D062804D005F56370005D082827
:10DD700008D1002105F5457040F8241003218730B3
:10DD8000015510E00398C0F3814003280BD105F53D
:10DD90006B7000EB4410007E80F0010105F56B70A4
:10DDA00000EB4410017600200190019820F0020061
:10DDB000801C01900198B06074E00598C0F3C01019
:10DDC00040B305F1900050F82400C068019001981C
:10DDD00020F00200801C019005F1900050F8240012
:10DDE0000199C16005F5457050F82410491C40F8B0
:10DDF0002410062178300155E1B22846FFF77CFD5A
:10DE000000200190019820F080008030019001985E
:10DE1000B06047E00598C0F30010E8B30398C0F382
:10DE20008140032815D105F1900050F82400C06806
:10DE30000190019820F00200801C019005F19000F3
:10DE400050F824000199C160E1B22846FFF754FD63
:10DE500018E00398C0F3814020B10398C0F38140DB
:10DE600002280FD1039820F0004000F100400390F9
:10DE7000039820F08040039005F1900050F82400B2
:10DE800003990160032105F563700155002001909D
:10DE9000019820F0100000E004E01030019001989B
:10DEA000B06000BF012006B070BD7FB505460C46CE
:10DEB00005F1900050F82460B0680390F06802907B
:10DEC000DDE902100840039005F1900050F82400AD
:10DED000006801900398C0F38000D0B1002000904A
:10DEE000009820F00400001D00900098B06005F13B
:10DEF000900050F82400C0680090009820F00200C4
:10DF0000801C009005F1900050F824000099C16039
:10DF1000B0E10398C0F3401048B100200090009891
:10DF200020F02000203000900098B060A2E103981B
:10DF3000C0F34020F8B105F1900050F82400C0680B
:10DF40000090009820F00200801C009005F19000E5
:10DF500050F824000099C160E1B22846FFF7CCFCDC
:10DF600000200090009820F4007000F500700090F0
:10DF70000098B0607EE10398C0F3000038B3002140
:10DF800005F5457040F8241005F1900050F8240084
:10DF9000C0680090009820F00200801C009005F1FD
:10DFA000900050F824000099C160E1B22846FFF7C4
:10DFB000A3FC00200090009820F00100401C00907D
:10DFC0000098B060012105F56370015552E1039896
:10DFD000C0F3C00010B300200090009820F00800AB
:10DFE000083000900098B06005F1900050F82400CF
:10DFF000C0680090009820F00200801C009005F19D
:10E00000900050F824000099C160E1B22846FFF763
:10E0100073FC052105F5637001552BE10398C0F3EE
:10E02000001038B3002105F5457040F8241005F1C3
:10E03000900050F82400C0680090009820F0020082
:10E04000801C009005F1900050F824000099C160F8
:10E05000E1B22846FFF750FC00200090009820F025
:10E060001000103000900098B060032105F5637037
:10E070000155FFE00398C0F3C01040B305F19000D4
:10E0800050F82400C0680090009820F00200801C26
:10E09000009005F1900050F824000099C160E1B2B1
:10E0A0002846FFF729FC05F5457050F82410491C57
:10E0B00040F8241006217830015500200090009887
:10E0C00020F08000803000900098B060D2E003988B
:10E0D000C0F3801038B3002105F5457040F82410D6
:10E0E00005F1900050F82400C0680090009820F0DE
:10E0F0000200801C009005F1900050F82400009967
:10E10000C160E1B22846FFF7F7FB002000900098BD
:10E1100020F04000403000900098B060042105F5E8
:10E1200063700155A6E00398C0F3802060B305F149
:10E13000900050F82400C0680090009820F0020081
:10E14000801C009005F1900050F824000099C160F7
:10E15000E1B22846FFF7D0FB00200090009820F0A5
:10E160001000103000900098B060082105F5637031
:10E17000015500200090009820F4806000F5806038
:10E1800000900098B06075E00398C0F3400000284C
:10E1900070D005F1900050F82400C06800900098FD
:10E1A00020F00200009005F1900050F82400009942
:10E1B000C16005F56370005D012815D1012105F2EC
:10E1C0009B3001550198C0F38140022848D105F5E4
:10E1D0006B7000EB4410407E80F0010105F56B7020
:10E1E00000EB441041763BE005F56370005D0328C9
:10E1F00004D1022105F29B30015531E005F5637031
:10E20000005D04280FD105F56B7000EB4410007918
:10E21000012803D1E1B22846FFF759FB022105F29C
:10E220009B3001551CE005F56370005D052804D1A5
:10E23000042105F29B30015512E005F56370005D85
:10E2400006280DD105F5457050F82400032807D1A4
:10E25000032105F29B3001550021873840F8241036
:10E2600000200090009820F00200801C0090009890
:10E27000B06000BF012004B070BD7FB50446E06807
:10E28000C06A00900198C0F3C30104F56B7000EB05
:10E2900041100069C01CC0F38F0671E00098800433
:10E2A000050C0198C0F3C30104F56B7000EB41103D
:10E2B0000069A84215D20198C0F3C30104F56B7040
:10E2C00000EB4110006985B200200390039820F014
:10E2D000200020300390E068806903998843E1685A
:10E2E00088610198C0F3C30104F56B7000EB411025
:10E2F0000069C01CC0F38F060198C0F3C302C0F3CD
:10E30000C30304F56B7000EB43102B46C168204635
:10E3100000F022FA0198C0F3C30104F56B7000EB22
:10E320004110C06841190198C0F3C30204F56B7035
:10E3300000EB4210C1600198C0F3C30104F56B709B
:10E3400000EB41100069411B0198C0F3C30204F5C2
:10E350006B7000EB421001610198C0F3C30104F53A
:10E360006B7000EB4110406941190198C0F3C30282
:10E3700004F56B7000EB42104161E068C06A0090E8
:10E38000009880B2B0420ADD0198C0F3C30104F5E1
:10E390006B7000EB4110006900287FF47FAF012013
:10E3A00004B070BDFEB50446002600250020009094
:10E3B00002900190D4F8CC0000680290D4F8CC0010
:10E3C00000680190019820F004000190019820F06D
:10E3D00002000190019820F008000190019820F0BF
:10E3E000200001900298C0F3400058B1019820F03D
:10E3F0000200801C0190324800684168204688472E
:10E4000045F001050298C0F3C000002842D00198F1
:10E4100020F00800083001900298C0F38000012825
:10E4200038D1274800684168204688470298C0F3E1
:10E430004140022804D00298C0F34140012828D16D
:10E440006069006800900298C0F34140022811D131
:10E4500041F27071606941600098C0F301000228C8
:10E4600018D0207A022803D102212046FFF762FA51
:10E4700001260FE04BF68031606941600098C0F3DF
:10E480000100012806D001212046FFF753FA01269A
:10E4900000E001260298C0F3401030B1019820F04E
:10E4A00020002030019045F0010516B12046FFF70D
:10E4B0006DFA0199D4F8CC0001602846FEBD000039
:10E4C00014080020FEB504466069006900900198B8
:10E4D000C0F3C30104F56B7000EB41100069C01C70
:10E4E000C0F38F0672E000988004050C0198C0F319
:10E4F000C30104F56B7000EB41100069A84216D20D
:10E500000198C0F3C30104F56B7000EB4110006982
:10E5100085B200200290029820F0806000F18060B7
:10E520000290E068806902998843E16888610198F7
:10E53000C0F3C30104F56B7000EB41100069C01C0F
:10E54000C0F38F060198C0F3C302C0F3C30304F500
:10E550006B7000EB43102B46C168204600F0FCF8BE
:10E560000198C0F3C30104F56B7000EB4110C06863
:10E5700041190198C0F3C30204F56B7000EB42101F
:10E58000C1600198C0F3C30104F56B7000EB41104A
:10E590000069411B0198C0F3C30204F56B7000EBE6
:10E5A000421001610198C0F3C30104F56B7000EBE8
:10E5B0004110406941190198C0F3C30204F56B7022
:10E5C00000EB42104161606900690090009880B2E0
:10E5D000B0420ADD0198C0F3C30104F56B7000EB93
:10E5E0004110006900287FF47EAF0120FEBD7FB599
:10E5F0000446002500200290029820F01000103000
:10E600000290E068806902998843E1688861E06867
:10E61000006A03900398C0F3030504F1900050F8DA
:10E620002500006800900398C0F34340022806D0FC
:10E63000032869D0052868D0072864D166E00398CC
:10E64000C0F30A1000285DDD04F56B7000EB451087
:10E65000C068002856D00398C0F30A1204F56B7006
:10E6600000EB4510C1682046FFF780F90398C0F31E
:10E67000030104F56B7000EB4110C0680399C1F30E
:10E680000A1101440398C0F3030204F56B7000EB18
:10E690004210C1600398C0F3030104F56B7000EBF6
:10E6A000411040690399C1F30A1101440398C0F372
:10E6B000030204F56B7000EB4210416104F56B70CE
:10E6C00000EB4510466904F5547040F8256004F1EC
:10E6D000900050F82500006901900198C0F3C940EE
:10E6E00000280FDD009820F0004000F1004000906D
:10E6F000009820F08040009004F1900050F8250030
:10E700000099016003E000BF00BF00BF00BF00BF71
:10E71000029820F0100010300290E06880690299A1
:10E720000843E1688861012004B070BD38B5044633
:10E73000002000900748006801682046884700983C
:10E7400020F00800083000900098E168486101203E
:10E7500038BD00001408002030B5C47800256CB91D
:10E7600000EB82000024DB1C9B08D0F8D00003E003
:10E7700051F8042B0260641C9C42F9D3284630BD3A
:10E78000FEE7000010B5084C10212046FDF765FE9D
:10E790000420FEF773FA10212046FDF760FEBDE865
:10E7A0001040FDF7A1BD00000008014010B5074C66
:10E7B00010212046FDF751FE0620FEF75FFA2046A5
:10E7C000BDE810401021FDF74ABE000000080140DE
:10E7D00010B50F4C10212046FDF73FFE5020FEF7EC
:10E7E0004DFA10212046FDF73AFE10212046FDF794
:10E7F00034FE0120FEF742FA0020FEF73FFA102116
:10E800002046FDF72CFEBDE81040FDF76DBD000071
:10E81000000801400149002008607047082C0040B2
:10E82000024940F08000086070470000002C004062
:10E830000149012008607047A480054210B5124CC0
:10E840006078401CC0B26070C82801D90020607098
:10E850000E4800680D4900F07F00091F096801F0AB
:10E860007F0181420FD2207800F012F8FFF7D2FF2B
:10E870006078C00703D0BDE8104000F073B8BDE871
:10E88000104000F069B810BDFA070020042C0040C9
:10E89000024900F07F00086070470000002C004033
:10E8A000034A116821F4C0710143116070470000F0
:10E8B000042C004004490A6800F07F0022F07F0227
:10E8C0001043086070470000042C004002E008C8B4
:10E8D000121F08C1002AFAD170477047002001E0DA
:10E8E00001C1121F002AFBD17047F0B500231C465E
:10E8F000CD5C5B1CDBB2002DFAD1055D641CE4B27B
:10E90000002DFAD1AC4693420BD9CD181F190F44F4
:10E9100015F8016C07F8026C5B1E05F801CCDBB240
:10E92000F1E70023641E04E0C55CD6185B1C8D551E
:10E93000DBB2A342F8DBF0BD10B5064C2078000135
:10E94000103000F059FB20612078800000F054FB6B
:10E95000606110BD0400002020210148FDF77DBD4D
:10E96000000C014020210148FDF779BD000C014059
:10E9700010B5D5211C4A0020135C401C1944C0B2BC
:10E98000C9B27828F8D3401CC0B2105C884220D1AC
:10E9900092F832005E2809D00020144C61783029AA
:10E9A00006D0312907D032290AD107E00120F4E747
:10E9B00000F09CF804E000F055FB01E000F0E6FCFC
:10E9C0002079402240F00100207109499001FEF7B2
:10E9D000C3F97E210448FDF7F0FB05484021BDE85E
:10E9E00010404030FDF7E9BB00100020040000207B
:10E9F0003408002042F2283148434FF0E0214861BA
:10EA00000020886101220A610A69D30701D0D2037C
:10EA1000FAD508618861704770B590B0054600244A
:10EA200040216846FDF7C9FBA326254B254A16E081
:10EA3000A1F130000A2805D311381A2802D3203852
:10EA40001A2807D21655641CE0B280311154401CBC
:10EA5000C4B202E01155641CE4B26D1CEDB2595D04
:10EA60002029E5D11848174D0078403D84421ED832
:10EA7000001BC1B200206E46202202E03254401C2E
:10EA8000C0B28842FAD3E0070FD0012000EB510258
:10EA900031460C48FFF729FF0020315C2954401C07
:10EAA000C0B24028F9D310B070BD4A08F0E700208A
:10EAB000115C2954401CC0B24028F9D3F3E7000090
:10EAC0000010002074080020040000204FF4807122
:10EAD0000148FDF7C2BC0000000801404FF48071FE
:10EAE0000148FDF7BCBC000000080140F0B591B042
:10EAF0000546002440216846FDF75FFBA3222E490E
:10EB00004FF0010CAA262DB90A70A1204E70887012
:10EB1000C87004243223294D16E000BFA0F130074D
:10EB20000A2F05D3113F1A2F02D3203F1A2F04D2E8
:10EB30000A55641CE4B2803001E05E2815D0085507
:10EB4000641CE4B25B1CDBB2E85C072801D02D2812
:10EB5000E4D11B48184D0078403D844224D8001B66
:10EB6000C1B200206E46202209E00A55641CE0B2C2
:10EB70000E54401CC4B2E5E73254401CC0B2884277
:10EB8000FAD3E0070ED00CEB510231460A48FFF7EA
:10EB9000ACFE0020315C2954401CC0B24028F9D39F
:10EBA00011B0F0BD4A08F0E700200A5C2A54401C6E
:10EBB000C0B24028F9D3F3E7740800200010002009
:10EBC0000400002010B54FF480510348FDF73EFCCF
:10EBD000002800D0012010BD000C014010B590B0FD
:10EBE00040216846FDF7E9FA0024402269462046A4
:10EBF000FEF786F89DF80000002826D09DF8011049
:10EC0000002922D0FF2820D0FF291ED09DF8022005
:10EC10000A2A1AD19DF803200D2A16D1421E082A6D
:10EC200003D800BF60F3070405E0A0F11002092A31
:10EC300001D8801FF6E7064862003029027003D031
:10EC4000312901D0322900D1417010B010BD00002F
:10EC5000040000202DE9F047002440214148FDF741
:10EC6000ACFA00F08FF8404D002851D040F2FF4040
:10EC7000E8602879800706D5012000F099FA287904
:10EC800020F00200287100F071F8364F4FF00008B4
:10EC90004FF001092026C8B3287940F001002871FF
:10ECA000400706D5022000F083FA287920F00400FE
:10ECB000287100F0EBF850B3287940F0010028717A
:10ECC000000706D5032000F073FA287920F0080029
:10ECD0002871FFF777FF70B3287940F001002871A1
:10ECE000C00726D01F488038015D21B13955641C0A
:10ECF000E4B2402CF8D32878844217D938193E550D
:10ED000046708670C67085F8038011E003E013E05A
:10ED100040F6FF60ACE714491831085D0028EAD0DE
:10ED20003855641CE4B2402CF7D3E4E785F803902F
:10ED30000020BDE8F0870AE00B485830015D00294B
:10ED4000D9D03955641CE4B2402CF7D3D3E7064838
:10ED50009830015D0029CED03955641CE4B2402CB6
:10ED6000F7D3C8E7B40800200400002010B5202124
:10ED70000348FDF76BFB002800D0012010BD000008
:10ED80000010014010B580210348FDF75FFB00280B
:10ED900000D0012010BD0000001001402DE9F0411D
:10EDA0004022002426499001FDF7AAFF244E0127A6
:10EDB000244D3078FF280ED07078FF280BD096F8BD
:10EDC0003F00FF2807D0687830282AD031281DD08E
:10EDD000322832D127E040211948FDF7EEF9287892
:10EDE0000838C0B2202102E03155641CE4B28442EC
:10EDF000FAD36978302904D0312902D0322910D1D0
:10EE00000AE042080E49A868FFF76FFD0C490C485C
:10EE1000C03100F019F804E042080949A868FFF77A
:10EE200064FDEF7009E0305D641CE4B20028FAD1A3
:10EE300028788442F5D90020E870AF70BDE8F081F1
:10EE40003408002004000020F0B50022144619E028
:10EE5000202B15D0521CD2B2865C06EB0325ADB236
:10EE6000A5F52347AA3F0BD0A5F52147A13F07D021
:10EE7000583F05D00B55641CE3B2CE545B1CDCB28A
:10EE8000521CD2B2835C002BE2D1F0BD10B5102130
:10EE90000348FDF7DBFA002800D0012010BD000078
:10EEA00000100140F8B501211C20FDF701FE4FF4D0
:10EEB0008170ADF8000010248DF8034003258DF813
:10EEC000025069461E48FDF743FA4FF48460ADF8DE
:10EED00000001C4E8DF803408DF802506946304604
:10EEE000FDF736FA2002ADF80000174F8DF8034009
:10EEF0008DF8025069463846FDF72AFA4FF47070D3
:10EF0000ADF800008DF803408DF802506946304698
:10EF1000FDF71EFA0F20ADF800008DF803408DF8C4
:10EF2000025069463846FDF713FA8020ADF800001C
:10EF300004208DF8030069463846FDF709FAF8BD4C
:10EF400000080140000C0140001001404FF4404116
:10EF50004FF00060FDF78EFDFFF7A4FFFFF7FCFC0C
:10EF6000FFF7BCFD00F00CFA4FF480611D48FDF77F
:10EF700076FA00F0A5F94FF480511B48FDF76DFAC1
:10EF80004FF4165000F074FA0120FFF733FDFDF73F
:10EF90001FFEFFF723FEFFF701FF144C207940F01E
:10EFA0000F002071FFF7C8FC4FF4C0725F217F2073
:10EFB00000F070FB01260E4D0027287818B12F7045
:10EFC000FFF7D6FCA670FFF745FEE078094A002857
:10EFD0004FF00101084602D0FDF754FAEDE7FDF7C6
:10EFE00075FBEAE7000C014000100140040000201E
:10EFF000E0000020B4080020F0B50B30154F20F0E1
:10F0000007010026144A0FE003688B420BD38B42A2
:10F0100005D95C1A43184568C3E9004500E0436818
:10F02000136002C004E0021D10680028ECD13046D5
:10F03000002802D1386808B10020F0BD064A074810
:10F040001060074A121A22F00702C0E900260120C8
:10F050003860D7E7300800202C080020D4110020A9
:10F06000D01300202DE9F04796B00746002426462D
:10F0700040216846FDF7A1F8142110A8FDF79DF87E
:10F08000484D4FF0010AA3234FF0AA0937B92B705E
:10F09000A12085F80190A870E87004243221424A2A
:10F0A0002EE0802816D9491CC9B212F8018008EB5D
:10F0B0000027BFB2A7F53F4CBCF1D50C1ED0A7F579
:10F0C000354CBCF1F70C19D02855641CE0B205F89A
:10F0D000008042E0A0F130070A2F05D3113F1A2F1C
:10F0E00002D3203F1A2F04D22B55641CE4B2803087
:10F0F00001E05E282CD02855641CE4B2491CC9B23A
:10F10000505C072801D02D28CBD110A92548FFF746
:10F110009BFE2449002010AB80311A5C0F5C9742A3
:10F1200001D00A540126401CC0B21428F5D31F4850
:10F130001EB1017941F00E0101711A4E0078403E76
:10F14000844226D8001BC1B200206D4620220AE06E
:10F150002B55641CE0B205F80090401CC4B2CDE70A
:10F160002A54401CC0B28842FAD3E0070FD00AEB01
:10F17000510229460B48FFF7B8FB0020295C3154A7
:10F18000401CC0B24028F9D316B0BDE8F0874A0849
:10F19000EFE70020295C3154401CC0B24028F9D36D
:10F1A000F2E7000074080020001000200400002096
:10F1B0002DE9F0430026B9B00446B046354637463F
:10F1C000202130A8FCF7F9FF382102A8FCF7F5FF51
:10F1D000DFF8E090D9E90010CDE90010382112A83D
:10F1E000FCF7EBFFD9E90210CDE91010382122A875
:10F1F000FCF7E3FFD9E90410CDE920102E48415D6A
:10F200006D1CEDB20029FAD16D1EE8B274B1012C6B
:10F2100004D0022C06D0032C08D110E008276E463B
:10F22000022102E0082710AE06218846234909780A
:10F23000C91B814207DA424631461F4816E00627BD
:10F2400020AE0021F1E7081AC1B2002030AA202325
:10F2500002E01354401CC0B28842FAD34A0830A9D5
:10F260001548FFF742FB4246314630A8FFF73DFB09
:10F270001248002118306A4610AB00F140050DF12C
:10F28000800C00F18007012C04D0022C05D0032C47
:10F2900006D008E0565C465405E05E5C6E5402E021
:10F2A0001CF801607E54491CC9B24029EBD339B027
:10F2B000BDE8F083F8F60008F40800200400002000
:10F2C000F0B589B001211120FDF7F2FB01210220E8
:10F2D000FDF7E2FB01212748FDF78CF84FF480741D
:10F2E000ADF81C4028208DF81F00234E03258DF813
:10F2F0001E5007A93046FDF72BF821463046FDF792
:10F30000AEF842F21070ADF810004720ADF80C00D6
:10F3100000241A4FADF81240ADF80E4003A938464C
:10F32000FEF774F90820ADF800000126ADF804607E
:10F33000ADF80240ADF80640ADF8085069463846D1
:10F34000FEF79EF801213846FEF782F81D208DF861
:10F3500018008DF819608DF81A508DF81B6006A8FA
:10F36000FDF74CFB012209213846FEF71BF909B0D5
:10F37000F0BD0000000C1A00001001400004004025
:10F3800002210148FDF769B800080140322009490F
:10F3900004E00A5C072A07D03E2A07D0020000F1E9
:10F3A0000100C0B2F5D1704700F006B83220FFF777
:10F3B00033BB00000010002070B590B0054600245B
:10F3C00040216846FCF7F9FE6D1CEAB2A326254DE4
:10F3D000254916E0A0F130030A2B05D3113B1A2B67
:10F3E00002D3203B1A2B07D20E55641CE3B28030A7
:10F3F000C8545B1CDCB202E00855641CE4B2521C29
:10F40000D2B2A85C2628E5D11848174D0078403DB7
:10F4100084421ED8001BC1B200206E46202202E0AA
:10F420003254401CC0B28842FAD3E0070FD001200A
:10F4300000EB510231460C48FFF757FA0020315CCF
:10F440002954401CC0B24028F9D310B070BD4A08FE
:10F45000F0E700200A5C2A54401CC0B24028F9D3CF
:10F46000F3E70000001000207408002004000020D2
:10F470002DE9F043814687B04FF4E060FDF7F0FAE4
:10F4800026208DF8140000248DF8154001258DF8F4
:10F4900016508DF8175005A8FDF7B0FA4FF4C0606C
:10F4A000FDF7DEFA34208DF814008DF815508DF834
:10F4B00016508DF8175005A8FDF7A0FA01214FF45A
:10F4C0002020FDF7E9FA01210846FDF7F1FA0425AD
:10F4D000ADF800500326DFF8AC808DF802601827E5
:10F4E0008DF8037069464046FCF732FF0820ADF8FE
:10F4F00000008DF8035069464046FCF729FF2802BA
:10F50000ADF800008DF802601F4E8DF8037069465B
:10F510003046FCF71DFF6802ADF800008DF803507F
:10F5200069463046FCF714FFADF80840ADF80A40D4
:10F53000ADF80C40ADF810400C20144CADF80E00A6
:10F54000CDF8049001A92046FEF7E4F8104D01A97A
:10F550002846FEF7DFF801212046FEF7B1F8012129
:10F560002846FEF7ADF840F22556012231462046E6
:10F57000FEF7B7F8012231462846FEF7B2F807B089
:10F58000BDE8F08300080140001001400044004045
:10F59000004C004070B5384D384C022802D0042889
:10F5A00014D102E02021364E01E0364E20213046B3
:10F5B000FEF790F850B120213046FEF77BF8304638
:10F5C000FEF702F9A1886854491CA180287800211F
:10F5D000A5282AD1A088032828D96A78982A0ED08D
:10F5E0002A18294D12F8013CE288AB54521C92B201
:10F5F000E280332A1AD1362818D1E18015E0AA78A2
:10F60000982A14D0882A22D0782A0FD12A181E4D81
:10F6100012F8013CE278A63DAB54521CD2B2E27023
:10F62000A22A03D1A52801D1E170A18070BD2A18BA
:10F63000114D12F8013C6278C835AB54521CD2B25D
:10F6400062707A2AF2D17D28F0D16170EDE72A1834
:10F650000E4D12F8013CA278AB54521CD2B2A270EB
:10F66000662AE3D16928E1D10948A170A18001701F
:10F670000120207070BD0000380F0020E000002045
:10F6800000440040004C00408E1100207E100020FD
:10F6900006000020F8B50E46054601211746C802AF
:10F6A000FDF7FAF9134C2078054025703846FFF72E
:10F6B000F7F83046FFF7FEF82078FFF7E9F82078F2
:10F6C000FFF7AEF84FF4A060FDF7CAF900208DF8FF
:10F6D000000002208DF8010003208DF802000120B7
:10F6E0008DF803006846FDF789F9FFF793F8FFF7F7
:10F6F0009FF8F8BDFA070020A1FBD7F3D7AACDE405
:10F70000D3D2D7AACDE4A1FAC9B2B3B5A3A1000060
:10F71000BBB6D3ADB3CBD7F8000000003CF7000870
:10F720000000002034080000F8C1000844FB000875
:10F73000340800209C0F0000DCE800084163103012
:10F740001310F7A408FF04000938A1FBD7F3D7AAC8
:10F75000CDE42BD3D23E0338A1FA075AC9B2B3B5D0
:10F76000A3A14A100121331818E5123624482808AD
:10F77000242424FE48484804392F280C3854545077
:10F78000301814145454383611500C44A4A8A8A8A6
:10F79000541A2A2A2A441A30293008506EA4948810
:10F7A0008976C5606020C04D0204080871250808EC
:10F7B00004022B40200A29015D10102040913DD603
:10F7C0003838D65C79A14AFEA3D1895B1AFF0101C2
:10F7D000124360603D01020204743C202040604CF2
:10F7E000182442012A24F0195F4A70905410107CAA
:10F7F0001A3C1B19326D1020427E10500904180467
:10F800000202424438500C040C14242444447E0464
:10F81000041E8F7E4040405864202B1C24108960B9
:10F820006C7E4444F379603A2485523C390B4E2671
:10F830001A020224402913393A490649A4490633D9
:10F8400010202A029C874020100804025AFE04312E
:10F85000580F8080C0E0F0F8FCFEFCF8F0E0C080BB
:10F86000701A62346A08501D38445AAA016AB4B04A
:10F87000500C1010182828243C444242E71EF8443B
:10F880004444780E544244F82D3E4242800169308F
:10F890002AF81C29015920B80CFC424848784848ED
:10F8A000404242FC104C4040E0F01B44443E5C8E21
:10F8B0008444402AE73C2A7E0549706B7C10014A4B
:10F8C0007C707A08013388F0500CEE444850705038
:10F8D00048484444EE1AE05A39014A42F31BEE6CA0
:10F8E000012A540152D6580CC7626252524A4A4AFF
:10F8F0004646E2F04A820159802AFC7B2A7C414933
:10F90000A059206EB2CA4C3806202A7C6F4B42E3C5
:10F910009018084242402018040216516BFE92B023
:10F9200099D039016A3C1050094424242828181021
:10F93000101BD692015FAAAA6C44444420480A24B2
:10F9400024181818242442E7C09D44442828503025
:10F950000C7E840408081020204242FC6A1E6D2997
:10F9600001321E1D404020200B100808080404042A
:10F9700002029B7808012278031C1C2212FF4A60B5
:10F9800095F150083C421E2242423F1FC040404079
:10F990005864CF9364581B1C221553221C2D060259
:10F9A00002022E9C42261B40567E4040423C3E0FA7
:10F9B0001110107EAF927C38083E444438403C42DF
:10F9C0002229601B5C62405342E72330309A70303A
:10F9D0001B0C0C7019DD19011A44D1393050084E36
:10F9E0004850684844EE492CC9602BFE490192ED0D
:10F9F0009ADC6049A0290149A0412AD8E0754478E1
:10FA000040E039D075221E02071CEE3220018AF830
:10FA1000C06E42403C024270197A398019A9712A9D
:10FA2000C65F93463B9008E74224242810109008B4
:10FA3000D79292AAAA4444C8086E241818182476AB
:10FA4000306C1810109030087E44081010227E2B65
:10FA50000304013A0806130403DA0801113A608A24
:10FA6000192E290112600410304C436A7E01512383
:10FA7000AAA31201100E03800380610C711C397857
:10FA80000FE00128090FE03D38711C610C160D1EB6
:10FA90000380F9A1221EF89C4410220220190F9E17
:10FAA000812454A45864291425142208C208451836
:10FAB0004924504641844AFB44111207120F1E1F6D
:10FAC000FF3FFF7F021E3FFF1FFF0F121A031A2185
:10FAD0001AFA2211128012C012E01808F0FFF8FF83
:10FAE000FCFFFE0214FCFFF81AF0121AC01A118B68
:10FAF0003E2D221F7FF87FFC7FFE029BFC7F224869
:10FB00000AFDA1012111130204F0FE432847100B46
:10FB1000FE8080F88080FC80808012FEFAFF010168
:10FB200010D27F138DD81408D1D71B08DB0413081B
:10FB3000084620020406082D010203040485060776
:04FB400008090000B0
:040000050800C151DD
:00000001FF
