:020000040800F2
:10C000000021002065C10008AFD0000865C6000807
:10C01000ADD0000885C300085107010800000000EA
:10C020000000000000000000000000009DD5000896
:10C030009BC300080000000049D100087DC1000832
:10C040000D0801087FC100087FC100087FC10008FA
:10C050007FC100087FC100087FC100089DC30008A0
:10C060007FC100087FC100087FC100087FC10008B0
:10C070007FC100087FC100087FC100087FC10008A0
:10C080007FC100087FC100087FC100087FC1000890
:10C090007FC100087FC100087FC100087FC1000880
:10C0A0007FC100087FC100087FC100087FC1000870
:10C0B00005D7000809D700087FC100087FC1000824
:10C0C0007FC100087FC100087FC100087FC1000850
:10C0D0007FC100087FC100087FC100087FC1000840
:10C0E0007FC100087FC100087FC100080000000078
:10C0F0000000000000000000000000000000000040
:10C10000000000000000000001D800087FC1000806
:10C110007FC100087FC100087FC100087FC10008FF
:10C120007FC100087FC100087FC100087FC10008EF
:10C130007FC100087FC100087FC100087FC10008DF
:10C140007FC100087FC100087FC100083DD1000801
:10C15000DFF80CD000F06EF800480047951E01088B
:10C16000002100200648804706480047FEE7FEE71A
:10C17000FEE7FEE7FEE7FEE7FEE7FEE7FEE7FEE797
:10C18000A1D6000851C1000840EA01039B0703D073
:10C1900009E008C9121F08C0042AFAD203E011F806
:10C1A000013B00F8013B521EF9D27047D2B201E0C8
:10C1B00000F8012B491EFBD270470022F6E710B5AC
:10C1C00004460846114602462046FFF7EFFF204688
:10C1D00010BD2DE9F05F0546002092469B4688463B
:10C1E0000646814640241BE02846414647462246F3
:10C1F00000F041F852465B46801A994110D3104630
:10C200001946224600F028F82D1A67EB01084F4620
:10C2100022460120002100F01FF817EB00094E41D3
:10C22000201EA4F10104DFDC484631462A4643467D
:10C23000BDE8F09F064C074D06E0E06840F00103C2
:10C2400094E8070098471034AC42F6D3FFF784FF18
:10C25000B44E0108D44E0108202A04DB203A00FA2B
:10C2600002F1002070479140C2F1200320FA03F34D
:10C27000194390407047202A04DB203A21FA02F04B
:10C280000021704721FA02F3D040C2F12002914010
:10C2900008431946704770B501EB020410F8015BC2
:10C2A00015F0070301D110F8013B2A1106D110F84F
:10C2B000012B03E010F8016B01F8016B5B1EF9D153
:10C2C0002B0705D40023521E0FD401F8013BFAE7D7
:10C2D00010F8013B02F10202A1EB030303E013F8A3
:10C2E000015B01F8015B521EF9D5A142D6D30020B3
:10C2F00070BD000010B5074C2060084600F00CF837
:10C3000020680028FCD1BDE8104000214FF080409B
:10C3100001F0AABA000000203EB504464FF0804567
:10C320000021284601F0A0FA00220121284601F050
:10C33000B2FA022C02D0012C02D005E00B2001E061
:10C3400042F6DF60ADF804000520ADF800000020E3
:10C35000ADF80600ADF802006946284601F0ACFAD7
:10C360000121284601F07DFA0121284601F06CFAEE
:10C3700001221146284601F08EFA0121284601F0DB
:10C3800073FA3EBDFEE7000010B5012002E000BFD9
:10C3900000F01EFFC007FBD110BD704710B5022092
:10C3A00000F016F8002809D00548D0F88000406950
:10C3B0008047BDE81040022000F004B810BD000026
:10C3C000180F002001490860704700001404014064
:10C3D000064A014600201268044B0A4014331B68C9
:10C3E0000B4202D0002A00D0012070470004014017
:10C3F00030B51A498379026853B30B6893430B60D5
:10C400000A1D13680468A343136002790A44136881
:10C41000046823431360114A083213680468A34375
:10C420001360131D1C680568AC431C604479102C14
:10C4300005D021440A68006802430A6030BD1168D3
:10C44000046821431160196800680143196030BD18
:10C450000079084401689143016030BD0004014047
:10C4600010B58A0721F003040649130F21440F2257
:10C470008C689A4094438C608A68984002438A6032
:10C4800010BD0000000001402DE9F041CB780025EF
:10C4900003F00F02DB0601D58B781A430B884FF0AF
:10C4A0000F0813F0FF0F4FF0010C1CD0D0F8004024
:10C4B0000E880CFA05F31E409E4210D1AF0008FA18
:10C4C00007F624EA060602FA07F43443CE78282E4B
:10C4D00002D0482E02D002E0436100E003616D1CEF
:10C4E000082DE5D304600B88FF2B1DD94468002577
:10C4F00005F108060CFA06F30E881E409E420FD185
:10C50000AF0008FA07F624EA060602FA07F43443F5
:10C51000CE78282E00D14361CE78482E00D1036119
:10C520006D1C082DE4D34460BDE8F081F0B5144CD7
:10C53000002801DAE36900E06368420D120185B268
:10C54000C0F301579540C0F30346032F05D0C20244
:10C550000AD50322B240934307E023F07062636878
:10C5600023F07063636002E0AB4343F0706201B19B
:10C570002A43002801DAE261F0BD6260F0BD0000EC
:10C58000000001400246002092680A4200D00120CB
:10C59000704741617047016170470AB1016170479E
:10C5A00041617047020AA13AC2EB0213C0B203EB29
:10C5B000421200EB42004FF43E6202EB4010202298
:10C5C00000F0E6BE4069806880B27047D0F8CC00C9
:10C5D0000068C0F341407047084490F89B037047DF
:10C5E00000EB8100D0F85003704710B504460022DC
:10C5F0001046C4F8102304EB8203C3F81403C3F8F5
:10C600005003A31883F88C03521CD2B20F2AF2D322
:10C610000820A4F8B203204603F040F9204602F0B7
:10C620003FFF204602F07CFE0121204603F096F9F0
:10C63000204602F0B5FE204602F058FF002010BD53
:10C64000D0F81003704710B503F012F9002010BDA8
:10C650000022431883F89B2300EB4113C3F8C02347
:10C6600003F053B8FEE7000070B50646002440F220
:10C670003F11204600F074FA00F0A8FC4FF4963504
:10C68000304600F089FC641CAC42F9D3BDE8704030
:10C6900001220421014800F031B80000000C0140E3
:10C6A00070B5064640F23F14084D08E020222146AE
:10C6B000304600F025F868688088201A84B26968DE
:10C6C000601C80B289888842F0D270BDD8070020F3
:10C6D00008B50121082000F05DFD0420ADF8000040
:10C6E00003208DF8020010208DF8030069460248EF
:10C6F000FFF7CAFE08BD0000000C0140FFF74DBF68
:10C70000064B30B45B68203AD2B21C68DB885343D6
:10C7100004EB430230BC00F021B80000D807002031
:10C720002DE9F04107460D4640F23F140A4E08E05D
:10C7300021463846FFF7E4FF70688088201A84B2EB
:10C740006D1C2A78002A05D07168601C80B2898827
:10C750008842EDD2BDE8F081D80700202DE9F74FDF
:10C76000064690460027019900F0FAF91C4D31E089
:10C7700000F02CFC00244FF00C094FF0800A4FF021
:10C78000010B17E0B0FBF9F1CA000AFA02F138F820
:10C7900017202141114201D10C2805D90BFA04F1CF
:10C7A0000A4203D10C2801D9688800E0288800F0EB
:10C7B000F3FB641C68688088A042E3D8012204214E
:10C7C0000848FFF79BFF761CF6B23046019900F04F
:10C7D000C7F97F1C6868C088B842C9D8BDE8FE8F19
:10C7E000D8070020000C0140014840687047000055
:10C7F000D807002070B50024FFF7F6FF0546E11CBE
:10C80000E8884843C0B2FFF74BFF641CE4B20C2C2D
:10C81000F5D3BDE8704000F001B8000008484FF6BD
:10C82000FF7181800021C180018141818181C181AD
:10C830000122027041708170C17001827047000056
:10C840009C07002010B5FFF7E9FFBDE8104000206D
:10C85000FFF70ABF70B505468AB01F2000F07AF9CD
:10C86000FFF7C2FF0446002069464FF4A072202360
:10C8700002E00B54401CC0B2A688B2FBF6F6761E4E
:10C880008642F6DCA088B2FBF0F00844002100F8F4
:10C89000011CE0886946C0F1F000C0B2FFF740FF1C
:10C8A000E0882946C0F1F000C0B2FFF739FF002050
:10C8B00000F050F90AB070BD70B588B00021034691
:10C8C00000E0491C13F8012B002AFAD11A2900D9DB
:10C8D0001A21002220246B469C54521C1B2AFBD395
:10C8E0000022C1F11B0404E0855C02EB5406521CDB
:10C8F0009D558A42F8D30020FFF7B6FE104800F09D
:10C900003BF9FFF771FF04464FF6FF7000F03AF96C
:10C910001F2000F01FF90020FFF7C2FEE0886946E3
:10C92000C0B2FFF7FDFEE0884006000EFFF7B8FE3C
:10C93000002000F00FF9034800F01EF908B070BDA8
:10C94000E8070020F00700202DE9F0470024FFF75A
:10C950004BFF234D0646234F68890B281AD229899D
:10C96000884217D300EB800101EBC00007EB800089
:10C97000408E00F007F96889F28800EB800101EB36
:10C98000C00107EB8101BDE8F047C01C4243D0B2B3
:10C99000FFF7C6BE2989884201D20C3080B20B381D
:10C9A00085B2B8464FF00C096119B1FBF9F209FBE9
:10C9B000121000EB800101EBC00108EB8107788EBB
:10C9C00000F0E0F8F088E11C4843C0B23946FFF7B8
:10C9D000A7FE641CE4B20C2CE6D3BDE8F08700008F
:10C9E0009C0700208A18002070B52D4C0025218856
:10C9F00021F038012180218841F00801218000F0D8
:10CA000017FB732000F03AFBFF21204600F0A1FC49
:10CA10008021204600F094FC0028F9D10121204615
:10CA200000F08EFC0028F9D0204600F090FC6D1C30
:10CA3000EDB2052DE8D3FF21204600F08AFC8021CD
:10CA4000204600F07DFC0028F9D10121204600F0AD
:10CA500077FC0028F9D0204600F079FC0546FF213C
:10CA6000204600F076FC8021204600F069FC00287A
:10CA7000F9D10121204600F063FC0028F9D02046BE
:10CA800000F065FCE9B240EA0125012204210548D5
:10CA9000FFF734FE208820F038002080284670BD43
:10CAA000003C0040000C014010B586B0012111206F
:10CAB00000F070FB01212448FFF738FD0121C80375
:10CAC00000F050FB4FF48060ADF8140003208DF8A7
:10CAD000160018201D4C8DF8170005A92046FFF7F9
:10CAE000D3FCE014ADF8140005A92046FFF7CCFCF8
:10CAF000A014ADF8140005A92046FFF7C5FC144C9E
:10CB0000204600F0F3FB0021ADF800104FF48270D6
:10CB1000ADF80200ADF804100220ADF806000120C7
:10CB2000ADF808004002ADF80C10ADF80A00ADF801
:10CB30000E106946204600F00EFC0121204600F050
:10CB40005BFB06B010BD000000112000001001408A
:10CB5000003C00400149488070470000D807002091
:10CB600010B50C460146202000F03AFA2146BDE8F7
:10CB70001040212000F034BA01494860704700009D
:10CB8000D80700200149088070470000D80700201E
:10CB90002DE9F05FFFF79CFDFFF786FF052004F00D
:10CBA00051FB0020FFF720FFA0F513414FF48075E3
:10CBB0004FF4E06640F2022741F2B07840F23719B4
:10CBC00040F2391A4FF4E85B41F2180420397CD165
:10CBD000E901E52000F004FA0121002000F000FA4C
:10CBE0002946012000F0FCF93146022000F0F8F956
:10CBF00041F23001032000F0F3F90021042000F09D
:10CC0000EFF93946082000F0EBF90021092000F087
:10CC1000E7F900210A2000F0E3F900210C2000F0E0
:10CC2000DFF900210D2000F0DBF900210F2000F0DA
:10CC3000D7F90021102000F0D3F90021112000F0D5
:10CC4000CFF90021122000F0CBF90021132000F0D1
:10CC5000C7F9142004F0F6FA4146102000F0C0F99C
:10CC60004946112000F0BCF9052004F0EBFA5146CA
:10CC7000122000F0B5F9052004F0E4FA594613201B
:10CC800000F0AEF91321292000F0AAF9052004F0E4
:10CC9000D9FA0021202000F0A3F90021212000F082
:10CCA0009FF90621302000F09BF92111312000F07E
:10CCB00097F90321322000F093F9A91D352000F0E7
:10CCC0008FF940F60231362000E06EE000F088F97E
:10CCD00040F20231372000F083F9F11D382000F0D6
:10CCE0007FF90721392000F07BF94FF4C0613C2027
:10CCF00000F076F940F20B213D2000F071F900219F
:10CD0000502000F06DF9EF21512000F069F9002169
:10CD1000522000F065F940F23F11532000F060F915
:10CD20004FF41C51602000F05BF90121612000F0FC
:10CD300057F900216A2000F053F90021802000F00B
:10CD40004FF90021812000F04BF90021822000F0F2
:10CD500047F90021832000F043F90021842000F0EE
:10CD60003FF90021852000F03BF91021902000F0D0
:10CD700037F90021922000F033F90321932000F0CD
:10CD80002FF94FF48871952000F02AF9002197209F
:10CD900000F026F90021982000F022F92146032016
:10CDA00000F01EF940F27311EEE0A0F513412539B1
:10CDB0007DD10121002000F013F92946012000F067
:10CDC0000FF93146022000F00BF92146032000F054
:10CDD00007F90021042000F003F93946082000F08B
:10CDE000FFF80021092000F0FBF800210A2000F0E4
:10CDF000F7F800210C2000F0F3F800210D2000F0DE
:10CE0000EFF800210F2000F0EBF80021102000F0D7
:10CE1000E7F80021112000F0E3F80021122000F0D3
:10CE2000DFF80021132000F0DBF8142004F00AFAE8
:10CE30004146102000F0D4F84946112000F0D0F807
:10CE4000052004F0FFF95146122000F0C9F8052032
:10CE500004F0F8F95946132000F0C2F813212920F4
:10CE600000F0BEF8052004F0EDF90021202000F0CC
:10CE7000B7F80021212000F0B3F80721302000F09E
:10CE8000AFF840F20231312000F0AAF840F2051567
:10CE90002946322000F0A4F840F20626314635201B
:10CEA00000F09EF840F608073946362000E070E0B2
:10CEB00000F096F83146372000F092F840F2045125
:10CEC000382000F08DF80721392000F089F8294634
:10CED0003C2000F085F839463D2000F081F8002123
:10CEE000502000F07DF8EF21512000F079F800216A
:10CEF000522000F075F840F23F11532000F070F816
:10CF00004FF42741602000F06BF80121612000F010
:10CF100067F800216A2000F063F80021802000F00B
:10CF20005FF80021812000F05BF80021822000F0F2
:10CF300057F80021832000F053F80021842000F0EE
:10CF40004FF80021852000F04BF81021902000F0D0
:10CF500047F80021922000F043F80321932000F0CD
:10CF60003FF84FF48871952000F03AF8002197209F
:10CF700000F036F80021982000F032F82146032016
:10CF800000F02EF840F23311BDE8F05F072000F00A
:10CF900027B8BDE8F09F000070B50B4D0446010AAC
:10CFA000284600F0D6F98021284600F0C9F900286B
:10CFB000F9D1E1B2284600F0CCF98021284600F0F2
:10CFC000BFF90028F9D170BD003C004010B5222007
:10CFD00000F02EF8BDE81040722000F04FB80000BD
:10CFE00070B50C4600F024F8722000F047F80E4DA2
:10CFF000210A284600F0ADF98021284600F0A0F96A
:10D000000028F9D1E1B2284600F0A3F98021284692
:10D0100000F096F90028F9D1BDE870400122042102
:10D020000248FFF76BBB0000003C0040000C0140D1
:10D0300070B50546702000F021F80E4C0021204606
:10D0400000F087F98021204600F07AF90028F9D114
:10D050002946204600F07DF98021204600F070F935
:10D060000028F9D1BDE87040012204210248FFF7F1
:10D0700045BB0000003C0040000C014010B50446D8
:10D08000002204210748FFF739FB2146064C2046C1
:10D0900000F05FF98021204600F052F90028F9D114
:10D0A00010BD0000000C0140003C0040FEE770474E
:10D0B00070B50F21C478027801234FF0E026E4B167
:10D0C000124C246804F4E064C4F5E064C4F307245B
:10D0D000C4F10405E1404478AC4085780D40254317
:10D0E0000B4C29011155007800F01F018B404009BD
:10D0F00006EB8000C0F8003170BD02F01F008340D5
:10D10000500906EB8000C0F8803170BD0CED00E0E6
:10D1100000E400E00249084302490860704700004B
:10D120000000FA050CED00E0024A114001430248FC
:10D130000160704780FFFF1F08ED00E0014801F02B
:10D1400068BC00006C09002070470000044A0029F8
:10D15000516901D0014300E08143516170470000F3
:10D1600000100240044A0029D16901D0014300E0C7
:10D170008143D1617047000000100240044A002939
:10D18000116901D0014300E0814311617047000043
:10D1900000100240044A0029916901D0014300E0D7
:10D1A000814391617047000000100240044A002949
:10D1B000D16801D0014300E08143D1607047000095
:10D1C000001002400149086070470000D800424248
:10D1D00070B5084D10212846FFF7DBF9052000F057
:10D1E0006BF800F065F8044610212846FFF7D3F9E4
:10D1F000204670BD000801400029018802D041F09E
:10D20000400101E021F040010180704770B501212B
:10D2100086B00803FFF7BEFFA020ADF8140003247A
:10D22000214E8DF8164018258DF8175005A9304667
:10D23000FFF72AF94020ADF814008DF8175005A922
:10D240003046FFF721F91020ADF814008DF8164094
:10D250008DF8170005A93046FFF716F90021ADF843
:10D2600000104FF48270ADF80200ADF80810701590
:10D27000ADF80A00ADF80410ADF80C1007200B4C07
:10D28000ADF80610ADF80E10ADF810006946204656
:10D2900000F061F801212046FFF7AEFF1021304673
:10D2A000FFF779F906B070BD000801400030014079
:10D2B000002000F001B8000070B50B4C05460221BB
:10D2C000204600F03DF80028F9D02946204600F01D
:10D2D00040F80121204600F033F80028F9D020461C
:10D2E00000F035F8C0B270BD00300140114910B5F2
:10D2F00088420AD1841401212046FFF757FF2046B7
:10D30000BDE810400021FFF751BF0B49884202D110
:10D310000121041404E0094988420AD10121C413FF
:10D320002046FFF72BFF2046BDE810400021FFF705
:10D3300025BF10BD0030014000380040003C0040D7
:10D340000246002012890A4200D0012070478089DD
:10D3500070478181704730B502884C8802F4415390
:10D360000A88CD8822438C882C4322430C8922438F
:10D370004C8922438C892243CC8922431A43028060
:10D38000828B22F400628283098A018230BD000010
:10D390002DE9F041DFF84C8005460F461646002483
:10D3A00010214046FFF7F5F80B20FFF785FFC5F386
:10D3B0000740FFF781FFC5F30720FFF77DFFE8B2C5
:10D3C000FFF77AFF0020FFF777FF03E0FFF770FF1A
:10D3D0003855641CB442F9D34046BDE8F0411021F1
:10D3E000FFF7D9B8000801402DE9F0410D46174676
:10D3F000044600F0D5F803F0D3F903F0BFF9224E4C
:10D4000010213046FFF7C5F8AD20FFF755FFC4F3F4
:10D410000740FFF751FFC4F30720FFF74DFFE0B2CD
:10D42000FFF74AFF2878FFF747FF6878FFF744FFC8
:10D4300010213046FFF7AFF8022415E07820401E97
:10D44000FDD110213046FFF7A4F8AD20FFF734FFDF
:10D45000285D641CFFF730FF285D641CFFF72CFF7C
:10D4600010213046FFF797F8BC42E7D36420401EF6
:10D47000FDD103F06FF910213046FFF78AF8BDE8BF
:10D48000F041FEF781BF00000008014010B5FFF732
:10D490007FFB0248A0F10801486010BDE0070020B2
:10D4A00038B504460C48012150F82400FFF772FEFD
:10D4B000094869460A3830F81400ADF80000102019
:10D4C0008DF8030003208DF80200044850F8240072
:10D4D000FEF7DAFF38BD0000BC2A0108BC070020B7
:10D4E0000349044A31F8101052F82000FFF74AB8F7
:10D4F000942A0108CC0700207FB5044625480D4634
:10D50000012150F8240040F00100FFF743FE042001
:10D510008DF80F001F4803A9383830F81400ADF813
:10D520000C001D4850F82400FEF7AEFF012D2FD14E
:10D530001848263830F81400C1B216482C3830F894
:10D540001400C0B2FEF78CFF1248323830F81400D5
:10D55000009000208DF804000CB10C2000E00820A1
:10D560008DF8050001258DF806506846FEF740FF4E
:10D570000848203830F814008DF808000F208DF886
:10D5800009008DF80A008DF80B5002A8FFF790FDF6
:10D590007FBD0000CC2A0108CC07002070470000A6
:10D5A00070B5044603F0FCF803F0E8F80D4D1021C7
:10D5B0002846FEF7EEFF2020FFF77EFEC4F307406B
:10D5C000FFF77AFEC4F30720FFF776FEE0B2FFF71D
:10D5D00073FE10212846FEF7DEFFBDE87040FEF71F
:10D5E000D3BE00000008014029480021026842F42F
:10D5F000803202604FF4A063026801F1010112F46D
:10D60000003F01D19942F7D1016889033FD52149F3
:10D610000A6842F010020A600A6822F003020A60F7
:10D620000A6842F002020A60416841604168416054
:10D63000416841F480614160C16A174A1140C1628A
:10D64000C16A164A1143C162016841F080610160FC
:10D6500001680901FCD5416821F47C1141604168F1
:10D6600041F4E8114160016841F080710160016896
:10D670008901FCD5416821F003014160416841F016
:10D68000020141604168C1F381010229FAD170476A
:10D69000001002400020024000F0FEFF440601009E
:10D6A000144810B5016841F0010101604168124A57
:10D6B000114041600168114A11400160016821F484
:10D6C00080210160416821F4FE014160016821F080
:10D6D000A05101604FF47F0181600021C1624FF4CD
:10D6E0001F018160FFF780FF05494FF0006008606F
:10D6F00010BD0000001002400000FFF0FFFFF6FE2A
:10D7000008ED00E001F0EABD70B53A4D0121284670
:10D7100000F0B6F8384CA0B12078010611D520F001
:10D7200010002070010702D140F040002070C0B20C
:10D7300000F00F010E2901D2401C01E000F0700042
:10D7400020700821284600F09BF888B32B48006819
:10D7500058B10221284600F0A6F80021284600F022
:10D76000A9F8207840F010003DE0284600F086F847
:10D77000A0800021284600F096F82178C8062FD511
:10D780000806A0884FF4F97220D5A0F22D13934219
:10D7900002D8A068400009E0A0F279534FF4C772A4
:10D7A000934206D8A068400040F00100A06017E056
:10D7B0001AE0A0F69900904212D86078401C607080
:10D7C00001F0F00020700120A07009E0A0F5805069
:10D7D0006938904204D841F08000207000206070C9
:10D7E000207820F0100020702846BDE87040092104
:10D7F00000F034B8000400403C0700202001224221
:10D8000010B50F4C0121204600F03AF8002815D041
:10D810000C4A1068B0F57A7F01D900201060411CD5
:10D820001160C80707D004F07FF82046BDE810401B
:10D83000012100F016B804F06FF8F6E710BD000003
:10D84000000C0040480700200029018802D041F068
:10D85000800101E021F0800101807047C94301820D
:10D860007047C943018270470029018802D041F006
:10D87000010101E021F0010101807047808F7047B4
:10D88000038A002280890B4200EA010001D000B126
:10D89000012210467047002A828901D00A4300E025
:10D8A0008A4382817047028C22F4007242EA01218D
:10D8B000018470478184704730B502881B4B1C4C33
:10D8C00098420DD0A0420BD0B0F1804F08D0194D36
:10D8D000A84205D0184DA84202D0184DA84203D145
:10D8E00022F070054A882A43154DA84206D0154DEE
:10D8F000A84203D022F44075CA882A4302808A884D
:10D9000082850A88028598420AD0A04208D00E4A31
:10D91000904205D00D4A904202D00D4A904201D16A
:10D92000097A01860121818230BD0000002C01406E
:10D93000003401400004004000080040000C00409A
:10D94000001000400014004000400140004401402D
:10D950000048014010B500224FF6FF7300EB42046F
:10D96000B4F88C45240409D49A4205D000EB420057
:10D9700041F40041A0F88C15D0B210BD521CD2B2B7
:10D98000082AEBD31A46F7E770B50D46194600EBA7
:10D990004114012384F8AE33C4E9EE5294F8C42351
:10D9A00002B1022284F8B423FEF752FE002070BDBB
:10D9B00070B50D46194600EB4114002384F8AE33D0
:10D9C000C4E9EE5294F8C52332B1022284F8B4239C
:10D9D000FEF73EFE002070BD84F8B433F8E730B4A3
:10D9E00002240C7501244C750024CC820A83150690
:10D9F0004C8300EB431202D582F8C44301E082F865
:10DA0000C543002330BC1A4600F017B80121C0F806
:10DA100010130020704770B50D46194600EB4114F5
:10DA200004F56B740123A3704FF002032372C4E961
:10DA30000352FEF70DFE002070BD30B50120CD78F9
:10DA40000446012D0BD0022D08D10A7F0D2A10D0DB
:10DA50000B2A12D00C2A01D1CC70032030BD0D78D6
:10DA60004D7007250D708A608B810C770222CA7079
:10DA700030BDCC700020087730BDCC70022030BDA6
:10DA800070B50D46194600EB4114002384F8AE33FF
:10DA9000C4E9EE521AB194F8C5235AB102E001224A
:10DAA00084F8C523022284F8B42300BFFEF7D0FD1A
:10DAB000002070BD84F8B433F8E710B50C46114669
:10DAC00000EB411303F56B7300229A704FF00302D1
:10DAD0001A724FF00802C3E90342FEF7B9FDC0B263
:10DAE00010BD0221002200EB4103491CC9B2A3F87A
:10DAF0008C250829F7D30020704770B50C4600210B
:10DB000021706170A17001220546E27022774020E9
:10DB1000A07184F8201084F821202179284600F093
:10DB200021F86179284600F01DF8002070BD002121
:10DB3000C0F810130846704770B50A250446052939
:10DB40000AD0042908D006290BD12570D0F880000E
:10DB50000068BDE870400047D4F88000406C804702
:10DB6000257070BD082908D200EB410101F28C50EC
:10DB7000B1F88C15C1F30E0101800020704730B45C
:10DB800042F08002DDE902540A7506224A7503223A
:10DB9000CB82B2EB132F02D140F2094200E0002207
:10DBA0000A834C8323462A4630BCFFF746BF0A88C7
:10DBB00003781A440A800178084470472DE9FC472D
:10DBC000174600F58878CDE90087002406460D4603
:10DBD0004FF400732246FFF7D2FF5FEA000907D037
:10DBE00013E0311991F810110155641CA4B200E042
:10DBF0000748BC42F5D3434605F1500205F13E010A
:10DC000005F13400009700F081FF4846BDE8FC872D
:10DC1000F01300207CB50446164600F58870CDE967
:10DC200000060D464FF4807300222046FFF7A7FF41
:10DC3000002830D104F58874082E217805F8221FB9
:10DC400061786970A178E27801EB0221698021791D
:10DC5000297161796971A179A971E179A4F5887453
:10DC6000E97118D904F58C742178627801EB0221EE
:10DC70002981A178E27801EB022169812179627919
:10DC800001EB0221A981A179A973E179E973217AD4
:10DC90002974617A69747CBD7CB51E46069D00F5C9
:10DCA000887442F440730022CDE90045FFF767FF16
:10DCB000010014D16078032811D12078821EAA4275
:10DCC00000DC1546A41CAAB2002004E0235C801CE2
:10DCD00006F8013B80B29042F8D30020307008462D
:10DCE0007CBD00002DE9F05F00260C468E74804656
:10DCF000097F0B2509270120DFF8B8914FF0080BA9
:10DD00004FF0050A0C2917D2DFE801F0D1060E39D1
:10DD1000415A677B84A3B4C4627904F1140140467C
:10DD2000FFF7CBFE0220BBE061794046FEF754FCD2
:10DD3000012802D003281ED0B9E0207D618B00F0BD
:10DD4000800051B141F28832A9F80020802802D029
:10DD500084F81CA008E0032005E03222A9F8002086
:10DD6000802806D0072020774046FEF72BFC208233
:10DD70009DE02777F8E7257784F812A097E02379CC
:10DD8000A2894046A168FFF746FE042088E0217979
:10DD90004046FEF721FC01280DD004280DD00328B1
:10DDA00076D04046FEF70EFC218A411AB9F80000F1
:10DDB00081426DD87BE02777F3E76078207076E0CA
:10DDC000627908EB421181F8C5036379A289404664
:10DDD000A168FFF755FE062062E061794046FEF734
:10DDE000FBFB012804D0042804D0022806D049E017
:10DDF000072055E0607820700C2051E084F81CA0CA
:10DE000055E00022237911464046FFF704FE84F8CE
:10DE10001CB04CE021794046FEF7DEFB07460128A6
:10DE20000DD0032F34D04046FEF7CCFB218A411A97
:10DE3000B9F8000081422BD8042F04D037E0607875
:10DE400020700D202CE0607820700420A074032640
:10DE50002DE06179002208EB411090F8C51381F0A4
:10DE6000010180F8C513637911464046FFF708FEAB
:10DE70000A2015E061794046FEF7AEFB0128DED0AE
:10DE8000022803D0032803D011E001E027770EE039
:10DE900025770CE0A17B491CC9B2A173022901D8E6
:10DEA000207704E084F812B06078207002263046B3
:10DEB000BDE8F09F600700202DE9F0410C46804648
:10DEC000012689780025FF2092B037460A2956D2CC
:10DED000DFE801F0052332565F71849BAEB808225B
:10DEE00021464046FFF796FE002848D194F82900C5
:10DEF000A0714046FEF7A7FBA770A0790023CDE9EB
:10DF0000005061791A46404600F06AFDA07900236E
:10DF1000CDE9005021791A462EE0122221464046D2
:10DF2000FFF778FE00282AD1D4F88000C16904F1F7
:10DF300022008847022083E001222146404600F06B
:10DF40003FFF00287FD1022001F0E4F904F104042E
:10DF50002777E06F006A8047032004F8020C0095E1
:10DF60000195227F21780023404600F039FD00957D
:10DF70000195227F61780023404600F031FD62E088
:10DF8000092221464046FFF719FE00285BD10420F4
:10DF900056E0E28E21464046FFF710FEA0BBD4F8C3
:10DFA000800004F1500204F13E01436A04F13400A0
:10DFB0009847052044E094F83020062552B100909F
:10DFC00002AB21464046FFF767FEE8B9D4F880006F
:10DFD000816A11E0D4F88000816A12E094F831205F
:10DFE00007255AB1009002AB21464046FFF754FE88
:10DFF00050B9D4F88000C16A02A803E0D4F88000C8
:10E00000C16A13A08847A5701DE094F83220082546
:10E0100052B1009002AB21464046FFF73DFE90B959
:10E02000D4F88000016BE7E7D4F88000016BE8E7E3
:10E0300094F839202146404600F0CEFE18B9092058
:10E04000A07000E0002612B03046BDE8F08100006C
:10E050004E2F41002DE9F04180460E4614461D46E4
:10E06000069F01F01DF9002001F0DCF82146404632
:10E07000FFF743FD04F17C043146C4E900574046F4
:10E08000FEF7B3FA6068006880474046BDE8F0419B
:10E0900001F0F2B870B505460A4C012012B1012A10
:10E0A00008D102E02378E27801E06378A27828467C
:10E0B000FFF795FC044A1169491C1161042900D934
:10E0C000042070BD40180020640700200149002092
:10E0D000087070473018002070B505460124FEF71F
:10E0E000AFFAD8B1104801782846FEF779FA0D2822
:10E0F00013D10E480E4A016891420ED1A0F12002C0
:10E1000041685268914209D1007B20B1012805D0B5
:10E11000022802D002E0002400E00224034810306C
:10E12000C473204670BD0000401800202018002055
:10E13000555342530A490A22012802D002280CD022
:10E140007047084B1878401CC0B218700A2804D2D7
:10E15000062008700120C87070470A7070470000E0
:10E1600030180020780700202DE9F05F0E46814628
:10E170000125FEF765FA002816D0524C0027DFF87B
:10E18000488120784FF0080BAA460B280CD2DFE814
:10E1900000F0060C245D66717981864F9500484633
:10E1A00000F0A4F984F800A089E021223275FF2252
:10E1B0007275F782378300234846314677831A46C3
:10E1C000FFF73BFC05004FF0020002D0032D02D008
:10E1D00075E0207073E0607028E0A1223275FE22A5
:10E1E0007275F7823783484631465746A6F81AA01B
:10E1F0000123364AFFF721FC05004FF0030102D04E
:10E20000032D12D05BE031480838027A80F84820AC
:10E2100012B198F801200AB1217050E088F801701D
:10E22000D6F88000006C804749E061700920D0E793
:10E230007379002231464846FFF7D1FB05003ED1F5
:10E240002248083880F848706078C2E7484600F0F5
:10E2500033FB08B9042008E0FFF76CFF2FE04846C5
:10E2600000F08AFA0028F7D10520207088F80070A5
:10E27000002524E0484600F0C3F90028ECD184F8DA
:10E2800000B0F3E7484600F0C7FA0028E4D1607810
:10E290002070EDE73146484600F01AF80FE0D6F856
:10E2A0008000C06B804710F0FF0002D0012803D02F
:10E2B00005E084F800B002E0062500E004252846C9
:10E2C000BDE8F09F30180020780700204818002093
:10E2D0002DE9F35F0098FEF7B3F9002821D0804CB8
:10E2E000052780482179804D00264FF008094FF01E
:10E2F000070B4FF002084FF0010A092911D2DFE89D
:10E3000001F01005123464AABFD5E10074494378C6
:10E310001F2230390098FFF74BFB84F805A084F8E2
:10E320000480BDE8FC9F41780098FEF755F901286C
:10E3300006D0022873D00428F3D185F800A0BEE0EF
:10E3400067482E61303884F80580017B806801F0D1
:10E35000800100286ED06860A068A860E86080290D
:10E3600001D00420BAE00320B8E08046017800988C
:10E37000FEF732F9012802D0617903291FD003206A
:10E380002E616071B8F80420686882420ED298F855
:10E390000030A9680098FFF7F7FAB8F80400696838
:10E3A000091A6960A9680844A860BAE7B0B382B2E4
:10E3B00098F80030A9680098FFF7E6FA38E00428DA
:10E3C000AFD12E7084F804B00EE0804641780098FA
:10E3D000FEF702F9012809D002282DD00428A0D187
:10E3E00085F800A084F8049067719AE704202E61F4
:10E3F0006071B8F806206868824211D298F801303E
:10E40000A9680098FFF7D4FAA968E960B8F806008F
:10E410000144A9606968081A686082E70AE05CE064
:10E4200040B182B298F80130A9680098FFF7C0FAAD
:10E430006E6076E7277174E7D5E9021098F801302D
:10E44000B8F80620814200D0891A009802B0BDE8D1
:10E45000F05FFFF7ADBA2249677110393F22A16022
:10E46000A2810D220B469E54521E12F0FF02FAD1D9
:10E470001E7003783F220098FFF786FA06202DE0F1
:10E4800001780098FEF7A8F8012805D004288CD15F
:10E490002E7084F804B044E72E616771A078207074
:10E4A000DDE90001FFF718FEE0733AE7DDE900015E
:10E4B0000022FFF7EFFD58B9287802280DD184F823
:10E4C00004902EE7DDE900010122FFF7E3FD20B112
:10E4D00004288AD184F80F8023E76079207120E72F
:10E4E00030180020401800206407002010B5FEF707
:10E4F000A7F8002148B10848064A0260074A42606E
:10E500004173054A01203032D07005480161054849
:10E51000017010BD55534243001800205040302078
:10E52000640700207807002070B50C4C06460025D3
:10E53000617831B101F057F861783046FFF712FB8E
:10E5400065702178002907D0304601F04CF8217819
:10E550003046FFF707FB257070BD00004018002013
:10E560002DE9FC41064691F843000C46082803D1EA
:10E5700094F84500502806D0D1F88000006C804700
:10E580000020BDE8FC8194F852001C4D010604D522
:10E59000E870B4F85400A88003E0A870B4F8540000
:10E5A000E88094F85A00010604D5E870B4F85C00DD
:10E5B000A88003E0A870B4F85C00E880A978304631
:10E5C000FFF7C8F96870E9783046FFF7C3F928709B
:10E5D000E8880227CDE9007004F1200469786378A7
:10E5E0002278304600F069FAA888CDE90070637897
:10E5F00022782978304600F060FAC1E74018002000
:10E6000070B50324FEF71CF830B32149214D0023D7
:10E61000C8780122012802D0022836D11DE01E4808
:10E620003F248026846006730A2686738D60052544
:10E630008D70102546196D1EF37315F0FF05F9D185
:10E640001A23C3734474C4740A710720087003202A
:10E65000C8730220C870032417E0C87B20B10128CA
:10E660000ED002280FD010E0A87804060948A0F1C7
:10E67000100001D5027300E00373CA70002404E0A7
:10E68000CA70012401E0CA700224204670BD000057
:10E690003018002000160020001800202DE9FF4F40
:10E6A000324D81B04FF0030985F800908B461F462C
:10E6B0000198FDF7C5FFD8B32D4C01264FF0020A93
:10E6C000E0784FF00008012802D002284AD130E05B
:10E6D00028488021876001730A2181731021C4F8C2
:10E6E00008B04218491E82F80F8011F0FF01F8D1DE
:10E6F0002821C1739DF80F1041749DF80E1081748C
:10E700009DF80D10C1749DF80C100175790AADF8D3
:10E7100000109DF8011081759DF80010C1752671DB
:10E720000720207084F80F9084F803A085F80090EB
:10E7300018E0E07B38B90198FDF782FF18B1E67068
:10E7400085F800800EE0E07B012805D10198FDF7F7
:10E7500077FF08B1E67005E0E07B022802D1E670A1
:10E7600085F800A0287805B0BDE8F08F620700208A
:10E77000301800200018002070B50324FDF760FF5A
:10E7800020B322490125224AC878012802D0022854
:10E790003AD11CE01F4B08209860802018730A2093
:10E7A000987304208A608870102000221C18401E74
:10E7B000E27310F0FF00F9D12520D8730D71072006
:10E7C00008700320C8730220C87003241CE0C87BB3
:10E7D00020B1012813D0022814D015E00C4813787A
:10E7E00010380024C3705378837093784370D378C3
:10E7F000037093794372D2790272CD7004E0CD70C8
:10E80000012401E0CD700224204670BD30180020A4
:10E81000001600200018002070B50324FDF710FF3B
:10E8200038B322490123224AC878012802D002289D
:10E8300039D11FE01F483F248025846005730A25D5
:10E8400085738A608A784A7006228A7010220025B1
:10E850008618521EF57312F0FF02F9D10322C2731B
:10E860000574C4740B7107200870CA730220C87045
:10E87000144618E0C87B20B101280FD0022810D020
:10E8800011E00B4814781038C4715478847194786E
:10E890004471D2780271CB70002404E0CB70012463
:10E8A00001E0CB700224204670BD0000301800202B
:10E8B000001600200018002070B50324FDF7C0FEEC
:10E8C00010B31A490123C878012802D002282BD19D
:10E8D0001BE0174C00220620A2602273A07315488B
:10E8E00088603F20888103258D7010202618401EE7
:10E8F000F27310F0FF00F9D1E2730B71072008707A
:10E900000220CD73C87003240EE0C87B20B101281B
:10E9100005D0022806D007E0CB70002404E0CB70BD
:10E92000012401E0CB700224204670BD3018002085
:10E9300000180020201800207FB582B00D461C462C
:10E940000326FDF77DFEA0B3234A0121D0780128DC
:10E9500002D002283CD12DE0204800230A26846002
:10E96000037386739560102546196D1EF37315F0B9
:10E97000FF05F9D12A23C3739DF8133043749DF822
:10E98000123083749DF81130C3749DF810300375F4
:10E99000630AADF800309DF8013083759DF80030B2
:10E9A000C3751171072010700320D0730220D0703E
:10E9B00003260DE0D07B20B1012805D0022805D028
:10E9C00006E0D170002603E0D17001E0D17002268C
:10E9D00006B0304670BD000030180020001800203E
:10E9E00070B500EB4114059D0AB184F8AC23B4F86E
:10E9F000B223AA4202D00DB1A4F8B25394F8AF23C7
:10EA00009A4202D00BB184F8AF3300F00BFE002025
:10EA100070BD38B50546002400200090284600F05F
:10EA200001FF002847D0284600F004FF009000981E
:10EA300008B9002038BD0098C0F3C00018B12846BE
:10EA400001F05CFE04430098C0F3001018B12846A2
:10EA500001F0B5FD04430098C0F3401018B12846FA
:10EA600001F0F3FB04430098C0F3806018B128461E
:10EA700001F010FD04430098C0F3406018B128462F
:10EA800000F0BBFF04430098C0F3006018B12846B3
:10EA900001F070FC04430098C0F3407018B12846A0
:10EAA00000F072FF04430098C0F3405018B12846AC
:10EAB00000F080FF04432046BCE72DE9F04100EB65
:10EAC000410404F28C55B4F88C45DDE9066C04F081
:10EAD0007F0700EB411404F56B7467702D88C5F354
:10EAE000C015A57022706671A4F806C0E3704FF0DF
:10EAF000000222766276A4F56B7413B9012284F8C1
:10EB0000B02300F08FFD0020BDE8F0812DE9FF4F1C
:10EB100085B0054618781299287058786870924622
:10EB20009878DA781C4600EB022068801879287102
:10EB30005A796A719A79AA71DA79EA71227A2A7213
:10EB400009296DD90921DFF8E080ADF80C10022801
:10EB50005CD960E003A92046FFF729F80446407815
:10EB6000042853D194F90270069807EBC70101EB12
:10EB7000000BE078032849D22146684600F056F899
:10EB80009DF804000026022840D83BE003A9204657
:10EB9000FFF70DF804464078052833D10AEB07103B
:10EBA00000EBC60998F80000B84202D088F800705F
:10EBB00007E02079617900EB0121B8F80200814279
:10EBC00024D36946584600F031F8217889F80010BE
:10EBD000617889F80110A17889F80210E17889F844
:10EBE000031021796279761C01EB0221A9F8041047
:10EBF000A17989F806102079617976B200EB0120BD
:10EC0000A8F802009DF80400B042BFDC6888BDF897
:10EC10000C1088429ED80021A8F8021088F8001035
:10EC200009B0BDE8F08F00004C0700200A780270A0
:10EC30004A7842708A788270CA78C2700A79027102
:10EC40004A7942718A798271CA79C271097A0172EC
:10EC500070472DE9FC410C460746FDF7F1FC28B949
:10EC6000207818B1022801D00220207020780026D8
:10EC700004F120050B2848D2DFE800F006128A478D
:10EC8000495F6D7455477A003846FDF7D9FC002876
:10EC90003BD001202070BDE8FC41642000F03ABB6D
:10ECA000D4F880008068804700213846FEF752FE85
:10ECB000607180213846FEF74DFE20713846FDF721
:10ECC000C2FC002821D104F10404E06FC068804731
:10ECD0003846FDF77BFCC0B26077042104F8041CC1
:10ECE000E16F89698847A078CDE90060637F227F62
:10ECF00021783846FFF7E1FEA078CDE90060637F18
:10ED0000227F61783846FFF7D8FEBDE8FC812146B6
:10ED10003846FFF7D1F80028F7D1D4F88000406BCF
:10ED20008047082007E0E06F214602683846904798
:10ED30000028EAD105202070E7E7E06F21468268CD
:10ED400038469047010001D10620F4E72046BDE88F
:10ED5000FC41FEF7F1BEE06F2146C268384690479D
:10ED60000146F3E721463846BDE8FC41FEF7BABF4D
:10ED700021463846FEF7C1FED4F88000406880473F
:10ED8000E06F2946426802B03846BDE8F0411047BE
:10ED9000D4F880000069804721463846FEF7ADFE72
:10EDA000D4F8800040688047E06F294642683846C2
:10EDB00090473846FEF795FE2670A6E7002070477C
:10EDC00030B400230B7505244C75CA820B834B832A
:10EDD00030BC1A46FEF731BE30B400230B7509244F
:10EDE0004C75CA820B834B8330BC1A46FEF725BE96
:10EDF0004A7908494FF6FF70082A05D0032A07D13F
:10EE00000880054801F04ABD088003482138F9E729
:10EE100070470000A00700208C290108014900204C
:10EE200008707047200000207047000003494FF62B
:10EE3000FF700880024801F031BD0000A0070020EB
:10EE4000BC28010810B5FDF7D5FC0BA1C620FDF7C5
:10EE500067FC09A1D220FDF763FC114C4FF4784008
:10EE6000208010A001F01AFD104801F017FD4FF6A8
:10EE7000FF70208010BD00002020202020202020B6
:10EE80002020202020202020202020202020202082
:10EE900020202020202020202020202020200000B2
:10EEA000A00700204552524F523A2000D0280108B6
:10EEB00010B5074C4FF47840208006A001F0EEFC1E
:10EEC00006A001F0EBFC4FF6FF70208010BD0000A3
:10EED000A00700204552524F523A20003E20446580
:10EEE00076696365206E6F7420737570706F7274CD
:10EEF00065642E000B4A4FF6FF7138B1012809D026
:10EF0000022811800AD0084801F0C8BC06481180C8
:10EF10005938F9E7044811803B38F5E702481D38B5
:10EF2000F2E70000A00700205A29010870B5084E3A
:10EF30004FF6FF7504463580018906A001F0AEFC4E
:10EF400035806189BDE8704006A001F0A7BC0000D3
:10EF5000A0070020564944203A2025303458680A3A
:10EF600000000000504944203A2025303458680AF7
:10EF70000000000010B50C484FF6FF7404800B48E9
:10EF800001F08CFC4FF4FC60FDF7FCFD08A1C620ED
:10EF9000FDF7C6FB10A1D220FDF7C2FB2046BDE85D
:10EFA0001040FDF7EFBD0000A0070020E728010892
:10EFB000546F207365652074686520726F6F7420CC
:10EFC000636F6E74656E74206F662074686520646C
:10EFD00069736B203A2000005072657373204B6593
:10EFE000792E2E2E2020202020202020202020209E
:10EFF000202020202020202020202000154810B58F
:10F000004178002924D1012141700020FEF748FAFF
:10F010000120FEF745FA0220FEF742FA0320FEF730
:10F020003FFA00210220FEF767FAFEF72FFAFDF7FC
:10F0300009FC09A0FDF740FC0D494FF6FF70088060
:10F040000CA001F02BFCBDE8104012A0FDF702BCA3
:10F0500010BD00002000002020555342204F54478F
:10F06000204653204D534320486F73740000000026
:10F07000A00700203E2055534220486F7374206C37
:10F0800069627261727920737461727465642E0AA8
:10F0900000000000202020202055534220486F739C
:10F0A00074204C6962726172792076322E312E3072
:10F0B0000000000038B502F02FFC04211248FDF7D3
:10F0C0006AFA1249002002F06DFA4FF0FF3490B94D
:10F0D00001220FA1104802F079FA60B96B4678223C
:10F0E0000E490D4802F017FB9DF8000018B10A48C0
:10F0F00002F04EFA08B1204638BD02F015FC08496E
:10F1000001200870002038BD001001409C0F002035
:10F110002F62772E74787400CC1100207C080020B8
:10F12000070000204FF6FF71024A1180014602A03D
:10F1300001F0B4BBA00700204D616E756661637479
:10F1400075726572203A2025730A000010B5074CCD
:10F150004FF47840208006A001F0A0FB06A001F04B
:10F160009DFB4FF6FF70208010BD0000A00700201F
:10F170004552524F523A20004F7665726375727253
:10F18000656E742064657465637465642E000000A8
:10F190004FF6FF71024A1180014602A001F07EBBCA
:10F1A000A007002050726F64756374203A202573A5
:10F1B0000A000000704700004FF6FF71024A1180FC
:10F1C000014602A001F06ABBA007002053657269E6
:10F1D000616C204E756D626572203A2025730A00BD
:10F1E00010B5074C4FF47840208006A001F056FB84
:10F1F000064801F053FB4FF6FF70208010BD000061
:10F20000A00700204552524F523A2000A42901087D
:10F2100010B500240220FEF763F900B9012420464E
:10F2200010BD000038B501211020FDF7B3FF4FF4E9
:10F230000074ADF8004003208DF802001020074D47
:10F240008DF8030069462846FDF71EF92146284639
:10F25000FDF7A1F9C82000F05DF838BD00100140AD
:10F260000A0004484FF4007101D0FDF792B9FDF790
:10F2700092B900000010014008B54FF4C060FDF7DE
:10F2800049FF43208DF8000001208DF80100032183
:10F290008DF802108DF803006846FDF709FF08BDE0
:10F2A00008B50020FDF78EFF01210803FDF74EFF92
:10F2B0004FF4A060FDF72EFF1C208DF80000012008
:10F2C0008DF801008DF802008DF803006846FDF707
:10F2D000EFFE01210846FDF745FF08BD10B50121ED
:10F2E0008C072046FEF7CCFA002809D001212046E1
:10F2F000FEF7B7FA0649086818B10868401E0860AA
:10F3000010BD2046BDE810400021FEF7ADBA000058
:10F31000000000200121FCF7EDBF0221FCF7EABF4D
:10F3200070B50446017A0025C068012915D0C1686E
:10F3300041F04001C160204600F086F8617A4FF448
:10F34000341009B14FF47410E16888631420FFF79A
:10F35000E1FFE078012819D020E0816B627A21F486
:10F3600080310AB141F480118163E068C16821F005
:10F37000401121F42021C160204600F065F8E078BA
:10F3800001280BD1E1682A208860E2E7E068816803
:10F3900021F01E010A3141F020018160284670BD34
:10F3A0002DE9F041002704463E463D46FFF73AFF6F
:10F3B000D4F80C010560207A01280FD001212046E5
:10F3C00000F024FA204600F053FA6069016821F049
:10F3D00004010160E07A012802D015E00021EEE787
:10F3E000E06880214162284661F30F00E2686021F5
:10F3F00061F31F409062E022284662F30F0061F340
:10F400001F40E168C1F800011021204600F0B6F865
:10F41000204600F097F84FF0FF3107E004EB86003C
:10F4200050F8902F91600068C560761C2078B0423B
:10F43000F4D80121204600F03BF8204600F05EF8A9
:10F440003846BDE8F0810000F8B5002704463E4686
:10F450000097124D0320FFF760FFE06800690090FD
:10F46000761CAE4201D90020F8BD00980028F1DAE0
:10F470000099002041F0010100910099E2681161BA
:10F48000E1680A690092401CA84202D8009AD2079B
:10F49000F7D10320FFF741FF3846F8BD400D0300C8
:10F4A000C0680021826822F001028260084670472D
:10F4B00070B504460D46FFF7D3FE204600F0BFF9B5
:10F4C000C10408D4012D0CD1D4F8CC1040F48050E4
:10F4D0000860C10405D525B9D4F8CC1020F48050BB
:10F4E0000860BDE87040C820FFF714BFC068002165
:10F4F000826842F0010282600846704710B5C36816
:10F50000002211469A61C468531E6361C468636037
:10F51000C4686FF080436361C468094BA361C3781A
:10F5200003B91021C36841F00C5141F008019869FA
:10F5300041F40011884308439861104610BD000053
:10F540000008008038B5002421460094009A42F05B
:10F5500010020092009AC3681A61074AC0680369E2
:10F560000093491C914202D8009BDB06F7D403208C
:10F57000FFF7D3FE204638BD400D030038B5002408
:10F5800022460094009B43F020030093009B61F30C
:10F590008A1300930099C36819610749C068036919
:10F5A0000093521C8A4202D8009B9B06F7D403208A
:10F5B000FFF7B3FE204638BD400D030010B500EB49
:10F5C0008100002350F8901F4FF00042012464F3A3
:10F5D000DC420A610068016821F0804141F000418D
:10F5E0000160184610BD10B500EB81010022D1F872
:10F5F0009030196841F0404111F4402F09D0C1F317
:10F600008144022C05D04069006910F47F0F03D0BB
:10F6100004E0C068C06AF8E721F0004119601046B4
:10F6200010BD0000F0B500EB81040026D4F8905026
:10F63000B446731E6246AB60C378012B00D104222E
:10F6400000EB411393F8B15335B1012D1DD0022DBC
:10F6500002D0032D23D10EE042F0890293F8AE537D
:10F6600042F4826275B993F8B05342F04002B5B1EA
:10F6700042F0200213E042F0990293F8AE7342F494
:10F68000C06267B142F4807209E042F0010293F86F
:10F69000AE7342F4087217B142F08002F2E7D4F878
:10F6A0009050EA6001228A4041698D6915438D615D
:10F6B000C068816941F00071816193F8AC0360F327
:10F6C0009C5C93F8AD0360F3CE2C93F8AE0360F32B
:10F6D000CF3C93F8AF0302280DD02CF4003000BFCC
:10F6E00093F8B113B3F8B22361F3934062F30A00C5
:10F6F000032903D004E04CF40030F1E740F000505F
:10F70000D4F8901008603046F0BDF0B500EB41141D
:10F710000027D4F8BC2306464FF480753B466AB1F7
:10F72000B4F8B2030244521EB2FBF0F292B2AA4203
:10F7300005D900022A46C4F8BC0300E0012294F86F
:10F74000AE03A8B1B4F8B2035043C4F8BC0360F3ED
:10F75000120362F3DC4394F8B40306EB810260F316
:10F760005E73D2F890000361F078012803D007E0BF
:10F77000D4F8BC03EBE7D2F89030D4F8B803586162
:10F7800052F8900F0368304600F046F860F35D735E
:10F79000126823F0804040F000401060F07898BB81
:10F7A00094F8AE0380BBD4F8BC0368B394F8B123DB
:10F7B00032B1012A11D0022A02D0032A1AD10CE058
:10F7C000F268D36AC01CC0F38F009BB2834211D28F
:10F7D000906940F0200090610CE072691269C01CD1
:10F7E000C0F38F0092B2824204D2F068826942F084
:10F7F00080628261D4F8BC030A4683B2D4F8B803AD
:10F800000146304600F090FF3846F0BD426910686E
:10F8100061F30100106070474069806840F30000A8
:10F82000401C7047C068406900F00100012800D00A
:10F8300000207047C0684169806908407047D0F86F
:10F84000CC00006820F02E00704740694069704786
:10F85000034610B508460021D21C9208D3F8D030D8
:10F8600003E01C6840F8044B491C9142F9D310BDD9
:10F8700070B50446FFF7E3FF40F4807554F8CC0FF1
:10F8800005600A20FFF746FD216825F480700860B6
:10F890001420FFF73FFD012070BD000070B500226D
:10F8A0000125C270402685701446134686800129C2
:10F8B00001D061B114E0C5720821017004214FF03C
:10F8C000A04241709115C1800221017208E0C3720B
:10F8D0000C210170062141701F4A4FF4A061C180C4
:10F8E00002F50061C0E9032100210AE002EB4113A7
:10F8F00003F5106600EB810503F53063AE61491C2A
:10F900006B6543788B42F1D802F5806141614031EB
:10F91000C0F8CC10002108E002EB411300EB810598
:10F9200003F5A063491CC5F8903003788B42F3D8E7
:10F93000002108E002EB013300EB810503F5805361
:10F94000491CC5F8D03003788B42F3D802F56062C9
:10F95000C0F80C21204670BD0000044010B5C068FE
:10F960000024C268012922F0C04201D019B104E08C
:10F9700042F0005201E042F08042C2603220FFF7C4
:10F98000C9FC204610BD000038B504460020009098
:10F9900007480068816820468847009820F000509A
:10F9A00000F1005000900098E1684861012038BDE6
:10F9B0005C0700200CB50146D1F89000006800906B
:10F9C000009820F0004000F100400090009820F0E6
:10F9D000804000F180400090009AD1F890000260D1
:10F9E00000200190019820F4001000F50010019013
:10F9F0000198CA68506101200CBD7CB50546002401
:10FA000000262846FFF721FF019000BF1BE0019868
:10FA100080B20121A140084214D005F1900050F8B5
:10FA20002400006800900098C0F3C03028B121463F
:10FA3000284600F00DF8064304E02146284600F071
:10FA40001CFA0643641C2878A042E0D830467CBDEE
:10FA500070B586B005460C4605F1900050F824605C
:10FA6000B0680590F0680490DDE904100840059046
:10FA700005F1900050F824000068039000200490E5
:10FA80000598C0F38000D0B100200190019820F0CB
:10FA90000400001D01900198B06005F1900050F83D
:10FAA0002400C0680190019820F00200801C0190A1
:10FAB00005F1900050F824000199C16073E00598A9
:10FAC000C0F3401048B100200190019820F02000C0
:10FAD000203001900198B06065E00598C0F3C00047
:10FAE00078B305F1900050F82400C06801900198A7
:10FAF00020F00200801C019005F1900050F82400D5
:10FB00000199C160052105F5637001550020019040
:10FB1000019820F01000103001900198B060002092
:10FB20000190019820F00800083001900198B06021
:10FB3000059820F010000590E1B22846FFF753FD2C
:10FB400031E0FFE70598C0F3802060B305F1900035
:10FB500050F82400C0680190019820F00200801C39
:10FB6000019005F1900050F824000199C160E1B2C4
:10FB70002846FFF738FD00200190019820F0100082
:10FB8000103001900198B060082105F563700155AF
:10FB900000200190019820F4806000F580600190C1
:10FBA0000198B06000BF0598C0F34020F8B105F19E
:10FBB000900050F82400C0680190019820F00200E5
:10FBC000801C019005F1900050F824000199C1605B
:10FBD000E1B22846FFF707FD00200190019820F4CC
:10FBE000007000F5007001900198B06042E1059846
:10FBF000C0F30000002871D0E878012812D105F187
:10FC0000900050F824000069029005F56B7000EB3D
:10FC1000441000690299C1F31201411A05F55470AC
:10FC200040F82410012105F5637001550021783852
:10FC300040F8241000200190019820F00100401CA1
:10FC400001900198B0600398C0F3814020B10398FF
:10FC5000C0F3814002282AD105F1900050F8240019
:10FC6000C0680190019820F00200801C019005F10D
:10FC7000900050F824000199C160E1B22846FFF7D6
:10FC8000B2FC00200190019820F01000103001908B
:10FC90000198B06005F56B7000EB4410007E80F0B9
:10FCA000010105F56B7000EB44100176E2E003986A
:10FCB000C0F38140032899D1039820F0005000F14F
:10FCC0000050039005F1900050F824000399016062
:10FCD000012105F29B300155CCE0FFE70598C0F308
:10FCE0004000002851D005F1900050F82400C06871
:10FCF0000190019820F00200019005F1900050F869
:10FD000024000199C16005F56370005D012804D1EC
:10FD1000012105F29B3001552DE005F56370005D72
:10FD2000052804D1042105F29B30015523E005F597
:10FD30006370005D062804D005F56370005D082837
:10FD400008D1002105F5457040F8241003218730C3
:10FD5000015510E00398C0F3814003280BD105F54D
:10FD60006B7000EB4410007E80F0010105F56B70B4
:10FD700000EB4410017600200190019820F0020071
:10FD8000801C01900198B06074E00598C0F3C01029
:10FD900040B305F1900050F82400C068019001982C
:10FDA00020F00200801C019005F1900050F8240022
:10FDB0000199C16005F5457050F82410491C40F8C0
:10FDC0002410062178300155E1B22846FFF70BFCDC
:10FDD00000200190019820F080008030019001986F
:10FDE000B06047E00598C0F30010E8B30398C0F393
:10FDF0008140032815D105F1900050F82400C06817
:10FE00000190019820F00200801C019005F1900003
:10FE100050F824000199C160E1B22846FFF7E3FBE6
:10FE200018E00398C0F3814020B10398C0F38140EB
:10FE300002280FD1039820F0004000F10040039009
:10FE4000039820F08040039005F1900050F82400C2
:10FE500003990160032105F56370015500200190AD
:10FE6000019820F0100000E004E0103001900198AB
:10FE7000B06000BF012006B070BD7FB505460C46DE
:10FE800005F1900050F82460B0680390F06802908B
:10FE9000DDE902100840039005F1900050F82400BD
:10FEA000006801900398C0F38000D0B1002000905A
:10FEB000009820F00400001D00900098B06005F14B
:10FEC000900050F82400C0680090009820F00200D4
:10FED000801C009005F1900050F824000099C1604A
:10FEE000B0E10398C0F3401048B1002000900098A2
:10FEF00020F02000203000900098B060A2E103982C
:10FF0000C0F34020F8B105F1900050F82400C0681B
:10FF10000090009820F00200801C009005F19000F5
:10FF200050F824000099C160E1B22846FFF75BFB5E
:10FF300000200090009820F4007000F50070009000
:10FF40000098B0607EE10398C0F3000038B3002150
:10FF500005F5457040F8241005F1900050F8240094
:10FF6000C0680090009820F00200801C009005F10D
:10FF7000900050F824000099C160E1B22846FFF7D4
:10FF800032FB00200090009820F00100401C0090FF
:10FF90000098B060012105F56370015552E10398A6
:10FFA000C0F3C00010B300200090009820F00800BB
:10FFB000083000900098B06005F1900050F82400DF
:10FFC000C0680090009820F00200801C009005F1AD
:10FFD000900050F824000099C160E1B22846FFF774
:10FFE00002FB052105F5637001552BE10398C0F371
:10FFF000001038B3002105F5457040F8241005F1D4
:020000040801F1
:10000000900050F82400C0680090009820F0020092
:10001000801C009005F1900050F824000099C16008
:10002000E1B22846FFF7DFFA00200090009820F0A8
:100030001000103000900098B060032105F5637047
:100040000155FFE00398C0F3C01040B305F19000E4
:1000500050F82400C0680090009820F00200801C36
:10006000009005F1900050F824000099C160E1B2C1
:100070002846FFF7B8FA05F5457050F82410491CDA
:1000800040F8241006217830015500200090009897
:1000900020F08000803000900098B060D2E003989B
:1000A000C0F3801038B3002105F5457040F82410E6
:1000B00005F1900050F82400C0680090009820F0EE
:1000C0000200801C009005F1900050F82400009977
:1000D000C160E1B22846FFF786FA00200090009840
:1000E00020F04000403000900098B060042105F5F9
:1000F00063700155A6E00398C0F3802060B305F15A
:10010000900050F82400C0680090009820F0020091
:10011000801C009005F1900050F824000099C16007
:10012000E1B22846FFF75FFA00200090009820F027
:100130001000103000900098B060082105F5637041
:10014000015500200090009820F4806000F5806048
:1001500000900098B06075E00398C0F3400000285C
:1001600070D005F1900050F82400C068009000980D
:1001700020F00200009005F1900050F82400009952
:10018000C16005F56370005D012815D1012105F2FC
:100190009B3001550198C0F38140022848D105F5F4
:1001A0006B7000EB4410407E80F0010105F56B7030
:1001B00000EB441041763BE005F56370005D0328D9
:1001C00004D1022105F29B30015531E005F5637041
:1001D000005D04280FD105F56B7000EB4410007929
:1001E000012803D1E1B22846FFF7E8F9022105F220
:1001F0009B3001551CE005F56370005D052804D1B6
:10020000042105F29B30015512E005F56370005D95
:1002100006280DD105F5457050F82400032807D1B4
:10022000032105F29B3001550021873840F8241046
:1002300000200090009820F00200801C00900098A0
:10024000B06000BF012004B070BD7FB50446E06817
:10025000C06A00900198C0F3C30104F56B7000EB15
:1002600041100069C01CC0F38F0671E00098800443
:10027000050C0198C0F3C30104F56B7000EB41104D
:100280000069A84215D20198C0F3C30104F56B7050
:1002900000EB4110006985B200200390039820F024
:1002A000200020300390E068806903998843E1686A
:1002B00088610198C0F3C30104F56B7000EB411035
:1002C0000069C01CC0F38F060198C0F3C302C0F3DD
:1002D000C30304F56B7000EB43102B46C168204646
:1002E00000F022FA0198C0F3C30104F56B7000EB33
:1002F0004110C06841190198C0F3C30204F56B7046
:1003000000EB4210C1600198C0F3C30104F56B70AB
:1003100000EB41100069411B0198C0F3C30204F5D2
:100320006B7000EB421001610198C0F3C30104F54A
:100330006B7000EB4110406941190198C0F3C30292
:1003400004F56B7000EB42104161E068C06A0090F8
:10035000009880B2B0420ADD0198C0F3C30104F5F1
:100360006B7000EB4110006900287FF47FAF012023
:1003700004B070BDFEB504460026002500200090A4
:1003800002900190D4F8CC0000680290D4F8CC0020
:1003900000680190019820F004000190019820F07D
:1003A00002000190019820F008000190019820F0CF
:1003B000200001900298C0F3400058B1019820F04D
:1003C0000200801C0190324800684168204688473E
:1003D00045F001050298C0F3C000002842D0019802
:1003E00020F00800083001900298C0F38000012836
:1003F00038D1274800684168204688470298C0F3F2
:100400004140022804D00298C0F34140012828D17D
:100410006069006800900298C0F34140022811D141
:1004200041F27071606941600098C0F301000228D8
:1004300018D0207A022803D102212046FFF7E6F9DE
:1004400001260FE04BF68031606941600098C0F3EF
:100450000100012806D001212046FFF7D7F9012627
:1004600000E001260298C0F3401030B1019820F05E
:1004700020002030019045F0010516B12046FFF71D
:10048000F7F90199D4F8CC0001602846FEBD0000C0
:100490005C070020FEB50446606900690090019881
:1004A000C0F3C30104F56B7000EB41100069C01C80
:1004B000C0F38F0672E000988004050C0198C0F329
:1004C000C30104F56B7000EB41100069A84216D21D
:1004D0000198C0F3C30104F56B7000EB4110006993
:1004E00085B200200290029820F0806000F18060C8
:1004F0000290E068806902998843E1688861019808
:10050000C0F3C30104F56B7000EB41100069C01C1F
:10051000C0F38F060198C0F3C302C0F3C30304F510
:100520006B7000EB43102B46C168204600F0FCF8CE
:100530000198C0F3C30104F56B7000EB4110C06873
:1005400041190198C0F3C30204F56B7000EB42102F
:10055000C1600198C0F3C30104F56B7000EB41105A
:100560000069411B0198C0F3C30204F56B7000EBF6
:10057000421001610198C0F3C30104F56B7000EBF8
:100580004110406941190198C0F3C30204F56B7032
:1005900000EB42104161606900690090009880B2F0
:1005A000B0420ADD0198C0F3C30104F56B7000EBA3
:1005B0004110006900287FF47EAF0120FEBD7FB5A9
:1005C0000446002500200290029820F01000103010
:1005D0000290E068806902998843E1688861E06878
:1005E000006A03900398C0F3030504F1900050F8EB
:1005F0002500006800900398C0F34340022806D00D
:10060000032869D0052868D0072864D166E00398DC
:10061000C0F30A1000285DDD04F56B7000EB451097
:10062000C068002856D00398C0F30A1204F56B7016
:1006300000EB4510C1682046FFF70AF90398C0F3A4
:10064000030104F56B7000EB4110C0680399C1F31E
:100650000A1101440398C0F3030204F56B7000EB28
:100660004210C1600398C0F3030104F56B7000EB06
:10067000411040690399C1F30A1101440398C0F382
:10068000030204F56B7000EB4210416104F56B70DE
:1006900000EB4510466904F5547040F8256004F1FC
:1006A000900050F82500006901900198C0F3C940FE
:1006B00000280FDD009820F0004000F1004000907D
:1006C000009820F08040009004F1900050F8250040
:1006D0000099016003E000BF00BF00BF00BF00BF82
:1006E000029820F0100010300290E06880690299B2
:1006F0000843E1688861012004B070BD38B5044644
:10070000002000900748006801682046884700984C
:1007100020F00800083000900098E168486101204E
:1007200038BD00005C07002030B5C47800256CB9E6
:1007300000EB82000024DB1C9B08D0F8D00003E013
:1007400051F8042B0260641C9C42F9D3284630BD4A
:10075000FEE7000010B5084C10212046FBF719FFFA
:100760000420FCF7A9FD10212046FBF714FFBDE88B
:100770001040FBF709BE00000008014010B5074C0F
:1007800010212046FBF705FF0620FCF795FD2046CB
:10079000BDE810401021FBF7FEBE0000000801403C
:1007A00010B50F4C10212046FBF7F3FE5020FCF74C
:1007B00083FD10212046FBF7EEFE10212046FBF7BB
:1007C000E8FE0120FCF778FD0020FCF775FD102104
:1007D0002046FBF7E0FEBDE81040FBF7D5BD00006A
:1007E000000801400149002008607047082C0040C3
:1007F000024940F08000086070470000002C004073
:100800000149012008607047A480054210B5124CD0
:100810006078401CC0B26070C82801D900206070A8
:100820000E4800680D4900F07F00091F096801F0BB
:100830007F0181420FD2207800F012F8FFF7D2FF3B
:100840006078C00703D0BDE8104000F0DFBBBDE812
:10085000104000F0D5BB10BD38070020042C00402C
:10086000024900F07F00086070470000002C004043
:10087000034A116821F4C071014311607047000000
:10088000042C004004490A6800F07F0022F07F0237
:100890001043086070470000042C00400FB4054B63
:1008A00010B503A9044A029800F018F810BC5DF8CE
:1008B00014FB0000F5190108F807002002E008C841
:1008C000121F08C1002AFAD170477047002001E0CA
:1008D00001C1121F002AFBD1704700002DE9FF4F14
:1008E0008DB005460F460026E9E1252879D1002480
:1008F0006D1CF74AA246A14601212B78203B01FA44
:1009000003F0104202D004436D1CF6E728782A2831
:1009100010D06FF02F022878A0F13001092915D8E6
:100920000AEB8A0102EB410144F0020400EB010AE8
:100930006D1CF0E757F804ABBAF1000F03DA44F48A
:100940000054CAF1000A44F002046D1C28782E28D5
:1009500017D115F8010F44F004042A280ED06FF0C7
:100960002F022878A0F1300109290AD809EB890162
:1009700002EB410100EB01096D1CF2E757F8049B03
:100980006D1C28786C280FD006DC4C2817D06828FE
:100990000DD06A2814D104E0742810D07A280FD121
:1009A0000DE044F400140AE044F4801401E044F43F
:1009B00040146978814202D16D1C04F580146D1CCD
:1009C00095F800C0BCF16E0F2AD012DCBCF1630FA9
:1009D0003CD007DCBCF1000F76D0BCF1580F19D128
:1009E000A7E018E0BCF1640F6FD0BCF1690F11D122
:1009F0006BE0BCF1730F32D006DCBCF16F0F71D02D
:100A0000BCF1700F06D196E0BCF1750F6BD0BCF154
:100A1000780F69D06046DDE90F129047761C4DE1F2
:100A2000C4F30250022806D003280AD0042801CFBC
:100A30000AD0066042E101CF4FEAE671C0E90061E9
:100A40003CE101CF068039E1067037E101CF8DF836
:100A5000000000208DF80100EB46012003E057F86C
:100A600004BB4FF0FF3061074FF0000102D40DE0EE
:100A700008F10101884649450FDA8045F8DB1BF88B
:100A800008100029F4D108E008F1010188468142EC
:100A9000FADB1BF808100029F6D1DDE90F23AAEBD9
:100AA00008008146214600F03CF9304400EB08067E
:100AB00004E0DDE90F121BF8010B9047B8F10108C3
:100AC000F7D221464846F4E0FDE00A21C4F3025281
:100AD0004FF0000B0891022A07D001CFC117032A5B
:100AE00009D00AE030E022E023E0FF1D27F00707ED
:100AF000F7E8020105E000B2C117042A01D140B2B3
:100B0000C117002906DA0023D0EB030063EB0101D3
:100B10002D2202E0220504D52B228DF8242001226B
:100B200003E0E20701D02022F7E790464EE00A21D9
:100B30000BE0102109E010214FF0000B44F00404F9
:100B40004FF00809089103E008214FF0000B0891CD
:100B5000C4F30252022A04D001CF0021032A06D096
:100B600007E0FF1D27F00707F7E8020105E080B264
:100B70000021042A01D1C0B200214FF00008220751
:100B800024D5BCF1700F29D0089B83F0100353EAE1
:100B90000B0309D150EA010206D030228DF824203F
:100BA0008DF825C002229046089B83F0080353EA83
:100BB0000B030BD150EA010201D1620706D53022A6
:100BC0008DF824204FF00108A9F10109BCF1580F5C
:100BD00009D040A20B9208AA0A9211E040228DF897
:100BE00024200122DFE740A2F4E75B46089AFBF7E6
:100BF000F0FA0B9B9B5C0A9AA2F101020A92137015
:100C000050EA0102F1D10A98ADEB000000F1200B8F
:100C1000600702D524F4803401E04FF00109D94582
:100C200002DDA9EB0B0000E0002000EB0B014144CA
:100C30000890AAEB01000B90E00306D4DDE90F2336
:100C400021460B9800F06DF806444FF000090DF1B5
:100C5000240A07E0DDE90F121AF809009047761C14
:100C600009F10109C145F5DBE0030CD5DDE90F23EE
:100C700021460B9800F055F8064404E0DDE90F1218
:100C800030209047761C0899481E08900029F5DC12
:100C900008E00A980A990078491C0A91DDE90F12C8
:100CA0009047761CBBF10001ABF1010BF1DC0B9816
:100CB0002146DDE90F2300F021F806446D1C287859
:100CC00000287FF412AE11B03046BDE8F08F00006E
:100CD0000928010030313233343536373839616212
:100CE00063646566000000003031323334353637D6
:100CF0003839414243444546000000002DE9F041A7
:100D00000446002517461E46880405D406E03946E9
:100D10002020B04705F10105641EF8D52846BDE83E
:100D2000F0812DE9F0410446002590461E46C80397
:100D300001D5302700E02027880405D506E041468C
:100D40003846B04705F10105641EF8D52846BDE8D0
:100D5000F081F0B500231C46CD5C5B1CDBB2002D9E
:100D6000FAD1055D641CE4B2002DFAD1AC46934281
:100D70000BD9CD181F190F4415F8016C07F8026C38
:100D80005B1E05F801CCDBB2F1E70023641E04E032
:100D9000C55CD6185B1C8D55DBB2A342F8DBF0BDF9
:100DA00010B5054C2078000101F0E0F86061207872
:100DB00001F0DCF8A06110BD0400002010B504466D
:100DC0000A464078012304F1300100F071FB08B1BC
:100DD000032010BDB4F82E02A0F52A41553901D0E8
:100DE000022010BD94F86600D4F8671040EA012193
:100DF0000848B0EB012F08D094F88210D4F8832073
:100E000041EA0221B0EB012F01D1002010BD0120E9
:100E100010BD0000004641542DE9F0410B46016829
:100E200016460D78303D092D02D84A783A2A01D06D
:100E3000002506E0891C0160022D02D30B20BDE8CD
:100E4000F081664850F825401C6094B1207820B1AC
:100E5000607800F05FFBC1070DD04FF0000884F808
:100E60000080E8B2607000F0F3FAC10708D00320F8
:100E7000E5E70C20E3E70EB1400704D40020DEE7ED
:100E80001EB1400701D50A20D9E700210E462046B1
:100E9000FFF794FF01280CD104F5F770017999B19F
:100EA000017AD0F8090041EA002631462046FFF7D2
:100EB00085FF032801D038B901E00120BFE7B4F86D
:100EC0003B00B0F5007F01D00D20B8E7B4F8461024
:100ED00029B994F85400D4F8551040EA0121A161D1
:100EE00094F84000E070E38F48439919216294F828
:100EF0003DC084F802C0B4F841202281B4F84350C8
:100F00002DB994F85050D4F8517045EA0725EB1AE2
:100F10001B1AA3EB1213B3FBFCF39B1C012540F639
:100F2000F777E361BB4200D302254FF6F777BB4268
:100F300001D3032510E0032D0ED00B1800EB121087
:100F40000844C4E909304FF0FF302061474684F877
:100F50000480032D07D038E094F85C30D4F85D703D
:100F600043EA0723EAE76771B4F8600001238219B6
:100F70006261607804F1300100F09AFA28BBB4F89D
:100F80002E02A0F52A4155391FD194F83000D4F82B
:100F9000311040EA01201249884216D194F8140217
:100FA000D4F8151240EA01200E4988420DD194F878
:100FB0001C02D4F81D1240EA0120E06094F81802E7
:100FC000D4F8191240EA0120206104492570091F54
:100FD000E7620888401C0880E0804FE79407002003
:100FE0005252614172724161C269891E921E8A42E7
:100FF00001D800207047826A807801FB002070478A
:1010000020210148FBF7C5BA000C0140202101480E
:10101000FBF7C1BA000C01402DE9F041C769064653
:101020005FEA010808D04146304600F0C9FD0228B9
:1010300008D20120BDE8F081F5680DB1BD4204D3AE
:10104000012502E0B842F5D345462C46641CBC425B
:1010500002D30224022D0AD32146304600F0B0FD0F
:1010600038B1411CE6D00128E4D0AC42EED10020DA
:10107000E0E76FF070422146304601F088F94FF00A
:10108000FF3540B95FEA080007D0014622463046E6
:1010900001F07DF908B12846CCE7F4603069411CC5
:1010A00003D0401E3061012070712046C2E700006D
:1010B0002DE9F047846989460B222021204600F063
:1010C00094FF00229046D9F8005043464FF0080C98
:1010D000E95C5B1C202937D92F2935D05C2933D016
:1010E0002E2901D0E0450BDBBCF1080F3BD12E29A6
:1010F00039D190064FF008084FF00B0C020EE7E7CD
:10110000802903D32448084410F8801C23A00E46ED
:1011100000E0401C077817B1B742FAD123E0A1F1F3
:101120004100192802D842F0020208E0A1F1610052
:10113000192804D8A6F1200142F00102C9B204F82E
:10114000081008F10108C3E72B44C9F80030202932
:1011500001D8042000E00020B8F1000F03D021786E
:10116000E52903D004E00620BDE8F08705212170C1
:10117000BCF1080F01D191060A0E02F0030101290A
:1011800001D140F01000C2F38101012901D140F0EA
:101190000800E0720020E7E7C029010820222A2B7E
:1011A0002C5B3D5D7C7F0000F0B59FB000242546A0
:1011B00078216846FBF701F878212048FAF7FDFF0F
:1011C0001E491E4F783108E00D2802D00A2800D0B1
:1011D00038556D1C641CEDB2E4B2485D0028F3D1B3
:1011E000174D287884421AD8001BC1B200206E46E1
:1011F000202202E03254401CC0B28842FAD3E007F9
:1012000019D0012000EB510231460C48FFF7A1FD37
:101210000020315C3954401CC0B27828F9D37822C0
:1012200006494FF48050FCF7DFF8687940F0010080
:1012300068711FB0F0BD4A08E6E70000040800200E
:10124000040000200349484300E0401E0028FCD170
:1012500070470000A086010042F2283148434FF059
:10126000E02148610020886101220A610A69D307F0
:1012700001D0D203FAD50861886170472DE9F041A9
:101280000446C0880F46401C0604360C2DD0206949
:1012900058B331075ED1401C2061E168206829B154
:1012A0008278521E12EA161F04D053E00089B04221
:1012B0001BD94FE000F084FC054601281AD9681CB0
:1012C00033D02068C169A9423ED877B1E168FFF701
:1012D000A3FE05000CD0012D0CD0681C25D00021E8
:1012E000206801F01FF800BB06E00420BDE8F08193
:1012F0000720FBE70220F9E720684FF40072303046
:10130000002100F072FE29462068FFF76DFE21687B
:1013100000274FF00108C8620FE000BF80F804808A
:101320000021206800F0FEFF08B10120DEE7206800
:10133000C16A491C7F1CFFB2C16220688178B94232
:10134000ECD8C16AC91BC162E56029462068FFF775
:101350004BFE2061E68006F00F013022206802EB90
:101360004111084460610020C0E770B504460021C7
:1013700000F02EF80EE02169206800F0D3FF050090
:1013800024D160690078E52807D030B101212046DA
:10139000FFF774FF0500EED018E02169206800F027
:1013A000C1FF050012D1666920220021304600F0FD
:1013B0001CFE0B223046A16900F00EFEA069C07A27
:1013C00000F018003073216801200871284670BDB4
:1013D00070B50D46C1808168044601291ED0206881
:1013E000C2698A421AD921B90278032A04D1416A12
:1013F00011B18078060117E0E1600189A9420DD999
:10140000406A17E0206800F0DBFB0146401C07D073
:10141000022903D32068C069884203D8022070BD26
:10142000012070BDA81B85B2B542EBD2E1602068F7
:10143000FFF7DAFD00EB1510206105F00F013022F7
:10144000206802EB411108446061002070BD00007B
:1014500010B50548FBF7F4F8044918B1087820F0F6
:1014600001000870087810BD6C0900208C0700206E
:1014700078B90D4B01201B78DB0701D003207047A2
:1014800071B1012907D04FF40073022907D0032955
:1014900008D00420704705480068106000E0138001
:1014A00000207047136070478C070020F015002063
:1014B0002DE9F0410D4616461C4638B934B11248A4
:1014C0000078C00704D00320BDE8F0810420FBE7CA
:1014D0000E48FBF7B5F8A0B167023B4632462946F5
:1014E0000A48FDF7DBF8044609490848FCF7F0FE16
:1014F0000648FBF7A5F810B1032CEED00CB1012083
:10150000E2E70020E0E700008C0700206C090020E3
:10151000180F002008B1012070470148007870477B
:101520008C0700202DE9F0410D4616461C4638B9BF
:1015300034B114480178C90704D00320BDE8F08114
:101540000420FBE70078400701D50220F6E70E48AB
:10155000FBF776F8A0B167023B46324629460A48B7
:10156000FDF7EAF9044609490748FCF7B1FE0648C9
:10157000FBF766F810B1032CEED00CB10120DDE7CB
:101580000020DBE78C0700206C090020180F0020EA
:1015900010B5044600F06EF9002801D10021216049
:1015A00010BD000010B5022801D30B2010BD064B62
:1015B000002453F8202002B1147001B10C7043F8DC
:1015C0002010002010BD0000940700202DE9F747EF
:1015D0008BB04FF00008064602F01F05C0F80080EF
:1015E00005F01E0269460CA8FFF716FC00281BD167
:1015F00007A8069068460C9900F09EF915F01C0F9C
:101600005DD04FF0010960B104280DD16846FFF7A5
:10161000ACFE002808D145F00805059C280738D401
:101620005CE0680703D508200EB0BDE8F087059C94
:10163000F4B3E07A10F0110F4ED128074ED5A08AEE
:10164000678B84F8148084F8158084F81A8084F8F5
:101650001B8084F81C8084F81D8084F81E8084F828
:101660001F80009960F31F4781F804900098D0F81C
:101670002CA047B13946009800F001FF0028D3D1D3
:1016800000987F1EC7605146009800F04BFE00286E
:10169000CAD184F80B8000F0EDFAA0734FEA102154
:1016A000E1734FEA104121744FEA1060607400E06A
:1016B00012E0009945F0200581F804900EE0002822
:1016C000B2D1059C14B1E07AC10601D50420ABE784
:1016D000A90703D5C00701D00720A5E70098C06A75
:1016E000F06105983062B571A18A608B61F31F408B
:1016F0003061207FD4F81D1040EA0120C6E9028045
:10170000FF21F171C6F81880009830600098C088F9
:10171000B080002088E72DE9F84F4FF000090F4610
:10172000C3F800900446818815469846006801F089
:1017300083F8002803D1A079010602D50220BDE874
:10174000F88FC00708D0D4E90210401A04F1240A27
:10175000854200D9054688E00720F0E7A168C80562
:101760006BD12068E27983789A420AD329B3616900
:1017700000F026FA012822D9411C54D0606184F877
:10178000079061692068FFF72FFCC0B1E1790E185E
:101790005FEA552B2DD0226801EB0B039078834232
:1017A00001D9A0EB010B50780BF0FF03324639460C
:1017B0000093FFF77DFEB0BB06E02069DAE7A07971
:1017C00040F08000A071B9E7A07940060AD5A06971
:1017D000801B584506D207EB40204FF4007251465B
:1017E00000F0FAFBE17900984FEA4B260844E071DB
:1017F00031E0A07940060BD520680123514640789E
:10180000A269FFF78FFE70B9A07920F04000A071A7
:10181000A069B0420DD0206801233246407851467D
:10182000FFF746FE28B1A07940F08000A0710120AA
:1018300085E7A661E079401CE071A068C0F308006C
:10184000C0F50076AE4200D92E4601192431324649
:10185000384600F0C1FBA06837443044A060D8F897
:1018600000008119AD1BC8F80010002D7FF476AF81
:10187000002064E770B504468188006800F0DCFF52
:1018800000280ED1A1798A060BD548060ED520680E
:10189000012304F124014078A269FFF743FE08B157
:1018A000012070BDA07920F04000A071E16920689E
:1018B00000F038FD0028F4D1256AE87A40F02000D5
:1018C000E872E0682877E068000A6877E068000C52
:1018D000A877E068000EE8772069A8762069000AFA
:1018E000E8762069000C28752069000E687500F004
:1018F000C1F9A875010AE975010C2976000E687610
:10190000A07920F02000A0712168012008712068D2
:10191000BDE8704000F034BF4FF480710148FAF721
:1019200038BE0000000801404FF480710148FAF70A
:1019300032BE00000008014073B50446019801E082
:10194000401C019001782029FAD001782F2901D07C
:101950005C2901D1401C01900025A5600198007808
:10196000202805D200212046FFF732FD65617CBDAD
:1019700001A92046FFF79CFB0028F8D10021204652
:10198000FFF726FDF8B92169206800F0CBFCD0B93B
:1019900061690A782AB1CA7A12070ED40A23A269A9
:1019A00003E004200FE05B1E06D311F8015B12F880
:1019B000016BAD1BF7D000E02DB100212046FFF7F1
:1019C0005DFC0028DFD0A169C97A01F0040128B1CB
:1019D0000428CCD10029CAD105207CBD0029FCD126
:1019E0006069C17AC906F7D5818A408B61F31F40CF
:1019F000A060BDE72DE9F0470546FAF7F5FE384C43
:101A0000A178002969D161784FF00008012909D136
:101A1000E1896181A189218184F8018084F80380B2
:101A2000A4F8108082884FF4A079B9FBF2F2E18823
:101A3000DFF8B0C0EEB28A420CD90A2D0AD0608914
:101A400000EB800202EBC0000CEB80004654491C06
:101A5000E18042E022896789BA4203D3237853B1F7
:101A600084F8008007EB870202EBC7024FF0200AE0
:101A70000CEB82030DE0521C92B222810C2AF1D1B0
:101A8000A4F80880EEE7E28803F802A0521CE28086
:101A9000491C8788B9FBF7F28A42F4D8A088588697
:101AA0006746A4F80680FAF74FFF6089401C80B2B1
:101AB00060810C2804D1A4F80A80012020812070C4
:101AC0000A2D0AD0608900EB800101EBC001E0889B
