:020000040800F2
:10C000009017002065C100081BCA0008E1C40008A1
:10C0100019CA0008DDC20008C9E1000800000000DC
:10C0200000000000000000000000000085CC0008B7
:10C03000DFC2000800000000B5CA00087DC100088A
:10C04000F9E100087FC100087FC100087FC1000836
:10C050007FC100087FC10008E1C200081DC30008BD
:10C060007FC100087FC100087FC100087FC10008B0
:10C070007FC100087FC100087FC100087FC10008A0
:10C080007FC100087FC100087FC100087FC1000890
:10C090007FC100087FC100087FC100087FC1000880
:10C0A0007FC100087FC100087FC100087FC1000870
:10C0B0007DD000087FC100087FC100087FC1000853
:10C0C0007FC100087FC100087FC100087FC1000850
:10C0D0007FC100087FC10008C3D100087FC10008EC
:10C0E0007FC100087FC100087FC100080000000078
:10C0F0000000000000000000000000000000000040
:10C10000000000000000000081D000087FC100088E
:10C11000BDD100087FC100087FC100087FC10008B1
:10C120007FC100087FC100087FC100087FC10008EF
:10C130007FC100087FC100087FC100087FC10008DF
:10C140007FC100087FC100087FC10008A9CA00089C
:10C15000DFF80CD000F03CF800480047F1E400089C
:10C16000901700200648804706480047FEE7FEE794
:10C17000FEE7FEE7FEE7FEE7FEE7FEE7FEE7FEE797
:10C1800019D0000851C1000840EA01039B0703D001
:10C1900009E008C9121F08C0042AFAD203E011F806
:10C1A000013B00F8013B521EF9D27047D2B201E0C8
:10C1B00000F8012B491EFBD270470022F6E710B5AC
:10C1C00013460A4604461946FFF7F0FF204610BD05
:10C1D000064C074D06E0E06840F0010394E80700D4
:10C1E00098471034AC42F6D3FFF7B6FF08E80008D2
:10C1F00028E8000870B58C1810F8015B15F00703EB
:10C2000001D110F8013B2A1106D110F8012B03E0EF
:10C2100010F8016B01F8016B5B1EF9D12B0705D4F7
:10C220000023521E0DD401F8013BFAE710F8013B40
:10C23000CB1A921C03E013F8015B01F8015B521E5C
:10C24000F9D5A142D8D3002070BD000010B5074C2D
:10C250002060084600F00CF820680028FCD1BDE8FA
:10C26000104000214FF0804000F03BBF0000002054
:10C270003EB504464FF080450021284600F031FFCE
:10C2800000220121284600F042FF022C02D0012C9E
:10C2900002D005E00B2001E042F6DF60ADF80400BB
:10C2A0000520ADF800000020ADF80600ADF8020052
:10C2B0006946284600F034FF0121284600F00EFFB1
:10C2C0000121284600F000FF01221146284600F017
:10C2D0001EFF0121284600F004FF3EBDFEE7704727
:10C2E00010B5052001F0FEFF01210A4800F0DDF83D
:10C2F00001280AD10848012141700178491CC9B2BE
:10C300000170032901D900210170BDE8104001200E
:10C3100000F018B8000C0140DA07002010B5022028
:10C3200000F016F8002809D00548D0F880004069D0
:10C330008047BDE81040022000F004B810BD0000A6
:10C34000740E002001490860704700001404014089
:10C35000064A014600201268044B0A4014331B6849
:10C360000B4202D0002A00D0012070470004014097
:10C3700030B51A498379026853B30B6893430B6055
:10C380000A1D13680468A343136002790A44136802
:10C39000046823431360114A083213680468A343F6
:10C3A0001360131D1C680568AC431C604479102C95
:10C3B00005D021440A68006802430A6030BD116854
:10C3C000046821431160196800680143196030BD99
:10C3D0000079084401689143016030BD00040140C8
:10C3E00010B58A0721F003040649130F21440F22D8
:10C3F0008C689A4094438C608A68984002438A60B3
:10C4000010BD000000000140F0B5CA78002502F020
:10C410000F03D20601D58A7813430A784FF00F0E26
:10C4200012F0FF0F4FF001021CD004680F8802FACF
:10C4300005F63740B74211D14FEA850C0EFA0CF7DA
:10C4400024EA070703FA0CF43C43CF78282F02D0E4
:10C45000482F02D002E0466100E006616D1C082D05
:10C46000E4D304600C88FF2C1ED944685FF00006FA
:10C4700006F1080702FA07F50F882F40AF420FD1E7
:10C480004FEA860C0EFA0CF7BC4303FA0CF73C4358
:10C49000CF78282F00D14561CF78482F00D1056192
:10C4A000761C082EE4D34460F0BD0246002092685A
:10C4B0000A4200D001207047416170470161704716
:10C4C000020AA13AC2EB0213C0B203EB421200EB24
:10C4D00042004FF43E6202EB4010202200F0A6BB67
:10C4E000FEE700002DE9F74F8C4CDFF8348288B06E
:10C4F000207815460101D8F80000FFF75EFEDFF84E
:10C5000024B2E946DFF820A2F9E000287ED06D1CB5
:10C5100080297CD915F8010B4FF6FF7600EB01203E
:10C5200080B200214FEA0B0201EB011332F8133005
:10C53000B34203D16946FFF7C3FF0AE0834267D1E4
:10C5400001EB01100BEB400120226846891CFFF72C
:10C550001BFE012056463178002957D02178D8F8A3
:10C560000020491C09EB400300FB01FC02EB8C0C92
:10C5700013F8027C0CF8047C94F800C09F790CF14D
:10C58000010C00FB0CFC02EB8C0C0CF8037C94F807
:10C5900000C09F7B0CF1010C00FB0CFC02EB8C0C2F
:10C5A0000CF8027C27789B7D7F1C474302EB8702B7
:10C5B000401CC0B202F8013C0528CCD300273078DB
:10C5C000002823D020788200401C07FB00F1D8F817
:10C5D000000000EB8100011DFFF7D6FD7F1CFFB2BC
:10C5E000042FECD30120317800290FD0217809EBFA
:10C5F0004002491C00FB01F7D8F8001012F8013C7A
:10C6000001EB870707F8043CD37902E082E033E0CE
:10C610002FE027787F1C474301EB870707F8033C8F
:10C620002778D37B7F1C474301EB870707F8023C41
:10C630002378D27D5B1C434301EB8301401CC0B2D5
:10C6400001F8012C0528CED300273078002861D0CE
:10C6500020788200401C07FB00F1D8F8000000EBB6
:10C660008100011DFFF790FD7F1CFFB2042FECD36A
:10C6700045E0491C89B257E72C4A012002EB01131F
:10C68000D8F80010C44627781A187F1CA2F201229D
:10C69000474301EB8707167807F8046C277816796B
:10C6A0007F1C474301EB870707F8036C2778167A4E
:10C6B0007F1C474301EB870707F8026C2678127B43
:10C6C000761C464301EB8606401CC0B206F8012CDE
:10C6D0000528D8D300265746387800281AD0207865
:10C6E0008200401C06FB00F1D8F8000000EB81003E
:10C6F000011DFFF749FD761CF6B2042EECD3297814
:10C700009AF8000000297FF400AF002802D00998B1
:10C7100000F04EFB0BB0BDE8F08F000004000020DD
:10C7200014000020EA06002006000020E900002096
:10C730002DE9F74FDFF8C8A2DFF8C8B288B09AF841
:10C740000000154601011031DBF80000FFF735FD50
:10C75000E9464BE1AC4C207800281CD0AB4800786F
:10C76000012815D06D1C80297ED915F8010BA84A27
:10C7700000EB012080B200214FF6FF7601EB0113A0
:10C7800032F81330B34209D16946FFF799FE10E041
:10C790009D49002008700BB0BDE8F08F83427DD129
:10C7A00001EB011002EB400120226846891CFFF7D3
:10C7B000EBFC012021780029EDD09AF8003009EB3C
:10C7C00040025B1C00FB03F7DBF8003012F8026C40
:10C7D00003EB8707D04607F8046C9AF80070967947
:10C7E0007F1C474303EB870707F8036C9AF8007038
:10C7F000967B7F1C474303EB870707F8026C98F88A
:10C800000010927D491C414303EB8101401CC0B2E2
:10C8100001F8012C0528CDD37E4800210170207835
:10C820000028B8D07B4E0998317800F02DFA307886
:10C83000401CC0B230700828F1D346460027D846C5
:10C8400020780028A7D030788200401C07FB00F138
:10C85000D8F8000000EB8100011DFFF795FC7F1C5C
:10C86000FFB2042FECD300E05FE001202178002923
:10C8700091D0327809EB4003521C00FB02FCD8F83F
:10C88000002013F8017C02EB8C0CB2460CF8047CFF
:10C8900096F800C0DF790CF1010C00E042E000FBEB
:10C8A0000CFC02EB8C0C0CF8037C96F800C0DF7BD0
:10C8B0000CF1010C00FB0CFC02EB8C0C0CF8027C64
:10C8C0009AF80010DB7D491C414302EB8101401CBA
:10C8D000C0B201F8013C0528C8D34E4E002030708C
:10C8E000207800289DD03178099800F0CDF9307873
:10C8F000401CC0B230700828F2D3002620780028EF
:10C900008FD09AF80000D8F800108200401C7043C5
:10C9100001EB8000011DFFF737FC761CF6B2042EF8
:10C92000ECD363E0491C89B228E73A4A0120521C43
:10C93000A64602EB01135446DC46DBF8001003E088
:10C940009EF80020002A93D027781A187F1CA2F2A4
:10C950000122474301EB8707167807F8046C277814
:10C9600016797F1C474301EB8707E04607F8036C05
:10C970002778167A7F1C474301EB870707F8026C7C
:10C980002678127B761C464301EB8606401CC0B21B
:10C9900006F8012C0528D3D31E4E00201B4F307003
:10C9A0003878032827D01848007800289AD03178A2
:10C9B000099800F069F93078401CC0B2307008283E
:10C9C000EED3114F0026387800288BD020788200D3
:10C9D000401C06FB00F1D8F8000000EB8100011DAF
:10C9E000FFF7D2FB761CF6B2042EECD3297800298F
:10C9F0007FF4B0AECFE6044900200870E1E7000004
:10CA0000040000201400002006000020DB070020A6
:10CA1000EA060020E8000020FEE7704730B50F224C
:10CA2000C47801780123FCB1144C246801F1E021A1
:10CA300004F4E064C4F5E064C4F30724C4F104051D
:10CA4000E2404478AC408578154025432A0181F8BE
:10CA50000024007800F01F018B404009800000F1A5
:10CA6000E020C0F8003130BD01F01F0083404809CC
:10CA7000800000F1E020C0F8803130BD0CED00E016
:10CA80000249084302490860704700000000FA05A7
:10CA90000CED00E0024A114001430248016070477A
:10CAA00080FFFF1F08ED00E0014800F0A8BB000078
:10CAB000C808002070470000044A0029D16901D04D
:10CAC000014300E08143D161704700000010024043
:10CAD000044A0029916901D0014300E0814391613A
:10CAE00070470000001002400029018802D041F088
:10CAF000400101E021F040010180704770B5012143
:10CB000086B00803FFF7E4FFA020ADF8140003246B
:10CB1000214E8DF8164018258DF8175005A930467E
:10CB2000FFF772FC4020ADF814008DF8175005A9EE
:10CB30003046FFF769FC1020ADF814008DF8164060
:10CB40008DF8170005A93046FFF75EFC0021ADF80F
:10CB500000104FF48270ADF80200ADF808107015A7
:10CB6000ADF80A00ADF80410ADF80C1007200B4C1E
:10CB7000ADF80610ADF80E10ADF81000694620466D
:10CB800000F037F801212046FFF7AEFF10213046B4
:10CB9000FFF794FC06B070BD000801400030014072
:10CBA000002000F001B8000070B50B4C05460221D2
:10CBB000204600F013F80028F9D02946204600F05E
:10CBC00016F80121204600F009F80028F9D0204687
:10CBD00000F00BF8C0B270BD0030014002460020EA
:10CBE00012890A4200D001207047808970478181F4
:10CBF000704730B502884C8802F441530A88CD88CA
:10CC000022438C882C4322430C8922434C892243A3
:10CC10008C892243CC8922431A430280828B22F4DE
:10CC200000628283098A018230BD00002DE9F04153
:10CC3000DFF84C800F46054616460024102140467A
:10CC4000FFF73AFC0B20FFF7AFFFC5F30740FFF7F4
:10CC5000ABFFC5F30720FFF7A7FFE8B2FFF7A4FF7C
:10CC60000020FFF7A1FF03E0FFF79AFF3855641C8F
:10CC7000B442F9D34046BDE8F0411021FFF71EBC95
:10CC800000080140704700002DE9F05F0E4628259E
:10CC9000DFF800A1DFF800B173E040480178002917
:10CCA00072D000243E4A9BF800005946401C12688E
:10CCB000604302EB80023B480078012806D0002048
:10CCC000C6F10808354FDAF8009012E03348002129
:10CCD000017056E03B7873B312F8043B12F803C9B5
:10CCE000B3402CFA08FC43EA0C0309F80030401C5E
:10CCF000C0B20B78B0EB830FECD33878B946D0B123
:10CD0000042C0FD00027D84607E000BFDAF8000057
:10CD1000C05D00F03DF97F1CFFB298F80000B7EB52
:10CD2000800FF3D3204F04213846FFF7C7FB1F497C
:10CD30000020096801E027E0401C8842FCD399F8F4
:10CD4000000008B3042C02D0204600F049F9042169
:10CD50003846FFF7B1FB042C0FD001213846FFF70E
:10CD6000ADFB0220401CFF28FCDB01213846FFF709
:10CD7000A3FB0220401C0F28FCDB641CE4B2042C43
:10CD800090D36D1EADB288D2BDE8F05F0421064895
:10CD9000FFF794BB180000200400002006000020CC
:10CDA00014000020DB0700200010014010000020CC
:10CDB0002DE9F05F3B4FDFF8F0803C4EDFF8F0A04C
:10CDC0004FF0010B317800295FD0DFF8E8900024A4
:10CDD00098F80010D9F80020491C614302EB810249
:10CDE000404600213B6806E03578EDB312F8015B60
:10CDF0005D54491CC9B20578B1EB850FF4D3317885
:10CE000091B3042C0CD0002505E03868405D00F09B
:10CE1000BFF86D1CEDB298F80000B5EB800FF4D3AD
:10CE2000042155465046FFF749FB23490020096875
:10CE300000E0401C8842FCD33078A8B1042C12D00A
:10CE4000204600F0CDF801212846FFF737FB0220ED
:10CE5000401CFF28FCDB01212846FFF72DFB0220A8
:10CE6000401C0F28FCDB00E00FE014484FF00401E9
:10CE70000078012828460ED0FFF71EFB641CE4B2A0
:10CE8000042CA5D3BBF1010B9CD25046BDE8F05F4A
:10CE90000421FFF713BBFFF70FFB40F6C41001F0AE
:10CEA00021FAEBE718000020040000200600002013
:10CEB000001001401400002010000020DA070020BC
:10CEC0000CB500212E4801910091026842F4803295
:10CED00002604FF4A063026802F400320092019AEB
:10CEE000521C0192009A12B9019A9A42F3D1026837
:10CEF000920342D50121009122490A6842F01002B2
:10CF00000A600A6822F003020A600A6842F002021C
:10CF10000A604168416041684160416841F4806154
:10CF20004160C16A184A1140C162C16A174A11437F
:10CF3000C162016841F08061016001680901FCD5AE
:10CF4000416821F47C114160416841F4E81141607D
:10CF5000016841F08071016001688901FCD5416878
:10CF600021F003014160416841F0020141604168E4
:10CF7000C1F381010229FAD10CBD00910CBD000062
:10CF8000001002400020024000F0FEFF44060100B5
:10CF900070B5124E044600250020401CC0B2022885
:10CFA000FBD302213046FFF787FAE0074FF0080174
:10CFB000304602D0FFF782FA01E0FFF77DFA002049
:10CFC000401CC0B20228FBD302213046FFF776FA9C
:10CFD0006D1C6408EDB2082DDED370BD0010014059
:10CFE00070B504460B4D80074FF08001284602D5EE
:10CFF000FFF764FA01E0FFF75FFAE0074FF0400146
:10D00000284603D0BDE87040FFF758BABDE870402D
:10D01000FFF752BA000C0140144810B5016841F006
:10D02000010101604168124A114041600168114AE2
:10D0300011400160016821F480210160416821F400
:10D04000FE014160016821F0A05101604FF47F01B1
:10D0500081600021C1624FF41F018160FFF730FF42
:10D0600005494FF00060086010BD0000001002404C
:10D070000000FFF0FFFFF6FE08ED00E000F016B93B
:10D0800010B50F4C0121204600F035F8002815D0CE
:10D090000C4A1068B0F57A7F01D900201060411C5D
:10D0A0001160C80707D001F037F92046BDE81040ED
:10D0B000012100F013B801F027F9F6E710BD0000D8
:10D0C000000C0040DC0000200029018802D041F063
:10D0D000800101E021F0800101807047C943018295
:10D0E00070470029018802D041F0010101E021F0E0
:10D0F00001010180704702460020138A92890B4289
:10D1000002EA010202D0002A00D001207047002A62
:10D11000828901D00A4300E08A438281704700007F
:10D1200030B502881B4B1C4C98420DD0A0420BD04E
:10D13000B0F1804F08D0194DA84205D0184DA84233
:10D1400002D0184DA84203D122F070054A882A4324
:10D15000154DA84206D0154DA84203D022F44075C3
:10D16000CA882A4302808A8882850A880285984272
:10D170000AD0A04208D00E4A904205D00D4A9042F3
:10D1800002D00D4A904201D1097A018601218182A3
:10D1900030BD0000002C014000340140000400407C
:10D1A00000080040000C0040001000400014004047
:10D1B000004001400044014000480140042001F0CB
:10D1C00059BA022001F056BA0A0A01219140C94316
:10D1D000018070470246002012880A4200D00120D8
:10D1E00070478088C0F3080070470121C0F8101311
:10D1F000002070470021C0F810130846704738B56A
:10D200000546002400200090284600F0A7F80028DA
:10D2100047D0284600F0A9F80090009808B90020EF
:10D2200038BD0098C0F3C00018B1284600F0A2FF36
:10D2300004430098C0F3001018B1284600F0E7FE40
:10D2400004430098C0F3401018B1284600F021FDB7
:10D2500004430098C0F3806018B1284600F040FEF7
:10D2600004430098C0F3406018B1284600F0E9F884
:10D2700004430098C0F3006018B1284600F0A0FDF8
:10D2800004430098C0F3407018B1284600F0A0F89D
:10D2900004430098C0F3405018B1284600F0AEF89F
:10D2A00004432046BCE700207047000010B5012170
:10D2B0008C072046FFF71FFF002809D001212046D8
:10D2C000FFF70CFF0649086818B10868401E08609F
:10D2D00010BD2046BDE810400021FFF702BF00004E
:10D2E000000000200121FEF7B1BF10B500EB810066
:10D2F000002350F8901F4FF00042012464F3DC42F9
:10D300000A610068016821F0804141F0004101603C
:10D31000184610BD10B500EB81010022D1F8903005
:10D32000196841F0404111F4402F09D0C1F3814404
:10D33000022C05D04069006910F47F0F03D004E08F
:10D34000C068C06AF8E721F000411960104610BDBE
:10D350004269106861F3010010607047C06840695D
:10D3600010F0010000D001207047C0684169806959
:10D3700008407047D0F8CC00006820F02E007047BD
:10D38000406940697047034610B50020D21C9208DE
:10D39000D3F8D03003E01C6841F8044B401C9042A5
:10D3A000F9D3084610BD70B50446FFF7E3FF40F41B
:10D3B000807554F8CC0F05600A20FFF793FF2168B1
:10D3C00025F4807008601420FFF78CFF012070BDE9
:10D3D00038B5044600200090074800688168204660
:10D3E0008847009820F0005000F10050009000980D
:10D3F000E1684861012038BDE80700200CB501460E
:10D40000D1F8900000680090009820F0004000F1F2
:10D4100000400090009820F0804000F18040009093
:10D42000009AD1F89000026000200190019820F449
:10D43000001000F5001001900198CA6850610120A9
:10D440000CBD7CB50546002400262846FFF798FF52
:10D45000019000BF1BE0019880B20121A14008406B
:10D46000A0B105F1900050F82400006800900098E9
:10D47000C0F3C03028B12146284600F00DF806431D
:10D4800004E02146284600F01CFA0643641C287874
:10D49000A042E0D830467CBD70B586B005460C464B
:10D4A00005F1900050F82460B0680590F068049091
:10D4B000DDE904100840059005F1900050F82400C3
:10D4C00000680390002004900598C0F38000D0B15C
:10D4D00000200190019820F00400001D01900198A7
:10D4E000B06005F1900050F82400C06801900198E8
:10D4F00020F00200801C019005F1900050F82400FB
:10D500000199C16073E00598C0F3401048B1002054
:10D510000190019820F02000203001900198B06027
:10D5200065E00598C0F3C00078B305F1900050F8AD
:10D530002400C0680190019820F00200801C019036
:10D5400005F1900050F824000199C160052105F50E
:10D550006370015500200190019820F010001030F8
:10D5600001900198B06000200190019820F008001F
:10D57000083001900198B060059820F010000590E7
:10D58000E1B22846FFF7C6FE31E0FFE70598C0F399
:10D59000802060B305F1900050F82400C06801902D
:10D5A000019820F00200801C019005F1900050F8D5
:10D5B00024000199C160E1B22846FFF7ABFE0020CC
:10D5C0000190019820F01000103001900198B06097
:10D5D000082105F56370015500200190019820F4A1
:10D5E000806000F5806001900198B06000BF0598F0
:10D5F000C0F34020F8B105F1900050F82400C06855
:10D600000190019820F00200801C019005F190002B
:10D6100050F824000199C160E1B22846FFF77AFE74
:10D6200000200190019820F4007000F50070019036
:10D630000198B06042E1059800F00100002871D027
:10D64000E878012812D105F1900050F82400006913
:10D65000029005F56B7000EB441000690299C1F36C
:10D660001201411A05F5547040F82410012105F506
:10D67000637001550021783840F824100020019093
:10D68000019820F00100401C01900198B0600398BF
:10D69000C0F3814020B10398C0F3814002282AD111
:10D6A00005F1900050F82400C0680190019820F026
:10D6B0000200801C019005F1900050F824000199AF
:10D6C000C160E1B22846FFF725FE002001900198D5
:10D6D00020F01000103001900198B06005F56B70DB
:10D6E00000EB4410007E80F0010105F56B7000EB4B
:10D6F00044100176E2E00398C0F38140032899D1F9
:10D70000039820F0005000F10050039005F19000C4
:10D7100050F8240003990160012105F29B30015566
:10D72000CCE0FFE70598C0F34000002851D005F198
:10D73000900050F82400C0680190019820F0020089
:10D74000019005F1900050F824000199C16005F5A1
:10D750006370005D012804D1012105F29B30015561
:10D760002DE005F56370005D052804D1042105F264
:10D770009B30015523E005F56370005D062804D059
:10D7800005F56370005D082808D1002105F5457096
:10D7900040F8241003218730015510E00398C0F3AE
:10D7A000814003280BD105F56B7000EB4410007E1F
:10D7B00080F0010105F56B7000EB4410017600204C
:10D7C0000190019820F00200801C01900198B06047
:10D7D00074E00598C0F3C01040B305F1900050F814
:10D7E0002400C0680190019820F00200801C019084
:10D7F00005F1900050F824000199C16005F54570CD
:10D8000050F82410491C40F82410062178300155A6
:10D81000E1B22846FFF77EFD00200190019820F03C
:10D820008000803001900198B06047E00598C0F317
:10D830000010E8B30398C0F38140032815D105F127
:10D84000900050F82400C0680190019820F0020078
:10D85000801C019005F1900050F824000199C160EE
:10D86000E1B22846FFF756FD18E00398C0F3814067
:10D8700020B10398C0F3814002280FD1039820F013
:10D88000004000F100400390039820F08040039096
:10D8900005F1900050F8240003990160032105F57B
:10D8A0006370015500200190019820F0100000E005
:10D8B00004E0103001900198B06000BF012006B074
:10D8C00070BD7FB505460C4605F1900050F8246008
:10D8D000B0680390F0680290DDE902100840039000
:10D8E00005F1900050F82400006801900398C0F3FF
:10D8F0008000D0B100200090009820F00400001DAE
:10D9000000900098B06005F1900050F82400C068C5
:10D910000090009820F00200801C009005F190001B
:10D9200050F824000099C160B0E10398C0F34010A2
:10D9300048B100200090009820F020002030009096
:10D940000098B060A2E10398C0F34020F8B105F15F
:10D95000900050F82400C0680090009820F0020069
:10D96000801C009005F1900050F824000099C160DF
:10D97000E1B22846FFF7CEFC00200090009820F48A
:10D98000007000F5007000900098B0607EE1039890
:10D9900000F0010038B3002105F5457040F824106F
:10D9A00005F1900050F82400C0680090009820F025
:10D9B0000200801C009005F1900050F824000099AE
:10D9C000C160E1B22846FFF7A5FC00200090009856
:10D9D00020F00100401C00900098B060012105F586
:10D9E0006370015552E10398C0F3C00010B30020EA
:10D9F0000090009820F00800083000900098B06077
:10DA000005F1900050F82400C0680090009820F0C4
:10DA10000200801C009005F1900050F8240000994D
:10DA2000C160E1B22846FFF775FC052105F563707A
:10DA300001552BE10398C0F3001038B3002105F520
:10DA4000457040F8241005F1900050F82400C0689B
:10DA50000090009820F00200801C009005F19000DA
:10DA600050F824000099C160E1B22846FFF752FC4B
:10DA700000200090009820F01000103000900098D6
:10DA8000B060032105F563700155FFE00398C0F312
:10DA9000C01040B305F1900050F82400C068009019
:10DAA000009820F00200801C009005F1900050F8D2
:10DAB00024000099C160E1B22846FFF72BFC05F570
:10DAC000457050F82410491C40F824100621783085
:10DAD000015500200090009820F0800080300090D8
:10DAE0000098B060D2E00398C0F3801038B30021F2
:10DAF00005F5457040F8241005F1900050F8240019
:10DB0000C0680090009820F00200801C009005F191
:10DB1000900050F824000099C160E1B22846FFF758
:10DB2000F9FB00200090009820F040004030009069
:10DB30000098B060042105F563700155A6E00398D4
:10DB4000C0F3802060B305F1900050F82400C06855
:10DB50000090009820F00200801C009005F19000D9
:10DB600050F824000099C160E1B22846FFF7D2FBCB
:10DB700000200090009820F01000103000900098D5
:10DB8000B060082105F563700155002000900098F1
:10DB900020F4806000F5806000900098B06075E02F
:10DBA0000398C0F34000002870D005F1900050F8B1
:10DBB0002400C0680090009820F00200009005F159
:10DBC000900050F824000099C16005F56370005D75
:10DBD000012815D1012105F29B3001550198C0F3B0
:10DBE0008140022848D105F56B7000EB4410407E5F
:10DBF00080F0010105F56B7000EB441041763BE0CD
:10DC000005F56370005D032804D1022105F29B3005
:10DC1000015531E005F56370005D04280FD105F56D
:10DC20006B7000EB44100079012803D1E1B2284663
:10DC3000FFF75BFB022105F29B3001551CE005F567
:10DC40006370005D052804D1042105F29B30015565
:10DC500012E005F56370005D06280DD105F54570ED
:10DC600050F82400032807D1032105F29B30015509
:10DC70000021873840F8241000200090009820F000
:10DC80000200801C00900098B06000BF012004B02A
:10DC900070BD7FB50446E068C06A00900198C0F38B
:10DCA000C30104F56B7000EB41100069C01CC0F3A8
:10DCB0008F0673E04FF6FF71009801EA8005019826
:10DCC000C0F3C30104F56B7000EB41100069A8427A
:10DCD00015D20198C0F3C30104F56B7000EB41103D
:10DCE000008A85B200200390039820F020002030A5
:10DCF0000390E068806903998843E168886101982E
:10DD0000C0F3C30104F56B7000EB41100069C01C47
:10DD1000C0F38F060198C0F3C302C0F3C30304F538
:10DD20006B7000EB43102B46C168204600F038FAB8
:10DD30000198C0F3C30104F56B7000EB4110C0689B
:10DD400041190198C0F3C30204F56B7000EB421057
:10DD5000C1600198C0F3C30104F56B7000EB411082
:10DD60000069411B0198C0F3C30204F56B7000EB1E
:10DD7000421001610198C0F3C30104F56B7000EB20
:10DD80004110406941190198C0F3C30204F56B705A
:10DD900000EB42104161E068C06A0090009880B2D8
:10DDA000B0420ADD0198C0F3C30104F56B7000EBCB
:10DDB0004110006900287FF47DAF012004B070BDE0
:10DDC000FEB5044600260025002000900290019038
:10DDD000D4F8CC0000680290D4F8CC000068019020
:10DDE000019820F004000190019820F002000190B9
:10DDF000019820F008000190019820F02000019087
:10DE00000298C0F3400058B1019820F00200801C35
:10DE100001903248006841682046884745F0010576
:10DE20000298C0F3C000002842D0019820F00800FA
:10DE3000083001900298C0F38000002838D02748AD
:10DE400000684168204688470298C0F34140022894
:10DE500004D00298C0F34140012828D160690068CD
:10DE600000900298C0F34140022811D141F2707134
:10DE700060694160009800F00300022818D0207A01
:10DE8000022803D102212046FFF762FA01260FE0A3
:10DE90004BF6803160694160009800F00300012872
:10DEA00006D001212046FFF753FA012600E00126A3
:10DEB0000298C0F3401030B1019820F020002030CB
:10DEC000019045F0010516B12046FFF76CFA019963
:10DED000D4F8CC0001602846FEBD0000E807002011
:10DEE000FEB504466069006900900198C0F3C30163
:10DEF00004F56B7000EB41100069C01CC0F38F0685
:10DF000074E04FF6FF71009801EA80050198C0F3B4
:10DF1000C30104F56B7000EB41100069A84216D2F2
:10DF20000198C0F3C30104F56B7000EB4110008A47
:10DF300085B200200290029820F0806000F180609D
:10DF40000290E068806902998843E16888610198DD
:10DF5000C0F3C30104F56B7000EB41100069C01CF5
:10DF6000C0F38F060198C0F3C302C0F3C30304F5E6
:10DF70006B7000EB43102B46C168204600F010F98F
:10DF80000198C0F3C30104F56B7000EB4110C06849
:10DF900041190198C0F3C30204F56B7000EB421005
:10DFA000C1600198C0F3C30104F56B7000EB411030
:10DFB0000069411B0198C0F3C30204F56B7000EBCC
:10DFC000421001610198C0F3C30104F56B7000EBCE
:10DFD0004110406941190198C0F3C30204F56B7008
:10DFE00000EB42104161606900690090009880B2C6
:10DFF000B0420ADD0198C0F3C30104F56B7000EB79
:10E000004110006900287FF47CAF0120FEBD30B5CF
:10E0100085B00446002000900390039820F0100083
:10E0200010300390E068806903998843E168886153
:10E03000E068006A0490049800F00F00009004F17A
:10E0400090009DF8001050F821000068019004989D
:10E05000C0F34340022806D0032878D0052877D0A3
:10E06000072873D175E00498C0F30A10002869DD11
:10E0700004F56B709DF8001000EB4110C06800289B
:10E0800060D00498C0F30A1204F56B709DF800305C
:10E0900000EB4310C1682046FFF775F9049800F0C3
:10E0A0000F0104F56B7000EB4110C0680499C1F3D7
:10E0B0000A110144049800F00F0204F56B7000EBA4
:10E0C0004210C160049800F00F0104F56B7000EB82
:10E0D000411040690499C1F30A110144049800F009
:10E0E0000F0204F56B7000EB4210416104F56B7098
:10E0F0009DF8001000EB4110456904F554709DF83F
:10E10000001040F8215004F190009DF8001050F8E4
:10E110002100006902900298C0F3C940002811DD77
:10E12000019820F0004000F100400190019820F09B
:10E130008040019004F190009DF80020019950F872
:10E140002200016006E002E002E0FFE700BF00BF3E
:10E1500000BF00BF00BF039820F0100010300390F4
:10E16000E068806903990843E1688861012005B08F
:10E1700030BD000038B50446002000900748006814
:10E18000016820468847009820F008000830009079
:10E190000098E1684861012038BD0000E8070020D0
:10E1A00030B5C47800256CB900EB82000024DB1C7C
:10E1B0009B08D0F8D00003E051F8042B0260641CE7
:10E1C0009C42F9D3284630BDFEE7000001490020FB
:10E1D00008607047082C0040024940F08000086049
:10E1E00070470000002C004002490120C1F8A40043
:10E1F000704700000080054210B5124C6078401C4A
:10E20000C0B26070C82801D9002060700E48006854
:10E210000D4900F07F00091F096801F07F0181426C
:10E220000FD2207800F012F8FFF7D0FF6078C00717
:10E2300003D0BDE8104000F04FB8BDE8104000F03A
:10E2400045B810BDD8070020042C0040024900F05A
:10E250007F00086070470000002C0040034A1168EE
:10E2600021F4C0710143116070470000042C00408C
:10E27000054908B50A6800F07F0022F07F021043CC
:10E280000090086008BD0000042C004002E008C8AF
:10E29000121F08C1002AFAD170477047002001E020
:10E2A00001C1121F002AFBD17047000010B5064CB7
:10E2B00020780001103000F0A7F92061207880005C
:10E2C00000F0A2F9606110BD040000202021014887
:10E2D000FEF7F2B8000C014020210148FEF7EEB82D
:10E2E000000C014042F2283148434FF0E0214861E0
:10E2F0000020886101220A610A69D30701D0D20394
:10E30000FAD50861886170474FF480710148FEF7C3
:10E31000D3B80000000801404FF480710148FEF7B7
:10E32000CDB800000008014010B590B0402168460B
:10E33000FDF743FF0024402269462046FEF776FCA5
:10E340009DF80000002826D09DF80110002922D059
:10E35000FF2820D0FF291ED09DF802200A2A1AD1BA
:10E360009DF803200D2A16D1421E082A03D800BFAB
:10E3700060F3070405E0A0F11002092A01D8801F0C
:10E38000F6E7064862003029027003D0312901D037
:10E39000322900D1417010B010BD000004000020EF
:10E3A00010B5002440220D494FF4C010FEF73EFC8A
:10E3B0000A480B490278FF2A02D14278FF2A06D088
:10E3C0000A78FF2301E00355641C9442FBDB0B78C1
:10E3D0000022C2540120887010BD0000F407002004
:10E3E00004000020F8B501211C20FEF771FB4FF45A
:10E3F0008170ADF8000010248DF8034003258DF8DE
:10E40000025069461E48FDF7FFFF4FF48460ADF8E7
:10E4100000001C4E8DF803408DF8025069463046CE
:10E42000FDF7F2FF2002ADF80000174F8DF8034012
:10E430008DF8025069463846FDF7E6FF4FF47070DC
:10E44000ADF800008DF803408DF802506946304663
:10E45000FDF7DAFF0F20ADF800008DF803408DF8CE
:10E46000025069463846FDF7CFFF8020ADF8000026
:10E4700004208DF8030069463846FDF7C5FFF8BD56
:10E4800000080140000C0140001001407FB501214F
:10E490000920FEF71DFB0320ADF80C0048208DF885
:10E4A0000F0003A91148FDF7AFFF00210120FDF780
:10E4B00097FF00258DF80450082001248DF80500F1
:10E4C00000948DF806406846FDF752FF4FF4E06077
:10E4D000FEF7D6FA06208DF808008DF80A508DF860
:10E4E0000B4002A8FEF79AFA7FBD0000000C014025
:10E4F0004FF440414FF00060FEF7CCFAFFF772FF97
:10E50000FFF7E4FEFFF708FF4FF480613948FDF79D
:10E51000D5FFFFF7BBFF0120FFF7E4FEFEF7EEFAA1
:10E52000FFF702FFFFF73CFF334C607940F00F002C
:10E530006071FFF7BBFE4FF4C0725F217F2000F0D7
:10E540002BF92E4E0025DFF8B8802E4F00F012F97F
:10E55000307898B33570387860B10128F6D0022849
:10E5600017D00328F2D1E57022787C234FF0200CDD
:10E5700040462BE0E5702178FF22434602E01A5422
:10E58000401CE070E0788842F9D3C0B208F800502F
:10E59000DCE7E5702278B2234FF0D80C404606E065
:10E5A0004354491CC9B200F801C0491CE170E1782C
:10E5B0009142F5D3C9B208F80150C7E70AE04354C5
:10E5C000491CC9B200F801C0491CE170E1789142D0
:10E5D000F5D3EFE70120A0703878094A03284FF0FF
:10E5E0000101084602D0FDF77DFFAFE7FEF7A0F876
:10E5F000ACE70000000C014004000020DB07002015
:10E60000F4070020DA070020F0B50B30154D20F09C
:10E6100007010024144A0FE003688B420BD38B429E
:10E6200005D95E1A43184768C3E9006700E04368EC
:10E63000136002C004E0021D10680028ECD12046DF
:10E64000002802D1286808B10020F0BD064A07481A
:10E650001060074A121A22F00702C0E900240120C4
:10E660002860D7E7F0070020EC0700209411002075
:10E670009013002070B5384D384C022802D0042881
:10E6800014D102E02021364E01E0364E20213046E2
:10E69000FEF7A0FD50B120213046FEF795FD304633
:10E6A000FEF79FFDA1886854491CA18028780021AD
:10E6B000A5282AD1A088032828D96A78982A0ED0BC
:10E6C0002A18294D12F8013CE288AB54521C92B230
:10E6D000E280332A1AD1362818D1E18015E0AA78D1
:10E6E000982A14D0882A22D0782A0FD12A181E4DB1
:10E6F00012F8013CE278A63DAB54521CD2B2E27053
:10E70000A22A03D1A52801D1E170A18070BD2A18E9
:10E71000114D12F8013C6278C835AB54521CD2B28C
:10E7200062707A2AF2D17D28F0D16170EDE72A1863
:10E730000E4D12F8013CA278AB54521CD2B2A2701A
:10E74000662AE3D16928E1D10948A170A18001704E
:10E750000120207070BD0000F80E0020E0000020B5
:10E7600000440040004C00404E1100203E100020AC
:10E770000600002010B580210548FDF796FE0549EA
:10E7800010B140F2FF4001E040F6FF60C86010BDEC
:10E790000010014004000020F8B50F460546012195
:10E7A0001646C802FEF788F9134C207805402570FC
:10E7B0003046FFF753FD3846FFF75AFD2078FFF744
:10E7C00045FD2078FFF708FD4FF4A060FEF758F9EB
:10E7D00000208DF8000002208DF8010003208DF844
:10E7E000020001208DF803006846FEF717F9FFF7D5
:10E7F000EDFCFFF7F9FCF8BDD8070020BBB6D3ADA0
:10E80000B3CBD7F80000000028E800080000002083
:10E81000F4070000F4C1000804EC0008F40700202D
:10E820009C0F00009CE200084163103013FCE7A439
:10E8300008FF04000938A1FBD7F3D7AACDE42BD3F6
:10E84000D23E0338A1FA075AC9B2B3B5A3A14A1000
:10E850000121331818E5123624482808242424FE00
:10E8600048484804392F280C385454503018141490
:10E870005454383611500C44A4A8A8A8541A2A2A73
:10E880002A441A30293008506EA494888976C560CD
:10E890006020C04D020408087125080804022B40BE
:10E8A000200A29015D10102040913DD63838D65CF1
:10E8B00079A14AFEA3D1895B1AFF0101124360606E
:10E8C0003D01020204743C202040604C18244201A7
:10E8D0002A24F0195F4A70905410107C1A3C1B19BE
:10E8E000326D1020427E1050090418040202424486
:10E8F00038500C040C14242444447E04041E8F7EDF
:10E900004040405864202B1C241089606C7E444495
:10E91000F379603A2485523C390B4E261A020224C0
:10E92000402913393A490649A449063310202A02DE
:10E930009C874020100804025AFE0431580F808042
:10E94000C0E0F0F8FCFEFCF8F0E0C080701A623421
:10E950006A08501D38445AAA016AB4B0500C10100D
:10E96000182828243C444242E71EF8444444780EC8
:10E97000544244F82D3E4242800169302AF81C2955
:10E98000015920B80CFC424848784848404242FCB3
:10E99000104C4040E0F01B44443E5C8E8444402ACE
:10E9A000E73C2A7E0549706B7C10014A7C707A082E
:10E9B000013388F0500CEE444850705048484444AD
:10E9C000EE1AE05A39014A42F31BEE6C012A540157
:10E9D00052D6580CC7626252524A4A4A4646E2F040
:10E9E0004A820159802AFC7B2A7C4149A059206E29
:10E9F000B2CA4C3806202A7C6F4B42E3901808427A
:10EA000042402018040216516BFE92B099D0390191
:10EA10006A3C10500944242428281810101BD69250
:10EA2000015FAAAA6C44444420480A2424181818F8
:10EA3000242442E7C09D4444282850300C7E84049E
:10EA400008081020204242FC6A1E6D2901321E1D5A
:10EA5000404020200B1008080804040402029B78A0
:10EA600008012278031C1C2212FF4A6095F150080D
:10EA70003C421E2242423F1FC04040405864CF9358
:10EA800064581B1C221553221C2D060202022E9CC8
:10EA900042261B40567E4040423C3E0F1110107EE5
:10EAA000AF927C38083E444438403C422229601BE7
:10EAB0005C62405342E72330309A70301B0C0C707C
:10EAC00019DD19011A44D1393050084E48506848B0
:10EAD00044EE492CC9602BFE490192ED9ADC604955
:10EAE000A0290149A0412AD8E075447840E039D0F6
:10EAF00075221E02071CEE3220018AF8C06E4240C9
:10EB00003C024270197A398019A9712AC65F93466E
:10EB10003B9008E74224242810109008D79292AA2C
:10EB2000AA4444C8086E241818182476306C1810AB
:10EB3000109030087E44081010227E2B0304013A06
:10EB40000806130403DA0801113A608A192E290114
:10EB500012600410304C436A7E015123AAA31201B3
:10EB6000100E03800380610C711C39780FE00128BE
:10EB7000090FE03D38711C610C160D1E0380F9A1D0
:10EB8000221EF89C4410220220190F9E812454A4B6
:10EB90005864291425142208C208451849245046EF
:10EBA00041844AFB44111207120F1E1FFF3FFF7FD3
:10EBB000021E3FFF1FFF0F121A031A211AFA221119
:10EBC000128012C012E01808F0FFF8FFFCFFFE02EE
:10EBD00014FCFFF81AF0121AC01A118B3E2D221FD6
:10EBE0007FF87FFC7FFE029BFC7F22FAFF01011071
:10EBF000327F13A7D21408EBD11B08F50413DC07EE
:04EC0000822000006E
:040000050800C151DD
:00000001FF
