:020000040800F2
:10C00000A826002065C1000853D10008F1C6000829
:10C0100051D1000839C3000897070108000000004B
:10C02000000000000000000000000000E5D500084E
:10C030004FC3000800000000E9D100087DC10008DE
:10C040007FC100087FC100087FC100087FC10008D0
:10C050007FC100087FC100087FC1000851C30008EC
:10C060007FC100087FC100087FC100087FC10008B0
:10C070007FC100087FC100087FC100087FC10008A0
:10C080007FC100087FC100087FC100087FC1000890
:10C090007FC100087FC100087FC100087FC1000880
:10C0A0007FC100087FC100087FC100087FC1000870
:10C0B0004DD700087FC100087FC100087FC100087C
:10C0C0007FC100087FC100087FC100087FC1000850
:10C0D0007FC100087FC100087FC100087FC1000840
:10C0E0007FC100087FC100087FC100080000000078
:10C0F0000000000000000000000000000000000040
:10C1000000000000000000007FC100087FC100089F
:10C110007FC100087FC100087FC100087FC10008FF
:10C120007FC100087FC100087FC100087FC10008EF
:10C130007FC100087FC100087FC100087FC10008DF
:10C140007FC100087FC100087FC10008DDD1000861
:10C15000DFF80CD000F058F800480047851A0108B5
:10C16000A82600200648804706480047FEE7FEE76D
:10C17000FEE7FEE7FEE7FEE7FEE7FEE7FEE7FEE797
:10C18000E9D6000851C10008D2B201E000F8012B45
:10C19000491EFBD270470022F6E710B50446084658
:10C1A000114602462046FFF7EFFF204610BD2DE95D
:10C1B000F047002591469A46074688462E46402479
:10C1C00018E022464146384600F040F8B0EB09003E
:10C1D00071EB0A010ED322465146484600F026F87C
:10C1E0003F1A68EB010822460021012000F01EF8EA
:10C1F00045194E41201EA4F10104E2DC28463146D7
:10C200003A464346BDE8F087064C074D06E0E06835
:10C2100040F0010394E8070098471034AC42F6D38D
:10C22000FFF79AFFB4430108D4430108202A04DB36
:10C230000023203A00FA02F106E000FA02F39140EE
:10C24000C2F12002D040014318467047202A04DB87
:10C25000203A21FA02F000217047D040C2F12003B9
:10C2600001FA03F31843D14070470000FEB51F4C9C
:10C270000D4620604FF080460021304601F075FAEF
:10C2800000220121304601F086FA022D01D10B2057
:10C2900003E0012D03D142F6DF60ADF80400052074
:10C2A000ADF800000020ADF80600ADF802006946C8
:10C2B000304601F079FA0121304601F053FA0121AC
:10C2C000304601F045FA01221146304601F063FA8A
:10C2D0000121304601F049FA20680028FCD130469F
:10C2E00003B0BDE8F040002101F03FBA000000209B
:10C2F00070B5044604F076FA04F062FA0D4D102190
:10C30000284600F09CF9D82001F026F8C4F3074035
:10C3100001F022F8C4F3072001F01EF8E0B201F0AA
:10C320001BF81021284600F08CF9BDE8704000F0A1
:10C3300005B8000000080140FEE7000010B501202C
:10C3400002E000BF00F094FFC007FBD110BD7047B2
:10C3500010B5022000F016F8002809D00548D0F8E2
:10C36000800040698047BDE81040022000F004B81A
:10C3700010BD0000C00600200149086070470000A1
:10C3800014040140064B01461A6800205B6902EA6A
:10C3900001020B4202D0002A00D0012070470000A9
:10C3A0000004014030B51F4A8179036899B31146F2
:10C3B0000C6824EA03040C604B68046823EA040355
:10C3C0004B60047904EB02031C68056844EA050429
:10C3D0001C608B68046823EA04038B60CB680468E4
:10C3E00023EA0403CB604379A1F58061102B0CD1C3
:10C3F00001F581610A68036842EA03020A604A683B
:10C40000006842EA00024A6030BD99180A68006874
:10C4100002430A6030BDFFE7007910440168994388
:10C420000160F7E70004014070B505464FF430267F
:10C43000304600F05BF8042811D1094C206940F027
:10C44000020020616561206940F0400020613046B3
:10C4500000F04CF8216941F6FD721140216170BD78
:10C460000020024008490420CA68D20701D00120F8
:10C470007047CA68520701D502207047C968C906CB
:10C48000FBD5032070470000002002402DE9F04159
:10C4900005464FF400570E46384600F027F80428AA
:10C4A00014D10B4C206940F0010020612E80B84669
:10C4B000384600F01BF8BF1E042804D1300C6880F9
:10C4C000404600F013F8216939402161BDE8F08150
:10C4D000002002400348024941600349416070471F
:10C4E0002301674500200240AB89EFCD00B503462C
:10C4F000FFF7B8FF03E000BFFFF7B4FF5B1E0128A2
:10C5000002D1002BF8D101E0002B00D1052000BDA5
:10C5100010B58A0721F003040649120F21440F23A6
:10C520008C6893409C438C608B68904003438B6085
:10C5300010BD000000000140F0B5CB780022DC0601
:10C5400003F00F0301D58C7823430C884FF00F0CB8
:10C5500014F0FF0F4FF0010E1AD006680D880EFA86
:10C5600002F42540A5420FD195000CFA05F726EA02
:10C57000070703FA05F6CD783E43282D01D1446123
:10C5800002E0482D00D10461521C082AE6D306605F
:10C590000A88FF2A1ED946685FF0000202F10805EA
:10C5A0000EFA05F40D882540A5420FD195000CFA2E
:10C5B00005F726EA070703FA05F6CD783E43282D4E
:10C5C00000D14461CD78482D00D10461521C082A65
:10C5D000E4D34660F0BD0000F0B5144C002801DA49
:10C5E000E36900E06368450D2E0185B2C0F3015791
:10C5F000B540C0F30342032F06D123F07062636895
:10C6000023F07063636008E0C60203D503269640FA
:10C61000B34300E0AB4343F0706201B12A4300280A
:10C6200001DAE261F0BD6260F0BD0000000001408F
:10C630000246926800200A4200D001207047416102
:10C640007047016170470AB10161704741617047ED
:10C650004069806880B27047D0F8CC000068C0F3B1
:10C6600041407047084490F89B03704700EB8100FD
:10C67000D0F85003704710B5044600200346C4F8B4
:10C68000100304EB8002C2F81433C2F850332218AE
:10C6900082F88C33401CC0B20F28F2D30820A4F8D3
:10C6A000B203204603F01EF9204602F01FFF204689
:10C6B00002F05EFE0121204603F074F9204602F0EC
:10C6C00096FE204602F038FF002010BDD0F810037F
:10C6D000704710B503F0F0F8002010BD0022431899
:10C6E00083F89B2300EB4113C3F8C02303F033B856
:10C6F000FEE7000070B50646002440F23F112046D8
:10C7000000F080FA00F0B4FC4FF49635304600F0AB
:10C7100095FC641CAC42F9D3BDE8704001220421B1
:10C720000148FFF790BF0000000C014070B50646BD
:10C7300040F23F14084D08E020222146304600F028
:10C7400023F868688088201A84B26968601C898828
:10C7500080B28842F0D270BDF000002008B50121FF
:10C76000082000F067FD0420ADF8000003208DF8DC
:10C77000020010208DF8030069460248FFF7DCFE36
:10C7800008BD0000000C0140203AD3B230B4054A85
:10C7900052681468D2885A4304EB420230BC00F05D
:10C7A00029B80000F00000202DE9F04180460D4638
:10C7B00040F23F140E4E012708E021464046FFF7A5
:10C7C000E3FF70688088201A84B26D1C7268611C57
:10C7D000928889B23846914200D200202A780AB164
:10C7E000012100E000210842E7D1BDE8F08100000E
:10C7F000F00000202DE9F74F9346002506460199E9
:10C8000000F000FA1C4F31E000F032FC00244FF041
:10C810000C084FF080094FF0010A17E0B0FBF8F167
:10C82000C90009FA01F23BF8151022410A4201D170
:10C830000C2805D90AFA04F2114203D10C2801D9B7
:10C84000788800E0388800F0F9FB641C78688088FC
:10C85000A042E3D8012204210848FFF7F4FE761C29
:10C86000F6B23046019900F0CDF96D1C7868C088A9
:10C87000A842C9D8BDE8FE8FF0000020000C01409E
:10C880000148406870470000F000002070B50024A7
:10C89000FFF7F6FF0546E888E11C4843C0B2FFF702
:10C8A00045FF641CE4B20C2CF5D3BDE8704000F0E9
:10C8B00001B8000008484FF6FF7181800021C18057
:10C8C000018141818181C1810122027041708170A9
:10C8D000C170018270470000B400002010B5FFF75E
:10C8E000E9FFBDE810400020FFF704BF70B5054622
:10C8F0008AB01F2000F080F9FFF7C2FF0446002134
:10C9000068464FF4A073202202E04254491CC9B289
:10C91000A688B3FBF6F6761E8E42F6DCA188B3FB42
:10C92000F1F10844002100F8011CE0886946C0F1DB
:10C93000F000C0B2FFF738FFE0882946C0F1F000F0
:10C94000C0B2FFF731FF002000F056F90AB070BD09
:10C9500070B588B00022034600E0521C13F8011B9A
:10C960000029FAD11A2A00D91A220021202401AB69
:10C970005C54491C1B29FBD30021C2F11B0404E0B9
:10C98000455C01EB54069D55491C9142F8D30020AB
:10C99000FFF7B0FE104800F041F9FFF771FF0446C1
:10C9A0004FF6FF7000F040F91F2000F025F900203D
:10C9B000FFF7BCFEE08801A9C0B2FFF7F5FEE088F2
:10C9C0004006000EFFF7B2FE002000F015F9034804
:10C9D00000F024F908B070BD00010020080100201B
:10C9E0002DE9F0470024FFF74BFF234E05467089E1
:10C9F000224F0B281AD23189884217D300EB8001CD
:10CA000001EBC00007EB8000408E00F00DF970894B
:10CA1000EA8800EB800101EBC00107EB8101BDE872
:10CA2000F047C01C4243D0B2FFF7BEBE31898842F6
:10CA300001D20C3080B20B3886B2B8464FF00C09E8
:10CA4000A019B0FBF9F209FB120101EB810000EB28
:10CA5000C10108EB8107788E00F0E6F8E988E01C58
:10CA60004143C8B23946FFF79FFE641CE4B20C2C68
:10CA7000E6D3BDE8F0870000B40000203620002097
:10CA800070B5304E0024318821F038013180318872
:10CA900041F008013180A6F5406600F01BFB7320D1
:10CAA00000F03EFB274DFF21284600F0A2FC80212C
:10CAB000284600F095FC0028F9D10121284600F015
:10CAC0008FFC0028F9D0284600F091FC641CE4B2E9
:10CAD000052CE8D3FF21284600F08BFC8021284656
:10CAE00000F07EFC0028F9D10121284600F078FCF6
:10CAF0000028F9D0284600F07AFC0446FF21284699
:10CB000000F077FC8021284600F06AFC0028F9D16B
:10CB10000121284600F064FC0028F9D0284600F0E6
:10CB200066FCE1B240EA0124012204210648FFF735
:10CB30008AFDB6F8000C20F03800A6F8000C20465C
:10CB400070BD0000003C0040000C014010B586B0F4
:10CB50000121112000F06EFB01212448FFF73CFD6C
:10CB60000121C80300F04EFB4FF48060ADF80000D7
:10CB700003208DF8020018201D4C8DF80300694633
:10CB80002046FFF7D9FCE014ADF8000069462046C6
:10CB9000FFF7D2FCA014ADF8000069462046FFF76D
:10CBA000CBFC144C204600F0F1FB0020ADF8040053
:10CBB0004FF48271ADF80610ADF808000221ADF80F
:10CBC0000A100121ADF80C104902ADF81000ADF8C3
:10CBD0000E10ADF8120001A9204600F00CFC012156
:10CBE000204600F059FB06B010BD000000112000E7
:10CBF00000100140003C004001494880704700009F
:10CC0000F000002010B50C460146202000F03AFA52
:10CC10002146BDE81040212000F034BA01494860A7
:10CC200070470000F00000200149088070470000B4
:10CC3000F00000202DE9F05FFFF790FDFFF786FF81
:10CC4000052004F045FA0020FFF71AFFA0F5134174
:10CC50004FF480754FF4E06640F2022741F2B0785D
:10CC600040F2371940F2391A4FF4E85B41F21804E8
:10CC700020397ED1E901E52000F004FA01210020ED
:10CC800000F000FA2946012000F0FCF931460220AC
:10CC900000F0F8F941F23001032000F0F3F900212F
:10CCA000042000F0EFF93946082000F0EBF90021EC
:10CCB000092000F0E7F900210A2000F0E3F9002143
:10CCC0000C2000F0DFF900210D2000F0DBF900213D
:10CCD0000F2000F0D7F90021102000F0D3F9002137
:10CCE000112000F0CFF90021122000F0CBF9002133
:10CCF000132000F0C7F9142004F0EAF9414610208F
:10CD000000F0C0F94946112000F0BCF9052004F0FC
:10CD1000DFF95146122000F0B5F9052004F0D8F9EA
:10CD20005946132000F0AEF91321292000F0AAF98A
:10CD3000052004F0CDF90021202000F0A3F9002106
:10CD4000212000F09FF90621302000F09BF92111ED
:10CD5000312000F097F90321322000F093F9A91D4A
:10CD6000352000F08FF940F60231362000F08AF9C4
:10CD700000E06CE040F20231372000F083F9F11D51
:10CD8000382000F07FF90721392000F07BF94FF4BB
:10CD9000C0613C2000F076F940F20B213D2000F00C
:10CDA00071F90021502000F06DF9EF21512000F0C1
:10CDB00069F90021522000F065F940F23F1153203B
:10CDC00000F060F94FF41C51602000F05BF9012184
:10CDD000612000F057F900216A2000F053F900218A
:10CDE000802000F04FF90021812000F04BF9002154
:10CDF000822000F047F90021832000F043F9002150
:10CE0000842000F03FF90021852000F03BF910213B
:10CE1000902000F037F90021922000F033F903212F
:10CE2000932000F02FF94FF48871952000F02AF933
:10CE30000021972000F026F90021982000F022F927
:10CE40002146032000F01EF940F27311EEE0A0F538
:10CE5000134125397DD10121002000F013F9294625
:10CE6000012000F00FF93146022000F00BF92146B5
:10CE7000032000F007F90021042000F003F93946EF
:10CE8000082000F0FFF80021092000F0FBF8002145
:10CE90000A2000F0F7F800210C2000F0F3F8002140
:10CEA0000D2000F0EFF800210F2000F0EBF800213A
:10CEB000102000F0E7F80021112000F0E3F8002135
:10CEC000122000F0DFF80021132000F0DBF814201E
:10CED00004F0FEF84146102000F0D4F84946112035
:10CEE00000F0D0F8052004F0F3F85146122000F0CD
:10CEF000C9F8052004F0ECF85946132000F0C2F8F8
:10CF00001321292000F0BEF8052004F0E1F80021EB
:10CF1000202000F0B7F80021212000F0B3F807210D
:10CF2000302000F0AFF840F20231312000F0AAF8D2
:10CF300040F205152946322000F0A4F840F20626FA
:10CF40003146352000F09EF840F608073946362075
:10CF500000E070E000F096F83146372000F092F8DB
:10CF600040F20451382000F08DF80721392000F0FC
:10CF700089F829463C2000F085F839463D2000F02C
:10CF800081F80021502000F07DF8EF21512000F0C1
:10CF900079F80021522000F075F840F23F1153203B
:10CFA00000F070F84FF42741602000F06BF8012189
:10CFB000612000F067F800216A2000F063F800218A
:10CFC000802000F05FF80021812000F05BF8002154
:10CFD000822000F057F80021832000F053F8002150
:10CFE000842000F04FF80021852000F04BF810213C
:10CFF000902000F047F80021922000F043F8032130
:10D00000932000F03FF84FF48871952000F03AF833
:10D010000021972000F036F80021982000F032F827
:10D020002146032000F02EF840F23311BDE8F05FF6
:10D03000072000F027B8BDE8F09F000070B50B4C4A
:10D040000546010A204600F0D4F98021204600F070
:10D05000C7F90028F9D1E9B2204600F0CAF98021C9
:10D06000204600F0BDF90028F9D170BD003C004019
:10D0700010B5222000F02EF8BDE81040722000F01C
:10D080004FB8000070B50D4600F024F8722000F093
:10D0900047F80E4C290A204600F0ABF980212046C3
:10D0A00000F09EF90028F9D1E9B2204600F0A1F97C
:10D0B0008021204600F094F90028F9D1BDE87040A5
:10D0C000012204210248FFF7BEBA0000003C0040E4
:10D0D000000C014070B50546702000F021F80E4CA0
:10D0E0000021204600F085F98021204600F078F9E3
:10D0F0000028F9D12946204600F07BF980212046FE
:10D1000000F06EF90028F9D1BDE870400122042139
:10D110000248FFF798BA0000003C0040000C0140B4
:10D1200010B50446002204210748FFF78CFA214677
:10D13000064C204600F05DF98021204600F050F9B1
:10D140000028F9D110BD0000000C0140003C004057
:10D15000FEE77047F0B50F23C47801784FF0E02266
:10D160000127ECB1D2F80C4D867804F4E064C4F5E4
:10D17000E064C4F30724C4F10405E34044781E408E
:10D18000AC4026433301114481F800340078410952
:10D1900000F01F0002EB81018740C1F80071F0BD73
:10D1A00001F01F008740480902EB8000C0F8807141
:10D1B000F0BD0000024908430249086070470000C2
:10D1C0000000FA050CED00E0024A1140014302485C
:10D1D0000160704780FFFF1F08ED00E0014801F08B
:10D1E00088BB00001401002070470000044A002999
:10D1F000516901D0014300E0814351617047000053
:10D2000000100240044A0029D16901D0014300E026
:10D210008143D1617047000000100240044A002998
:10D22000116901D0014300E08143116170470000A2
:10D2300000100240044A0029916901D0014300E036
:10D24000814391617047000000100240044A0029A8
:10D25000D16801D0014300E08143D16070470000F4
:10D26000001002400149086070470000D8004242A7
:10D2700070B5084C10212046FFF7E1F9052000F0B9
:10D280006BF800F065F8054610212046FFF7D9F944
:10D29000284670BD000801400029018802D041F0F5
:10D2A000400101E021F040010180704770B501218B
:10D2B00086B00803FFF7BEFFA020ADF800000326EC
:10D2C000214D8DF8026018248DF8034069462846E8
:10D2D000FFF732F94020ADF800008DF803406946B1
:10D2E0002846FFF729F91020ADF800008DF80260FC
:10D2F0008DF8030069462846FFF71EF90020ADF8B7
:10D300000400ADF80C004FF48271ADF80800ADF8E0
:10D310001000ADF80610ADF80A00ADF8120069155E
:10D3200007200A4CADF80E10ADF8140001A92046F4
:10D3300000F061F801212046FFF7AEFF10212846DA
:10D34000FFF77FF906B070BD0008014000300140D2
:10D35000002000F001B8000070B50B4C054602211A
:10D36000204600F03DF80028F9D02946204600F07C
:10D3700040F80121204600F033F80028F9D020467B
:10D3800000F035F8C0B270BD00300140114910B551
:10D3900088420AD1841401212046FFF757FF204616
:10D3A000BDE810400021FFF751BF0B49884202D170
:10D3B0000121041404E0094988420AD10121C4135F
:10D3C0002046FFF72BFF2046BDE810400021FFF765
:10D3D00025BF10BD0030014000380040003C004037
:10D3E0000246128900200A4200D00120704780893D
:10D3F00070478181704770B502884D8802F44153AF
:10D400000A888C88CE882A4334430D8922434C896C
:10D410002A438D892243CC892A4322431A4302801E
:10D42000828B22F400628283098A018270BD00002F
:10D430002DE9F04104460D46174600F0D5F803F0FB
:10D44000D1F903F0BDF9224E10213046FFF7F7F86D
:10D45000AD20FFF781FFC4F30740FFF77DFFC4F362
:10D460000720FFF779FFE0B2FFF776FF2878FFF794
:10D4700073FF6878FFF770FF10213046FFF7E1F87F
:10D48000022415E07820401EFDD110213046FFF720
:10D49000D6F8AD20FFF760FF285D641CFFF75CFF46
:10D4A000285D641CFFF758FF10213046FFF7C9F8CC
:10D4B000BC42E7D36420401EFDD103F06DF910217A
:10D4C0003046FFF7BCF8BDE8F041FEF737BF00007B
:10D4D0000008014010B5FFF7ADFB0248A0F10801BC
:10D4E000486010BDF800002038B504460C48012102
:10D4F00050F82400FFF79EFE094869460A3830F8C4
:10D500001400ADF8000010208DF8030003208DF802
:10D510000200044850F82400FFF70EF838BD000060
:10D52000C81F0108D40000200349044A31F8101034
:10D5300052F82000FFF77CB8A01F0108E40000208B
:10D540007FB5044625480D4650F82400012140F0DF
:10D550000100FFF76FFE04208DF80F001F4803A99C
:10D56000383830F81400ADF80C001D4850F824008D
:10D57000FEF7E2FF012D2FD11848263830F81400AD
:10D58000C1B216482C3830F81400C0B2FEF7C0FF04
:10D590001248323830F81400019000208DF808004D
:10D5A0000CB10C2000E008208DF8090001258DF851
:10D5B0000A5001A8FEF7F6FE0848203830F814009B
:10D5C0008DF800000F208DF801008DF802008DF815
:10D5D00003506846FFF7BEFD7FBD0000D81F01085D
:10D5E000E40000207047000070B5044603F0FAF82C
:10D5F00003F0E6F80D4D10212846FFF720F8202013
:10D60000FFF7AAFEC4F30740FFF7A6FEC4F3072006
:10D61000FFF7A2FEE0B2FFF79FFE10212846FFF7BA
:10D6200010F8BDE87040FEF789BE00000008014018
:10D63000294900200A6842F480320A604FF4A0634E
:10D640000A68401C12F4003F01D19842F8D10868E2
:10D6500080033FD52148026842F010020260026850
:10D6600022F003020260026842F00202026048688F
:10D67000486048684860486840F480604860C86A0C
:10D68000174A1040C862C86A164A1043C862086840
:10D6900040F08060086008680001FCD5486820F40C
:10D6A0007C104860486840F4E8104860086840F022
:10D6B0008070086008688001FCD5486820F003008D
:10D6C0004860486840F0020048604868C0F3810044
:10D6D0000228FAD1704700000010024000200240EA
:10D6E00000F0FEFF4406010010B51448016841F047
:10D6F000010101604168124A114041600168114A0C
:10D7000011400160016821F480210160416821F429
:10D71000FE014160016821F0A05101604FF47F01DA
:10D7200081600021C1624FF41F018160FFF780FF1B
:10D7300005494FF00060086010BD00000010024075
:10D740000000FFF0FFFFF6FE08ED00E001F0EEBD87
:10D750000029018802D041F0800101E021F0800120
:10D7600001807047C943018270470029018802D0B7
:10D7700041F0010101E021F0010101807047024602
:10D78000138A002092890B4202EA010202D0002A89
:10D7900000D001207047002A828901D00A4300E0AE
:10D7A0008A4382817047000030B502881B4C1C4DB3
:10D7B000A0420DD0A8420BD0B0F1804F08D0194B39
:10D7C000984205D0184B984202D0184B984203D18A
:10D7D00022F070034A881A43154B984206D0154B25
:10D7E000984203D022F44073CA881A4302808A8880
:10D7F000A04282850A8802850AD0A84208D00E4A33
:10D80000904205D00D4A904202D00D4A904201D17B
:10D81000097A01860121818230BD0000002C01407F
:10D82000003401400004004000080040000C0040AB
:10D83000001000400014004000400140004401403E
:10D840000048014010B500224FF6FF7300EB420480
:10D85000B4F88C45240404D5521CD2B2082AF5D35E
:10D860001A469A4205D041F4004100EB4200A0F86C
:10D870008C15D0B210BD70B50D461946012300EBD2
:10D88000411484F8AE33C4F8B853C4F8BC2394F8F8
:10D89000C42302B1022284F8B423FEF71FFF002044
:10D8A00070BD70B50D461946002300EB411484F895
:10D8B000AE33C4F8B853C4F8BC2394F8C52312B9E6
:10D8C00084F8B43302E0022284F8B423FEF706FFA2
:10D8D000002070BD30B402240C7501244C75002466
:10D8E000CC820A8315064C8300EB431202D582F8E2
:10D8F000C44301E082F8C543002330BC1A4600F05F
:10D9000017B80121C0F810130020704770B50D46FC
:10D91000194600EB4114012304F56B74A3704FF01A
:10D9200002032372C4E90352FEF7D8FE002070BD43
:10D9300070B50120CD780446012D08D0022D05D107
:10D940000A7F0D2A0DD1CC700020087770BD0D78AC
:10D9500007264D700E708A608B810C770222CA7088
:10D9600070BD0B2A02D1CC70022070BD0C2AFCD1F4
:10D97000CC70032070BD70B50D461946002300EB36
:10D98000411484F8AE33C4F8B853C4F8BC231AB9B0
:10D99000012284F8C52305E094F8C52312B984F860
:10D9A000B43302E0022284F8B423FEF797FE00208D
:10D9B00070BD10B50C46114600EB4113002203F573
:10D9C0006B739A704FF003021A724FF00802C3E9AA
:10D9D0000342FEF783FEC0B210BD0221002200EB1D
:10D9E0004103491CC9B2A3F88C250829F7D30020AC
:10D9F000704770B505460020087048700C46887066
:10DA00000121E17021774022A27184F8200084F87E
:10DA100021102179284600F021F86179284600F08C
:10DA20001DF8002070BD0021C0F810130846704793
:10DA300070B50A250446052901D0042905D1D4F87A
:10DA40008000406C8047257070BD0629FCD1257090
:10DA5000D4F880000068BDE870400047082907D26C
:10DA600000EB4100B0F88C15C1F30E01A0F88C1545
:10DA70000020704730B41546DDE9022445F08005EA
:10DA80000D7506254D750325CB82B5EB132F02D1FD
:10DA900040F2094300E000230B834C83234630BC53
:10DAA000FFF746BF0A8803781A440A8001780844C1
:10DAB000704700002DE9FC471746134600F58872B1
:10DAC000CDE900230024914606460D464FF400732D
:10DAD0002246FFF7CFFF5FEA000813D10B4905E0AC
:10DAE000301990F81001621C085594B2BC42F7D36B
:10DAF0004B4605F1500205F13E0105F13400009757
:10DB000000F074FF4046BDE8FC8700009C1B00202D
:10DB10007CB51646134600F58872CDE9002304460D
:10DB20000D464FF480730022FFF7A4FF002830D188
:10DB300004F58874217805F8221F61786970A1784E
:10DB4000E278082E01EB022169802179297161793F
:10DB50006971A179A971E179A4F58874E97118D97D
:10DB600004F58C742178627801EB02212981A17877
:10DB7000E27801EB022169812179627901EB0221CE
:10DB8000A981A179A973E179E973217A2974617A6C
:10DB900069747CBD2DE9FC41174600F58872089E2A
:10DBA0001C46CDE90026154647F440730022FFF7D6
:10DBB00061FF002814D16978032911D129788A1EC0
:10DBC000B24200DC8E1EAD1CB2B2002104E06B5CE0
:10DBD000891C04F8013B89B29142F8D300212170DD
:10DBE000BDE8FC812DE9F05F4FF00008074681F8A1
:10DBF00012800C46087F0B2609250121DFF8AC9125
:10DC00004FF0080B4FF0050A0C2831D2DFE800F086
:10DC1000CB060E373F5865767E99AABD627904F12E
:10DC200014013846FFF7C5FE0220A4E061793846AA
:10DC3000FEF718FD01281CD1207D618B00F08000CB
:10DC400049B141F28832A9F80020802801D103208F
:10DC500009E0504607E03222A9F80020802801D1CF
:10DC6000257701E0072020773846FEF7F1FC208277
:10DC700099E00328FCD1267784F812A093E0237959
:10DC8000A2893846A168FFF741FE042073E021799C
:10DC90003846FEF7E7FC012801D1257706E0042885
:10DCA00002D1607820707EE003286CD03846FEF701
:10DCB000CFFC218A401AB9F80010884273D962E07B
:10DCC000607907EB401080F8C5136379A289384664
:10DCD000A168FFF750FE06204DE061793846FEF757
:10DCE000C1FC012801D1072045E0042802D1617858
:10DCF0000C203FE0022844D150463CE0002223792A
:10DD000011463846FFF702FE584634E0217938467E
:10DD1000FEF7A8FC054601282AD0032D33D038464B
:10DD2000FEF796FC218A411AB9F8000081422AD8F0
:10DD3000042D38D16078042120704FF00308A174BD
:10DD400031E06079002207EB401090F8C51381F0B4
:10DD5000010180F8C513637911463846FFF70BFEC1
:10DD60000A2008E061793846FEF77CFC012804D1DE
:10DD700061780D202170207715E0022801D12577E8
:10DD800011E003280FD126770DE0A07B401CC0B224
:10DD9000A073022801D8217705E084F812B06178D9
:10DDA0004FF0020821704046BDE8F09F7800002047
:10DDB000F0B507460125887893B00C462E460A2810
:10DDC00056D2DFE800F0052332565F7288A1B6C054
:10DDD000082221463846FFF79BFE002848D194F8D8
:10DDE0002900A0713846FEF774FCA670A3790022C2
:10DDF000CDE9002361791346384600F061FDA3792F
:10DE00000022CDE90023217913462EE0122221467B
:10DE10003846FFF77DFE0028E0D1D4F88000C169C4
:10DE200004F12200884702208BE001222146384677
:10DE300000F038FF0028D1D1022001F093FA04F15C
:10DE400004042677E06F006A8047032004F8020C80
:10DE5000002300930193227F2178384600F030FDA3
:10DE6000002300930193227F6178384600F028FD5B
:10DE70006AE0092221463846FFF71CFE002863D1DC
:10DE800004205EE0E28E21463846FFF713FE0028AC
:10DE90005AD1D4F8800004F15002436A04F13E01E3
:10DEA00004F13400984705204BE094F83000062632
:10DEB00068B1FF230093024603AB21463846FFF7C3
:10DEC00069FE002840D1D4F88000816A13E0D4F8BC
:10DED0008000816A14E094F83100072668B1FF23BE
:10DEE0000093024603AB21463846FFF753FE48BB7A
:10DEF000D4F88000C16A03A803E0D4F88000C16AA6
:10DF000013A08847A6701FE094F83200082660B17D
:10DF1000FF230093024603AB21463846FFF73AFE43
:10DF200080B9D4F88000016BE5E7D4F88000016B7C
:10DF3000E6E794F839202146384600F0BFFE08B9DC
:10DF40000920A07000E00025284613B0F0BD0000B5
:10DF50004E2F41002DE9F04180460E4614461D46E5
:10DF6000069F01F0BFF9002001F066F92146404606
:10DF7000FFF73FFD44F87C5F314640466760FEF79F
:10DF80007AFB6068006880474046BDE8F04101F0D8
:10DF900095B9000070B504460A4D012072B1012AFE
:10DFA00004D16B78AA782046FFF794FC064A1169E1
:10DFB000491C1161042900D9042070BD2B78EA782E
:10DFC000F1E70000EC1F00207C0000200149002048
:10DFD00008707047DC1F002070B505460124FEF76D
:10DFE00075FBD0B10F4801782846FEF73FFB0D289E
:10DFF00012D10D480D4A016891420DD1A0F12002C5
:10E0000041685268914208D1007B08B9002404E0BD
:10E01000012802D0022800D1022403481030C47322
:10E02000204670BDEC1F0020CC1F002055534253EA
:10E030000A490A2301280DD1094A1078401CC0B2B0
:10E0400010700A2804D2062008700120C87070479A
:10E050000B7070470228FBD070470000DC1F0020C7
:10E06000900000202DE9F35F0D4601240098FEF793
:10E070002DFB00282ED04E4E00273078DFF834815B
:10E080004FF0090B4FF0080AA1460B2822D2DFE817
:10E0900000F0060B22565F6A71797E488B0000986B
:10E0A00000F098F9484614E021202875FF20687593
:10E0B000EF822F836F8300231A4629460098FFF7CB
:10E0C00037FC04004FF0020129D0032C6DD1717090
:10E0D0005846307069E0A1212975FE216975EF82EB
:10E0E0002F83A5F81A904F460123334A29460098FA
:10E0F000FFF71EFC04004FF00301E6D12E4808385C
:10E10000027A80F84820D0B248B198F80120404601
:10E110002AB94770D5F88000006C804745E031701F
:10E1200043E06B79002229460098FFF7D3FB0400F7
:10E130003BD12148083880F848707078C9E70098CA
:10E1400000F02EFB08B9042008E0FFF771FF2CE077
:10E15000009800F087FA0028F7D10520307088F881
:10E160000070002421E0009800F0BEF90028ECD1F6
:10E170005046F3E7009800F0C5FA0028E5D1707822
:10E180000024A6E72946009800F018F80DE0D5F81D
:10E190008000C06B804710F0FF0001D1504698E727
:10E1A000012802D1062400E004242046BDE8FC9F9B
:10E1B000DC1F002090000020F41F00202DE9F35FF9
:10E1C0000098FEF783FA002865D07F4C0526207959
:10E1D0007E4A7F4D00274FF008094FF0070B4FF0A4
:10E1E00002084FF0010A092855D2DFE800F0540573
:10E1F000103464A9BED2DF00734953781F2230392E
:10E200000098FFF74EFB84F805A04046CCE051781B
:10E210000098FEF727FA012814D16B482F6184F883
:10E2200005803038017B806801F08001002862D0D1
:10E230006860A068A860E860802901D10320B3E08D
:10E240000420B1E0022801D16079ADE0042822D198
:10E2500085F800A0A7E0904611780098FEF702FA32
:10E26000012802D06179032920D003202F61607139
:10E27000B8F80420686882420FD298F80030A96884
:10E280000098FFF7F8FAB8F804006968091A69609D
:10E29000A9680844A860BDE8FC9F60B382B298F802
:10E2A0000030A9680098FFF7E6FA2DE00428F2D1C3
:10E2B0002F70584641E0904651780098FEF7D2F909
:10E2C000012823D104202F616071B8F80620686806
:10E2D00082420FD298F80130A9680098FFF7E1FA5E
:10E2E000A868E860B8F806100844A8606868401A92
:10E2F0006860D0E708B92671CDE782B298F801309E
:10E30000A9680098FFF7CDFA6F60C4E702280FD123
:10E31000D5E9021098F80130B8F80620814201D002
:10E32000891AFFE7009802B0BDE8F05FFFF7B9BABD
:10E330000428B0D185F800A0484620716671AAE78C
:10E340002149667110393F20A160A0810D200D4642
:10E350002F54401E10F0FF00FAD12F7013783F2287
:10E360000098FFF788FA06201EE011780098FEF763
:10E3700079F9012808D12F616671A0782070DDE954
:10E380000001FFF729FE1CE0042884D12F705846B5
:10E390000AE0DDE900010022FFF7FCFD70B92878F2
:10E3A00002287FF451AF4846207174E7DDE900018F
:10E3B0000122FFF7EFFD00283FF446AF042898D173
:10E3C0004046E07367E70000DC1F0020EC1F0020E0
:10E3D0007C00002010B5FEF779F9002148B108480B
:10E3E000064A0260074A42604173054A0120303202
:10E3F000D070054801610548017010BD5553424376
:10E40000AC1F0020504030207C00002090000020F5
:10E4100070B50C4C06466178002539B1304601F0E4
:10E4200008F961783046FFF719FB657021780029FB
:10E4300007D0304601F0FDF821783046FFF70EFB9B
:10E44000257070BDEC1F00207CB5064691F8430096
:10E450000C4608283FD194F8450050283BD194F849
:10E460005200204D010604D5E870B4F85400A8808D
:10E4700003E0A870B4F85400E88094F85A0001064C
:10E4800004D5E870B4F85C00A88003E0A870B4F884
:10E490005C00E880A9783046FFF7D4F96870E97825
:10E4A0003046FFF7CFF92870EB880222CDE9002330
:10E4B00004F12004637822786978304600F06DFA20
:10E4C000AB880222CDE90023637822782978304690
:10E4D00000F063FA03E0D4F88000006C804700206D
:10E4E0007CBD0000EC1F002070B50324FEF7EEF8A1
:10E4F00070B31F4D1F4EE8780021012301280AD078
:10E50000022833D1E87B40BBB278A6F11000120696
:10E510001FD503731EE0184A3F24802094601073B7
:10E520000A2090730520AE60A87010201618401EB7
:10E53000F17310F0FF00F9D11A20D0735474D47421
:10E540002B71072028700320E8730220E870032451
:10E550000CE00173EB70002408E0012802D1EB709D
:10E56000012403E0022801D1EB700224204670BD93
:10E57000DC1F0020AC1D0020AC1F00202DE9FF4F48
:10E58000354D81B04FF0030985F800908B461F464A
:10E590000198FEF79BF800285AD0DFF8C0800126CA
:10E5A00098F8030000244FF0020A01280CD002283A
:10E5B0004ED198F80F00B8BB0198FEF787F898B3D2
:10E5C00088F803602C7043E0254980208F60087331
:10E5D0000A2088731020C8F808B00A18401ED473A7
:10E5E00010F0FF00F9D12820C8739DF80F0048747F
:10E5F0009DF80E0088749DF80D00C8749DF80C00FD
:10E600000875780A00909DF8010088759DF8000053
:10E61000C87588F80460072088F8000088F80F9013
:10E62000484688F803A012E0FFE798F80F00012899
:10E6300006D10198FEF74AF810B188F8036007E0A8
:10E6400098F80F00022803D188F80360504628701C
:10E65000287805B0BDE8F08F7A000020DC1F00208C
:10E66000AC1F002070B50324FEF730F8002840D01E
:10E67000214D0123E9782148012914D0022938D1FC
:10E68000E97B69BB0278A0F11001CA7042788A70F8
:10E6900082784A70C2780A7082794A72C0790872A8
:10E6A000EB70002425E0164A082191608021117347
:10E6B0000A219173A8600420A8701020002114186A
:10E6C000401EE17310F0FF00F9D12520D0732B71AB
:10E6D000072028700320E8730220E870032408E074
:10E6E000012902D1EB70012403E0022901D1EB7072
:10E6F0000224204670BD0000DC1F0020AC1D00205D
:10E70000AC1F002070B50324FDF7E0FF00283FD0C8
:10E71000204D0123E8782049012810D0022837D164
:10E72000E87B60BB0A78A1F11000C2714A7882715F
:10E730008A784271C9780171EB70002428E0174A89
:10E740003F248020946010730A209073A960A978F8
:10E7500006206970A870102000211618401EF17361
:10E7600010F0FF00F9D10320D0731174D4742B7111
:10E7700007212970E8730220E870032408E00128CB
:10E7800002D1EB70012403E0022801D1EB700224D6
:10E79000204670BDDC1F0020AC1D0020AC1F0020F7
:10E7A00070B50324FDF792FF30B3194D0123E878CB
:10E7B000012806D0022829D1E87BF0B9EB700024AB
:10E7C00024E0144A002191601173062090731248CE
:10E7D000A8603F20A8810324AC7010201618401EAA
:10E7E000F17310F0FF00F9D1D1732B71072028705D
:10E7F000EC730220E870032408E0012802D1EB70DA
:10E80000012403E0022801D1EB700224204670BDF0
:10E81000DC1F0020AC1F0020CC1F00207FB582B081
:10E820000E461D460324FDF751FFB8B3224B0122CB
:10E83000D878012806D002283AD1D87B78BBDA7084
:10E84000002435E01D4900248D600C730A20887374
:10E8500010209E600E18401EF47310F0FF00F9D1D6
:10E860002A20C8739DF8130048749DF8120088741C
:10E870009DF81100C8749DF810000875680A019091
:10E880009DF8050088759DF80400C8751A71072069
:10E8900018700320D8730220D870032408E0FFE723
:10E8A000012801D1DA7003E0022801D1DA700224D4
:10E8B000204606B070BD0000DC1F0020AC1F002009
:10E8C00070B5059D00EB41140AB184F8AC23B4F88F
:10E8D000B223AA4202D00DB1A4F8B25394F8AF23E8
:10E8E0009A4202D00BB184F8AF3300F0BFFE002093
:10E8F00070BD38B50446002500200090204600F089
:10E90000B4FF002847D0204600F0B7FF00900098E1
:10E9100008B9002038BD0098C0F3C00018B12046E7
:10E9200001F00EFF05430098C0F3001018B1204617
:10E9300001F067FE05430098C0F3401018B120466F
:10E9400001F0A4FC05430098C0F3806018B1204694
:10E9500001F0C2FD05430098C0F3406018B12046A5
:10E9600001F06DF805430098C0F3006018B120462F
:10E9700001F022FD05430098C0F3407018B1204615
:10E9800001F024F805430098C0F3405018B1204628
:10E9900001F032F805432846BCE72DE9F04100EBD1
:10E9A0004105B5F88C65DDE9067C00EB411406F005
:10E9B0007F0604F56B746670B5F88C55C5F3C01509
:10E9C000A57022706771A4F806C0E3704FF00002D2
:10E9D00022766276A4F56B7413B9012284F8B02311
:10E9E00000F044FE0020BDE8F08100002DE9FF4F5B
:10E9F00085B0804692461878129A88F800005878B8
:10EA000088F801009878DD781C4600EB0520A8F80E
:10EA10000200197988F80410597988F80510997955
:10EA200088F80610D97988F80710197A092A88F821
:10EA3000081069D90920019098F80400DFF8D090F7
:10EA400002285CD855E001A92046FFF72BF80446C0
:10EA5000407804284DD194F90270069907EBC7005D
:10EA600000EB010BE078032843D2214602A800F016
:10EA700051F89DF80C00002602283AD835E001A98B
:10EA80002046FFF70FF80446407805282DD10AEB01
:10EA9000071000EBC60599F80000B84202D089F8CB
:10EAA000007007E020796179B9F8022000EB0120BD
:10EAB00090421ED302A9584600F02CF82078287006
:10EAC00060786870A078A870E078E8702079617943
:10EAD000761C00EB0120A880A079A87120796279CA
:10EAE00076B200EB0220A9F802009DF80C00B042BB
:10EAF000C5DCB8F80200BDF804108842A3D8002095
:10EB0000A9F8020089F8000009B0BDE8F08F000004
:10EB1000640000200A7802704A7842708A78827015
:10EB2000CA78C2700A7902714A7942718A7982710F
:10EB3000CA79C271097A017270477CB505460C46E4
:10EB4000FDF7C4FD28B9207818B1022801D00220B1
:10EB50002070207804F120060B284AD2DFE800F06C
:10EB600006128A494A606E7457497A002846FDF7B2
:10EB7000ADFD00283DD001202070BDE87C40642020
:10EB800000F0F0BBD4F88000806880470021284660
:10EB9000FEF758FE607180212846FEF753FE207173
:10EBA0002846FDF796FD002823D104F10404E06F08
:10EBB000C06880472846FDF74FFDC0B2607704214A
:10EBC00004F8041CE16F89698847A3780022CDE925
:10EBD0000023637F227F21782846FFF7DEFEA3789B
:10EBE0000022CDE90023637F227F61782846FFF76A
:10EBF000D4FE7CBD21462846FFF7DAF80028F8D17C
:10EC0000D4F88000406B8047082020707CBDE06F06
:10EC100021460268284690470028F7D10520F4E7EE
:10EC2000E06F214682682846904708B90620ECE745
:10EC300001462046BDE87C40FEF7FABEE06F214663
:10EC4000C26828469047F3E721462846BDE87C4045
:10EC5000FEF7C8BF21462846FEF7CBFED4F8800059
:10EC600040688047E06F31464268284602B0BDE800
:10EC700070401047D4F8800000698047214628463C
:10EC8000FEF7B7FED4F8800040688047E06F314659
:10EC90004268284690472846FEF79FFE0020B4E7CA
:10ECA0000020704730B400230B7505244C75CA82D0
:10ECB0000B834B8330BC1A46FEF73ABE30B40023B8
:10ECC0000B7509244C75CA820B834B8330BC1A46E2
:10ECD000FEF72EBE4879084A4FF6FF71082802D188
:10ECE0001180064804E0032804D104481180213033
:10ECF00001F09ABD70470000B8000020771E01089F
:10ED0000014900200870704708000020704700008B
:10ED100003494FF6FF700880024801F085BD0000EE
:10ED2000B8000020C81D010810B5FDF7AFFD0BA10C
:10ED3000C620FDF739FD09A1D220FDF735FD114CA4
:10ED40004FF47840208010A001F06EFD104801F0D3
:10ED50006BFD4FF6FF70208010BD000020202020AA
:10ED600020202020202020202020202020202020A3
:10ED70002020202020202020202020202020202093
:10ED800020200000B80000204552524F523A200087
:10ED9000DC1D010810B5074C4FF47840208006A018
:10EDA00001F042FD06A001F03FFD4FF6FF7020800C
:10EDB00010BD0000B80000204552524F523A2000CA
:10EDC0003E20446576696365206E6F7420737570AC
:10EDD000706F727465642E000B4A4FF6FF7110B9A4
:10EDE00011800A480DE0012803D1084811801E3027
:10EDF00007E00228118002D104483C3001E00348BA
:10EE0000593001F011BD0000B80000200D1E0108AE
:10EE100070B5084E4FF6FF7535800446018906A08F
:10EE200001F002FD35806189BDE8704006A001F067
:10EE3000FBBC0000B8000020564944203A20253091
:10EE40003458680A00000000504944203A20253018
:10EE50003458680A0000000010B50C484FF6FF74E3
:10EE600004800B4801F0E0FC4FF4FC60FDF7DCFE91
:10EE700008A1C620FDF798FC10A1D220FDF794FC54
:10EE80002046BDE81040FDF7CFBE0000B8000020CE
:10EE9000F31D0108546F2073656520746865207246
:10EEA0006F6F7420636F6E74656E74206F6620746C
:10EEB0006865206469736B203A20000050726573A6
:10EEC00073204B65792E2E2E2020202020202020FC
:10EED0002020202020202020202020202020200052
:10EEE00010B515484178002924D101214170002036
:10EEF000FEF7FAFA0120FEF7F7FA0220FEF7F4FA1D
:10EF00000320FEF7F1FA00210220FEF719FBFEF7BD
:10EF1000E1FAFDF7E3FC09A0FDF71AFD0D494FF6F4
:10EF2000FF7008800CA001F07FFCBDE8104012A02B
:10EF3000FDF7DCBC10BD0000080000202055534246
:10EF4000204F5447204653204D534320486F73743D
:10EF500000000000B80000203E2055534220486FBA
:10EF60007374206C69627261727920737461727457
:10EF700065642E0A00000000202020202055534206
:10EF800020486F7374204C69627261727920763206
:10EF90002E312E30000000002DE9F0478EB0002405
:10EFA000342101A8FDF7F7F8DFF85881564D02F03B
:10EFB000E3FBFEF77BF902F0E7FBA8F254410020E7
:10EFC00002F024FA18B1601E0EB0BDE8F0870122ED
:10EFD0004EA1504802F02EFA4F4F80BB4F4E00BF5B
:10EFE00005EBC420FDF720FA641C142CF8DB4FF469
:10EFF000006A494B52461B1D4249464802F0BEFA80
:10F000007868C8B10024A146C6F800800FE03068D7
:10F0100001682846FDF73AFA30682968026891428B
:10F0200001D0C7F80490001D2D1D241D30607868A4
:10F030008442ECD30028DCD1364802F0DDF900240C
:10F040004FF40055012236A1324802F0F3F94FF493
:10F05000805900BB4FEA050606EB0440FDF748F96E
:10F06000641C1F2CF8DB4C462B4B22461B1D4146D3
:10F07000284802F083FA786850B1DFF8888082B2BD
:10F0800041462846FEF7D4F9786805440028EBD1BC
:10F09000204802F0B1F90024012224A11D4802F009
:10F0A000C9F938BB0020FEF79FFA1B4B4A461B1DCF
:10F0B00001A9184802F062FA7868D8B19DF80800F2
:10F0C0009DF8091000F00F0060F31F110D4801704A
:10F0D0009DF8111001F00F029DF8121062F31F113C
:10F0E00041700A2181700D21C17001460422204621
:10F0F000FEF79EF902F050FB0E4901200870002037
:10F1000062E70000980B002000C000086C65642EC8
:10F1100062696E0074090020080000206000002071
:10F120007A696B752E62696E000000006366672E57
:10F1300074787400040000204FF6FF72024B014601
:10F140001A8002A001F070BBB80000204D616E75FE
:10F150006661637475726572203A2025730A000037
:10F1600010B5074C4FF47840208006A001F05CFBFE
:10F1700006A001F059FB4FF6FF70208010BD000083
:10F18000B80000204552524F523A20004F76657227
:10F1900063757272656E742064657465637465640A
:10F1A0002E0000004FF6FF72024B01461A8002A0AB
:10F1B00001F03ABBB800002050726F647563742090
:10F1C0003A2025730A000000704700004FF6FF72D6
:10F1D000024B01461A8002A001F026BBB8000020B5
:10F1E00053657269616C204E756D626572203A20BC
:10F1F00025730A0010B5074C4FF47840208006A014
:10F2000001F012FB064801F00FFB4FF6FF70208063
:10F2100010BD0000B80000204552524F523A200065
:10F22000B01E010810B500240220FEF77DF900B9D8
:10F230000124204610BD000038B501211020FDF743
:10F24000F9FF4FF40074ADF8004003208DF8020080
:10F250001020084D8DF8030069462846FDF76CF92B
:10F2600021462846FDF7EDF90121C820FCF7FEFFF5
:10F2700038BD00000010014008B54FF4C060FDF734
:10F2800099FF43208DF8000001208DF80100032034
:10F290008DF8020000208DF803006846FDF75AFF44
:10F2A00008BD00004FF4007203480029114601D147
:10F2B000FDF7C7B9FDF7C3B90010014008B54FF419
:10F2C000C060FDF777FF43208DF8000001208DF826
:10F2D000010003218DF802108DF803006846FDF748
:10F2E00039FF08BD08B50020FDF7BCFF0121080368
:10F2F000FDF77CFF00214FF00060FDF765FF4FF444
:10F30000A060FDF757FF1C208DF8000001208DF84C
:10F3100001008DF802008DF803006846FDF71AFF22
:10F3200001210846FDF76EFF08BD000010B5012160
:10F330008C072046FEF723FA002809D00121204639
:10F34000FEF710FA0648016819B10168491E01600C
:10F3500010BD2046BDE810400021FEF706BA0000AF
:10F36000000000200121FCF781BF0221FCF77EBFD5
:10F3700070B50446017A0025C068012918D1816B57
:10F38000627A21F480310AB141F480118163E0682E
:10F39000C16821F0401121F42021C160204600F015
:10F3A00079F8E078012820D1E1682A20886011E00E
:10F3B000C16841F04001C160204600F06BF8617AFD
:10F3C0004FF4341009B14FF47410E16888631420CD
:10F3D000FFF7C8FFE078012807D1E068816821F0D5
:10F3E0001E010A3141F020018160284670BD2DE9DF
:10F3F000F0414FF00008044645464646FFF71CFF23
:10F40000D4F80C010660207A012801D1002100E027
:10F410000121204600F01DFA204600F04DFA6069F7
:10F42000016821F004010160E07A012813D18021F4
:10F43000E268304661F30F0051626023E16863F3D4
:10F440001F40E022374662F30F078862E06863F3EB
:10F450001F47C0F800711021204600F0B5F8204683
:10F4600000F096F84FF0FF3107E004EB850050F80C
:10F47000902F6D1C91600068C6602078A842F4D877
:10F480000121204600F03AF8204600F05DF84046A1
:10F49000BDE8F081F8B5002705463C460097124EBE
:10F4A0000320FFF762FFE86800690090641CB44223
:10F4B00001D90020F8BD00980028F1DA0099002059
:10F4C00041F0010100910099EA681161E9680A6957
:10F4D000401C0092B04202D8009AD207F7D1032014
:10F4E000FFF743FF3846F8BD400D03000146C968E9
:10F4F00000208A6822F001028A60704770B50446D5
:10F500000D46FFF7CFFE204600F0BCF9C10408D439
:10F51000012D0CD1D4F8CC1040F480500860C10407
:10F5200005D525B9D4F8CC1020F480500860BDE88A
:10F530007040C820FFF716BF0146C96800208A68DE
:10F5400042F001028A60704730B50022C46811465B
:10F55000531EA261C4686361C4686FF08045636034
:10F56000C3685D61C468094BA361C37803B9102106
:10F57000C06841F00C5141F00801836941F4001169
:10F580008B430B438361104630BD000000080080B0
:10F5900038B5002421460094009A42F010020092EF
:10F5A000009AC3681A61074AC3681869491C009029
:10F5B000914202D80098C006F7D40320FFF7D5FE89
:10F5C000204638BD400D030038B500242246009483
:10F5D000009B43F020030093009B61F38A13009388
:10F5E0000099C36819610749C0680369521C0093F8
:10F5F0008A4202D8009B9B06F7D40320FFF7B5FE92
:10F60000204638BD400D0300034610B5002003EB33
:10F6100081014FF00042012451F8903F64F3DC4235
:10F620001A6109680A6822F0804242F000420A60CA
:10F6300010BD10B500EB8101D1F8902000231168B6
:10F6400041F0404111F4402F03D0C1F38144022C1A
:10F6500002D1C068C06A01E04069006910F47F0F00
:10F6600001D121F000411160184610BDF0B5002510
:10F6700000EB8104D4F890606B1EAC462A46B36060
:10F68000C378012B00D1042200EB411393F8B1633E
:10F6900086B1012E21D0022E0CD0032E28D142F0AB
:10F6A000990242F4C06293F8AE73164607B346F46B
:10F6B00080721DE042F0890293F8AE6342F48262E8
:10F6C0001EB100BF42F4807212E093F8B06342F0C2
:10F6D00040026EB142F020020AE042F0010242F420
:10F6E000087293F8AE73164617B146F08002E9E748
:10F6F000D4F8906001278F40F26041698A693A43EB
:10F700008A61C068816941F00071816193F8AC132E
:10F7100093F8AD0361F39C5C93F8AE1360F3CE2CC9
:10F7200061F3CF3C93F8AF134CF40030022901D0C1
:10F730002CF4003093F8B113B3F8B22361F3934083
:10F74000032962F30A0001D140F00050D4F8901070
:10F7500008602846F0BDF0B500EB41140027D4F84E
:10F76000BC6305464FF480723B466EB1B4F8B203F9
:10F770000644761EB6FBF0F6B6B2964205D90002F4
:10F780001646C4F8BC0300E0012694F8AE0310B995
:10F79000D4F8BC0304E0B4F8B2037043C4F8BC036B
:10F7A00060F3120366F3DC4394F8B40305EB8102C3
:10F7B000D2F8906060F35E733361E878012804D179
:10F7C000D2F89030D4F8B803586152F8900F03681B
:10F7D000284600F044F860F35D7323F0804012681F
:10F7E00040F000401060E87828BB94F8AE0310BBEE
:10F7F000D4F8BC23FAB194F8B103F0B1012803D0D6
:10F8000002281AD003280CD16869D21C0069C2F3FF
:10F810008F0280B2904204D2E868826942F080622E
:10F820008261D4F8BC030A4683B2D4F8B803014617
:10F83000284600F09BFF3846F0BDD21CE8689303D1
:10F84000C26A1B0C92B29A42EBD2826942F0200249
:10F85000E6E74069026861F30102026070474069AF
:10F86000806840F30000401C7047C068406900F0A9
:10F870000100012800D000207047C06841698069FC
:10F8800008407047D0F8CC00006820F02E00704788
:10F8900040694069704730B5044608460021D21CD3
:10F8A0009308D4F8D04004E02268491C051D02608A
:10F8B00028469942F8D330BD70B50546FFF7E2FF00
:10F8C00040F4807455F8CC0F04600A20FFF74AFD1D
:10F8D000296824F4807008601420FFF743FD01209C
:10F8E00070BD000070B500220125C27040268570F1
:10F8F00014461346868001290BD1C5720821017078
:10F9000004214FF0A04241709115C1800221017283
:10F9100009E041B9C3720C21017006214170204AEF
:10F920004FF4A061C18002F50061C0E9032100210C
:10F930000BE000BF02EB411303F5106600EB8105FD
:10F9400003F53063AE61491C6B6543788B42F1D897
:10F9500002F5806141614031C0F8CC10002108E01F
:10F9600002EB411300EB810503F5A063491CC5F8C8
:10F97000903003788B42F3D8002108E002EB01338A
:10F9800000EB810503F58053491CC5F8D03003789E
:10F990008B42F3D802F56062C0F80C21204670BD9E
:10F9A0000000044010B5C2680024D068012920F08E
:10F9B000C04002D140F0005002E009B940F0804060
:10F9C000D0603220FFF7CEFC204610BD38B504468B
:10F9D000002000900748006881682046884700980A
:10F9E00020F0005000F1005000900098E16848615C
:10F9F000012038BD740000200CB50146D1F89000FC
:10FA000000680090009820F00040A0F100400090B5
:10FA1000009820F0804000F180400090009AD1F8DA
:10FA20009000026000200190019820F4001000F581
:10FA3000001001900198CA68506101200CBD7CB58E
:10FA40000446002500262046FFF722FF019000BF54
:10FA50001BE0019881B20120A840014214D004F1BA
:10FA6000900050F82500006800900098C0F3C03066
:10FA700028B12946204600F00DF8064304E0294647
:10FA8000204600F01BFA06436D1C2078A842E0D8FF
:10FA900030467CBD70B586B004460D4604F190003A
:10FAA00050F82560B0680590F0680490DDE9041016
:10FAB0000840059004F1900050F82500006803907C
:10FAC000002004900598C0F38000D0B10020019080
:10FAD000019820F00400001D01900198B06004F12D
:10FAE000900050F82500C0680190019820F00200B5
:10FAF000801C019004F1900050F825000199C1602C
:10FB000073E00598C0F3401048B1002001900198BF
:10FB100020F02000203001900198B06065E0059849
:10FB2000C0F3C00078B304F1900050F82500C0681D
:10FB30000190019820F00200801C019004F19000D7
:10FB400050F825000199C160052104F56370415505
:10FB500000200190019820F01000103001900198D1
:10FB6000B06000200190019820F00800083001905A
:10FB70000198B060059820F010000590E9B2204689
:10FB8000FFF757FD31E0FFE70598C0F3802060B331
:10FB900004F1900050F82500C0680190019820F011
:10FBA0000200801C019004F1900050F8250001999A
:10FBB000C160E9B22046FFF73CFD002001900198AA
:10FBC00020F01000103001900198B060082104F579
:10FBD0006370415500200190019820F4806000F589
:10FBE000806001900198B06000BF0598C0F340208C
:10FBF000F8B104F1900050F82500C0680190019818
:10FC000020F00200801C019004F1900050F82500C3
:10FC10000199C160E9B22046FFF70BFD0020019079
:10FC2000019820F4007000F5007001900198B06018
:10FC300041E10598C0F30000002871D0E078012868
:10FC400012D104F1900050F825000069029004F5EB
:10FC50006B7000EB451000690299C1F31201411A63
:10FC600004F5547040F82510012104F563704155E6
:10FC70000021783840F8251000200190019820F0EC
:10FC80000100401C01900198B0600398C0F38140CE
:10FC900020B10398C0F3814002282AD104F19000DA
:10FCA00050F82500C0680190019820F00200801CE7
:10FCB000019004F1900050F825000199C160E9B26B
:10FCC0002046FFF7B6FC00200190019820F01000BC
:10FCD000103001900198B06004F56B7000EB451096
:10FCE000007E80F0010104F56B7000EB4510017699
:10FCF000E1E00398C0F38140032899D1039820F0F4
:10FD0000005000F10050039004F1900050F82500DD
:10FD100003990160012104F29B304155CBE0FFE7DC
:10FD20000598C0F34000002851D004F1900050F82D
:10FD30002500C0680190019820F00200019004F1B4
:10FD4000900050F825000199C16004F56370405D92
:10FD5000012804D1012104F29B3041552DE004F526
:10FD60006370405D052804D1042104F29B304155A5
:10FD700023E004F56370405D062804D004F5637049
:10FD8000405D082808D1002104F5457040F8251091
:10FD900003218730415510E00398C0F381400328C8
:10FDA0000BD104F56B7000EB4510007E80F0010173
:10FDB00004F56B7000EB451001760020019001986E
:10FDC00020F00200801C01900198B06073E005985B
:10FDD000C0F3C01040B304F1900050F82500C06893
:10FDE0000190019820F00200801C019004F1900025
:10FDF00050F825000199C16004F5457050F82510B0
:10FE0000491C40F82510062178304155E9B22046BA
:10FE1000FFF70FFC00200190019820F08000803057
:10FE200001900198B06046E00598C0F300100028EA
:10FE300041D00398C0F38140032815D104F190000C
:10FE400050F82500C0680190019820F00200801C45
:10FE5000019004F1900050F825000199C160E9B2C9
:10FE60002046FFF7E6FB18E00398C0F3814020B17D
:10FE70000398C0F3814002280FD1039820F000407E
:10FE8000A0F100400390039820F08040039004F11B
:10FE9000900050F8250003990160032104F5637078
:10FEA000415500200190019820F010001030019081
:10FEB0000198B06000BF012006B070BD7FB5044658
:10FEC0000D4604F1900050F82560B0680390F0688A
:10FED0000290DDE902100840039004F1900050F810
:10FEE0002500006801900398C0F38000D0B1002085
:10FEF0000090009820F00400001D00900098B06071
:10FF000004F1900050F82500C0680090009820F09F
:10FF10000200801C009004F1900050F82500009928
:10FF2000C160B0E10398C0F3401048B100200090D8
:10FF3000009820F02000203000900098B060A2E1EE
:10FF40000398C0F34020F8B104F1900050F8250068
:10FF5000C0680090009820F00200801C009004F11E
:10FF6000900050F825000099C160E9B22046FFF7E3
:10FF700060FB00200090009820F4007000F50070F5
:10FF800000900098B0607EE10398C0F3000038B3A1
:10FF9000002104F5457040F8251004F1900050F858
:10FFA0002500C0680090009820F00200801C00909E
:10FFB00004F1900050F825000099C160E9B2204694
:10FFC000FFF737FB00200090009820F00100401C54
:10FFD00000900098B060012104F56370415552E132
:10FFE0000398C0F3C00010B300200090009820F0E8
:10FFF0000800083000900098B06004F1900050F8BC
:020000040801F1
:100000002500C0680090009820F00200801C00903D
:1000100004F1900050F825000099C160E9B2204633
:10002000FFF707FB052104F5637041552BE10398A9
:10003000C0F3001038B3002104F5457040F82510D6
:1000400004F1900050F82500C0680090009820F05E
:100050000200801C009004F1900050F825000099E7
:10006000C160E9B22046FFF7E4FA00200090009852
:1000700020F01000103000900098B060032104F5CB
:1000800063704155FFE00398C0F3C01040B304F122
:10009000900050F82500C0680090009820F0020001
:1000A000801C009004F1900050F825000099C16078
:1000B000E9B22046FFF7BDFA04F5457050F8251067
:1000C000491C40F825100621783041550020009049
:1000D000009820F08000803000900098B060D2E05E
:1000E0000398C0F3801038B3002104F5457040F840
:1000F000251004F1900050F82500C0680090009889
:1001000020F00200801C009004F1900050F82500BF
:100110000099C160E9B22046FFF78BFA00200090F9
:10012000009820F04000403000900098B06004211A
:1001300004F563704155A6E00398C0F3802060B3D6
:1001400004F1900050F82500C0680090009820F05D
:100150000200801C009004F1900050F825000099E6
:10016000C160E9B22046FFF764FA002000900098D1
:1001700020F01000103000900098B060082104F5C5
:100180006370415500200090009820F4806000F5D5
:10019000806000900098B06075E00398C0F3400064
:1001A000002870D004F1900050F82500C06800903D
:1001B000009820F00200009004F1900050F8250013
:1001C0000099C16004F56370405D012815D10121DB
:1001D00004F29B3041550198C0F38140022848D178
:1001E00004F56B7000EB4510407E80F0010104F5D2
:1001F0006B7000EB451041763BE004F56370405DA9
:10020000032804D1022104F29B30415531E004F56A
:100210006370405D04280FD104F56B7000EB45104E
:100220000079012803D1E9B22046FFF7EDF9022158
:1002300004F29B3041551CE004F56370405D0528D5
:1002400004D1042104F29B30415512E004F563709F
:10025000405D06280DD104F5457050F825000328AF
:1002600007D1032104F29B3041550021873840F823
:10027000251000200090009820F00200801C0090C3
:100280000098B06000BF012004B070BD7FB5044687
:10029000E068C06A00900198C0F3C30104F56B7078
:1002A00000EB41100069C01CC0F38F0571E000989D
:1002B0008004060C0198C0F3C30104F56B7000EBD9
:1002C00041100069B04215D20198C0F3C30104F592
:1002D0006B7000EB4110006986B200200390039818
:1002E00020F0200020300390E06880690399884363
:1002F000E16888610198C0F3C30104F56B7000EBFD
:1003000041100069C01CC0F38F050198C0F3C302FF
:10031000C0F3C30304F56B7000EB43103346C168B0
:10032000204600F023FA0198C0F3C30104F56B7076
:1003300000EB4110C06881190198C0F3C30204F5B5
:100340006B7000EB4210C1600198C0F3C30104F56B
:100350006B7000EB41100069811B0198C0F3C30270
:1003600004F56B7000EB421001610198C0F3C3010A
:1003700004F56B7000EB4110406981190198C0F3DE
:10038000C30204F56B7000EB42104161E068C06A83
:100390000090009880B2A8420ADD0198C0F3C30122
:1003A00004F56B7000EB4110006900287FF47FAF0B
:1003B000012004B070BD0000FEB5044600250026F3
:1003C0000020009002900190D4F8CC0000680290C8
:1003D000D4F8CC0000680190019820F0040001904E
:1003E000019820F002000190019820F0080001908F
:1003F000019820F0200001900298C0F3400058B10D
:10040000019820F00200801C019032480068416889
:100410002046884746F001060298C0F3C000002835
:1004200042D0019820F00800083001900298C0F3F3
:100430008000012838D12748006841682046884755
:100440000298C0F34140022804D00298C0F3414012
:10045000012828D16069006800900298C0F34140EB
:10046000022811D141F27071606941600098C0F3B7
:100470000100022818D0207A022803D10221204648
:10048000FFF7E7F901250FE04BF680316069416025
:100490000098C0F30100012806D001212046FFF793
:1004A000D8F9012500E001250298C0F3401030B1D1
:1004B000019820F020002030019046F0010615B18F
:1004C0002046FFF7F9F90199D4F8CC0001603046D5
:1004D000FEBD000074000020FEB50446606900699E
:1004E00000900198C0F3C30104F56B7000EB41105C
:1004F0000069C01CC0F38F0572E000988004060CF0
:100500000198C0F3C30104F56B7000EB4110006962
:10051000B04216D20198C0F3C30104F56B7000EB32
:100520004110006986B200200290029820F080609D
:1005300000F180600290E068806902998843E16878
:1005400088610198C0F3C30104F56B7000EB4110A2
:100550000069C01CC0F38F050198C0F3C302C0F34B
:10056000C30304F56B7000EB43103346C1682046AB
:1005700000F0FCF80198C0F3C30104F56B7000EBC8
:100580004110C06881190198C0F3C30204F56B7073
:1005900000EB4210C1600198C0F3C30104F56B7019
:1005A00000EB41100069811B0198C0F3C30204F500
:1005B0006B7000EB421001610198C0F3C30104F5B8
:1005C0006B7000EB4110406981190198C0F3C302C0
:1005D00004F56B7000EB42104161606900690090A6
:1005E000009880B2A8420ADD0198C0F3C30104F567
:1005F0006B7000EB4110006900287FF47EAF012092
:10060000FEBD7FB50546002600200290029820F02E
:10061000100010300290E868806902998843E96808
:100620008861E868006A03900398C0F3030605F147
:10063000900050F82600006800900398C0F34340F3
:10064000022806D0032869D0052868D0072867D07B
:1006500063E00398C0F30A1000285DDD05F56B70B8
:1006600000EB4610C068002856D00398C0F30A1269
:1006700005F56B7000EB4610C1682846FFF70BF9D3
:100680000398C0F3030105F56B7000EB4110C068DF
:100690000399C1F30A1101440398C0F3030205F55D
:1006A0006B7000EB4210C1600398C0F3030105F5C5
:1006B0006B7000EB411040690399C1F30A110144CA
:1006C0000398C0F3030205F56B7000EB4210416123
:1006D00005F56B7000EB4610446905F5547040F861
:1006E000264005F1900050F826000069019001981D
:1006F000C0F3C94000280FDD009820F00040A0F1B1
:1007000000400090009820F08040009005F190009B
:1007100050F826000099016003E000BF00BF00BF51
:1007200000BF00BF029820F0100010300290E8686F
:10073000806902990843E9688861012004B070BDAE
:1007400038B504460020009007480068016820463C
:100750008847009820F00800083000900098E16871
:100760004861012038BD00007400002030B5054606
:10077000EC780020002C0DD1DB1C05EB82029B08DD
:10078000D2F8D02004E000BF51F8045B1560641C6F
:100790009C42F9D330BDFEE710B5084C102120462D
:1007A000FBF74DFF0420FCF7D7FD10212046FBF797
:1007B00048FFBDE81040FBF7C1BD00000008014044
:1007C00010B5074C10212046FBF739FF0620FCF737
:1007D000C3FD2046BDE810401021FBF732BF0000EA
:1007E0000008014010B50F4C10212046FBF727FFF1
:1007F0005020FCF7B1FD10212046FBF722FF10210D
:100800002046FBF71CFF0120FCF7A6FD0020FCF7AB
:10081000A3FD10212046FBF714FFBDE81040FBF7B5
:100820008DBD0000000801400FB410B503A9044BB2
:10083000044A029800F018F810BC5DF814FB0000A0
:10084000651801081001002002E008C8121F08C145
:10085000002AFAD170477047002001E001C1121F41
:10086000002AFBD1704700002DE9FF4F93B00546E9
:100870000F460026FEE1252875D100246D1CA346F5
:10088000A1460121FF4A2B78203B01FA03F01042D8
:1008900002D004436D1CF6E728782A2816D157F8B1
:1008A00004BBBBF1000F03DA44F40054CBF1000B9E
:1008B00044F002046D1C10E00BEB8B0002EB4000D7
:1008C00044F0020401EB000B6D1C01E06FF02F02FD
:1008D0002978A1F130000928EED928782E2818D1DE
:1008E00015F8010F44F004042A280BD157F8049B93
:1008F0006D1C0EE009EB890002EB400001EB0009E2
:100900006D1C01E06FF02F022978A1F13000092859
:10091000F0D928786C280ED008DC4C2816D068282E
:100920000CD06A2813D144F400140FE074280DD0C1
:100930007A280CD10AE044F4801401E044F4401415
:100940006978814202D16D1C04F580146D1C2878F1
:100950006E2833D01CDC632847D005DC002879D012
:10096000582889D128E0A3E1642801D06928F8D16A
:100970000A200021CDE90C01C4F30250022879D1EC
:10098000FF1D27F00707D7E9008108370F9186E0A0
:10099000732834D00CDC6F287ED07028E1D1102170
:1009A0000022CDE90C1244F004044FF0080998E04D
:1009B000752872D07828D4D110218FE0C4F302506A
:1009C000022804D13868F117C0E900610AE0032861
:1009D00002D13868068005E00428386801D1067025
:1009E00000E0066007F1040743E101CF8DF83C0009
:1009F00000208DF83D000DF13C0A012003E057F87E
:100A000004AB4FF0FF3061074FF000010CD501E05F
:100A100008F101018846494510DA8045F8DB1AF8EB
:100A200008100029F4D109E001E008F1010188462D
:100A30008142FADB1AF808100029F6D1DDE9152306
:100A4000ABEB08092146484600F04AF9304400EB78
:100A5000080606E012E10DE0DDE915121AF8010BB7
:100A60009047B8F101008046F6D2DDE91523214612
:100A70004846FBE002CFCA1788460F92032804D1EC
:100A80000FFA88F1CA1788460F92042807D14FFA47
:100A900088F0C117804601E01FE01CE00F910023A1
:100AA0000F99B8EB0300994108DA0F99D8F10008C3
:100AB00061EB41014FF02D000F9102E0200504D5BC
:100AC0002B208DF80800012003E0E00701D0202052
:100AD000F7E7824653E00A2100E008210022CDE931
:100AE0000C12C4F30251022907D1FF1D27F007079A
:100AF000D7E9008208370F920BE0002357F8048BE8
:100B00000F93032901D11FFA88F8042901D108F0B5
:100B1000FF084FF0000A210731D5702804D140208A
:100B20008DF80800012013E0DDE90C01102250408F
:100B300008430ED100230F9988EA03005940084367
:100B400007D030208DF8080028788DF809000220A1
:100B50008246DDE90C010822504008430FD10023F2
:100B60000F9988EA03005940084301D1600706D570
:100B700030208DF808004FF0010AA9F10109297809
:100B800041A0582900D045A001900CA803900EE088
:100B9000DDE90C2340460F99FBF709FB019B8046DA
:100BA0009B5C039AA2F10102039213700F91002340
:100BB0000F9988EA030059400843E9D1039904A832
:100BC000A0EB010000F12008600702D524F4803476
:100BD00001E04FF001090020C14501DDA9EB08004B
:100BE00000EB080151441090ABEB01001190E003C1
:100BF00006D4DDE915232146119800F071F806446A
:100C00004FF000090DF1080B07E0DDE915121BF8A4
:100C100009009047761C09F10109D145F5DBE00395
:100C20000CD5DDE915232146119800F059F806444A
:100C300004E0DDE9151230209047761C1098411E23
:100C400010910028F5DC08E0039803990078491C0E
:100C50000391DDE915129047761CB8F10000A8F168
:100C60000108F1DCDDE915232146119800F025F893
:100C700006446D1C287800287FF4FDAD304617B07F
:100C8000BDE8F08F09280100303132333435363772
:100C90003839414243444546000000003031323388
:100CA00034353637383961626364656600000000A8
:100CB000DDE915129047761CDBE72DE9F04104468B
:100CC000002517461E46880407D504E03946202033
:100CD000B04705F10105641EF8D52846BDE8F0814E
:100CE0002DE9F04104460025302790461E46C803F2
:100CF00000D42027880407D404E041463846B04792
:100D000005F10105641EF8D52846BDE8F081000014
:100D100010B504460A464078012304F1300100F082
:100D2000FBFA08B1032010BDB4F82E02A0F52A4149
:100D3000553901D0022010BD94F86610D4F8672010
:100D4000094841EA0221B0EB012F08D094F8821043
:100D5000D4F8832041EA0221B0EB012F01D1002019
:100D600010BD012010BD0000004641542DE9F041A6
:100D70000B46016816460D78303D092D09D84A7892
:100D80003A2A06D1891C0160022D03D30B20BDE84D
:100D9000F0810025654850F825401C600CB90C20F6
:100DA000F5E7207848B1607800F0E8FAC10704D18F
:100DB0000EB1400710D40020E9E74FF0000884F896
:100DC0000080E8B2607000F075FAC10701D003201E
:100DD000DDE71EB1400701D50A20D8E700263146DD
:100DE0002046FFF795FF01280CD104F5F770017933
:100DF00091B1017AD0F8090041EA00263146204637
:100E0000FFF786FF032801D10120C0E720B9B4F81D
:100E10003B00B0F5007F01D00D20B8E7B4F84600E4
:100E200028B994F85400D4F8551040EA0120A06184
:100E300094F84010E170E38F9A194143226294F8CC
:100E40003D00A070B4F841002081B4F8430028B9F7
:100E500094F85000D4F8515040EA0520C01A238974
:100E6000401AA578A0EB1310B0FBF5F0801C01250B
:100E700040F6F777E061B84200D302254FF6F777E6
:100E8000B84201D3032501E0032D06D194F85C009C
:100E9000D4F85D7040EA072000E05018606201EB72
:100EA00013101044A0624FF0FF302061474684F8D1
:100EB0000480032D31D16771B4F8600001238219D9
:100EC0006261607804F1300100F026FA28BBB4F8C2
:100ED0002E02A0F52A4155391FD194F83000D4F8DC
:100EE0003120134940EA0220884216D194F81402B6
:100EF000D4F815220F4940EA022088420DD194F817
:100F00001C02D4F81D1240EA0120E06094F8180297
:100F1000D4F8191240EA0120206104492570091F04
:100F2000E7620888401C0880E08044E7AC000020AD
:100F30005252614172724161C269891E921E8A4297
:100F400001D800207047826A807801FB002070473A
:100F50002DE9F041C76906465FEA010805D1F56849
:100F60000DB1BD420DD301250BE04146304600F0E6
:100F7000F7FC022802D20120BDE8F081B842FBD381
:100F800045462C46641CBC4202D30224022D0AD3DF
:100F90002146304600F0E4FC38B1411CECD0012879
:100FA000EAD0AC42EED10020E6E76FF07042214675
:100FB000304600F0F9FD4FF0FF3540B9B8F1000FB1
:100FC00007D022464146304600F0EEFD08B12846E3
:100FD000D2E7F4603069411C03D0401E306101202B
:100FE00070712046C8E700002DE9F0418469884609
:100FF0000B222021204600F09BFD0021D8F800C0E4
:101000000B460E46082700BF1CF80600761C202859
:1010100031D92F282FD05C282DD02E2801D0BB42CB
:1010200008DB082F30D12E282ED108230B27880665
:10103000010EE9E7802803D3214A104410F8800C00
:1010400020A200E0521C15780DB18542FAD1127829
:10105000D2B9A0F14102192A02D841F0020107E0F9
:10106000A0F16102192A03D8203841F00101C0B271
:10107000E0545B1CC8E70CEB06050422C8F80050DE
:10108000202800D9002213B90620BDE8F08120787D
:10109000E52801D105202070082F01D18806010E16
:1010A00001F00300012801D142F01002C1F38100D8
:1010B000012801D142F00802E2720020E5E70000B9
:1010C000CC1E010820222A2B2C5B3D5D7C7F00007A
:1010D0000349484300E0401E0028FCD1704700004F
:1010E000A08601002DE9F0410446C0880E46401C50
:1010F00007043F0C1DD02069D8B139075CD1401CD2
:101100002061E168206819B90089B84254D810E01C
:101110008278521E12EA171F4ED100F021FC0546BC
:10112000012812D9681C32D02068C169A9423DD873
:1011300016B90420BDE8F081E168FFF709FF05005A
:1011400001D10720F6E7012D01D10220F2E7681C4A
:101150001DD00021206800F0F2FCC0B920684FF4D7
:1011600000723030002100F0E3FC29462068FFF7D0
:10117000E3FE216800264FF00108C8620FE000BFBF
:1011800080F804800021206800F0D9FC08B101201B
:10119000D0E72068761CC16AF6B2491CC16220689B
:1011A0008178B142ECD8C16A891BC162E5602946E9
:1011B0002068FFF7C1FE2061E78007F00F013022B1
:1011C000206802EB4111084460610020B2E770B56D
:1011D0000546002100F02EF80EE02969286800F08D
:1011E000AEFC040024D168690078E52807D030B14E
:1011F00001212846FFF776FF0400EED018E02969A8
:10120000286800F09CFC040012D16E6920220021A5
:10121000304600F08DFC0B223046A96900F07EFCC0
:10122000A869C07A00F0180030732968012008719D
:10123000204670BD70B50D46C18081680446012905
:1012400020D02068C2698A421CD951B90278032A89
:1012500001D1416A29B9E1600189A94212D9406AE4
:101260001AE08078060111E0206800F079FB014661
:10127000401C01D1012070BD022903D32068C06940
:10128000884201D8022070BDA81B85B2B542EBD2BE
:10129000E1602068FFF750FE00EB1510206105F0BB
:1012A0000F013022206802EB4111084460610020E8
:1012B00070BD000010B50548FBF708FA044918B1E5
:1012C000087820F001000870087810BD1401002093
:1012D000A4000020D0B90E4B01201B78DB0701D001
:1012E0000320704749B1012909D04FF40073022946
:1012F0000AD003290AD113607047002070470548BF
:1013000001680020116070471380F6E704207047E1
:10131000A40000209C1D00202DE9F0410D4616463A
:101320001C4600B914B90420BDE8F08110480078CB
:10133000C00701D00320F7E70E48FBF7C7F990B1CB
:1013400064022346324629460A48FDF717F9074644
:1013500009490848FCF732FF0648FBF7B7F920B106
:10136000032FEED00FB90020DEE70120DCE70000FC
:10137000A400002014010020C006002008B10120B4
:101380007047014800787047A40000202DE9F04123
:101390000D4616461C4600B914B90420BDE8F0817C
:1013A00012480178C90701D00320F7E70078400709
:1013B00001D50220F2E70E48FBF788F990B16402EC
:1013C0002346324629460A48FDF728FA07460949C6
:1013D0000748FCF7F3FE0648FBF778F920B1032F26
:1013E000EED00FB90020D9E70120D7E7A4000020F4
:1013F00014010020C006002010B5044600F069F971
:10140000002801D10021216010BD000010B5022884
:1014100001D30B2010BD064C002354F8202002B14C
:10142000137001B10B7044F82010002010BD0000B3
:10143000AC0000202DE9F7478BB04FF000080646BE
:1014400002F01F05C0F8008005F01E0204A90CA8D8
:10145000FFF78CFC00281BD101A80A9004A80C9966
:1014600000F0A2F915F01C0F5CD04FF0010960B13B
:1014700004280DD104A8FFF7AAFE002808D145F0E2
:101480000805099C28075CD538E0680703D50820C3
:101490000EB0BDE8F087099C002C50D0E07A10F027
:1014A000110F4CD128074CD5A08A678B84F8148083
:1014B00084F8158084F81A8084F81B8084F81C80D6
:1014C00084F81D8084F81E8084F81F80049960F3DE
:1014D0001F4781F804900498D0F82CA047B13946F2
:1014E000049800F0D5FB0028D2D104987F1EC76075
:1014F0005146049800F023FB0028C9D184F80B80E2
:1015000000F087FAA0734FEA1021E1734FEA10410F
:1015100021744FEA10606074049945F0200581F849
:1015200004900EE00028B3D1099C14B1E07AC10602
:1015300001D50420ACE7A90703D5C00701D00720D7
:10154000A6E70498C06AF06109983062B571A18A73
:10155000608B61F31F403061207FD4F81D1040EA9A
:101560000120C6E90280FF21F171C6F818800498B5
:1015700030600498C088B080002089E72DE9F84FDA
:101580004FF0000B8846C3F800B004468188164629
:101590009946006800F008FC002803D1A0790106F4
:1015A00002D50220BDE8F88FC00701D10720F9E776
:1015B000D4E9022104F124000090881A864200D95F
:1015C000064681E0A168C80566D12068E279837883
:1015D0009A420CD309B9206902E0616900F0C0F9B0
:1015E000012809D9411C4DD0606184F807B06169B8
:1015F0002068FFF7A1FC20B9A07940F08000A0711D
:10160000CFE7E179750A01EB000721D020684B197B
:101610008278934200D9551AEBB240789A463A46FE
:101620004146FFF779FE68BBA07940060AD5A0695C
:10163000C01BA84206D208EB40204FF4007200996C
:1016400000F06CFAE0794FEA45255044E07131E052
:10165000A07940060BD5206801234078A269009943
:10166000FFF794FE70B9A07920F04000A071A06946
:10167000B8420DD02068012340783A460099FFF720
:101680004BFE28B1A07940F08000A071012089E7CD
:10169000A761E079401CE071A068C0F30800C0F5C4
:1016A0000075B54200D93546011924312A46404615
:1016B00000F034FAA068A8442844A060D9F80000DB
:1016C000761B2844C9F80000002E7FF47BAF002071
:1016D00068E770B504468188006800F065FB002863
:1016E0000ED1A1798A060BD548060ED520680123B4
:1016F000407804F12401A269FFF748FE08B10120F7
:1017000070BDA07920F04000A071E169206800F070
:1017100016FA0028F4D1256AE87A40F02000E87231
:10172000E0682877E068000A6877E068000CA8772E
:10173000E068000EE8772069A8762069000AE8765C
:101740002069000C28752069000E687500F061F9A9
:10175000A875010AE975010C2976000E6876A07952
:1017600020F02000A0712168012008712068BDE8E8
:10177000704000F0BDBA00004FF480610148FAF7F4
:1017800060BF0000000C01404FF480710148FAF77F
:1017900056BF0000000801404FF480710148FAF77D
:1017A00050BF00000008014073B50446019801E0F5
:1017B000401C019001782029FAD001782F2901D00E
:1017C0005C2901D1401C01900025A560019800789A
:1017D000202805D200212046FFF72CFD65617CBD45
:1017E00001A92046FFF700FC0028F8D1002120467F
:1017F000FFF720FDF0B92169206800F0A0F9C8B911
:1018000061690A780AB9042014E0CA7A12070BD475
:101810000B23A26900255B1E05D311F8015B12F8AA
:10182000016BAD1BF7D02DB100212046FFF75AFC0C
:101830000028E0D0A169C97A01F0040128B1042888
:10184000CDD10029CBD105207CBD0029FCD1606918
:10185000C17AC906F7D5818A408B61F31F40A06029
:10186000BEE700002DE9F05F0746FBF709F83A4CA8
:10187000A17800296CD161784FF00008012909D1C5
:10188000E1896181A189218184F8018084F8038044
:10189000A4F8108081884FF4A07CBCFBF1F2E188B1
:1018A0002E4E07F0FF098A420DD90A2F0BD060890E
:1018B00000EB800303EBC00006EB800000F8019012
:1018C000491CE18044E02389628993420BD3257847
:1018D0003DB95B1C9BB223810C2B04D1A4F808807A
:1018E00001E084F8008002EB820303EBC2024FF0B8
:1018F000200BB24606EB820305E0E288551C03F894
:1019000002B0E580491C8288BCFBF2F28A42F4D81E
:10191000A08858865546A4F80680FBF761F86089D0
:10192000401C80B260810C2804D1A4F80A800120F8
:10193000208120700A2F0BD0608900EB800202EB1F
:10194000C00005EB8003E088421C03F80090E280B1
:101950003846BDE8F09F0000B4000020362000208B
:101960002DE9F04105460C46022902D3E869A04260
:1019700002D80120BDE8F08128782E6A012818D00D
:10198000022838D0032841D106EBD411284600F0B4
:10199000D6F878BBA1B240F2FF1000EA81002844DB
:1019A00090F83010D0F8310041EA002020F070406B
:1019B000E0E704EB540706EB5721284600F0BFF898
:1019C000C0B9C7F30800284490F830807F1C06EBAC
:1019D0005721284600F0B3F860B9C7F3080028443F
:1019E00090F8301048EA01210809E207C2D1C1F39A
:1019F0000B00BFE70AE006EB1421284600F09FF831
:101A000020B9E0B205EB4000008EB3E74FF0FF30A5
:101A1000B0E700207047000038B501211C20FBF71B
:101A200009FC4FF48070ADF8000010258DF80350CC
:101A300003248DF8024069460C48FAF77DFDA801A1
:101A4000ADF800008DF803508DF802406946084853
:101A5000FAF772FD0420ADF800008DF803508DF800
:101A6000024069460348FAF767FD38BD00080140A7
:101A7000000C01400010014004210148FAF7E1BDCB
:101A8000001001402DE9F84F0024FFF7C5FFFFF7D4
:101A900083FEFFF7F1FFFAF71DFD174B184A00937D
:101AA000164B0121A2F2AC50FCF754FADFF8549027
:101AB000154D164EDFF85880164F4FF4803A4FF010
:101AC000005B00BFD9F8000038B90D49A1F2AC5055
