:020000040800F2
:10000000001F00209D0100087B1500083D0E000820
:10001000791500083B020008F348000800000000C2
:10002000000000000000000000000000672F000832
:100030004D0B000800000000191600081D300008D4
:10004000B7010008B7010008B7010008B7010008B0
:10005000B7010008B7010008B7010008B7010008A0
:10006000B7010008B7010008B7010008B701000890
:10007000B7010008B7010008B7010008B701000880
:10008000B7010008B7010008B7010008B701000870
:10009000B7010008B7010008B7010008B701000860
:1000A000B7010008B7010008B7010008B701000850
:1000B000B7010008B7010008B7010008B701000840
:1000C000B7010008B7010008B7010008B701000830
:1000D000B7010008B7010008B7010008B701000820
:1000E000B7010008B7010008B7010008B701000810
:1000F000B7010008B7010008B7010008B701000800
:10010000B7010008811D0008B7010008B701000809
:10011000B7010008B7010008B7010008B7010008DF
:10012000B7010008B7010008B7010008B7010008CF
:10013000B7010008B7010008B7010008B7010008BF
:10014000B7010008B7010008B7010008B7010008AF
:10015000B7010008B7010008B7010008B70100089F
:10016000B7010008B701000801160008F5150008DE
:10017000B70100080D160008B7010008B701000814
:10018000B7010008B7010008DFF80CD000F018F83C
:10019000004800475D4A0008001F002006488047CD
:1001A00006480047FEE7FEE7FEE7FEE7FEE7FEE75C
:1001B000FEE7FEE7FEE7FEE72130000889010008C0
:1001C000064C074D06E0E06840F0010394E80700A4
:1001D00098471034AC42F6D3FFF7DAFF146F0008EB
:1001E000346F000870B58C1810F8015B15F0070328
:1001F00001D110F8013B2A1106D110F8012B03E0C0
:1002000010F8016B01F8016B5B1EF9D12B0705D4C7
:100210000023521E0DD401F8013BFAE710F8013B10
:10022000CB1A921C03E013F8015B01F8015B521E2C
:10023000F9D5A142D8D3002070BDFEE770B537498B
:1002400005460024086810F0450FFBD0410702D591
:100250000324042003E0C00704D00124204601F059
:1002600029FD59E001F062FDA8422BD140F2FF5078
:1002700001F020FD002001F07BFD294908424BD010
:10028000002801DA1C2070BD410001D5092070BD95
:10029000810001D50A2070BDC10001D50B2070BDC1
:1002A000010101D50C2070BD410101D50D2070BDAB
:1002B000C10101D50E2070BD010201D50F2070BD16
:1002C000410201D5102070BD810201D5112070BD01
:1002D000C10201D5122070BD010301D5132070BDEC
:1002E000410301D5142070BD810301D5152070BDD7
:1002F000C10301D5162070BD010401D5172070BDC2
:10030000410401D5182070BD810401D5192070BDAC
:10031000000701D51A2070BD204670BD342C014065
:1003200008E0FFFD10B50B480024016811F0450FEF
:10033000FBD0480702D50324042003E0C80705D0FA
:100340000124204601F0B6FC204610BD40F2FF50CB
:10035000F8E70000342C014070B50C4619490646F8
:100360000025086810F0450FFBD0410702D5032493
:10037000042003E0C00705D00124204601F09AFCC8
:10038000204670BD01F0D2FCB04212D140F2FF50C5
:1003900001F090FC002001F0EBFC10F4604F03D062
:1003A000810404D5132070BD000C208007E04104B7
:1003B00001D5102070BD000401D50F2070BD284666
:1003C00070BD0000342C014010B50A460C0601F047
:1003D0007F0303EB830100EBC10102D501F58E71B0
:1003E00001E001F55D71D2090B704A7004F06FF8FD
:1003F000002010BD0A4610B5090602F07F0306D59D
:1004000003EB830100EBC10101F58E7105E002EB06
:10041000820100EBC10101F55D7100248C700B704D
:10042000D2094A7004F03AF8002010BD10B50A064F
:1004300004D501F07F0104F065F901E004F046F90C
:10044000002010BD70B50C460E0601F07F0505EBCF
:10045000850100EBC10102D501F58E7101E001F5C6
:100460005D71E4090D704C708A60CB7000D0CD8056
:10047000022B01D100220A7103F0DCFF002070BDC5
:1004800010B501F07F0404EB840100EBC101C1F859
:100490008833C1F880230023C1F88C3381F8753389
:1004A00081F87443C37801F55D71012B00D10A61B5
:1004B00014F0FF0F03D004F049F8002010BD03F042
:1004C0004BFFFAE70069002261F30A120168114349
:1004D000016070470A4610B5090602F07F0306D591
:1004E00003EB830100EBC10101F58E7105E002EB26
:1004F000820100EBC10101F55D7101248C700B706C
:10050000D2094A7004F00AF8002010BD70B511F04D
:100510007F0404EB840100EBC1014FF0010581F879
:100520001D5181F81C41C1F82821C1F82C2101F589
:100530008E714FF00002C1E9053203D004F006F8D5
:10054000002070BD03F008FFFAE700002DE9F0413C
:100550000646002504F01DF9074655E0F80751D07E
:100560003069EAB20369416BD14006EB820201F0C7
:100570000101926943EAC11194680C40E1071AD065
:100580000124426B04FA05F18A43426306EB8500BD
:10059000806984601F48E9B200684268304690472D
:1005A000F078012807D135B996F81101042802D155
:1005B000304603F02DFF200704D506EB8500082404
:1005C00080698460E00604D506EB8500102480690C
:1005D0008460600604D506EB850040248069846051
:1005E000A00704D506EB85000224806984602006FC
:1005F00008D52946304600F06DF906EB85018020CC
:10060000896988607F086D1C002FA7D10120BDE893
:10061000F0810000C00000202DE9F04106460024D2
:1006200004F0BDF80746DFF8988043E0F8073FD0B4
:10063000E1B2304604F0B9F80546C00725D006EB14
:1006400084000125416D8D60F17801290CD1406D48
:10065000016904EB840006EBC000C1F31201D0F87D
:100660007C23511AC0F88C13D8F80000E1B202685C
:1006700030469047F078012807D134B996F8110137
:10068000052802D1304603F0C3FEA80704D506EBC7
:1006900084000225406D8560280709D5D8F8000040
:1006A00081683046884706EB84010820496D8860E0
:1006B0007F08641C002FB9D10120BDE8F081000043
:1006C000C000002070B50646C068816921F01001A5
:1006D0008161F068056A05F00F0000EB800006EB11
:1006E000C004C5F3434004F55D74072821D2DFE858
:1006F00000F0202004202020150047F6F07005426D
:1007000017D0C5F30A152A463046E16804F055F8BB
:10071000E0682844E060A069284409E0082206F265
:10072000CC51304604F049F8A069C5F30A110844D9
:10073000A061F068816941F010018161012070BD04
:1007400038B5044600208DF8000094F812018DF8A9
:100750000000154800684169204688472069806884
:10076000E2684FF400615161A17AD1B1C00718D09D
:1007700094F81501012814D19DF80000032810D128
:10078000D4F80C01016841F001010160D4F80C01BA
:10079000016841F0030101600448016841F006016D
:1007A0000160012038BD0000C000002010ED00E015
:1007B00070B50446006900250126416821F0010159
:1007C00041602946204603F09DFF0020FF2106E0FE
:1007D00004EB800293699960526D9160401C6278CD
:1007E0008242F5D821694FF0FF308861284621699F
:1007F00066F30F0066F31F40C861216945F00B00E6
:1008000048612169C1F88400216945F00B00086145
:10081000216948642069016821F4FE610160204675
:1008200003F0F6FDE1684FF480504861034800682A
:10083000016920468847012070BD0000C0000020EB
:1008400070B5044603F0CAFF0122002384F8122188
:1008500084F814311946402511E000BF01EB8100F6
:1008600004EBC00080F81D2180F81C11A0F82211B3
:1008700080F81F31C0E94953491CC0F83031607815
:100880008842EBD8002110E001EB810004EBC002AC
:1008900082F8753382F87413A2F87A1382F87733EA
:1008A000C2E9DF53491CC2F8883360788842EBD82C
:1008B000204603F02BFD204603F011FC00212046CA
:1008C00003F0EEFF204603F04BFC2046BDE87040ED
:1008D00003F0F4BE2DE9F0470D46064601EB850016
:1008E00006EBC004D4E94C01421AD4F8240104F503
:1008F0008E74904200D20246D21C970806EB8509FE
:1009000018E000BFA0EB0108A068404500D2804677
:1009100008F1030087081FFA88F3EAB23046E1685D
:1009200003F0D3FFE16801EB0800E060A16901EB8F
:100930000800A061D9F81800806980B2B84205D9D2
:10094000D4E90501814201D20028DBD10120BDE8B4
:10095000F0870000074A904201D2074801E00548AD
:100960001038064A8B0001EA020101D5C1607047C8
:100970008160704710640240006002407D0F7D0F6F
:100980000029016802D041F0010101E021F00101DC
:10099000016070472DE9F043016821F00101016019
:1009A0000021016041608160C160016121214161DC
:1009B0003C493C4A3D251039904202D18D60BDE84A
:1009C000F083384A4FF474661832904201D18E6039
:1009D000F5E7344A4FF474173032904201D18F60FA
:1009E000EDE7304A4FF0746C4832904202D1C1F8C2
:1009F00008C0E4E72B4B2C4A6033984201D1CA600F
:100A0000DDE7284C294B7834A04201D1CB60D6E7F2
:100A1000DFF89080264C08F19008404501D1CC6069
:100A2000CDE7DFF880804FF03D5908F1A808404538
:100A300002D1C1F80C90C2E71E49DFF8788008396E
:100A4000404501D10D60BAE71A4D1835A84201D1D1
:100A50000E60B4E7174D3035A84201D10F60AEE704
:100A6000144D4835A84202D1C1F800C0A7E7114D86
:100A700010496035091FA84201D10A609FE70D4A5D
:100A80007832904201D10B6099E70A4A9032904245
:100A900001D10C6093E7074AA83290428FD1C1F888
:100AA00000908CE7106002403D000020400F0020C5
:100AB00000003D20106402400029016802D041F08E
:100AC000200101E021F02001016070470B0607D5ED
:100AD000436912B143F0800301E023F080034361D6
:100AE000802908D0002A026801F01E0101D00A43C3
:100AF00000E08A430260704730B50368124ACC6850
:100B000013400A682243D1E905452C432243CC69AE
:100B100022430C6A22434C6A22438C6A22434C6B68
:100B200022438C6B22431A430260426922F007037E
:100B3000D1E90B2422431A4342610A6942604A68A0
:100B400082608968C16030BD3F801CF07047000042
:100B50008000A0F1C0400029016802D041F00101ED
:100B600001E0024A1140016070470000FEFF0F00E3
:100B700010B5D0E901121143D0E903231A43114300
:100B80004269114382691143C2691143026A1143E8
:100B9000426A1143826A1143C26A1143026B1143D4
:100BA00002689200A2F1C04211608168082907D151
:100BB00001688900A1F1C0410A6842F040020A6060
:100BC000416BD1E9002342EA03128B688C891B0236
:100BD00043EA04431A430B8A42EA03520B7D8969B4
:100BE00042EA03620A4301688900A1F1C0414A60F8
:100BF000C16AB1F5804F08D000686FF07041800085
:100C0000A0F1C040C0F8041110BD816BD1E90023F0
:100C100042EA03128B680C8A1B0243EA04531A430C
:100C20000B7D896942EA036200680A438000A0F1F3
:100C3000C040C0F8042110BD2DE9FC5F0025484CE0
:100C400000954FF4806801954027C4F81080C4E9EE
:100C500002750E464FF0080B1021C4E900B1A946F9
:100C6000204601F0B7F81020FFF7E8FA00284CD131
:100C70003C48BA464F460089000420603720C4E94A
:100C8000010AC4E90398204601F0A4F83720FFF7D1
:100C9000D5FA002839D1411E04F11400C0E9001B27
:100CA000302181600221C0E903170121416101F077
:100CB00019F83320C4F808A0C4E90070C4E9037827
:100CC000204601F087F83320FFF7B8FA04001CD162
:100CD000254F4FF4001AE94640F22A68386810EAB6
:100CE000080F0AD1504601F027F80028F6D001F08D
:100CF0006BF849F825006D1CF0E7082001F01CF89E
:100D000028B1082000F0D6FF0420BDE8FC9F022097
:100D100001F012F820B1022000F0CCFF0220F4E72D
:100D2000202001F009F820B1202000F0C3FF0620A8
:100D3000EBE74FF40075284600F0FEFF20B128468F
:100D400000F0B8FF0720E0E740F2FF5000F0B2FFEC
:100D5000009800BA7060019800BA30602046D4E76D
:100D6000D01A002070010020342C0140F0B500237F
:100D7000012403270D6804FA03F21540954242D17D
:100D8000D0F800C05E0007FA06F52CEA050CC0F8A2
:100D900000C091F804C0D0F800E00CFA06FC4CEA60
:100DA0000E0CC0F800C091F804C0BCF1010F02D0D5
:100DB000BCF1020F1FD1D0F808C02CEA050CC0F816
:100DC00008C091F805C0D0F808E00CFA06FC4CEA1F
:100DD0000E0CC0F808C0D0F804C02CEA020CC0F811
:100DE00004C0426891F806C00CFA03FC1FFA8CFCA0
:100DF00042EA0C024260C268AA43C260CA79C5686E
:100E0000B2402A43C2605B1C102BB3D3F0BD4B072A
:100E1000DB0E9A40C90810B500EB8100016A0F246F
:100E20009C40A1430162016A1143016210BD024668
:100E3000002012690A4200D001207047FEE730B559
:100E40000546002440F23F11204600F04DFA4FF0D5
:100E5000D041222008804FF496304D80641C84429B
:100E6000FBD330BD70B5064640F23F14084D08E094
:100E700020222146304600F0A7F868688088201AB2
:100E800084B26968601C80B289888842F0D270BDE3
:100E9000B40100201CB50121782000F0BFFB4CF20A
:100EA0003370009002208DF804008DF805000020BA
:100EB0008DF80600404C8DF8070069462046FFF784
:100EC00055FF0C2200212046FFF7A1FF0C22012133
:100ED0002046FFF79CFF0C2204212046FFF797FFD6
:100EE0000C2205212046FFF792FF0C220821204604
:100EF000FFF78DFF0C2209212046FFF788FF0C2207
:100F00000A212046FFF783FF0C220E212046FFF71F
:100F10007EFF0C220F212046FFF779FF4FF68070ED
:100F2000264C009069462046FFF720FF0C2207213F
:100F30002046FFF76CFF0C2208212046FFF767FFD1
:100F40000C2209212046FFF762FF0C220A212046CD
:100F5000FFF75DFF0C220B212046FFF758FF0C2204
:100F600011462046FFF753FF0C220D212046FFF7C4
:100F70004EFF0C220E212046FFF749FF0C220F21C5
:100F80002046FFF744FF01200D4C009069462046A3
:100F9000FFF7ECFE0C2200212046FFF738FF20155A
:100FA000084C009069462046FFF7E0FE0C220A211B
:100FB0002046FFF72CFF1CBD000C02400010024031
:100FC0000014024000180240064B10B45B68203A3F
:100FD000D2B21C68DB88534304EB430210BC00F020
:100FE0001FB80000B4010020F0B50D46074640F2DE
:100FF0003F140A4E08E021463846FFF7E5FF7068C7
:101000008088201A84B26D1C2A78002A05D0716865
:10101000601C80B289888842EDD2F0BDB401002006
:101020002DE9F043904689460026054600F05CF91C
:101030004FF0D047184C29E02220388000201BE0D8
:101040000C23B1FBF3F34FEAC30C802303FA0CF338
:1010500038F816C0034113EA0C0F01D10C2906D948
:10106000012383401CEA030F03D10C2901D96188B5
:1010700000E021887980401C91888142E0D86D1C75
:10108000ADB24946284600F02FF9761C6268D08838
:10109000B042D1D8BDE8F083B401002000B50121F1
:1010A00097B0084600F0C6FA05200F9000200921ED
:1010B000CDE91001149004211590CDE90010129093
:1010C0001021CDE9020113900490059006900902C9
:1010D0000790CDE908010A900B900C900FA80D9095
:1010E0000E906846FFF744FD01210420FFF730FD14
:1010F00017B000BD0148406870470000B4010020EF
:1011000008484FF6FF7181800021C1800181418133
:101110008181C1810122027041708170C1700182A0
:10112000704700005C01002010B5FFF7E9FFBDE843
:1011300010400020FFF783BE70B505468AB01F201F
:1011400000F0CAF8FFF7D6FF0446002069464FF4C6
:10115000A072202302E00B54401CC0B2A688B2FB50
:10116000F6F6761E8642F6DCA088B2FBF0F0084464
:10117000002100F8011CE0886946C0F1F00080B24F
:10118000FFF732FFE0882946C0F1F00080B2FFF798
:101190002BFF002000F0A0F80AB070BD70B588B039
:1011A0000021034600E0491C13F8012B002AFAD164
:1011B0001A2900D91A21002220246B469C54521C63
:1011C0001B2AFBD30022C1F11B0404E0855C02EB67
:1011D0005406521C9D558A42F8D30020FFF72FFE7B
:1011E000104800F08DF8FFF785FF04464FF6FF75B5
:1011F000284600F08BF81F2000F06EF80020FFF763
:1012000031FEE0886946FFF7EFFEE08805EA40001E
:10121000FFF728FE002000F05FF8034800F070F8A8
:1012200008B070BDC4010020CC0100202DE9F047BA
:101230000024FFF75FFF234D0646234F68890828E7
:101240001AD22989884217D300EB800101EBC00034
:1012500007EB8000408E00F059F86889F28800EBB7
:10126000800101EBC00107EB8101BDE8F047C01C24
:10127000424390B2FFF7B8BE2989884201D20930B3
:1012800080B2083885B2B8464FF009096119B1FB40
:10129000F9F209FB121000EB800101EBC00108EB31
:1012A0008107788E00F032F8F088E21C504339460E
:1012B00080B2FFF799FE641CE4B2092CE6D3BDE8C6
:1012C000F08700005C0100205C1800204FF0D04146
:1012D000088048887047000001B5BDF8000001494A
:1012E000488008BDB40100200B4600B5014620200F
:1012F00000F014F8194621205DF804EB00F00EB858
:101300000149486070470000B401002001B5BDF8F4
:1013100000000149088008BDB40100204FF0D04210
:10132000108051807047000070B50E4905460E4C84
:10133000087B38B9886828B1607818B90121284637
:10134000FFF7C8F881212846FFF7C4F86078022823
:1013500007D12846BDE870401F23024A0121FFF74C
:101360008FB870BD2C180020E00000202DE9F0415E
:10137000284C074604F1200660687060A068B060E1
:101380000121384602F010F8234D1F280AD12349C5
:101390002068884206D1617B012903D8A07B08B16F
:1013A000102807D9607B2022052100F0ABFB02202A
:1013B000687006E0174A38460F3200F071F90028CD
:1013C00004DA3846BDE8F041FFF7AEBF28780228BE
:1013D0001ED001281CD003281AD0698891B1A368B7
:1013E0000F4A38468B4200D219468BB2B168C91AEF
:1013F000B1600021317304212970BDE8F0418121E1
:10140000FFF784B83846BDE8F041002100F096B8F7
:10141000BDE8F0812C180020E00000205553424325
:101420002C08002010B5094C6278022A08D0090661
:101430000BD5012A09D0BDE81040012100F07EB88B
:101440008121FFF747F80020607010BDE000002008
:1014500010B504460C480078022805D0032801D0B6
:10146000042810D1002109E0084800F10F02417B57
:10147000204600F015F9002805DA01212046BDE8D4
:10148000104000F05BB810BDE00000202C180020D8
:1014900010B504460C48007880B1012813D10B48E0
:1014A00000F10F02417B204600F0FAF800280ADA2A
:1014B0002046BDE81040012100F040B82046BDE8BC
:1014C0001040FFF753BF10BDE00000202C18002093
:1014D0000149002008707047E000002010B5044664
:1014E0000C480021017041700B4800680168002021
:1014F000884701212046FEF799FF81212046FEF70B
:1015000095FF20461F23BDE81040044A0121FEF745
:10151000B7BF0000E00000203C0000202C18002095
:10152000044900221F230A7001224A70024A012145
:10153000FEF7A6BFE00000202C18002010B50C4AD2
:1015400004460A48106011730A4900200D230870F0
:1015500081212046FEF7DAFF054A20461F23203A64
:10156000BDE810400121FEF78BBF000055534253E8
:101570004C180020E0000020FEE7704730B50F2235
:10158000C47801780123FCB1144C246801F1E021F6
:1015900004F4E064C4F5E064C4F30724C4F1040572
:1015A000E2404478AC408578154025432A0181F813
:1015B0000024007800F01F018B404009800000F1FA
:1015C000E020C0F8003130BD01F01F008340480921
:1015D000800000F1E020C0F8803130BD0CED00E06B
:1015E0000249084302490860704700000000FA05FC
:1015F0000CED00E0014801F0C3BF0000D80100205D
:10160000014801F0F9BF0000D8010020014802F0B4
:101610001BB80000D801002070470000044A0029D0
:10162000116801D0014300E0814311607047000060
:1016300030380240044A0029116801D0014300E01B
:10164000814311607047000038380240044A002985
:10165000116801D0014300E0814311607047000030
:1016600044380240044A0029116801D0014300E0D7
:101670008143116070470000243802401144074A3A
:1016800000B59268914206D92122052100F03AFA6C
:101690004FF0FF3000BD002000BD0000C80000205A
:1016A0002DE9F0410B4601464F480024661E41617A
:1016B00017784E4D4E49232F6AD00FDC1A2F50D089
:1016C00007DC4C480068BFB1032F27D0122F11D17F
:1016D0002AE01B2F43D01E2F0CD140E02A2F69D0C7
:1016E00004DC252F5AD0282F04D15DE02F2F67D09E
:1016F0005A2F41D0202267E03F491F468A681AB11D
:10170000487B2022052106E081681846884790B36F
:101710003A220221384600F0F5F960E0BDE8F041D8
:101720001146184600F0BAB95678F60703D00720DC
:10173000324B28800CE0C06903EBC30300EB83034A
:1017400012791879401D824200D81046288003E0A3
:10175000401E80B21A5C0A540028F9D115E02C8092
:1017600013E00820264A2880401E0004000C135C69
:101770000B54F9D109E034E00820224A2880401EA9
:101780000004000C135C0B54F9D12046BDE8F08135
:10179000BDE8F0411146184600F048B9BDE8F041F7
:1017A0001146184600F00EB9BDE8F0411146184642
:1017B00000F0B6B8BDE8F0411146184600F0B8B9DF
:1017C0005178890703D5242205211846A3E7018A09
:1017D0008AB2C1681846FFF751FF002801DA304687
:1017E000D4E72C800020D1E7C8000020E2000020D0
:1017F0002C0800203C0000202C180020D04A0008B3
:10180000D74A0008DF4A00082DE9F0411B4D064683
:101810004FF480502C69844200D304466868B4FBBE
:10182000F0F18BB2E968B1FBF0F215481549006898
:1018300007693046B847002808DA112204213046EB
:1018400000F060F94FF0FF30BDE8F08123460D4A0B
:1018500081216869FEF75AFEE8680B492044E86078
:101860002869001B28618A68A2EB04028A6002D101
:101870000649032008700020E6E70000C8000020A9
:101880003C0000202C0800204C180020E000002024
:101890002DE9F0411E4C4FF4805706462569BD42A4
:1018A00000D33D466068B5FBF0F18BB2E168B1FB57
:1018B000F0F2184818490068D0F814C03046E047E4
:1018C000002808DA03220421304600F01BF94FF00B
:1018D000FF30BDE8F081E0682844E0602069461BE5
:1018E0000E4826618168A1EB050181600AD0BE42E5
:1018F00000D33E46B3B2084A01216069FEF7C0FD3D
:101900000020E6E700216069FFF718FEF8E7000015
:10191000C80000203C0000202C0800204C180020AB
:101920002DE9F047224E81460F463078B0BB214D5D
:101930004FF0FF38287B00062CD51F4800688168CF
:101940004846884728B13A220221484600F0DAF892
:1019500011E0D7F80200194C00BA20F0FF017879A5
:101960000143E160B7F8070042BA48462261FFF739
:1019700085FE002802DA4046BDE8F087022030707C
:101980006168E0684843E060206948432061A968D5
:10199000814204D02022687B0521D7E7FFE7084970
:1019A0004FF4805008804846BDE8F047FFF72CBF51
:1019B000E00000202C1800203C000020C80000207F
:1019C000E200002010B504461448154A0068111DB5
:1019D00043682046984738B13A220221204600F059
:1019E00091F84FF0FF3010BD0D4A0E48121F91685C
:1019F000491E0B0E03700B0C43700B0A8370C170F1
:101A000051680A0E02710A0C42710A0A8271C17190
:101A1000054908200880002010BD00003C0000207F
:101A2000CC0000202C080020E20000207CB50546F8
:101A30000021174C08466054491C89B20C29FAD37E
:101A400014486A4601A9006843682846984738B197
:101A50003A220221284600F055F84FF0FF307CBDB5
:101A60000820E0700198401E010E2171010C617187
:101A7000010AA171E071022020720098010C6172CC
:101A8000010AA1720449E0720C20088000207CBD8C
:101A90002C0800203C000020E200002070B500204F
:101AA000144A04461454401CC0B21228FAD37020C1
:101AB00010700C20D071104803784578AB420FD0DD
:101AC0000E4D15F8336005EBC30596706E791673ED
:101AD0002D7955735B1CDAB20270042A00D10470B0
:101AE0000748122202800979122900D801800020BB
:101AF00070BD00002C080020C80000200C08002049
:101B0000E200002010B50948074C437804F8331070
:101B1000110204EBC3025B1C5160D9B2417004296D
:101B200001D10021417010BD0C080020C800002028
:101B30002DE9F0472A4E81460F46307820B14846BD
:101B4000BDE8F047FFF7A4BE264D4FF0FF38287BD5
:101B5000000632D4244C206881684846884720B16A
:101B60003A2208E0FFF7CEFF1AE02068C168484635
:101B7000884718B1272202214846F3E7D7F8020028
:101B80001A4C00BA20F0FF0178790143E160B7F800
:101B9000070042BA48462261FFF770FD002802DACA
:101BA0004046BDE8F0876168E0684843E06020692E
:101BB00048432061A968814203D02022687B052127
:101BC000D0E7012131700903884200D3084683B26F
:101BD000074A01216069FEF753FC0020E1E700009D
:101BE000E00000202C1800203C000020C80000204D
:101BF0002C0800202DE9FC4700258046009528464A
:101C0000019500F0B5F8800102D50E20BDE8FC87F3
:101C1000264F6946388980B2FFF70EF80028F5D1C3
:101C20003720234C402601994FF0060A4FF4806973
:101C3000B8F1010F1FD0C90335D53989C4F8109008
:101C40000904C4E90010C4E90265204600F0C2F8A6
:101C50003720FEF7F3FA0028D8D1C4E9005AC4F8B7
:101C6000109000BFC4E90265114800F0B3F80620E7
:101C7000FEF7E4FACAE7490315D53989C4F810908C
:101C80000904C4E90010C4E90265094800F0A2F89B
:101C90003720FEF7D3FA0028B8D10220C4F81090FC
:101CA000C4E9000ADEE72520B0E70000700100204B
:101CB000D01A00200149086070470000382C01400C
:101CC0000149086070470000382C01400149C1F803
:101CD000A00070470080254201490860704700005D
:101CE0008C85254210B50A4A01681160121D4168B1
:101CF0001160121D116821F0F703D0E9021421438D
:101D0000D0E90440044321431943116010BD000091
:101D1000242C014010B50121CC022046FFF7A2FC83
:101D20002046BDE810400021FFF79CBC0148006838
:101D3000C0B27047102C0140034A014600201268CF
:101D40000A4200D001207047342C0140034A01466A
:101D5000002012680A4200D001207047342C014054
:101D60000248006800F0030070470000002C0140AA
:101D700008B5024908440090006808BD142C0140D1
:101D800000F076BC044A0029116801D0014300E04C
:101D900081431160704700003C2C014030B5094B75
:101DA0001A6847F6FF618A43017D8468C56821434C
:101DB00044682C43214304680069214301431143D3
:101DC000196030BD042C01400148006870470000D4
:101DD000802C014010B5084A01681160121D11687D
:101DE000CB0AD0E901142143D0E903400443DB02CC
:101DF00021431943116010BD082C014001490860BE
:101E000070470000002C014008B501208DF800004B
:101E100041030548FFF70BF810B100208DF80000D2
:101E20009DF8000008BD0000001C02402DE9F041B3
:101E30000146194800264068032813D018B101282C
:101E400001D0022825D1B1F5805F0BD04FF4006797
:101E50000025124CB9420ED10120FFF7CBFE06003F
:101E600003D016E02720BDE8F08125752560656068
:101E7000C4E9025709E00020FFF7BCFE060008D1C4
:101E8000257525606560A560E56004482561FFF75C
:101E900085FF3046E7E7000070010020B81A0020F7
:101EA0002DE9F0439549DFF85892D1F804C080F845
:101EB00056C00989A0F85410D9F800100A0E9409E8
:101EC0000470C2F38304447002F0030282700A0CAF
:101ED000C2700A0A02714171D9F80470390E090101
:101EE000C180C288C7F3074142EA1112C28001F0E3
:101EF0000F010172C7F30722D1094172C2F38011A9
:101F00008172C2F34011C172C2F30011017300214A
:101F100041734B469D6801232E0EC5F30744C5F35C
:101F20000728BCF1000F06D0BCF1010F03D0BCF1B3
:101F3000020F3BD04DE09207120D0261FAB2076921
:101F400047EA82020261026942EA96120261C6F31E
:101F5000C202027506F00702427562098275C4F377
:101F60008202C275A207520F0276047E424644EAFC
:101F7000D21404760469077EBF1C03FA07F6641CBA
:101F8000A4FB06784FEAE67C01FB068604FB0C66A0
:101F900090F808C003FA0CF4A7FB04C8046506FB1C
:101FA000048407FB0144C0E912C412E0BA06920A95
:101FB0000261026942EA0622026102692243026169
:101FC00004694246641CE404C0E912414FF4007401
:101FD0000465C2F3801444769206520E00F81A2F5C
:101FE000EAB2057845EAD21500F8015B02F07F02FB
:101FF00000F8012BD9F80C40220ED50900F8015B3E
:10200000C2F3411500F8015BC2F3820500F8015BE1
:102010009207120F02700578C4F3074245EA921541
:1020200000F8015BC2F340150570417002F0010237
:102030008270C4F30722D509C570C2F380150571FB
:10204000C2F340154571C2F300158571C2F38105D5
:10205000C57102F003020272C4F346024272837237
:10206000274C10342268150E0573150C2D02C581FE
:10207000C689C2F307252E43C68112060261626833
:102080000669150E46EA054505610669C2F307456E
:1020900046EA052505610669C2F307252E43066158
:1020A0000275A268150E4575150C2D0685618669A9
:1020B000C2F3072546EA054585618569D2B245EA3E
:1020C00002228261E268856945EA12658561057FC1
:1020D000C2F3074445EA141505772407240DC48389
:1020E000C58BC2F307242543C583C2F3460280F89B
:1020F000202080F821300846BDE8F08370010020E0
:10210000301A002008B500200090FFF77DFE01285E
:1021100003D1684600F068FB08B1FF2008BD0098B5
:10212000C0F3432008BD10B5FFF7ECFF042803D02F
:10213000FF2803D0012010BD002010BD022010BDDB
:1021400038B500248DF8004000F040F9FFF7E2FDBB
:1021500000F09CF98DF800009DF8000050BB00F0E5
:102160002FF88DF800009DF8000018BB1348047587
:10217000046044608460C4600461FFF70FFE0F4890
:102180005838FFF78DFE8DF800009DF8000040B92B
:102190000A485838B0F85400000400F00FFB8DF8DE
:1021A00000009DF8000028B94FF40060FFF73EFEE4
:1021B0008DF800009DF8000038BD0000B81A00201E
:1021C0002DE9F84F01200025ADF80000FFF7C8FD0C
:1021D000A8B3DFF8E090D9F80400042868D0364CA2
:1021E0004FF0C00A00260220C4F808A0C4E900602D
:1021F0004FF48068C4E903682046FFF7EBFDFEF763
:1022000091F805001DD1FFF7B3FDA4F190073860E8
:102210000420FFF7ADFD78600820FFF7A9FDB86046
:102220000C20FFF7A5FDF860D9F804004F4650B127
:10223000012808D0062806D0022804D013E0FFE7C2
:102240002520BDE8F88F0320E4E80260402084E800
:1022500041011948083CFFF7BDFD69460320FEF720
:102260007BF80500EDD17868042821D0BDF8000086
:10227000B860000420600920C4E9010AC4E90368C9
:102280000D48FFF7A7FDFEF74DF80500D9D1FFF780
:102290006FFD094CA03C20600420FFF769FD6060E1
:1022A0000820FFF765FDA0600C20FFF761FDE060EE
:1022B0002846C6E770010020D01A002030B51F4D17
:1022C00004468FB04FF0FA512846FEF743FB002139
:1022D0002846FEF755FB2846FEF75CFB4FF00060F2
:1022E00000901748CDE901040020039029150490BF
:1022F000CDE90501890007918900CDE908104FF467
:1023000040300A9004200B9003200C9048020D905E
:1023100080100E9069462846FEF7EEFB0122102140
:102320002846FEF7D3FB20212846FEF7C5FB0121F6
:102330002846FEF725FB0FB030BD00005864024070
:10234000802C014030B51F4D04468FB04FF0FA513C
:102350002846FEF7FFFA00212846FEF711FB284623
:10236000FEF718FB4FF0006000901748CDE901041C
:1023700040200390002029150490CDE90501890033
:1023800007918900CDE908104FF440300A900420ED
:102390000B9003200C9048020D9080100E9069461F
:1023A0002846FEF7A9FB012210212846FEF78EFBE6
:1023B00020212846FEF780FB01212846FEF7E0FA9F
:1023C0000FB030BD58640240802C01402DE9FC4123
:1023D00001218C20FFF722F9294E0C2208213046DA
:1023E000FEF715FD0C2209213046FEF710FD0C22E8
:1023F0000A213046FEF70BFD0C220B213046FEF77A
:1024000006FD0C2211463046FEF701FD1D4F0C2241
:1024100002213846FEF7FBFC4FF470600124009067
:102420008DF8054002208DF8040000258DF8065037
:102430008DF8074069463046FEF798FC042000906E
:1024400069463846FEF792FC200300908DF807504D
:1024500069463046FEF78AFC600300908DF8045010
:102460008DF8074069460848FEF780FC0121C80244
:10247000FFF7ECF801218805FFF7D0F8BDE8FC81F3
:1024800000080240000C0240001C02402DE9FC5FE5
:1024900000258DF8005072487621A9460175056027
:1024A00045608560C560A8460561FFF777FC03209D
:1024B000FFF7A4FC0120FFF709FC694C4FF4806B87
:1024C0001834204625606560A560C4E9035BFFF70A
:1024D00081FC4FF4803A0027564601E0761E10D06A
:1024E0008020FFF729FC0028F8D056B140F2FF50B9
:1024F000FFF7E0FB8DF800709DF80000002854D134
:1025000001E00327F6E74FF4D5702060082040274C
:10251000C4E901075248C4E9035B5E461830FFF77F
:1025200059FC504B002051461A684FF0370B02E01F
:102530004C4A1268491E12F0450F06D009B15107E6
:1025400006D54FF0030A042007E00029F0D1F8E790
:10255000510605D54FF0000A4020FFF7ABFB50466F
:102560008DF800009DF8000000B3A760C4E9005B8F
:102570003B48C4E903561830FFF72CFC3720FDF721
:102580005DFE8DF80000A760C4E9005B3448C4E933
:102590000356DA461830FFF71DFC3720FDF74EFED4
:1025A0008DF800009DF8000088B355E02E48012109
:1025B0004FF080484160E6E7A760C4E9005A284828
:1025C000C4E903561830FFF705FC3720FDF736FE47
:1025D0008DF800009DF8000078BB244948EA01000E
:1025E00020602920C4E901071D48C4E903561830BA
:1025F000FFF7F0FB00201B490190086810F0450F21
:10260000FBD0400704D503200190042002E011E034
:1026100040F2FF50FFF74EFB01988DF800009DF847
:10262000000050B90020FFF7A3FBC10F09F1010919
:1026300004D005E04FF6FF7BBEE70DE0D945BBD3E4
:10264000D94503D31B208DF8000005E010F0804F22
:1026500002D00548022141609DF80000BDE8FC9FC2
:10266000B81A0020342C01407001002000001080B6
:1026700070B54FF480752846FFF768FB1F4C38B1E2
:10268000002020702846FFF71BFB012020612EE070
:102690000220FFF75BFB20B10220FFF711FB0220B5
:1026A00024E00820FFF752FB20B10820FFF708FBC9
:1026B00004201BE02020FFF749FB20B12020FFF77A
:1026C000FFFA062012E01020FFF740FB20B1102097
:1026D000FFF7F6FA052009E04FF400752846FFF7EA
:1026E00035FB20B12846FFF7EBFA072020700021C8
:1026F0004CF23A30FFF746FB207870BD70010020A5
:102700002DE9FF5F2A4800251E4690460F460570BA
:1027100005614FF0010AC0F80CA026490D60406821
:10272000022802D14FF400787F0A234C4FF4806BCB
:102730001020C4F810B0C4E900804FF04009C4E98B
:1027400002952046FFF746FB1020FDF777FD002895
:102750002BD1411E04F1140006FB08F6E0E8021636
:10276000902102C0022180E8220404F11400FFF746
:10277000B9FA1220C4F810B0C4E90070C4E9029597
:102780002046FFF727FB1220FDF758FD04000CD16F
:10279000012140F22A30FFF7F5FA0120FFF79CFAF9
:1027A00031460098FFF78AFD204604B0BDE8F09F4F
:1027B000700100202C2C0140D01A0020094910B5CE
:1027C000086007204860402088600020C8604FF4FF
:1027D000806008610846FFF7FDFABDE81040072059
:1027E000FDF72CBDD01A002070B504001AD00E4899
:1027F0000E490089000408600D2048604020886070
:102800000020C8604FF4806008610846FFF7E2FAD4
:102810000D20FDF713FD050003D1FFF7A9FA206095
:10282000284670BD262070BD70010020D01A0020FF
:10283000084810B500210C22C0E900124022C0E96E
:10284000022111010161FFF7C5FABDE810400C201B
:10285000FDF7F4BCD01A002070B50026741E204687
:10286000134D00E0401E696929B9296919B9297811
:1028700009B90028F6D1002068610E4800E0641E06
:102880000168890401D5002CF9D1E868012802D13A
:10289000FFF7CEFF0646344300D1042640F2FF5036
:1028A000FFF708FA287808B1287870BD304670BD67
:1028B00070010020342C014070B50026741E2046A3
:1028C000134D00E0401E696929B9296919B92978B1
:1028D00009B90028F6D1002068610E4800E0641EA6
:1028E0000168C90401D5002CF9D1E868012802D19A
:1028F000FFF79EFF0646344300D1042640F2FF5006
:10290000FFF7D8F9287808B1287870BD304670BD37
:1029100070010020342C01402DE9FF5FDFF8F0B09A
:1029200000201D4616460F468BF80000CBF810001D
:102930000122CBF80C20374A1060DBF80410022982
:1029400001D10E027F0A344C4FF4806A1021C4F882
:1029500010A0C4E9006180464FF04009C4E9029824
:102960002046FFF737FA1020FDF768FC00284BD10E
:10297000BBF80800000420603720C4E90109C4E95D
:10298000038A2046FFF726FA3720FDF757FC002878
:102990003AD11720C4F810A0C4E90050C4E9029845
:1029A0002046FFF717FA1720FDF748FC00282BD127
:1029B0001920C4E90070C4F810A0C4E90298474681
:1029C0002046FFF707FA1920FDF738FC00281BD135
:1029D00004F11401401E7543C1E900059020C1E9CE
:1029E00002070120C1E904700846FFF77BF90121C5
:1029F00040F22A30FFF7C6F90120FFF76DF92946AA
:102A00000098FFF79FFC384604B0BDE8F09F000037
:102A1000700100202C2C0140D01A00202DE9F84F25
:102A200000200090FEF736FAFEF738FB052001F093
:102A300089FF0020FEF74AFCA0F513414FF4807790
:102A40004FF4E06540F2022341F2B07640F23718CD
:102A500040F239194FF4E85A40F23F1B41F2180492
:102A60000090203902D0491F7DD0D4E14FF40041BD
:102A7000E520FEF753FC01210020FEF74FFC39460C
:102A80000120FEF74BFC29460220FEF747FC41F2ED
:102A900030010320FEF742FC00210420FEF73EFC3B
:102AA00019460820FEF73AFC00210920FEF736FC03
:102AB00000210A20FEF732FC00210C20FEF72EFC3C
:102AC00000210D20FEF72AFC00210F20FEF726FC36
:102AD00000211020FEF722FC00211120FEF71EFC31
:102AE00000211220FEF71AFC00211320FEF716FC2D
:102AF000142001F027FF31461020FEF70FFC41465D
:102B00001120FEF70BFC052001F01CFF49461220A6
:102B1000FEF704FC052001F015FF51461320FEF7D7
:102B2000FDFB13212920FEF7F9FB052001F00AFF28
:102B300000212020FEF7F2FB00212120FEF7EEFB12
:102B400007213020FEF7EAFB07213120FEF7E6FBE4
:102B500007213220FEF7E2FB07213520FEF7DEFBDE
:102B60000721362000E06BE0FEF7D8FB294637202E
:102B7000FEF7D4FB29463820FEF7D0FB2946392042
:102B8000FEF7CCFB29463C20FEF7C8FB4FF4F8517A
:102B90003D20FEF7C3FB00215020FEF7BFFBEF21D5
:102BA0005120FEF7BBFB00215220FEF7B7FB594630
:102BB0005320FEF7B3FB4FF41C516020FEF7AEFB31
:102BC00001216120FEF7AAFB00216A20FEF7A6FB87
:102BD00000218020FEF7A2FB00218120FEF79EFB52
:102BE00000218220FEF79AFB00218320FEF796FB4E
:102BF00000218420FEF792FB00218520FEF78EFB4A
:102C000010219020FEF78AFB00219220FEF786FB20
:102C100003219320FEF782FB4FF488719520FEF785
:102C20007DFB00219720FEF779FB00219820FEF71D
:102C300075FB21460320FEF771FB40F27311E7E0BC
:102C400001210020FEF76AFB39460120FEF766FBF2
:102C500029460220FEF762FB21460320FEF75EFBB9
:102C600000210420FEF75AFB19460820FEF756FB08
:102C700000210920FEF752FB00210A20FEF74EFB3F
:102C800000210C20FEF74AFB00210D20FEF746FB39
:102C900000210F20FEF742FB00211020FEF73EFB33
:102CA00000211120FEF73AFB00211220FEF736FB2F
:102CB00000211320FEF732FB142001F043FE3146C1
:102CC0001020FEF72BFB41461120FEF727FB0520C5
:102CD00001F038FE49461220FEF720FB052001F0E6
:102CE00031FE51461320FEF719FB13212920FEF770
:102CF00015FB052001F026FE00212020FEF70EFB2B
:102D000000212120FEF70AFB07213020FEF706FBF9
:102D100040F202313120FEF701FB40F20513194663
:102D20003220FEF7FBFA40F2062529463520FEF751
:102D3000F5FA40F6080631463620FEF7EFFA294646
:102D40003720FEF7EBFA40F204513820FEF7E6FA9E
:102D500007213920FEF7E2FA19463C20FEF7DEFA99
:102D600031463D20FEF7DAFA00215020FEF7D6FA70
:102D7000EF215120FEF7D2FA00215220FEF7CEFAC1
:102D800059465320FEF7CAFA4FF427416020FEF758
:102D9000C5FA01216120FEF7C1FA00216A20FEF781
:102DA000BDFA00218020FEF7B9FA00218120FEF74C
:102DB000B5FA00218220FEF7B1FA00218320FEF748
:102DC000ADFA00218420FEF7A9FA00218520FEF744
:102DD000A5FA10219020FEF7A1FA00219220FEF71B
:102DE0009DFA03219320FEF799FA4FF488719520FC
:102DF000FEF794FA00219720FEF790FA0021982020
:102E0000FEF78CFA21460320FEF788FA40F23311D0
:102E10000720FEF783FA0348A0F108014860BDE8E7
:102E2000F88F0000BC0100201CB504460E480121AB
:102E300050F82400FEF7F2FB0B4800210A3830F866
:102E40001400009001208DF804008DF806108DF814
:102E5000070002208DF805000448694650F8240058
:102E6000FDF784FF1CBD0000284B000898010020DE
:102E7000044951F820104A69034B33F810004240CE
:102E80004A617047980100201E4B000870B5154636
:102E90000C46FFF748F910B14FF0FF3070BD4FF40A
:102EA000007028600448816CB0F84C00C20542EA0A
:102EB00051202060002070BD601A00200020704763
:102EC00008B531208DF8000000208DF801008DF844
:102ED000020001208DF803006846FEF74FFBFFF764
:102EE0002FF9002801D04FF0FF3008BD10B5084C75
:102EF00094F90000002803DAFFF722F9002020707F
:102F0000FFF711F9002802D04FF0FF30207010BDFC
:102F10004000002000207047084610B551024FF4D1
:102F20000072FFF7EDFB10B14FF0FF3010BDFFF75F
:102F300093FC00BFFFF7F7F80028FBD110BD00009D
:102F4000084610B551024FF40072FFF7E5FC10B1CE
:102F50004FF0FF3010BDFFF7AFFC00BFFFF7E3F805
:102F60000028FBD110BD70470CB500202749019007
:102F700000900A6842F480320A604FF4A0630A6845
:102F800002F400320092019A521C0192009A12B986
:102F9000019A9A42F3D10A68920334D50120009035
:102FA0001A484030026842F08052026018480268B5
:102FB00042F48042026015480830026802600268EC
:102FC00042F400420260026842F4A0520260031F11
:102FD000104A1A600A6842F080720A600A68920118
:102FE000FCD50D4A40F205611160016821F0030132
:102FF0000160016841F0020101600168C1F38101D3
:103000000229FAD10CBD00900CBD0000003802402E
:103010000070004019544007003C02407047000017
:103020000F4810B5016841F0010101600C4A002110
:103030000832116002680B4B1A400260031D0A4AF5
:103040001A60026822F48022026005480C30016098
:10305000FFF78AFF05494FF00060086010BD0000CF
:1030600000380240FFFFF6FE1030002408ED00E0BB
:1030700010B5D0F8E42552689047002010BD10B577
:10308000134600240A462146FDF7FAF9204610BDF2
:1030900010B5134600240A462146FDF737FA2046AC
:1030A00010BD10B504468021FDF714FA002120461A
:1030B000FDF710FA2046BDE8104001F0A9B970B53F
:1030C00005460024052085F81101234622462146A5
:1030D0002846FDF7D5F9284601F09AF9204670BD3B
:1030E00010B5C0F83C210223C0F8382180F8113116
:1030F000134600240A462146FDF708FA204610BD73
:1031000070B505460024042085F8110123462246A7
:1031100021462846FDF7FAF9284601F079F92046BC
:1031200070BD000070B5054641B1D5F8E4054269AF
:103130008AB395F81201032846D047E095F81101AB
:10314000002605F58E74022833D1E169A06881421A
:103150000FD9081AE061E878012803D1D4E90210F8
:103160000844E060A08BE16882B22846FFF790FF38
:103170001FE0216AB1FBF0F200FB121262B981423A
:103180000AD3606A814207D2002211462846FFF71F
:103190007FFF66620DE016E0D5F8E405C16829B14D
:1031A00095F81201032801D1284688472846FFF7E1
:1031B00086FF95F81601012808D10548006829699D
:1031C000486085F8166101E028469047002070BDF0
:1031D000C400002070B5054641B1D5F8E405826908
:1031E0000AB395F8120103282CD02DE095F81101AF
:1031F00005F55D74032827D1E169A068814213D9E0
:10320000081AE061E878012803D1D4E902100844E3
:10321000E060E169A068814200D2084682B2284697
:10322000E168FFF72CFF0FE0D5F8E405016929B14B
:1032300095F81201032801D1284688472846FFF750
:103240005FFF01E028469047002070BD10B504469E
:10325000D0F8E80540698047012084F81501002076
:1032600010BD10B50446D0F8E80580698047D4F851
:10327000E4050021426820469047002084F81501AB
:1032800010BD000038B5044648880D46010A0829DB
:103290006AD2DFE801F06904142C69695567D4F833
:1032A000EC15A0780A68694690470146E8884028EE
:1032B00003D094F81201012863D108204FE0D4F81C
:1032C000E415A0788A6A694690470146A0780128EB
:1032D00008D1227A012A05D1D4F8E415CA6A6946D0
:1032E0009047014602204870C4F8F01549E0C0B28A
:1032F000062839D2DFE800F003080D12171CD4F8B5
:10330000EC15A0784A6817E0D4F8EC15A0788A6824
:1033100012E0D4F8EC15A078CA680DE0D4F8EC15EA
:10332000A0780A6908E0D4F8EC15A0784A6903E0AF
:10333000D4F8EC15A0788A6969469047014620E0E8
:10334000A07888B9D4F8E4158A6A69469047154987
:10335000827B0A71C27B4A71007C88710A20ADF8B9
:10336000000012E0A07820B129462046FFF799FE20
:1033700038BDD4F8E415CA6A69469047014607206B
:103380004870BDF800000028F2D0EA88002AEFD08B
:1033900080B2824200D90246ADF800202046FFF7F5
:1033A0009FFE38BD7800002001EB810100EBC100D9
:1033B000B0F88C0380B2704770B5002300281DD090
:1033C0000446002502E06D1CEDB2641C2678002E38
:1033D000F9D1022404EB45041480CC545B1C032275
:1033E000CA5400245B1C06E0CA545B1CDAB28C543D
:1033F000521CD3B2401C0278002AF5D170BD2DE9D1
:10340000F0411D46174688460446069E00F0B6FD6C
:1034100004F2E452414682E8E0002046FDF710FA4B
:10342000D4F8E805006880472046BDE8F04100F088
:1034300071BD10B5D0F8E415096A8847002010BDA9
:1034400010B5D0F8E415496A8847002010BD10B5C2
:10345000FDF7FEFF002010BD10B5FEF719F80020A3
:1034600010BD10B504468121FCF7AEFF01212046B6
:10347000FCF7AAFF2046FEF72BF8002010BD000045
:1034800020200880004870471C0100202020088070
:10349000004870473C01002070B50446FFF7E1FF8B
:1034A00002231D022A4681212046FCF7CBFF02237E
:1034B0002A4601212046FCF7C5FF2046FEF70EF8FC
:1034C000002070BD70B50C46097806462A4D11F0F3
:1034D000600029D020284DD16078FE2802D0FF2836
:1034E0001CD111E06088C8B9E088012816D108060F
:1034F00014D5224800688069804710F0FF002870CA
:103500000CD001221C491AE0608838B9E08828B93B
:10351000080603D43046FEF703F82BE02146304678
:10352000FFF7BFFD022070BD607801280ED00A2889
:1035300002D00B281ED106E00F490122091D30469A
:10354000FFF7CEFD16E0A078287113E02179304610
:10355000FCF76CFF21793046FCF736FFA0884FF46A
:103560000072C1B202233046FCF76CFF217930466D
:10357000FDF758FF002070BD140100203C00002022
:1035800070B505460069426C416BC1F3400142EAE7
:10359000C111EA6994680C40E1070CD0416B21F03D
:1035A00002014163E86901248460124821460068F1
:1035B000426828469047A00702D5E8690224846043
:1035C000200702D5E86908248460E00602D5E8698E
:1035D00010248460600602D5E869402484602006D7
:1035E00006D501212846FDF775F9E9698020886034
:1035F000012070BDC000002070B50446806D856854
:103600002169D1F884100D40E90713D001258560A8
:10361000E078012808D1A06D0069D4F8A413C0F3A4
:103620001200081AC4F8B4030648012100680268B1
:1036300020469047A80702D5A16D0220886001208E
:1036400070BD0000C00000202DE9F04704460025B1
:1036500001F091F800287DD0204601F095F8060091
:1036600079D0300303D52046FCF7D6FF054670031A
:1036700003D52046FCF76AFF0543B0074FF0000A68
:1036800002D5E168022048614C4F4FF00109002E3D
:1036900017DAA07A30B1D4F80C01D4F80C1120F06C
:1036A000030008602069416821F001014160386829
:1036B000816920468847E1684FF00040486145F045
:1036C0000105300503D52046FDF73AF805433007DC
:1036D00008D53868C16820468847E16808204861F5
:1036E00045F00105F00603D52046FCF7EBFF054346
:1036F000F00403D52046FDF75BF80543B0041AD566
:10370000204600F00BFEE068D0F80C80204601F067
:1037100019F8032847D084F80290402128F470500B
:10372000A18000F5A050E168C860E1684FF4005046
:10373000486145F00105F00209D53868C1692046A5
:103740008847E1684FF48010486145F00105B002F8
:103750000CD501E024E024E03868016A204688475F
:10376000E1684FF40010486145F00105700009D58B
:103770003868416A20468847E1684FF080404861D8
:1037800045F0010570070BD5E0684668700703D562
:103790003868816A20468847E068466045F0010540
:1037A0002846BDE8F08784F802A04FF4007128F4A1
:1037B0007050A18000F51050B5E70000C000002057
:1037C00090F8CC250A7090F8CD254A7090F8CE2557
:1037D00090F8CF3502EB03224A8090F8D02590F87C
:1037E000D13502EB03228A8090F8D22590F8D335A8
:1037F00002EB032292B2CA800121C0F8402180F876
:103800001111704710B50023044640221946FCF7F9
:1038100019FE0023402280212046FCF713FE0120E0
:1038200084F81201D4F8E815A07849688847002088
:1038300010BD10B50446D0F8E805006980470320A4
:1038400084F81201002010BD10B5D0F8E415C96944
:1038500001B18847002010BD10B50446D0F8E4053A
:10386000026820469047D4F8E80580688047002029
:1038700010BD000070B50A461A4D897804462970BB
:10388000012905D894F81201022807D003280CD08A
:103890002046BDE870401146FFF703BCA1B184F893
:1038A0001011032084F812010BE091B194F810017B
:1038B000884209D001462046FFF7DAFB297884F8D0
:1038C00010112046FFF7C8FF2046BDE87040FFF703
:1038D00017BC022084F8120184F810112046FFF76B
:1038E000C7FBF1E78400002010B504464888012298
:1038F00001280FD0022831D1888810F0FF0F2DD178
:1039000021694968000A06281FD2DFE800F01E0B73
:103910000F13171BC4F81821D4F8E4058268204659
:10392000904716E021F0700110310EE021F0700197
:1039300020310AE021F07001303106E021F0700101
:10394000403102E021F0700150310548016084F8F7
:1039500016212046BDE81040FFF7D2BB10BD000085
:10396000C40000201CB504466946FFF729FF9DF8F6
:10397000001011F01F000AD001280DD0022810D02D
:1039800001F080012046FCF7A5FD00201CBD694622
:10399000204600F00BF8F8E76946204600F0E8F80A
:1039A000F3E76946204600F079F8EEE72DE9F041AB
:1039B0004A78002701260A2A42D2DFE802F03B5566
:1039C0004152410805412A27FFF75CFC61E00446AB
:1039D0008888C8B9C888B8B9887800F07F0594F895
:1039E0001201032810D084F8145129462046FCF710
:1039F00069FD2046FFF784FB1DB1022084F8120107
:103A000047E084F8126144E0204619E0FFF732FFF6
:103A10003FE0CA88012A13D190F81221022A02D06D
:103A2000032A0DD102E001221B4917E0012200F513
:103A3000887113E090F81221022A04D0032A02D0E0
:103A4000FFF72FFB25E014490839CE60D0F8182184
:103A50000AB10322CA6010490222091DFFF740FB88
:103A600017E0FFF741FF14E0044690F81201022826
:103A700001D00328C8D1488801280AD10020C4F801
:103A80001801D4F8E4058268204690472046FFF7E5
:103A900037FB3846BDE8F0818C00002070B50D463C
:103AA000044609796878002658B3012816D00328FF
:103AB00031D194F8120102282FD0032827D1688829
:103AC00028B921B1802902D02046FCF703FDD4F8A3
:103AD000E40529468268204690470EE094F81201DA
:103AE00002281AD0032812D16888A0B929B18029E8
:103AF00003D02046FCF77EFCE9E72046FFF700FBF9
:103B000009E094F81201022807D003280DD02946B5
:103B10002046FFF7C6FA304670BD0029FBD0802949
:103B2000F9D02046FCF7D6FCF5E710480D064FF01B
:103B300000034FF0010208D501F07F0101EB810184
:103B400004EBC10191F81E1105E001EB810104EBCA
:103B5000C10191F8761309B1426000E04360034966
:103B60000222091D2046FFF7BBFAD4E7840000209B
:103B700070B5054690F8120100260C4603280DD1B9
:103B8000207901280AD8D5F8E405826828469047AC
:103B9000E08830B92846FFF7B3FA02E02846FFF77D
:103BA00080FA304670BD10B590F8121180F81311EC
:103BB000042180F81211D0F8E805C0688047002081
:103BC00010BD000010B50A46024903A0FFF7F4FB40
:103BD000004810BDCC0700204D534320436F6E6654
:103BE0006967000003494FF6FF70088002A000F0EB
:103BF00081BE0000600100203E204D534320496EED
:103C00007465726661636520737461727465642E95
:103C10000A00000003494FF6FF70088002A000F080
:103C200069BE0000600100203E20555342204465DB
:103C30007669636520436F6E6E65637465642E0AF2
:103C40000000000012200880004870476400002037
:103C500003494FF6FF70088002A000F04BBE000041
:103C6000600100203E20555342204465766963651B
:103C700020446973636F6E6E65637465642E0A0019
:103C800018B1012803D003A002E00CA000E015A0A9
:103C9000FDF752BA2020202020555342204465765B
:103CA000696365204C6962726172792076312E31C8
:103CB0002E3020205B3F3F5D0000000020202020B0
:103CC0002055534220446576696365204C696272D1
:103CD0006172792076312E312E3020205B48535D81
:103CE000000000002020202020555342204465760B
:103CF000696365204C6962726172792076312E3178
:103D00002E3020205B46535D00000000704700000D
:103D100003494FF6FF70088002A000F0EBBD0000E1
:103D2000600100203E2044657669636520496E206D
:103D300073757370656E64206D6F64652E0A000084
:103D400010B50020FFF770F80120FFF76DF8022092
:103D5000FFF76AF80320FFF767F8FEF75FFEFDF74D
:103D6000E3F90FA0FDF71AFA13484FF6FF74048029
:103D700012A000F0BFFD19A0FDF7DEF94FF4FC60C2
:103D8000FDF7C4FA1DA1C620FDF72EF923A1D2200C
:103D9000FDF72AF92046BDE81040FDF7B7BA00004C
:103DA00020555342204F5447204853204D53432021
:103DB0004465766963650000600100203E2055532C
:103DC0004220646576696365206C6962726172790C
:103DD00020737461727465642E0A00002020202014
:103DE0002055534220446576696365204C696272B0
:103DF0006172792076312E312E300000494E464FC7
:103E0000203A2053696E676C65204C756E20636F95
:103E10006E66696775726174696F6E00494E464FD0
:103E2000203A206D6963726F534420697320757363
:103E30006564000010B50A46024903A0FFF7BCFA0A
:103E4000004810BDCC0700204D534320496E7465D7
:103E500072666163650000000420088000487047B6
:103E60006000002010B50A46024903A0FFF7A4FA3B
:103E7000004810BDCC07002053544D6963726F6534
:103E80006C656374726F6E69637300000A4610B5E7
:103E9000044928B104A000BFFFF78EFA014810BD05
:103EA00007A0F9E7CC0700204D6173732053746FAE
:103EB0007261676520696E204653204D6F6465000E
:103EC0004D6173732053746F7261676520696E2052
:103ED0004853204D6F6465000A4610B5044928B167
:103EE00004A000BFFFF768FA014810BD05A0F9E77C
:103EF000CC0700203030303030303030303031427C
:103F0000000000003030303030303030303031415F
:103F10000000000038B54FF4C0652846FDF760FB8F
:103F20004D208DF8000001248DF8014003208DF80C
:103F300002008DF803406846FDF720FB2846FDF798
:103F40004FFB4A208DF800008DF8014002208DF8CB
:103F500002008DF803406846FDF710FB2846FDF788
:103F60003FFB4B208DF800008DF801408DF802409A
:103F70008DF803406846FDF701FB38BD2DE9FC5F75
:103F8000012140F28710FDF749FB494F0A22032126
:103F90003846FCF73CFF0A2205213846FCF737FF7C
:103FA000DFF810810A2200214046FCF730FF0A2288
:103FB00001214046FCF72BFF0A2205214046FCF771
:103FC00026FF0A2211464046FCF721FF0A220B2158
:103FD0004046FCF71CFF0A220C214046FCF717FF65
:103FE0000A220D214046FCF712FFDFF8CCA00A227E
:103FF00004215046FCF70BFFDFF8C0B00A220B216A
:104000005846FCF704FFDFF8B8900A220021484622
:10401000FCF7FDFE2020032400908DF805400225CA
:104020008DF8045069463846FCF7A0FE8DF805402F
:1040300008208DF80450002600908DF806608DF859
:10404000076069463846FCF791FE8DF8054043F657
:1040500023408DF8045000908DF806608DF80760BD
:1040600069464046FCF782FE012000908DF805402D
:104070008DF8045069464846FCF778FE1020009001
:104080008DF805408DF8045069465046FCF76EFEE9
:10409000A80200908DF805408DF8045069465846F6
:1040A000FCF764FE01216007FDF7B8FABDE8FC9F4C
:1040B0000000024000040240001C024000200240B8
:1040C000000802404FF47A714843AFF300800021AA
:1040D000C0EB0010C000491C8142FCD9704770B58C
:1040E0000446017A0025C068012915D0C16841F055
:1040F0004001C160204600F0DDF8617A4FF45020A5
:1041000009B14FF4E810E16888631420FFF7DAFF83
:10411000E078012819D020E0816B627A21F48031A7
:104120000AB141F480118163E068C16821F0401157
:1041300021F42021C160204600F0BCF8E07801287D
:104140000BD1E1682A208860E2E7E068816821F00D
:104150001E010A3141F020018160284670BD000037
:104160002DE9F04104460027D0F80C013E463346C5
:10417000354607602069016821F4C0510160E07A8A
:10418000D0BB207A01284DD00121204600F0EDFA65
:10419000E1684FF400704862802161F31F4360F3CF
:1041A0000F03E068836203EB134060F30F054FF4E5
:1041B000BA7060F31F45E068C0F8045105EB154084
:1041C00060F30F05E06866F31F45C0F8085105EB82
:1041D000154060F30F05E068C0F80C5105EB154081
:1041E00060F30F05E068C0F8105105EB154060F36F
:1041F0000F05E068C0F814511021204600F082FA43
:10420000204600F063FA2069066120694661216951
:104210004FF0FF3088612069C66100214FF0904067
:10422000FF2313E00021B0E704EB8105D5F818C0A7
:10423000DCF80020002A01DA024600E03246CCF821
:104240000020AA691661AA699360491C62788A42B3
:10425000EAD8002112E000BF04EB8105D5F854C074
:10426000DCF80020002A01DA024600E03246CCF8F1
:1042700000206A6D16616A6D9360491C62788A42FB
:10428000EAD82069016941F480710161E078012870
:1042900009D10320402161F38A0040F4803061F3AA
:1042A000594021690863204600F0E0F93846BDE82E
:1042B000F0810000F8B5002704463E460097124DF5
:1042C0000320FFF704FFE06800690090761CAE420F
:1042D00001D90020F8BD00980028F1DA00990020EB
:1042E00041F0010100910099E2681161E1680A69F9
:1042F0000092401CA84202D8009AD207F7D10320AE
:10430000FFF7E5FE3846F8BD400D0300C068002108
:10431000826822F0010282600846704710B5016988
:1043200000238C6882691168C4F341042CB1012C0C
:1043300003D0022C04D0032C05D16FF30A0102E054
:104340006FF30A01C91C11600069416841F4807172
:104350004160184610BD0000F0B54A7800254C6950
:10436000012A15D00A7800EB82035A6D166812698B
:10437000DCB38C68C1F8144064F306025B6D22F470
:10438000C01202F500221A61C278012A30D035E04D
:1043900083691F681A6934B18E68B44206D966F31E
:1043A00006024E6104E022F07F0201E064F306029F
:1043B00022F4C01202F500221A61C278012A05D146
:1043C0000C780A6900EB8404A469626147F0044236
:1043D0001A60C278CAB94A69BAB10A78006901217B
:1043E0009140426B0A4342630FE0FFE70C7AC3E758
:1043F0000B780A6900EB83035B6D5A61097846F01C
:10440000044200EB8100406D02602846F0BD0000D0
:10441000426D07491161C178012908D1426D00F24E
:10442000CC515161406D01684FF0802101607047AF
:10443000180008C0F0B50E7800254F780122B24070
:104440002B4600EB8604012F17D0646D62F31F43E7
:10445000226816040DD40E8966F30A02CE7866F33C
:1044600093428E7966F3995242F0805242F40042B0
:1044700022600978012904D005E0A46962F30F03E2
:10448000E6E7C17A29B10069C1691943C1612846CB
:10449000F0BD0069C16B1943C163F8E710B502466E
:1044A0004C780B78002002EB8302012C09D0526D6E
:1044B0001368C97823F40013032904D0022902D019
:1044C00003E09269F4E743F08053136010BDF0B548
:1044D0000F78002691F801C001243346BC401A46EB
:1044E00000EB8705BCF1010F07D06D6D64F31F422F
:1044F0002B600978012904D005E0AD6964F30F024F
:10450000F6E7C17A29B10069C1699143C1613046BA
:10451000F0BD0069C16B9143C163F8E702464B7877
:104520000978002002EB8101012B05D0496D0A6852
:1045300042F400120A6070478A691168002901DAA2
:1045400041F0804141F4001111607047F0B54B78A3
:104550000A78002401264F6900EB8202012B15D056
:10456000556D2B682A69002F61D08E6837447F1EF5
:10457000B7FBF6F767F3DC42C2F3C947774367F34B
:1045800012022A61C278012A57D05CE095692B6833
:104590002A696FB1D1F808C067F3120267447F1E21
:1045A000B7FBFCF767F3DC42CF78012F05D008E0BA
:1045B0006FF3120266F3DC4203E022F0C04202F124
:1045C00000522A61C278012A0ED0CA78012A12D07C
:1045D0004A69BAB10A7896400269556B354355630A
:1045E000CA78012A07D00DE00D780A6900EB85052D
:1045F000AD696A61F4E702699268120AD2070CD0C9
:1046000043F0805343F004420B7800EB83039B6933
:104610001A60CA78012A03D026E043F00053F1E77C
:104620008A8A93B20A78C96800F04FF91CE08F6853
:1046300067F3120266F3DC42A3E70D780A6900EB28
:1046400085056D6D6A61CA78012A06D14A7912B171
:1046500043F0005301E043F08053097843F00442F3
:1046600000EB8100406D02602046F0BD30B5C368AC
:10467000002211469A61C4686FF080436361C56887
:10468000541E6C60C4686361C4680B4BA361C3783B
:1046900003B9102141F48721C06841F0081141F4A9
:1046A000401141F08041836941F004018B430B4389
:1046B0008361104630BD000000080080C068002102
:1046C000826842F0010282600846704738B50024D3
:1046D00021460094009A42F010020092009AC368AA
:1046E0001A61074AC06803690093491C914202D8C5
:1046F000009BDB06F7D40320FFF7E9FC204638BD1A
:10470000400D030038B5002422460094009B43F07E
:1047100020030093009B61F38A1300930099C36800
:1047200019610749C06803690093521C8A4202D884
:10473000009B9B06F7D40320FFF7C9FC204638BD39
:10474000400D03000146002009698968C1F3410159
:1047500039B1012903D0022905D0032900D1022053
:10476000704703207047012070470269106861F3A9
:10477000010010607047C068406910F0010F01D05F
:104780000020704701207047C06841698069084077
:10479000704700698169C069084080B2704700694C
:1047A0008169C0690840000C704700EB8101496DC8
:1047B00089680069406908407047034610B50020C9
:1047C000D21C9208D3F8D03003E01C6841F8044BA7
:1047D000401C9042F9D3084610BD000070B500227D
:1047E0000123C27040268370144615468680012935
:1047F00001D061B116E0C3720821017004214FF0AD
:10480000A04241709115C180022101720AE0C57277
:104810000C210170062141704FF4A061C1801F4A34
:104820000372C37002F50061C0E9032100210AE0B0
:1048300002EB411303F5106600EB810503F53063CD
:10484000AE61491C6B6543788B42F1D802F58061FB
:1048500041614031C0F8CC10002108E002EB411367
:1048600000EB810503F5A063491CC5F8903003787F
:104870008B42F3D8002108E002EB013300EB810505
:1048800003F58053491CC5F8D03003788B42F3D828
:1048900002F56062C0F80C21204670BD00000440A3
:1048A00010B5C0680024C268012922F0C04201D0BE
:1048B00019B104E042F0005201E042F08042C260CF
:1048C0003220FFF7FFFB204610BD30B5C47800252D
:1048D0006CB900EB82000024DB1C9B08D0F8D000F0
:1048E00003E051F8042B0260641C9C42F9D3284673
:1048F00030BDFEE7014A024900F013B861490008E3
:10490000D401002002E008C8121F08C1002AFAD111
:1049100070477047002001E001C1121F002AFBD13F
:1049200070472DE9F04116460F460446002503E086
:104930003946B047641C6D1C20780028F8D1284601
:10494000BDE8F08101B581B0044901984843009069
:10495000002801D0401EFAE70CBD0000A08601002F
:104960002DE9F05F0646FCF7C5FB3A4C0246A078FD
:1049700000286CD160780025012806D1E08960818B
:10498000A08920816570E570258291884FF4A07A16
:10499000BAFBF1F1E088304BF7B2814209D90A2E17
:1049A00007D0618901EB810202EBC10103EB8101B8
:1049B0004AE0B4F808C061898C4505D394F80080BA
:1049C000B8F1000F0AD0257001EB810C0CEBC10C83
:1049D0004FF0200B994603EB8C0C10E00CF1010C0E
:1049E0001FFA8CFCA4F808C0BCF1090FECD125819A
:1049F000EAE7E3880CF803B05B1CE380401CB2F8E4
:104A00000480BAFBF8F38342F3D801EB810000EB9A
:104A1000C10109EB8100A2884286E580FCF706FC13
:104A20006089401C80B26081092803D16581012022
:104A3000208120700A2E0AD0608900EB800101EBF2
:104A4000C001E08809EB81010F54401CE080304632
:104A5000BDE8F09F5C0100205C1800201CB500241C
:104A60000E48CDE900040E4B0E4A21460E48FEF7D3
:104A7000C6FC4FF480150198411C0191A842FAD15F
:104A80000020FEF7F5F90120FEF7F2F90220FEF70B
:104A9000EFF90320FEF7ECF90194ECE700000020A9
:104AA000E400002044000020D80100200080020221
:104AB0001F00000053544D20202020206D69637298
:104AC0006F534420466C617368202020312E3030B3
:104AD00000000003008083000000000000000000D0
:104AE0000600000000000000000400080A000B009F
:104AF000070007000000040004000000040000009C
:104B00000100002000800100002000800000020061
:104B1000060000000D000F000600280028004000DD
:104B20000001000280000000400000004000000082
:104B3000000100000400000001000000040000006B
:104B40004000000000000000000000000000000025
:104B50000000000000000000000000000000000055
:104B60000000000000000000000000000000000045
:104B700000000000000080018001800180018001B0
:104B8000800180018001800180018001800180011D
:104B90000000000080018001000000000000000013
:104BA0000000000000000000CC00CC00CC00CC00D5
:104BB000CC00CC000000000000000000000000005D
:104BC00000000000000000000000000000000000E5
:104BD00000000000000000000000000000000000D5
:104BE000600C600C600C30063006FE1FFE1F3006A5
:104BF00038071803FE1FFE1F180318038C018C01D1
:104C00008C01000000008000E003F80F9C0E8C1C5B
:104C10008C188C009800F801E007800E801C8C181E
:104C20008C189C18B80CF00FE00380008000000086
:104C3000000000000000000000000E181B0C110C0A
:104C400011061106110311039B018E01C038C06CBF
:104C500060446044304430441844186C0C38000000
:104C6000000000000000E001F003380718061806F5
:104C70003003F001F000F8009C310E33061E061CD4
:104C8000061C063FFC73F02100000000000000003D
:104C900000000000000000000C000C000C000C00E4
:104CA0000C000C00000000000000000000000000EC
:104CB00000000000000000000000000000000000F4
:104CC000000000000000000200038001C000C000DE
:104CD00060006000300030003000300030003000F4
:104CE0003000300060006000C000C00080010003A0
:104CF00000020000000020006000C0008001800170
:104D00000003000300060006000600060006000679
:104D1000000600060003000380018001C00060005F
:104D20002000000000000000000000000000000063
:104D3000C000C000D806F807E001300338070000C3
:104D40000000000000000000000000000000000063
:104D50000000000000000000000000000000000053
:104D600080018001800180018001FC3FFC3F8001C7
:104D7000800180018001800100000000000000002F
:104D80000000000000000000000000000000000023
:104D90000000000000000000000000000000000013
:104DA000000000000000800180010001000180007F
:104DB00000000000000000000000000000000000F3
:104DC000000000000000000000000000E007E00715
:104DD00000000000000000000000000000000000D3
:104DE00000000000000000000000000000000000C3
:104DF00000000000000000000000000000000000B3
:104E0000000000000000C000C00000000000000022
:104E1000000000000000000C000C00060006000668
:104E20000003000300038003800180018001C000B3
:104E3000C000C00060006000000000000000000032
:104E4000000000000000E003F007380E180C0C18FA
:104E50000C180C180C180C180C180C180C180C1832
:104E6000180C380EF007E0030000000000000000FE
:104E700000000000000000018001C001F001980165
:104E80008801800180018001800180018001800112
:104E9000800180018001800100000000000000000E
:104EA000000000000000E003F80F180C0C180C18AC
:104EB00000180018000C000600038001C00060000C
:104EC00030001800FC1FFC1F000000000000000064
:104ED000000000000000E001F807180E0C0C0C0C9C
:104EE000000C0006C003C007000C001800180C18C6
:104EF0000C18180CF807E003000000000000000088
:104F0000000000000000000C000E000F000F800DDC
:104F1000C00C600C600C300C180C0C0CFC3FFC3FFF
:104F2000000C000C000C000C000000000000000051
:104F3000000000000000F80FF80F180018000C0027
:104F4000EC03FC071C0E001C0018001800180C18BD
:104F50001C0C180EF807E003000000000000000021
:104F6000000000000000C007F00F381C18181800DF
:104F70000C00CC03EC0F3C0E1C1C0C180C180C186D
:104F8000181C380EF007E0030000000000000000CD
:104F9000000000000000FC1FFC1F000C00060006C3
:104FA000000380038001C001C000E00060006000D9
:104FB00070003000300030000000000000000000F1
:104FC000000000000000E003F007380E180C180C79
:104FD000180C3806F007F007180C0C180C180C18F1
:104FE0000C18380CF80FE00300000000000000006F
:104FF000000000000000E003F007380E1C0C0C1845
:105000000C180C181C1C381EF81BE0190018000C9A
:10501000000C1C0EF807F00100000000000000006A
:105020000000000000000000000000000000000080
:10503000800180010000000000000000000000006E
:10504000000000008001800100000000000000005E
:105050000000000000000000000000000000000050
:10506000800180010000000000000000000000003E
:1050700000000000800180010001000180000000AC
:105080000000000000000000000000000000000020
:10509000000000000010001C800FE003F800180062
:1050A000F800E003800F001C00100000000000006A
:1050B00000000000000000000000000000000000F0
:1050C00000000000F81F000000000000F81F0000B2
:1050D00000000000000000000000000000000000D0
:1050E00000000000000000000000000000000000C0
:1050F0000000000008003800F001C007001F001881
:10510000001FC007F0013800080000000000000088
:10511000000000000000E003F80F180C0C180C1839
:105120000018000C000600038001C000C000C00091
:1051300000000000C000C0000000000000000000EF
:105140000000000000000000E00718180420C22939
:10515000224A114409440944094409221113E20C6A
:10516000024004201818E0070000000000000000C2
:1051700000000000000080038003C006C006C006D7
:10518000600C600C301830183018F83FF83F1C7075
:105190000C600C6006C006C00000000000000000AB
:1051A000000000000000FC03FC0F0C0C0C180C1895
:1051B0000C180C0CFC07FC0F0C180C300C300C30CD
:1051C0000C300C18FC1FFC07000000000000000061
:1051D000000000000000C007F01F38381C300C70C1
:1051E00006600600060006000600060006000660CF
:1051F0000C701C30F01FE0070000000000000000F1
:10520000000000000000FE03FE0F060E0618061840
:1052100006300630063006300630063006300618F6
:105220000618060EFE0FFE0300000000000000003E
:10523000000000000000FC3FFC3F0C000C000C00D4
:105240000C000C00FC1FFC1F0C000C000C000C00E0
:105250000C000C00FC3FFC3F0000000000000000C0
:10526000000000000000F83FF83F18001800180088
:1052700018001800F81FF81F180018001800180070
:1052800018001800180018000000000000000000BE
:10529000000000000000E00FF83F3C780E6006E0E0
:1052A00007C00300030003FE03FE03C007C006C0DF
:1052B0000EC03CF0F83FE00F0000000000000000CE
:1052C0000000000000000C300C300C300C300C30B2
:1052D0000C300C30FC3FFC3F0C300C300C300C30F0
:1052E0000C300C300C300C300000000000000000CE
:1052F0000000000000008001800180018001800129
:105300008001800180018001800180018001800195
:105310008001800180018001000000000000000089
:10532000000000000000000600060006000600065F
:105330000006000600060006000600060006180625
:1053400018063807F003E00100000000000000002C
:1053500000000000000006300618060C06060603D2
:105360008601C60066007600DE008E010603060692
:10537000060C061806300660000000000000000061
:1053800000000000000018001800180018001800A5
:10539000180018001800180018001800180018004D
:1053A00018001800F81FF81F00000000000000009F
:1053B0000000000000000EE01EF01EF01EF036D8C7
:1053C00036D836D836D866CC66CC66CCC6C6C6C605
:1053D000C6C6C6C686C386C3000000000000000023
:1053E0000000000000000C301C303C303C306C30C1
:1053F0006C30CC30CC308C310C330C330C360C365A
:105400000C3C0C3C0C380C3000000000000000008C
:10541000000000000000E007F81F1C380E70066056
:1054200003C003C003C003C003C003C003C00660C1
:105430000E701C38F81FE00700000000000000009C
:10544000000000000000FC0FFC1F0C380C300C307A
:105450000C300C300C18FC1FFC070C000C000C006E
:105460000C000C000C000C0000000000000000000C
:10547000000000000000E007F81F1C380E700660F6
:1054800003E003C003C003C003C003C007E006631A
:105490000E3F1C3CF83FE0F700C000000000000099
:1054A000000000000000FE0FFE1F06380630063028
:1054B00006300638FE1FFE0706030606060C061811
:1054C00006180630063006600000000000000000EC
:1054D000000000000000E003F80F1C0C0C180C1872
:1054E0000C001C00F803E00F001E003806300630E8
:1054F0000E301C1CF80FE007000000000000000048
:10550000000000000000FE7FFE7F8001800180011E
:105510008001800180018001800180018001800183
:105520008001800180018001000000000000000077
:105530000000000000000C300C300C300C300C303F
:105540000C300C300C300C300C300C300C300C307B
:105550000C301818F81FE0070000000000000000E1
:1055600000000000000003600630063006300C1812
:105570000C180C18180C180C380E30063006700772
:1055800060036003C001C0010000000000000000D3
:105590000000000000000360C361C361C3616633A3
:1055A000663366336633663366336C1B6C1B6C1B69
:1055B0002C1A3C1E380E380E0000000000000000BF
:1055C0000000000000000FE00C7018303018700C64
:1055D000600EC00780038003C003E006700C301C1F
:1055E00018180C300E6007E00000000000000000FA
:1055F00000000000000003C006600C301C383818A2
:10560000300C6006E007C00380018001800180014A
:105610008001800180018001000000000000000086
:10562000000000000000FC7FFC7F006000300018DC
:10563000000C000600038001C0006000300018006C
:105640000C000600FE7FFE7F00000000000000004E
:10565000000000000000E003E00360006000600064
:10566000600060006000600060006000600060003A
:105670006000600060006000600060006000E003A7
:10568000E0030000000030003000600060006000B7
:10569000C000C000C000C001800180018001000383
:1056A00000030003000600060000000000000000E8
:1056B000000000000000E003E0030003000300031B
:1056C00000030003000300030003000300030003C2
:1056D0000003000300030003000300030003E003D2
:1056E000E003000000000000C001C001600360038F
:1056F000600330063006180C180C00000000000093
:105700000000000000000000000000000000000099
:105710000000000000000000000000000000000089
:105720000000000000000000000000000000000079
:10573000000000000000FFFFFFFF0000000000006D
:105740000000000000000C000C000C000C000C001D
:105750000C0000000000000000000000000000003D
:105760000000000000000000000000000000000039
:105770000000000000000000000000000000000029
:10578000F003F8071C0C0C0C000FF00FF80C0C0CBD
:105790000C0C1C0FF80FF0180000000000000000B7
:1057A0000000000000001800180018001800180081
:1057B000D803F80F380C18181818181818181818D3
:1057C0001818380CF80FD803000000000000000083
:1057D00000000000000000000000000000000000C9
:1057E000C003F007300E180C18001800180018003D
:1057F000180C300EF007C00300000000000000008D
:105800000000000000000018001800180018001820
:10581000C01BF01F301C1818181818181818181862
:105820001818301CF01FC01B000000000000000012
:105830000000000000000000000000000000000068
:10584000C003F00F300C1818F81FF81F18001800CC
:105850003818301CF00FC0070000000000000000E6
:10586000000000000000800FC00FC000C000C0009A
:10587000F007F007C000C000C000C000C000C000BA
:10588000C000C000C000C000000000000000000018
:105890000000000000000000000000000000000008
:1058A000E00DF80F180E0C0C0C0C0C0C0C0C0C0C66
:1058B0000C0C180EF80FE00D000C0C0C1C06F80771
:1058C000F00100000000180018001800180018006F
:1058D000D807F80F381C181818181818181818189E
:1058E00018181818181818180000000000000000F8
:1058F000000000000000C000C00000000000000028
:10590000C000C000C000C000C000C000C000C00097
:10591000C000C000C000C000000000000000000087
:10592000000000000000C000C000000000000000F7
:10593000C000C000C000C000C000C000C000C00067
:10594000C000C000C000C000C000C000C000F8001F
:105950007800000000000C000C000C000C000C0093
:105960000C0C0C060C038C01CC006C00FC009C01A0
:105970008C030C030C060C0C00000000000000005F
:10598000000000000000C000C000C000C000C00057
:10599000C000C000C000C000C000C000C000C00007
:1059A000C000C000C000C0000000000000000000F7
:1059B00000000000000000000000000000000000E7
:1059C0007C3CFF7EC7E383C183C183C183C183C1A4
:1059D00083C183C183C183C10000000000000000B7
:1059E00000000000000000000000000000000000B7
:1059F0009807F80F381C18181818181818181818BD
:105A000018181818181818180000000000000000D6
:105A10000000000000000000000000000000000086
:105A2000C003F00F300C1818181818181818181888
:105A30001818300CF00FC003000000000000000038
:105A40000000000000000000000000000000000056
:105A5000D803F80F380C1818181818181818181830
:105A60001818380CF80FD803180018001800180080
:105A7000180000000000000000000000000000000E
:105A8000C01BF01F301C18181818181818181818F0
:105A90001818301CF01FC01B001800180018001840
:105AA00000180000000000000000000000000000DE
:105AB000B007F003700030003000300030003000DC
:105AC0003000300030003000000000000000000016
:105AD00000000000000000000000000000000000C6
