:020000040800F2
:10C00000C817002065C10008BDC80008B5C80008F1
:10C01000B9C800080BC500089DE300080000000037
:10C02000000000000000000000000000D1CD00086A
:10C03000F1C600080000000071C900087DC10008B9
:10C040004DE400087FC100087FC100087FC10008DF
:10C050007FC100087FC100087FC10008F5C6000845
:10C060007FC100087FC100087FC100087FC10008B0
:10C070007FC100087FC100087FC100087FC10008A0
:10C080007FC100087FC100087FC100087FC1000890
:10C090007FC100087FC100087FC100087FC1000880
:10C0A0007FC100087FC100087FC100087FC1000870
:10C0B000ADCF00087FC100087FC100087FC1000824
:10C0C0007FC100087FC100087FC100087FC1000850
:10C0D0007FC100087FC100081BD100087FC1000894
:10C0E0007FC100087FC100087FC100080000000078
:10C0F0000000000000000000000000000000000040
:10C100000000000000000000B5CF00087FC100085B
:10C1100011D100087FC100087FC100087FC100085D
:10C120007FC100087FC100087FC100087FC10008EF
:10C130007FC100087FC100087FC100087FC10008DF
:10C140007FC100087FC100087FC1000861C90008E5
:10C15000DFF80CD000F040F900480047D1F40008A7
:10C16000C81700200648804706480047FEE7FEE75C
:10C17000FEE7FEE7FEE7FEE7FEE7FEE7FEE7FEE797
:10C1800039CF000851C1000840EA01039B0703D0E2
:10C1900009E008C9121F08C0042AFAD203E011F806
:10C1A000013B00F8013B521EF9D27047D2B201E0C8
:10C1B00000F8012B491EFBD270470022F6E710B5AC
:10C1C00013460A4604461946FFF7F0FF204610BD05
:10C1D0002DE9FE4F81EA030404F0004421F0004100
:10C1E00000944FF0000B23F0004350EA01045ED0AE
:10C1F00052EA03045BD0C3F30A54C1F30A552C443A
:10C20000A4F2F3340194A0FB0254C1F3130141F4EE
:10C210008011C3F3130343F4801301FB024400FBBA
:10C22000034E840A970A44EA815447EA8357A4FBE1
:10C23000076802958D0A05FB07854FEA932C04FBDE
:10C240000C542705029D4FEA065847EA1637B5EB0E
:10C2500008056EEB070C870E920E47EA811742EA3B
:10C260008312A7FB0201B6EB0B0164EB00042B0D5C
:10C2700043EA0C335E1844EB1C50DA465146E7FBA8
:10C280000201C5F313044FEA0B3343EA14534FEA98
:10C290000432019C43EA0603A4F10C040294009CBE
:10C2A000CDE900B400F049F803B0BDE8F08F0020FC
:10C2B0000146F9E70EB540F2334102910021CDE984
:10C2C00000110A460B4600F038F803B000BDC1F378
:10C2D0000A5210B5C1F3130140F2FF3341F480114B
:10C2E0009A4201DA002010BD40F233439A42A2F292
:10C2F000334203DC524200F003F810BD904010BD01
:10C30000202A04DB203A21FA02F00021704721FAAA
:10C3100002F3D040C2F12002914008431946704711
:10C3200010B5002B08DA401C41F1000192185B4166
:10C330001A4301D120F0010010BD2DE9F04D9246C5
:10C340009B4611B1B1FA81F202E0B0FA80F22032DC
:10C35000904600F053F804460F4640EA0A0041EACE
:10C360000B0153465A46084313D0114653EA0100C5
:10C3700019D0C8F140025046FFF7C2FF05460E46ED
:10C3800050465946424600F039F8084305D001208E
:10C3900004E020463946BDE8F08D0020054346EA1A
:10C3A000E0762C4337430A986305E40AA0EB0800C3
:10C3B0000022FD0A44EA47540A3002D50020014613
:10C3C000E9E7010510196941DDE9084500196941EE
:10C3D000BDE8F04DA4E70000064C074D06E0E0681C
:10C3E00040F0010394E8070098471034AC42F6D3BC
:10C3F000FFF7B2FEC4110108E4110108202A04DB92
:10C40000203A00FA02F1002070479140C2F1200367
:10C4100020FA03F319439040704770B58C1810F858
:10C42000015B15F0070301D110F8013B2A1106D179
:10C4300010F8012B03E010F8016B01F8016B5B1E93
:10C44000F9D12B0705D40023521E0DD401F8013B6E
:10C45000FAE710F8013BCB1A921C03E013F8015BDA
:10C4600001F8015B521EF9D5A142D8D3002070BD5E
:10C4700070B505460C4608480560204600F00EF8E9
:10C4800000BF054800680028FBD100214FF0804024
:10C4900000F0C5FD70BD0000040000203EB504465C
:10C4A00000214FF0804000F0BAFD002201218807F2
:10C4B00000F0D2FD022C03D10B20ADF8040005E002
:10C4C000012C03D142F6DF60ADF804000520ADF881
:10C4D00000000020ADF80600ADF8020069464FF0FC
:10C4E000804000F0C3FD0121880700F095FD012187
:10C4F000880700F085FD01221146900700F0ACFD91
:10C500000121880700F08BFD3EBD00BFFEE710B59E
:10C51000012402E000F016FB044604F001000028AC
:10C52000F8D110BD2DE9F0474FF0000AD1460024A4
:10C5300000BF00F097F8CC2000F0ACF8442000F0E9
:10C54000A9F84FF4487002F0AFF800F08BF8CC2057
:10C5500000F0A0F8BE2000F09DF800F055F88246EB
:10C5600000F052F881464C460AEB042084B204F4F1
:10C570007840B0F5784F0ED1E04384B2601C84B2AD
:10C580002046FFF797FE074600220A4BFFF720FEE2
:10C5900005460E4609E02046FFF78CFE07460022BE
:10C5A000054BFFF715FE05460E4628463146BDE809
:10C5B000F08700000000B0BF0000B03F08B54FF4A6
:10C5C0008070ADF8000004208DF803006946024831
:10C5D00000F0BAF808BD00000010014008B54FF4A3
:10C5E0008070ADF8000003208DF8020010208DF857
:10C5F00003006946014800F0A7F808BD001001409B
:10C6000010B500F02FF810BD70B50025002400BF54
:10C6100022E06410FFF7E2FF4FF48071104800F051
:10C6200027F9042002F05CF84FF480710C4800F008
:10C6300021F90A2002F054F8FFF7C0FF4FF480718F
:10C64000074800F00CF9012801D144F080042D20A6
:10C6500002F046F8681CC5B2082DDADB204670BD32
:10C660000010014010B5FFF7B9FF4FF48071084882
:10C6700000F0FEF84FF4F07002F032F84FF48071E1
:10C68000034800F0F7F84FF4F07002F029F810BDFD
:10C690000010014070B504460025FFF79FFF00BF62
:10C6A00020E04FF48071114800F0E2F80F2002F012
:10C6B00017F804F0010028B14FF480710B4800F026
:10C6C000D9F804E04FF48071084800F0D1F83C201C
:10C6D00002F006F84FF48071044800F0CBF86410C3
:10C6E000681CC5B2082DDCDB70BD000000100140E5
:10C6F0007047000010B5022000F012F838B104496C
:10C70000D1F8801048698047022000F003F810BD7E
:10C710007C100020014908607047000014040140AB
:10C72000014600200022074B1B6803EA0102054B6B
:10C7300014331B680B4013B10AB1012000E0002044
:10C7400070470000000401402DE9F0410246002539
:10C750000026002000230024002791F803C00CF0DD
:10C760000F0591F803C00CF0100CBCF1000F03D0C2
:10C7700091F802C04CEA050591F800C0BCF1000F29
:10C7800031D0146800202BE04FF0010C0CFA00F3BC
:10C79000B1F800C00CEA03069E4220D183004FF09E
:10C7A0000F0C0CFA03F7BC4305FA03FC4CEA040433
:10C7B00091F803C0BCF1280F06D14FF0010C0CFA20
:10C7C00000FCC2F814C00AE091F803C0BCF1480FA5
:10C7D00005D14FF0010C0CFA00FCC2F810C0401C4F
:10C7E0000828D1D31460B1F800C0BCF1FF0F34DDCC
:10C7F000546800202EE000F1080C4FF0010808FA00
:10C800000CF3B1F800C00CEA03069E4221D183006C
:10C810004FF00F0C0CFA03F7BC4305FA03FC4CEA8B
:10C82000040491F803C0BCF1280F05D100F1080CF5
:10C8300008FA0CF8C2F8148091F803C0BCF1480F54
:10C8400007D100F1080C4FF0010808FA0CF8C2F803
:10C850001080401C0828CED35460BDE8F081024609
:10C86000002093680B400BB1012000E000207047CE
:10C8700041617047016170472DE9F04704460E465B
:10C8800025464FEA252805F0FF09A9F1A100A8F1E6
:10C89000A101C1EB011202EB411100EB41004FF489
:10C8A000005101EB401720223146384600F00EFAC5
:10C8B000BDE8F08700BFFEE700BFFEE7704700005D
:10C8C00070B5002100230F22C4781CB3174C2468D4
:10C8D00004F4E064C4F5E064C4F30721C1F1040486
:10C8E000E3B20A4144789C40E1B284781440214389
:10C8F0000C07210E0E4C05786155047804F01F05D5
:10C900000124AC4005786D11AD0005F1E025C5F8B6
:10C91000004109E0047804F01F050124AC40054DF6
:10C920000678761145F8264070BD00000CED00E059
:10C9300000E400E080E100E002490143024A1160A6
:10C94000704700000000FA050CED00E0024A0A40C2
:10C950000243024B1A60704780FFFF1F08ED00E0A2
:10C9600010B5024800F0B5FC10BD0000D00A002050
:10C970007047000029B1064AD2690243044BDA61CC
:10C9800004E0034AD2698243014BDA617047000038
:10C990000010024029B1064A92690243044B9A6191
:10C9A00004E0034A92698243014B9A617047000098
:10C9B000001002402DE9F041002100220025002353
:10C9C0000026002400278C46DFF86081D8F8048018
:10C9D00008F00C0121B1042907D0082959D109E038
:10C9E000DFF84C81C0F8008058E0DFF84881C0F8DB
:10C9F000008053E0DFF83481D8F8048008F4701226
:10CA0000DFF82881D8F8048008F48035920C0D2ACC
:10CA100001D0921C00E0062235B9DFF81C8102FB30
:10CA200008F8C0F8008033E0DFF80081D8F82C80E7
:10CA300008F48036DFF8F480D8F82C8008F00F086E
:10CA400008F1010446B9DFF8EC80B8FBF4F808FB04
:10CA500002F8C0F800801BE0DFF8D080D8F82C8006
:10CA6000C8F3031808F10107DFF8C080D8F82C805C
:10CA7000C8F3032808F1020CDFF8B880B8FBF7F818
:10CA800008FB0CF8B8FBF4F808FB02F8C0F80080CB
:10CA900004E0DFF89C80C0F8008000BF00BFDFF832
:10CAA0008C80D8F8048008F0F0010909DFF88C8048
:10CAB00018F80130D0F8008028FA03F8C0F8048094
:10CAC000DFF86880D8F8048008F4E061090ADFF82C
:10CAD0006C8018F80130D0F8048028FA03F8C0F808
:10CAE0000880DFF84880D8F8048008F46051C90A4B
:10CAF000DFF8488018F80130D0F8048028FA03F8ED
:10CB0000C0F80C80DFF82480D8F8048008F4404195
:10CB1000890BDFF82C8018F80130D0F80C80B8FBB6
:10CB2000F3F8C0F81080BDE8F0810000001002406A
:10CB300000127A0040787D0100093D001E080020A7
:10CB40002E08002010B510210748FFF791FE0520A0
:10CB500000F074F800F06CF8044610210248FFF76A
:10CB600089FE204610BD00000008014021B1028866
:10CB700042F04002028004E002884FF6BF731A4080
:10CB80000280704700B587B001210803FFF702FF5C
:10CB9000A020ADF8040003208DF8060018208DF8C1
:10CBA000070001A92048FFF7CFFD4020ADF80400A1
:10CBB00018208DF8070001A91B48FFF7C5FD1020BC
:10CBC000ADF8040003208DF8060010208DF8070052
:10CBD00001A91548FFF7B8FD0020ADF808004FF493
:10CBE0008270ADF80A000020ADF80C00ADF80E0020
:10CBF000ADF810004FF40070ADF812000020ADF851
:10CC00001400ADF816000720ADF8180002A9074877
:10CC100000F03EF801210548FFF7A8FF1021024867
:10CC2000FFF728FE07B000BD0008014000300140BA
:10CC300010B5002000F002F810BD000010B5044649
:10CC400000BF02210A4800F015F80028F9D021465B
:10CC5000074800F01BF800BF0121054800F00AF862
:10CC60000028F9D0024800F00EF8C0B210BD000054
:10CC7000003001400246002013890B400BB1012017
:10CC800000E0002070470146888970478181704725
:10CC900010B50022028802F441520B884C882343CD
:10CCA0008C882343CC8823430C8923434C8923431A
:10CCB0008C892343CC8923431A430280838B4FF210
:10CCC000FF74234083830B8A038210BD2DE9F0415A
:10CCD00004460E461746002510211048FFF7C8FDF0
:10CCE0000B20FFF7ABFFC4F30740FFF7A7FFC4F328
:10CCF0000720FFF7A3FFE0B2FFF7A0FF0020FFF738
:10CD00009DFF03E0FFF794FF70556D1CBD42F9D302
:10CD100010210248FFF7AEFDBDE8F0810008014098
:10CD20002DE9F04105460C4690460027284600F0C4
:10CD300051F801F057FB01F045FB10212348FFF7A4
:10CD400097FDAD20FFF77AFFC5F30740FFF776FFA9
:10CD5000C5F30720FFF772FFE8B2FFF76FFF2078F7
:10CD6000FFF76CFF6078FFF769FF10211748FFF7A6
:10CD700081FD022719E0782600E0761E002EFCD106
:10CD800010211248FFF774FDAD20FFF757FF394619
:10CD90007F1C605CFFF752FF39467F1C605CFFF729
:10CDA0004DFF10210948FFF765FD4745E3D3642691
:10CDB00000E0761E002EFCD101F0F2FA10210348AB
:10CDC000FFF756FDFFF7A3FBBDE8F0810008014027
:10CDD0007047000010B5044601F004FB01F0F2FAC0
:10CDE00010210C48FFF744FD2020FFF727FFC4F374
:10CDF0000740FFF723FFC4F30720FFF71FFFE0B250
:10CE0000FFF71CFF10210348FFF734FDFFF77FFBFE
:10CE100010BD00000008014010B500F001F810BD81
:10CE20000CB50020019000903F48006840F480302D
:10CE30003D49086000BF3C48006800F400300090A5
:10CE40000198401C0190009818B90198B0F5A06FA6
:10CE5000F1D13548006800F4003010B10120009095
:10CE600001E000200090009801285CD12F48006864
:10CE700040F010002D4908600846006820F00300CB
:10CE800008600846006840F00200086026484068D4
:10CE9000254948600846406848600846406840F4B4
:10CEA000806048600846C06A214908401E49C8623F
:10CEB0000846C06A1F4908431B49C8620846006803
:10CEC00040F08060086000BF1748006800F0006014
:10CED0000028F9D01448406820F47C1012494860BA
:10CEE0000846406840F4E81048600846006840F092
:10CEF0008070086000BF0C48006800F000700028D7
:10CF0000F9D00948406820F0030007494860084606
:10CF1000406840F00200486000BF0348406800F0ED
:10CF20000C000828F9D10CBD00100240002002407E
:10CF300000F0FEFF4406010010B51848006840F0FC
:10CF40000100164908600846406815490840134921
:10CF500048600846006813490840104908600846C0
:10CF6000006820F4802008600846406820F4FE0035
:10CF700048600846006820F0A05008604FF47F0029
:10CF800088600020C8624FF41F008860FFF744FFEC
:10CF90004FF000600449086010BD0000001002401E
:10CFA0000000FFF0FFFFF6FE08ED00E010B500F016
:10CFB000E7F910BD10B501210F4800F03CF8D0B1E1
:10CFC0000E480068B0F57A7F02D900200B4908604E
:10CFD0000A480068401C094908600846007800F0CB
:10CFE000010010B901F018FD01E001F01FFD012161
:10CFF000014800F011F810BD000C0040F8000020BE
:10D0000021B1028842F08002028004E002884FF6DB
:10D010007F731A4002807047CA430282704721B171
:10D02000028842F00102028004E002884FF6FE739B
:10D030001A400280704730B50246002000230024C9
:10D04000158A05EA0103958905EA010413B10CB1BB
:10D05000012000E0002030BD1AB183890B43838199
:10D0600002E083898B43838170470000002202889D
:10D070001D4B98420ED01D4B98420BD0B0F1804F03
:10D0800008D01B4B984205D01A4B984202D01A4B3D
:10D09000984204D14FF68F731A404B881A43174BAE
:10D0A000984207D0164B984204D04FF6FF431A40DF
:10D0B000CB881A4302808B8883850B8803850A4BB3
:10D0C00098420BD0094B984208D00E4B984205D09D
:10D0D0000D4B984202D00D4B984201D10B7A03863A
:10D0E0000123838270470000002C0140003401407E
:10D0F0000004004000080040000C00400010004008
:10D10000001400400040014000440140004801403C
:10D1100010B5042003F0DCFD10BD10B5022003F0B3
:10D12000D7FD10BD01F40072B2F5007F00D100BF41
:10D13000CA430280704710B50022002340F66A14EB
:10D14000A14200D100BF0A1201249440A3B2DC43E3
:10D15000048010BD21B1828942F40052828104E032
:10D1600082894DF6FF731A40828170470246002083
:10D17000B1F5007F00D100BF13880B400BB1012037
:10D1800000E000207047F0B503460024002600258B
:10D19000002040F66A17B94200D100BF1846C1F31B
:10D1A000421401F01F06012707FA06F5012C01D1F0
:10D1B0000C3004E0022C01D1103000E014301AB120
:10D1C00007682F43076002E00768AF430760F0BDC0
:10D1D0002DE9F04786B005460E460024A24600BF62
:10D1E000A1460027B08900B100BF2F462C8A4CF61B
:10D1F000FF700440F08804432C82AC894EF6F31093
:10D200000440B08831890843718908430443AC81E4
:10D21000AC8A4FF6FF400440B0890443AC8201A8B9
:10D22000FFF7C8FB1F48874202D1DDF810A001E0DC
:10D23000DDF80CA0A88900F4004040B10AEBCA0058
:10D2400000EB0A1031684900B0FBF1F807E00AEB87
:10D25000CA0000EB0A1031688900B0FBF1F86420C5
:10D26000B8FBF0F004012009642101FB1089A889B2
:10D2700000F4004040B1322000EBC900B0FBF1F0F7
:10D2800000F00700044308E0322000EB091064219D
:10D29000B0FBF1F000F00F0004432C8106B0BDE8B4
:10D2A000F08700000038014001468888C0F308007C
:10D2B0007047C1F308028280704701460122C1F81D
:10D2C00010230020704701460022C1F810230020DF
:10D2D000704738B50546002400200090284600F02D
:10D2E000F2F8002847D0284600F0F7F800900098A0
:10D2F00008B9002038BD0098C0F3C00018B1284616
:10D3000001F016F804430098C0F3001018B1284645
:10D3100000F05BFF04430098C0F3401018B12846AA
:10D3200000F095FD04430098C0F3806018B12846D2
:10D3300000F0B4FE04430098C0F3406018B12846E2
:10D3400000F05DF904430098C0F3006018B128466E
:10D3500000F014FE04430098C0F3407018B1284652
:10D3600000F014F904430098C0F3405018B1284667
:10D3700000F022F904432046BCE701460020704734
:10D3800010B501218807FFF756FE88B101218807F3
:10D39000FFF742FE0748006828B106480068401EB3
:10D3A0000449086004E000214FF08040FFF737FE99
:10D3B00010BD00000400002010B5044601212046E5
:10D3C000FFF756F810BD0146C868406900F001003B
:10D3D00070471CB50246002000230093009B23F0F9
:10D3E000004303F1004300930124009B64F3DC43FA
:10D3F000009302F1900353F82130009C1C6102F16C
:10D40000900353F821301B680193019B23F00043E4
:10D4100003F100430193019B23F08043019302F148
:10D42000900353F82130019C1C601CBD10B586B0E0
:10D430000246002000230393019302F1900353F866
:10D4400021301B680093009B23F0004303F100434D
:10D450000093009B23F0804303F180430093009BE3
:10D46000C3F3814323B1009BC3F38143022B0BD150
:10D47000D368DB6A0393039BC3F307437BB9009B29
:10D4800023F0004300930AE053691B690193019B59
:10D49000C3F307431BB9009B23F00043009302F141
:10D4A000900353F82130009C1C6006B010BD08B5F5
:10D4B000426912680092009A61F301020092009B97
:10D4C0004269136008BD00B502461046FFF77BFFB6
:10D4D000012800D100BD0020FCE701460020CA68F9
:10D4E0005069CA6892691040704708B50146D1F882
:10D4F000CC0000680090009820F004000090009894
:10D5000020F002000090009820F0080000900098A1
:10D5100020F020000090009808BD0146486940694D
:10D520007047F0B503460024D01CC71700EB97776F
:10D53000BD10D3F8D06000BF03E030680860641C01
:10D54000091DAC42F9D30846F0BD38B50446204663
:10D55000FFF7CBFF0090009820F4807000F58070FA
:10D5600000900099D4F8CC0001600A20FFF724FF56
:10D57000009820F4807000900099D4F8CC000160ED
:10D580001420FFF719FF012038BD000038B504460C
:10D59000002000900748006881682046884700986E
:10D5A00020F0005000F1005000900098E1684861C0
:10D5B000012038BD180800200CB50146D1F89000B4
:10D5C00000680090009820F0004000F100400090BA
:10D5D000009820F0804000F180400090009AD1F83F
:10D5E0009000026000200190019820F4001000F5E6
:10D5F000001001900198CA68506101200CBD7CB5F3
:10D600000546002400262846FFF787FF019000BF4B
:10D610001BE0019880B20121A1400840A0B105F1B2
:10D62000900050F82400006800900098C0F3C030CB
:10D6300028B12146284600F00DF8064304E02146B3
:10D64000284600F01CFA0643641C2878A042E0D863
:10D6500030467CBD70B586B005460C4605F190009D
:10D6600050F82460B0680590F0680490DDE904107B
:10D670000840059005F1900050F8240000680390E0
:10D68000002004900598C0F38000D0B100200190E4
:10D69000019820F00400001D01900198B06005F190
:10D6A000900050F82400C0680190019820F002001A
:10D6B000801C019005F1900050F824000199C16090
:10D6C00073E00598C0F3401048B100200190019824
:10D6D00020F02000203001900198B06065E00598AE
:10D6E000C0F3C00078B305F1900050F82400C06882
:10D6F0000190019820F00200801C019005F190003B
:10D7000050F824000199C160052105F563700155A9
:10D7100000200190019820F0100010300190019835
:10D72000B06000200190019820F0080008300190BE
:10D730000198B060059820F010000590E1B22846ED
:10D74000FFF774FE31E0FFE70598C0F3802060B377
:10D7500005F1900050F82400C0680190019820F075
:10D760000200801C019005F1900050F824000199FE
:10D77000C160E1B22846FFF759FE002001900198F0
:10D7800020F01000103001900198B060082105F5DC
:10D790006370015500200190019820F4806000F52D
:10D7A000806001900198B06000BF0598C0F34020F0
:10D7B000F8B105F1900050F82400C068019001987C
:10D7C00020F00200801C019005F1900050F8240028
:10D7D0000199C160E1B22846FFF728FE00200190C0
:10D7E000019820F4007000F5007001900198B0607D
:10D7F00042E1059800F00100002871D0E878012886
:10D8000012D105F1900050F824000069029005F54E
:10D810006B7000EB441000690299C1F31201411AC8
:10D8200005F5547040F82410012105F56370015589
:10D830000021783840F8241000200190019820F051
:10D840000100401C01900198B0600398C0F3814032
:10D8500020B10398C0F3814002282AD105F190003D
:10D8600050F82400C0680190019820F00200801C4C
:10D87000019005F1900050F824000199C160E1B2D7
:10D880002846FFF7D3FD00200190019820F01000FA
:10D89000103001900198B06005F56B7000EB4410FA
:10D8A000007E80F0010105F56B7000EB44100176FD
:10D8B000E2E00398C0F38140032899D1039820F057
:10D8C000005000F10050039005F1900050F8240042
:10D8D00003990160012105F29B300155CCE0FFE77F
:10D8E0000598C0F34000002851D005F1900050F891
:10D8F0002400C0680190019820F00200019005F119
:10D90000900050F824000199C16005F56370005D36
:10D91000012804D1012105F29B3001552DE005F5C8
:10D920006370005D052804D1042105F29B30015588
:10D9300023E005F56370005D062804D005F56370EB
:10D94000005D082808D1002105F5457040F8241035
:10D9500003218730015510E00398C0F3814003286C
:10D960000BD105F56B7000EB4410007E80F00101D7
:10D9700005F56B7000EB44100176002001900198D2
:10D9800020F00200801C01900198B06074E00598BE
:10D99000C0F3C01040B305F1900050F82400C068F7
:10D9A0000190019820F00200801C019005F1900088
:10D9B00050F824000199C16005F5457050F8241015
:10D9C000491C40F82410062178300155E1B2284660
:10D9D000FFF72CFD00200190019820F0800080309E
:10D9E00001900198B06047E00598C0F30010E8B3DB
:10D9F0000398C0F38140032815D105F1900050F839
:10DA00002400C0680190019820F00200801C019061
:10DA100005F1900050F824000199C160E1B2284658
:10DA2000FFF704FD18E00398C0F3814020B103988C
:10DA3000C0F3814002280FD1039820F0004000F18C
:10DA400000400390039820F08040039005F190007F
:10DA500050F8240003990160032105F56370015516
:10DA600000200190019820F0100000E004E0103048
:10DA700001900198B06000BF012006B070BD7FB575
:10DA800005460C4605F1900050F82460B0680390FC
:10DA9000F0680290DDE902100840039005F1900063
:10DAA00050F82400006801900398C0F38000D0B1C2
:10DAB00000200090009820F00400001D00900098C5
:10DAC000B06005F1900050F82400C0680090009804
:10DAD00020F00200801C009005F1900050F8240016
:10DAE0000099C160B0E10398C0F3401048B1002034
:10DAF0000090009820F02000203000900098B06046
:10DB0000A2E10398C0F34020F8B105F1900050F86D
:10DB10002400C0680090009820F00200801C009053
:10DB200005F1900050F824000099C160E1B2284648
:10DB3000FFF77CFC00200090009820F4007000F5B6
:10DB4000007000900098B0607EE1039800F0010042
:10DB500038B3002105F5457040F8241005F1900018
:10DB600050F82400C0680090009820F00200801C4B
:10DB7000009005F1900050F824000099C160E1B2D6
:10DB80002846FFF753FC00200090009820F0010089
:10DB9000401C00900098B060012105F563700155AC
:10DBA00052E10398C0F3C00010B300200090009829
:10DBB00020F00800083000900098B06005F1900057
:10DBC00050F82400C0680090009820F00200801CEB
:10DBD000009005F1900050F824000099C160E1B276
:10DBE0002846FFF723FC052105F5637001552BE15D
:10DBF0000398C0F3001038B3002105F5457040F8D4
:10DC0000241005F1900050F82400C068009000989E
:10DC100020F00200801C009005F1900050F82400D4
:10DC20000099C160E1B22846FFF700FC0020009097
:10DC3000009820F01000103000900098B060032190
:10DC400005F563700155FFE00398C0F3C01040B3C1
:10DC500005F1900050F82400C0680090009820F072
:10DC60000200801C009005F1900050F824000099FB
:10DC7000C160E1B22846FFF7D9FB05F5457050F8C1
:10DC80002410491C40F8241006217830015500204A
:10DC90000090009820F08000803000900098B060E4
:10DCA000D2E00398C0F3801038B3002105F5457029
:10DCB00040F8241005F1900050F82400C06800904E
:10DCC000009820F00200801C009005F1900050F8B0
:10DCD00024000099C160E1B22846FFF7A7FB0020AD
:10DCE0000090009820F04000403000900098B06014
:10DCF000042105F563700155A6E00398C0F3802068
:10DD000060B305F1900050F82400C06800900098BE
:10DD100020F00200801C009005F1900050F82400D3
:10DD20000099C160E1B22846FFF780FB0020009017
:10DD3000009820F01000103000900098B06008218A
:10DD400005F56370015500200090009820F4806074
:10DD500000F5806000900098B06075E00398C0F313
:10DD60004000002870D005F1900050F82400C068F1
:10DD70000090009820F00200009005F1900050F80B
:10DD800024000099C16005F56370005D012815D17C
:10DD9000012105F29B3001550198C0F38140022812
:10DDA00048D105F56B7000EB4410407E80F0010116
:10DDB00005F56B7000EB441041763BE005F56370B0
:10DDC000005D032804D1022105F29B30015531E0AA
:10DDD00005F56370005D04280FD105F56B7000EB4D
:10DDE00044100079012803D1E1B22846FFF7F1FA87
:10DDF000022105F29B3001551CE005F56370005DC2
:10DE0000052804D1042105F29B30015512E005F5E7
:10DE10006370005D06280DD105F5457050F82400AB
:10DE2000032807D1032105F29B30015500218738D3
:10DE300040F8241000200090009820F00200801C80
:10DE400000900098B06000BF012004B070BD7FB5A5
:10DE50000446E068C06A00900198C0F3C30104F56D
:10DE60006B7000EB41100069C01CC0F38F0673E0BB
:10DE70004FF6FF71009801EA80050198C0F3C301D5
:10DE800004F56B7000EB41100069A84215D20198AF
:10DE9000C0F3C30104F56B7000EB4110008A85B23A
:10DEA00000200390039820F0200020300390E068C9
:10DEB000806903998843E16888610198C0F3C301D0
:10DEC00004F56B7000EB41100069C01CC0F38F06B5
:10DED0000198C0F3C302C0F3C30304F56B7000EBF9
:10DEE00043102B46C168204600F038FA0198C0F371
:10DEF000C30104F56B7000EB4110C0684119019833
:10DF0000C0F3C30204F56B7000EB4210C1600198CE
:10DF1000C0F3C30104F56B7000EB41100069411BB5
:10DF20000198C0F3C30204F56B7000EB421001616D
:10DF30000198C0F3C30104F56B7000EB4110406918
:10DF400041190198C0F3C30204F56B7000EB421055
:10DF50004161E068C06A0090009880B2B0420ADD7A
:10DF60000198C0F3C30104F56B7000EB4110006928
:10DF700000287FF47DAF012004B070BDFEB50446DB
:10DF8000002600250020009002900190D4F8CC00DB
:10DF900000680290D4F8CC0000680190019820F04D
:10DFA00004000190019820F002000190019820F0F7
:10DFB00008000190019820F0200001900298C0F321
:10DFC000400058B1019820F00200801C01903248B6
:10DFD000006841682046884745F001050298C0F373
:10DFE000C000002842D0019820F0080008300190BD
:10DFF0000298C0F38000002838D0274800684168A4
:10E00000204688470298C0F34140022804D0029875
:10E01000C0F34140012828D160690068009002984F
:10E02000C0F34140022811D141F270716069416032
:10E03000009800F00300022818D0207A022803D1AB
:10E0400002212046FFF733FA01260FE04BF680311C
:10E0500060694160009800F00300012806D00121AA
:10E060002046FFF724FA012600E001260298C0F3BB
:10E07000401030B1019820F020002030019045F090
:10E08000010516B12046FFF760FA0199D4F8CC00DB
:10E0900001602846FEBD000018080020FEB50446B9
:10E0A0006069006900900198C0F3C30104F56B70CA
:10E0B00000EB41100069C01CC0F38F0674E04FF6FE
:10E0C000FF71009801EA80050198C0F3C30104F5CF
:10E0D0006B7000EB41100069A84216D20198C0F3A2
:10E0E000C30104F56B7000EB4110008A85B200207B
:10E0F0000290029820F0806000F180600290E06859
:10E10000806902998843E16888610198C0F3C3017E
:10E1100004F56B7000EB41100069C01CC0F38F0662
:10E120000198C0F3C302C0F3C30304F56B7000EBA6
:10E1300043102B46C168204600F010F90198C0F347
:10E14000C30104F56B7000EB4110C06841190198E0
:10E15000C0F3C30204F56B7000EB4210C16001987C
:10E16000C0F3C30104F56B7000EB41100069411B63
:10E170000198C0F3C30204F56B7000EB421001611B
:10E180000198C0F3C30104F56B7000EB41104069C6
:10E1900041190198C0F3C30204F56B7000EB421003
:10E1A0004161606900690090009880B2B0420ADD68
:10E1B0000198C0F3C30104F56B7000EB41100069D6
:10E1C00000287FF47CAF0120FEBD30B585B0044649
:10E1D000002000900390039820F01000103003906E
:10E1E000E068806903998843E1688861E068006AB3
:10E1F0000490049800F00F00009004F190009DF846
:10E20000001050F82100006801900498C0F34340CA
:10E21000022806D0032878D0052877D0072873D1A4
:10E2200075E00498C0F30A10002869DD04F56B70EE
:10E230009DF8001000EB4110C068002860D00498E1
:10E24000C0F30A1204F56B709DF8003000EB431028
:10E25000C1682046FFF765F9049800F00F0104F546
:10E260006B7000EB4110C0680499C1F30A110144BE
:10E27000049800F00F0204F56B7000EB4210C160CF
:10E28000049800F00F0104F56B7000EB4110406939
:10E290000499C1F30A110144049800F00F0204F537
:10E2A0006B7000EB4210416104F56B709DF800103B
:10E2B00000EB4110456904F554709DF8001040F8DA
:10E2C000215004F190009DF8001050F821000069E1
:10E2D00002900298C0F3C940002811DD019820F097
:10E2E000004000F100400190019820F08040019032
:10E2F00004F190009DF80020019950F8220001607F
:10E3000006E002E002E0FFE700BF00BF00BF00BF81
:10E3100000BF039820F0100010300390E06880697F
:10E3200003990843E1688861012005B030BD000011
:10E3300038B5044600200090074800680168204670
:10E340008847009820F00800083000900098E168A5
:10E350004861012038BD0000180800202DE9F04177
:10E3600004460026E078B0B900270020DD1C4FEA03
:10E37000E57805EB98784FEAA80704F1D00555F841
:10E3800022C000BF04E00D68CCF80050401C091DFD
:10E39000B842F8D300BF3046BDE8F08100BFFEE7C9
:10E3A00010B510210648FEF763FA0420FEF746FC7C
:10E3B00010210348FEF75EFAFEF7A9F810BD000031
:10E3C0000008014010B510210548FEF751FA06205B
:10E3D000FEF734FC10210248FEF74CFA10BD000095
:10E3E0000008014010B510210D48FEF741FA5020F9
:10E3F000FEF724FC10210A48FEF73CFA10210848D9
:10E40000FEF736FA0120FEF719FC0020FEF716FC95
:10E4100010210348FEF72EFAFEF779F810BD000030
:10E42000000801400020014908607047082C0040A6
:10E4300040F08001014A116070470000002C00404C
:10E440000120014908607047A480054270B5154855
:10E450000078401C1349087008460078C82801DD80
:10E46000002008701048006800F07F040E48001F6C
:10E47000006800F07F05A54212DA0C48007800F031
:10E4800017F8FFF7CFFF0749087800EBD071491064
:10E49000A0EB410111B900F0DFF801E000F0E4F871
:10E4A00070BD000008080020042C00400708002070
:10E4B00000F07F01014A116070470000002C00400D
:10E4C0000021044A126822F4C0710143014A11601C
:10E4D00070470000042C004008B500210091074956
:10E4E000096821F07F01009100F07F01009A11433B
:10E4F0000091024A0099116008BD0000042C004000
:10E5000002E008C8121F08C1002AFAD170477047FC
:10E51000002001E001C1121F002AFBD17047F0B5B5
:10E520000346144600220020002500BF0646471C73
:10E53000F8B28E5D002EF9D100BF2E466F1CFDB2E1
:10E540009E5D002EF9D10AE0461E11F806C06F1E2E
:10E550003E4401F806C00027461E8F55F0B2A04287
:10E56000F2DC002204E09E5CA718CE55561CF2B2E5
:10E570006E1E9642F7DCF0BD10B5134800780128F6
:10E5800011D012490978042202EB8101880001F0C0
:10E5900033F80F4908600D490978880001F02CF81C
:10E5A0000C4908600FE009490978042202EB810157
:10E5B000880001F021F8064908600448007801F05D
:10E5C0001BF80449086010BDE1000020E0000020B5
:10E5D000E4000020E800002070B50625002419485A
:10E5E0000088801E81B2184800F046F80446E1B267
:10E5F00014480088801E144A105C814219D11148C9
:10E600000088401E1146085CB0EB142F11D10F4852
:10E61000007801280BD00846405D012809D100F0A0
:10E6200029F940220A499001FEF77AFB01E000F047
:10E6300073F8C8210448FDF7C0FD40210548FDF7E7
:10E64000BCFD70BD0401002000110020E10000208D
:10E650003C080020BC09002010B520210148FEF72D
:10E6600007F910BD000C014010B520210148FEF74C
:10E6700001F910BD000C014010B5024600200AE06F
:10E6800012F8014B84EA2023DBB2064C34F8133035
:10E6900083EA002398B20B1EA1F10104A1B2EFDCC2
:10E6A00010BD0000B80F0108014642F228324A436B
:10E6B0004FF0E0235A6100229A6101221A6100BFE3
:10E6C0004FF0E022106900F001021AB100F480322C
:10E6D000002AF5D000224FF0E0231A619A617047BA
:10E6E000014601EBC1024FF0E0235A6100229A611A
:10E6F00001221A6100BF4FF0E022106900F0010210
:10E700001AB100F48032002AF5D000224FF0E02345
:10E710001A619A61704700002DE9F04391B04FF003
:10E7200006080025002400270026402101A8FDF747
:10E7300044FD494810F8080002285DD140214748AF
:10E74000FDF73BFD80214648FDF737FD0F2507E02B
:10E750004148405D01A90855681C85B2601C84B21F
:10E760003D48405D0028F3D13E480078844228DCD3
:10E770003C480078001BC6B2002704E0202037493F
:10E78000C855781C87B2B742F8DB204604EBD0713D
:10E790004910A4EB410149B9B14606EBD970C0F369
:10E7A00047022E4901A8FFF7BAFE14E0B14606EB76
:10E7B000D9704010401CC2B2284901A8FFF7AFFE33
:10E7C00009E0002405E02848005D24490855601C44
:10E7D00084B2402CF7DB681C85B2002407E01E4899
:10E7E000405D1F490855681C85B2601C84B21A48F8
:10E7F000405D0028F3D117E0174810F808000328FF
:10E8000012D1C0211948FDF7D8FC0D25002407E0DE
:10E810001148405D15490855681C85B2601C84B2DA
:10E820000D48405D0028F3D11148008840F01000E9
:10E830000F4908800846008820F02000088008461C
:10E84000008820F0400008800846008820F0800002
:10E85000088011B0BDE8F083001100203C080020C2
:10E860007C080020E0000020FC090020FC080020BB
:10E87000F4000020F0B591B00025002400264021CE
:10E8800001A8FDF79AFC40215D48FDF796FC0B249A
:10E8900050E05C48005D2F2813DD5A48005D3A289F
:10E8A0000FDAA3222846691CCDB257490A545548AD
:10E8B000005D8030C2B22846691CCDB252490A546C
:10E8C00036E05048005D602813DD4E48005D7B282F
:10E8D0000FDAA3222846691CCDB24B490A54494895
:10E8E000005D8030C2B22846691CCDB246490A5448
:10E8F0001EE04448005D402813DD4248005D5B286F
:10E900000FDAA3222846691CCDB23F490A543D487C
:10E91000005D8030C2B22846691CCDB23A490A5423
:10E9200006E03848025D2846691CCDB236490A54D3
:10E93000601CC4B23348005D0028AAD13348007877
:10E94000022804D0032803D004280DD101E00CE0F4
:10E950000BE001F0B5FA002501E0681CC5B22A48B9
:10E96000405D0028F9D100E000BF00BF28480078D2
:10E97000854232DC26480078401BC6B2002404E001
:10E98000202001A90855601CC4B2B442F8DB284617
:10E9900005EBD0714910A5EB410149B9374606EBAB
:10E9A000D770C0F3470201A91748FFF7B8FD09E087
:10E9B000374606EBD7704010401CC2B201A912487E
:10E9C000FFF7ADFD002405E001A8005D0C490855E6
:10E9D000601CC4B2402CF7DB09E0002405E00A48C3
:10E9E000005D07490855601CC4B2402CF7DB09489C
:10E9F000008840F001000749088011B0F0BD000018
:10EA00003C08002000110020BC090020E10000208B
:10EA1000E0000020F400002010B54FF4807102489F
:10EA2000FDF726FF10BD00000008014010B54FF4AF
:10EA300080710248FDF71EFF10BD00000008014074
:10EA400010B54FF480510448FDF709FF08B10120CB
:10EA500010BD0020FCE70000000C014000B58FB0A5
:10EA6000342102A8FDF7A9FB00200190322202A95F
:10EA7000FEF72CF99DF80800002863D09DF80900E6
:10EA800000285FD09DF80800FF285BD09DF80900A2
:10EA9000FF2857D09DF80A000A2853D19DF80B0093
:10EAA0000D284FD19DF80800012808DB9DF80800CB
:10EAB000092804DC9DF808008DF804001CE09DF88E
:10EAC000080010280ADB9DF80800192806DC9DF8CC
:10EAD0000800801FC0B28DF804000DE09DF808000A
:10EAE000202809DB9DF80800292805DC9DF808008E
:10EAF0000C38C0B28DF804009DF804004006000EEA
:10EB0000114908709DF809008DF805009DF8050071
:10EB1000302809D031280BD032280DD033280FD11E
:10EB200001200A4908700CE002200849087008E03A
:10EB300004200649087004E003200449087000E03E
:10EB400000BF00BF0FB000BDE0000020E1000020CA
:10EB500070B50024002500F08FFA20B940F6FF6060
:10EB6000F849086003E040F2FF40F6490860F648C3
:10EB7000007801287ED0F448007804287BD1F3483F
:10EB8000007800F00200022808D1012001F024FCE6
:10EB9000EE48008820F00200EC49088000F060FA9E
:10EBA000002830D1C021EA48FDF707FB002409E026
:10EBB000E848005D00B907E0E648005DE449085513
:10EBC000601CC4B2C02CF3DB00BFE3480078844271
:10EBD0000EDD2020DE4908552021DD4A601C11543D
:10EBE000A01C1154E01C11540020DC49087002E004
:10EBF0000120DA490870D548008840F00100D34967
:10EC00000880002070BDD148007800F0040004287E
:10EC100008D1022001F0E0FBCC48008820F004007D
:10EC2000CA49088000F02AFB30BBC021C848FDF764
:10EC3000C4FA002409E0CA48005D00B907E0C848EA
:10EC4000005DC3490855601CC4B2C02CF3DB00BF93
:10EC5000C1480078844214DD2020BD490855202198
:10EC6000BB4A601C1154A01C1154E01C1154201DFF
:10EC7000115402E08BE052E00EE00020B74908702A
:10EC800002E00120B5490870B048008840F001005A
:10EC9000AE4908800020B5E7AC48007800F00800D5
:10ECA000082808D1032001F097FBA848008820F02D
:10ECB0000800A6490880FFF7C3FE80BBC021A44816
:10ECC000FDF77BFA002409E0A648005D00B907E0E3
:10ECD000A448005D9E490855601CC4B2C02CF3DBFB
:10ECE00000BF9D48007884420EDD202098490855D9
:10ECF0002021974A601C1154A01C1154E01C11548F
:10ED000000209649087002E00120944908708F485D
:10ED1000008840F001008D490880002072E7FFE77D
:10ED20008A48007800F00100002879D0C021884886
:10ED3000FDF743FA8548008820F0010083490880E8
:10ED4000002409E08848005D00B907E08648005DBE
:10ED50007F490855601CC4B2C02CF3DB00BF7E485D
:10ED6000007884420EDD2020794908552021784A18
:10ED7000601C1154A01C1154E01C11540020774950
:10ED8000087002E001207549087000203AE76F48DA
:10ED9000007800F01000102855D1C0216C48FDF714
:10EDA0000CFA002409E07048005D00B907E06E48E5
:10EDB000005D67490855601CC4B2C02CF3DB00BF7E
:10EDC0006548007884420FDD002505E020202919E0
:10EDD0005F4A5054681CC5B25F4800788542F5DB35
:10EDE00000205E49087002E001205C490870574825
:10EDF000008820F01000554908805C48007880B9F0
:10EE00000846008820F0200008800846008840F06E
:10EE1000400008800846008820F08000088010E04C
:10EE20000FE14A48008840F0200048490880084621
:10EE3000008820F0400008800846008820F080000C
:10EE400008800020DEE64148007800F020002028FD
:10EE500038D1C0213E48FDF7B0F9002409E043480D
:10EE6000005D00B907E04148005D39490855601C64
:10EE7000C4B2C02CF3DB00BF002505E02020291917
:10EE8000334A5054681CC5B2334800788542F5DBDC
:10EE90000020324908702D48008820F010002B49CE
:10EEA00008800846008820F0200008800846008876
:10EEB00040F0400008800846008820F0800008806C
:10EEC00000209FE62148007800F04000402865D1EE
:10EED000C0211F48FDF771F900F0B4FF1E4800780B
:10EEE0000E38C4B2002504E0202019494855681C9A
:10EEF000C5B2A542F8DB264604EBD6704010401C94
:10EF0000C2B213491A48FFF70AFB012013490870DF
:10EF10000E48008820F040000C4908801548007811
:10EF200078B90846008840F010000880084600883C
:10EF300020F0200008800846008820F0800008802B
:10EF40002AE019E0F0000020E1000020F400002099
:10EF5000FC0900201C000020E0000020EC00002044
:10EF60005C0000209C0000203C0800207C08002061
:10EF700008000020FC0800203348008820F0100022
:10EF8000314908800846008820F0200008800846A3
:10EF9000008840F080000880002033E62A4800788E
:10EFA00000F0800080284CD1C0212848FDF705F9E9
:10EFB000002409E02648005D00B907E02448005D10
:10EFC00022490855601CC4B2C02CF3DB00BF0025E9
:10EFD00005E0202029191D4A5054681CC5B21D485F
:10EFE00000788542F5DB00201B4908701648007840
:10EFF00000F08000144908801848007878B9084665
:10F00000008820F0100008800846008820F02000CA
:10F0100008800846008840F0400008800FE00A4859
:10F02000008840F01000084908800846008820F059
:10F03000200008800846008820F04000088000205A
:10F04000E0E50020DEE50000F4000020FC090020DF
:10F05000FC080020E0000020EC0000203C0800201C
:10F0600010B520210348FDF7FAFB08B1012010BDBF
:10F070000020FCE70010014010B580210348FDF797
:10F08000EEFB08B1012010BD0020FCE7001001409C
:10F0900070B50024002551480078012806D00228C8
:10F0A00019D0032819D0042871D115E0002404E0F8
:10F0B00020204B490855601CC4B24A48007884425D
:10F0C000F6DB0022464948480068FFF728FA00208E
:10F0D000464908707DE000BF00BF402244499001CE
:10F0E000FDF7F4FD42480078FF2808D040484078FA
:10F0F000FF2804D03E4890F83F00FF283AD1402135
:10F100003B48FDF75AF8374800780838C5B2002464
:10F1100004E0202036490855601CC4B2AC42F8DB3C
:10F120002E480078022804D0032812D004281BD1CE
:10F1300000E000BF2E4605EBD670C0F347022C4915
:10F1400029480068FFF7EBF92A49294800F056F8EA
:10F150000BE02E4605EBD670C0F347022449224847
:10F160000068FFF7DCF900E000BF00BF01201F4985
:10F1700008702CE019480078022804D003280FD02A
:10F18000042822D104E00120184908701EE01FE085
:10F190001849174800F032F801201449087015E0AA
:10F1A000002400BF2046611CCCB21149085C002835
:10F1B000F8D10C480078844203DC01200B49087028
:10F1C00002E000200949087000E000BF00BF00E035
:10F1D00000BF00BF01200849087070BDE100002099
:10F1E000FC090020E0000020DC000020EC000020F2
:10F1F0003C080020BC0A0020E2000020F0B50A46CE
:10F200000021002600240025002300BF32E0475CD7
:10F21000202F00D12CE0455C4F1CFFB23946C45D65
:10F2200004EB0527BBB24AF2AA37BB4212D04AF21E
:10F23000A117BB4201D1012700E000274AF2F91CC7
:10F24000634502D14FF0010C01E04FF0000C47EA9A
:10F250000C0707B10CE0374606F1010C0CF0FF0675
:10F26000D555374606F1010C0CF0FF06D45500BF0A
:10F270004F1CF9B2475C002FC9D1F0BD10B5102169
:10F280000348FDF7ECFA08B1012010BD0020FCE7AF
:10F290000010014008B501211C20FDF77BFB4FF455
:10F2A0008170ADF8000010208DF8030003208DF868
:10F2B000020069462248FDF747FA4FF48460ADF832
:10F2C000000010208DF8030003208DF8020069462D
:10F2D0001C48FDF739FA4FF48050ADF800001020BB
:10F2E0008DF8030003208DF8020069461648FDF7EB
:10F2F0002BFA4FF47070ADF8000010208DF8030069
:10F3000003208DF8020069460E48FDF71DFA0F2014
:10F31000ADF8000010208DF8030003208DF80200E6
:10F3200069460948FDF710FA8020ADF80000042076
:10F330008DF8030069460448FDF706FA08BD000091
:10F3400000080140000C0140001001402DE9F0418F
:10F35000054600262F4600BF2CE0002401E0601C7B
:10F36000C4B2022CFBDB02211448FDF781FA07F03E
:10F37000010020B108211148FDF77AFA03E00821C5
:10F380000E48FDF777FA002401E0601CC4B2022C9D
:10F39000FBDB02210948FDF76BFA002401E0601C49
:10F3A000C4B2022CFBDB02210448FDF763FA7F1094
:10F3B000701CC6B2082ED0DBBDE8F0810010014001
:10F3C00010B5044604F00800082804D1810118484B
:10F3D000FDF750FA04E04FF400711548FDF748FAC4
:10F3E00004F00400042804D181011148FDF742FA19
:10F3F00004E04FF480710E48FDF73AFA04F0020081
:10F40000022804D180210A48FDF734FA03E0802164
:10F410000748FDF72DFA04F0010020B1402104480F
:10F42000FDF728FA03E040210148FDF721FA10BD5D
:10F43000000C01402DE9F041054600262F4600BF93
:10F4400022E0002401E0601CC4B2022CFBDB02219C
:10F450000F48FDF70DFA07F0010020B108210C4814
:10F46000FDF708FA03E008210948FDF701FA002436
:10F4700001E0601CC4B2022CFBDB02210448FDF752
:10F48000F9F97F10701CC6B2082EDADBBDE8F081F6
:10F490000010014010B5044604F00200022804D117
:10F4A00080210A48FDF7E6F903E080210748FDF7CF
:10F4B000DFF904F0010020B140210448FDF7DAF93A
:10F4C00003E040210148FDF7D3F910BD000C0140D5
:10F4D0004FF440414FF00060FDF738FAFFF7DAFED5
:10F4E000FFF7BAF8FFF7A2FA01F01AF84FF48061BB
:10F4F0003948FDF7BFF94FF480513848FDF7B8F9A6
:10F500004FF4165001F04EFB0120FFF7CDF8FDF748
:10F5100039FBFFF7A3FAFFF7BBFD3148007801285C
:10F5200014D03048008840F001002E490880084679
:10F53000008840F0020008800846008840F004007F
:10F5400008800846008840F008000880FFF714F89B
:10F55000FDF756F84FF4C0724F217F2001F0EAFC0E
:10F5600038E02148007838B100201F490870FFF7C3
:10F5700033F801201D490870FFF7EAFA18480078AF
:10F58000012817D0022804D0032803D0042820D152
:10F5900001E000BF00BF1648007828B1154A0121DC
:10F5A000084601F013F904E0124A0121084600F070
:10F5B000CBF90EE00E48007828B10E4A012108462A
:10F5C00000F0DAFF04E00B4A0121084600F04AF897
:10F5D00000BF00BFC5E70000000C01400010014063
:10F5E000E1000020F400002009010020E2000020DA
:10F5F000EC000020FC090020F0B50B30154D20F088
:10F6000007010024144A0FE003688B420BD38B429E
:10F6100005D95E1A43184768C3E9006700E04368EC
:10F62000136002C004E0021D10680028ECD12046DF
:10F63000002802D1286808B10020F0BD064A07481A
:10F640001060074A121A22F00702C0E900240120C4
:10F650002860D7E73808002034080020CC110020AB
:10F66000C81300202DE9F74F8AB0834600BF0C9ED7
:10F67000AE480078401C0101AD480068FCF79DFDD4
:10F680004AE1AC480078002878D016F801ABAA48C7
:10F690000078012800D143E1BAF1800F6FDDA54861
:10F6A000007800286CD016F8010B0090009800EB51
:10F6B0000A201FFA80F9002717E007EB07109F497F
:10F6C00031F810004FF6FF71884202D100200190FE
:10F6D0000CE007EB0710994931F81000484502D1BA
:10F6E0000120019002E0781C87B2E6E700BF019894
:10F6F00050B107EB0710914A02EB4000811C202219
:10F7000002A8FCF741FD03E002A94846FDF7B4F862
:10F71000012418E08748007890B1C4F110001E2140
:10F72000A1EB400002A911F8008080490978491C2A
:10F7300004FB01F0401E7E49096801F8008000E0EA
:10F74000F0E0601CC4B2112CE4DB00207C4908709E
:10F750000EE07848007828B1794801780B9800F0DD
:10F760001BFC00E0DEE076480078401C744908701D
:10F77000734800780828ECDB00251CE0CBE071E042
:10F780006FE06C48007898B1694A1368674A12784C
:10F79000521C05FB0232511C654A1368634A1278F9
:10F7A000521C05FB0230614A1278FCF7EDFC00E0C8
:10F7B000B8E0681CC5B2102DE3DB012419E05D48F8
:10F7C000007898B1C4F110002021A1EB4000401E48
:10F7D00002A911F8008055490978491C04FB01F081
:10F7E000401E5349096801F8008000E09AE0601C5F
:10F7F000C4B2112CE3DB0020514908700EE04D48E3
:10F80000007828B14E4801780B9800F0C5FB00E065
:10F8100088E04B480078401C494908704848007807
:10F820000828ECDB002519E04248007898B1404AEE
:10F8300013683E4A1278521C05FB0232511C3C4AA6
:10F8400013683A4A1278521C05FB0230374A127884
:10F85000FCF79AFC00E065E0681CC5B2102DE3DB04
:10F8600058E05FE033480078A8B3012418E031483D
:10F87000007890B1AAF12000324901EB0011601E1E
:10F8800011F8008029490978491C04FB01F0401E49
:10F890002749096801F8008000E043E0601CC4B219
:10F8A000112CE4DB0020264908700EE02148007886
:10F8B00028B1234801780B9800F06EFB00E031E09E
:10F8C0001F480078401C1E4908701D480078082811
:10F8D000ECDB00251AE01CE01648007898B1144AC9
:10F8E0001368124A1278521C05FB0232511C104A4E
:10F8F00013680E4A1278521C05FB02300B4A12782C
:10F90000FCF742FC00E00DE0681CC5B2102DE3DB03
:10F9100000E007E000E005E0307800287FF4B1AEB9
:10F9200000BF00BF01240DB0BDE8F08FE000002053
:10F93000E4000020E2000020090100201807002058
:10F9400006080020180100202DE9F74F8EB09246DE
:10F950000020039002900190D046CDF814A0FE48FC
:10F960000078042202EB80008100FC480068FCF76C
:10F9700024FC58E2FA480078002872D0F948007850
:10F98000012800D150E2FFF75BF808B9012001908F
:10F990000198012806D1FFF753F8012802D1002071
:10F9A000019041E2FFF75CFB08B901200390039846
:10F9B000012806D1FFF754FB012802D10020039053
:10F9C00032E2FFF75BFC08B901200290029801289F
:10F9D00006D1FFF753FC012802D10020029023E258
:10F9E00098F8000008B9DDF8148018F8017B802F22
:10F9F0007DDDDB48007800287BD018F8010B0090F3
:10FA0000009800EB07201FFA80FB4FF0000919E077
:10FA100009EB0910D44931F810004FF6FF71884204
:10FA200002D1002004900EE009EB0910CE4931F814
:10FA30001000584502D10120049004E009F10100B2
:10FA40001FFA80F9E4E700BF049858B109EB0910E8
:10FA5000C54A02EB4000811C202206A8FCF794FB5B
:10FA600004E0DFE106A95846FCF706FF012455E053
:10FA7000BB480078E0B3C4F110001E21A1EB4000A8
:10FA800006A90D5CB4490978491C04FB01F0042166
:10FA9000C1EB8000B14909680D54C4F110001E216A
:10FAA000A1EB4000083006A90D5CAB490978491C60
:10FAB00004FB01F00321C1EB8000A84909680D5443
:10FAC000C4F110001E21A1EB4000103006A90D5C0E
:10FAD000A1490978491C04FB01F00221C1EB800017
:10FAE0009E4909680D54C4F110001E2102E0EEE0A9
:10FAF00011E0EBE0A1EB4000183006A90D5C96493F
:10FB00000978491C04FB01F00121C1EB80009349F5
:10FB100009680D5400E089E1601CC4B2052CA7DB24
:10FB20000020924908700EE08D48007828B18F4877
:10FB300001780F9800F030FB00E077E18B48007807
:10FB4000401C8A490870894800780828ECDB0026A8
:10FB500022E083480078E0B17F4B1B789A004FEA9F
:10FB6000860C7D4B1B785B1CDFF8F0E1DEF800E0D3
:10FB70000CFB03E3191D4FEA860C774B1B785B1CCB
:10FB8000DFF8D8E1DEF800E00CFB03E0FCF7FCFA5C
:10FB900000E04BE1701CC6B2042EDADB012454E015
:10FBA0006F480078F0B3C4F110002021A1EB4000B1
:10FBB000401E06A90D5C68490978491C04FB01F048
:10FBC0000421C1EB8000654909680D54C4F110009F
:10FBD0002021A1EB4000C01D06A90D5C5E490978FB
:10FBE000491C04FB01F00321C1EB80005B4909685B
:10FBF0000D54C4F110002021A1EB40000F3006A9E4
:10FC00000D5C55490978491C04FB01F00221C1EB48
:10FC10008000524909680D54C4F110002021A1EB65
:10FC2000400000E00EE0173006A90D5C4A49097853
:10FC3000491C04FB01F00121C1EB80004749096820
:10FC40000D5400E0F2E0601CC4B2052CA8DB0020DB
:10FC5000464908700EE04248007828B143480178D0
:10FC60000F9800F099FA00E0E0E040480078401C6E
:10FC70003E4908703D4800780828ECDB002622E069
:10FC800037480078E0B1344B1B789A004FEA860C75
:10FC9000314B1B785B1CDFF8C4E0DEF800E00CFBA6
:10FCA00003E3191D4FEA860C2B4B1B785B1CDFF816
:10FCB000ACE0DEF800E00CFB03E0FCF765FA00E0E6
:10FCC000B4E0701CC6B2042EDADBAAE0AEE0244831
:10FCD0000078002871D0012460E021480078C8B382
:10FCE000A7F12000224901EB0011601E0D5C1A49AA
:10FCF0000978491C04FB01F00421C1EB800017497D
:10FD000009680D54A7F12000194901EB0011E01C0E
:10FD10000D5C11490978491C04FB01F00321C1EB7A
:10FD200080000E4909680D54A7F12000104901EB2D
:10FD30000011E01D0D5C08490978491C04FB01F025
:10FD40000221C1EB8000054909680D54A7F120008C
:10FD500007490FE01FE00000E0000020E400002061
:10FD6000E2000020090100201807002006080020FA
:10FD70001801002001EB001104F10B000D5C2D496E
:10FD80000978491C04FB01F00121C1EB80002A49DC
:10FD900009680D5400E049E0601CC4B2052C9CDBEE
:10FDA0000020264908700FE02548007830B123482C
:10FDB00001780F9800F0F0F901E031E036E01F48DB
:10FDC0000078401C1D4908701C4800780828EBDBAF
:10FDD000002622E01A480078E0B1164B1B789A0002
:10FDE0004FEA860C134B1B785B1CDFF84CE0DEF807
:10FDF00000E00CFB03E3191D4FEA860C0D4B1B784A
:10FE00005B1CDFF834E0DEF800E00CFB03E0FCF7FD
:10FE1000BBF900E00AE0701CC6B2042EDADB00E099
:10FE200004E000E002E0A5E500BF00BF012411B03E
:10FE3000BDE8F08FE0000020E4000020060800206C
:10FE4000E2000020F8B500200090022703E0FCF754
:10FE500069FB05460E463800A7F10101CFB2F6D185
:10FE600028463146FCF733FAC4B2232C06DB302097
:10FE70008DF8000035208DF8010017E0002C05DC1E
:10FE800030208DF800008DF801000FE00A2094FB6F
:10FE9000F0F03030C0B28DF800000A2094FBF0F191
:10FEA00000FB11403030C0B28DF801009DF8000019
:10FEB000024948729DF801008872F8BD08000020D0
:10FEC0002DE9F04186B000240026142101A8FCF79A
:10FED00074F900BF22E02C48055D202D02D12B488B
:10FEE000855516E0601CC0B2044627490F5C47EAFE
:10FEF00005284BF6D570804503D04BF2F75080456E
:10FF000000D107E03046711CCEB220490D5408469E
:10FF1000875500BF601CC4B2701CC6B21A48005D91
:10FF20000028D8D1002405E01848005D164908557E
:10FF3000601CC4B2402CF7DB01A91348FFF75EF93F
:10FF400000241BE001A8005D1149095D88420FD023
:10FF50001048008840F002000E49088008460088DA
:10FF600040F0040008800846008840F0080008803F
:10FF700001A8005D06490855601CC4B2142CE1DBE1
:10FF800006B0BDE8F0810000BC0900203C0800205C
:10FF9000BC0A0020F40000202DE9F84F0E464FF077
:10FFA000030B69E03B480078002864D000245FE040
:10FFB00039480078401C6043009038480168009838
:10FFC0000F18002514E03348007870B117F8019B32
:10FFD00097F800A009FA06F0C6F108014AFA01F103
:10FFE00008432F490968485500E04DE0681CC5B238
:10FFF000294800788542E6DB2648007868B100256C
:020000040801F1
:1000000006E027490968485DFFF7A0F9681CC5B2FA
:10001000214800788542F4DB00E035E004212148E6
:10002000FCF728FC4FF0000801E008F10108B8F1E6
:10003000FF0FFADB1748007828B1102C04D02046B7
:10004000FFF7BEF900E01FE004211648FCF710FCA2
:10005000102C0BD001211348FCF70AFC0121114898
:10006000FCF708FC01210F48FCF702FC601CC4B23D
:10007000102C01DA9CE707E05FEA0B00ABF101010D
:100080001FFA81FB8ED100BF04210648FCF7F2FB6A
:10009000BDE8F88FE2000020E0000020E40000202E
:1000A000E8000020001001402DE9F05F82468B46F9
:1000B0004FF4967858E033480078002853D0002455
:1000C0004EE031480078401C04FB00F92F480068DE
:1000D00000EB090700250BE02A48007828B117F843
:1000E000016B2B480068465500E045E0681CC5B22E
:1000F000254800788542EFDB2248007868B100256A
:1001000006E023490968485DFFF720F9681CC5B27D
:100110001D4800788542F4DB00E02DE004211D48F5
:10012000FCF7A8FB1748007828B1102C04D0204613
:10013000FFF746F900E01FE004211648FCF798FBA2
:10014000102C0BD001211348FCF792FB0121114820
:10015000FCF790FB01210F48FCF78AFB601CC4B23E
:10016000102C01DAADE707E05FEA0800A8F1010111
:100170001FFA81F89FD100BF04210648FCF77AFBE3
:10018000BDE8F09FE2000020E0000020E400002035
:10019000E8000020001001402DE9F84F0F464FF015
:1001A000080B75E041480078002870D000246AE010
:1001B000A0003F490978491C484300903D48016828
:1001C000009801EB0008002614E03848007870B170
:1001D00018F8019B98F803A009FA07F0C7F1080185
:1001E0004AFA01F1084334490968885500E057E0AC
:1001F000701CC6B22E4800788000B042E5DC2B4867
:10020000007880B1042C0FD0002606E02A49096846
:10021000885DFFF70FF9701CC6B225480078800092
:10022000B042F3DC00E03BE004212448FCF722FB71
:10023000002500E06D1C224800688542FAD31B4867
:10024000007828B1042C04D02046FFF723F900E001
:1002500026E004211948FCF70BFB042C11D00121E6
:100260001648FCF707FB002500E06D1CFF2DFCDBAA
:1002700001211248FCF7FCFA002500E06D1C0F2D4F
:10028000FCDB601CC4B2042C02DA91E7FFE707E054
:100290005FEA0B00ABF101011FFA81FB82D100BFC5
:1002A00004210648FCF7E6FABDE8F88FE2000020DA
:1002B000E0000020E4000020E800002000100140E1
:1002C000F00000202DE9F05F83464FF002096AE05C
:1002D0003B480078002865D0002460E0A000394940
:1002E0000978491C00FB01FA3748006800EB0A084E
:1002F00000260BE03248007828B118F8017B33481B
:100300000068875500E054E0701CC6B22D480078A4
:100310008000B042EEDC2A48007880B1042C0FD077
:10032000002606E029490968885DFFF783F8701CFC
:10033000C6B2244800788000B042F3DC00E038E028
:1003400004212348FCF796FA002500E06D1C2148A3
:1003500000688542FAD31A48007828B1042C04D0EA
:100360002046FFF797F800E023E004211848FCF747
:100370007FFA042C11D001211548FCF77BFA0025E7
:1003800000E06D1CFF2DFCDB01211148FCF770FA29
:10039000002500E06D1C0F2DFCDB601CC4B2042C9A
:1003A00001DA9BE705E05FEA0900A9F101098FD1B5
:1003B00000BF04210648FCF75DFABDE8F09F00008D
:1003C000E2000020E0000020E4000020E80000201F
:1003D00000100140F00000202DE9F04FB9B00546B3
:1003E0004FF00009CA46002600240027A04620211D
:1003F00031A8FBF7E2FE382123A8FBF7DEFE4249D5
:1004000003C9CDE92101382113A8FBF7D6FE3E49E7
:10041000083103C9CDE91101382103A8FBF7CDFE4E
:100420003949103103C9CDE9010100BF3046711CC3
:10043000CEB23649085C0028F8D1701EC6B2012D34
:1004400004D0022D09D0032D15D10DE00DF1840942
:100450004FF008084FF0020A0EE00DF144094FF08A
:1004600008084FF0060A07E00DF104094FF00608EE
:100470004FF0000A00E000BF00BF25480078A0EB65
:100480000800B04205DA524649462048FEF747F8D0
:100490001CE01F480078A0EB0800801BC7B20024B6
:1004A00004E0202031A90855601CC4B2BC42F8DB2E
:1004B000BB4607EBDB70C0F3470231A91348FEF7D8
:1004C0002EF85246494631A8FEF729F8002415E0D7
:1004D000012D04D121A8005D0E4908550CE0022D24
:1004E00004D111A8005D0C49085505E0032D03D186
:1004F00001A8005D09490855601CC4B2402CE7DB27
:1005000039B0BDE8F08F0000A00F0108BC0A002040
:10051000E00000201C0000205C0000209C00002067
:1005200010B502210148FCF7A3F910BD00080140F5
:1005300010B502210148FCF79DF910BD00080140EB
:1005400070B504460D4629462046FCF7B2FE00BFB2
:1005500080212046FCF70AFE0028F9D070BD70B556
:1005600005460C4604E021782846FFF7E9FF641CA5
:1005700020780028F7D170BD2DE9F74F8AB08B465F
:100580000C9E8D48007801018C480068FBF715FE31
:1005900000E18B480078002873D016F801ABBAF15F
:1005A000800F6FDD8648007800286CD016F8010BAC
:1005B0000090009800EB0A201FFA80F9002717E04E
:1005C00007EB07107F4931F810004FF6FF718842A2
:1005D00002D1002009900CE007EB0710794931F8AF
:1005E0001000484502D10120099002E0781C87B232
:1005F000E6E700BF099850B107EB0710714A02EB1C
:100600004000811C202201A8FBF7BEFD03E001A9E8
:100610004846FCF731F9012418E06948007890B1A8
:10062000C4F110001E21A1EB400001A911F80080C7
:1006300061490978491C04FB01F0401E5F490968C3
:1006400001F8008000E0B3E0601CC4B2112CE4DBD0
:1006500000251CE05A480078B0B1584A1368564A41
:100660001278521C05FB0232511C544A1368524A3C
:100670001278521C05FB02304F4A1278FBF784FDBA
:1006800003E086E043E041E092E0681CC5B2102D33
:10069000E0DB012419E04A48007898B1C4F1100069
:1006A0002021A1EB4000401E01A911F80080424921
:1006B0000978491C04FB01F0401E4049096801F813
:1006C000008000E074E0601CC4B2112CE3DB002564
:1006D00019E03B48007898B1384A1368364A1278D6
:1006E000521C05FB0232511C344A1368324A1278FC
:1006F000521C05FB0230304A1278FBF745FD00E042
:1007000056E0681CC5B2102DE3DB41E050E02C48F8
:100710000078A8B3012418E02948007890B1AAF124
:100720002000294901EB0011601E11F800802249C8
:100730000978491C04FB01F0401E2049096801F8B2
:10074000008000E034E0601CC4B2112CE4DB002522
:100750001AE01B480078A0B1184A1368164A1278AC
:10076000521C05FB0232511C144A1368124A1278BB
:10077000521C05FB0230104A1278FBF705FD01E020
:1007800005E015E0681CC5B2102DE2DB00E00FE0CB
:1007900000E00DE0307800287FF4FBAE08480078D8
:1007A00020B100215846FFF77FFC00E000E000BFC9
:1007B00001240DB0BDE8F08FE0000020E40000202F
:1007C000E200002018070020180100202DE9F74F53
:1007D0008AB08B46DDF83080ED4800780101ED48A5
:1007E0000068FBF7EAFCC0E1EB48007800287CD009
:1007F00018F8017B802F7ADD18F8010B0090009823
:1008000000EB07201FFA80FA4FF0000919E009EB0E
:100810000910E24931F810004FF6FF71884202D109
:10082000002009900EE009EB0910DC4931F81000B6
:10083000504502D10120099004E009F101001FFA9E
:1008400080F9E4E700BF099850B109EB0910D34AD9
:1008500002EB4000811C202201A8FBF795FC03E07D
:1008600001A95046FCF708F8012455E0CA48007871
:10087000E0B3C4F110001E21A1EB400001A90D5C02
:10088000C3490978491C04FB01F00421C1EB800035
:10089000C04909680D54C4F110001E21A1EB4000AD
:1008A000083001A90D5CBA490978491C04FB01F024
:1008B0000321C1EB8000B74909680D54C4F1100051
:1008C0001E21A1EB4000103001A90D5CB049097850
:1008D000491C04FB01F00221C1EB8000AD4909680D
:1008E0000D54C4F110001E2102E03DE111E0BDE015
:1008F000A1EB4000183001A90D5CA5490978491CFD
:1009000004FB01F00121C1EB8000A24909680D54EC
:1009100000E039E1601CC4B2052CA7DB002622E010
:100920009D480078E0B19A4B1B789A004FEA860CFC
:10093000974B1B785B1CDFF85CE2DEF800E00CFBF9
:1009400003E3191D4FEA860C914B1B785B1CDFF803
:1009500044E2DEF800E00CFB03E0FBF715FC00E0EE
:1009600012E1701CC6B2042EDADB012454E08A487E
:100970000078E0B3C4F110002021A1EB4000401E3C
:1009800001A90D5C82490978491C04FB01F004218E
:10099000C1EB80007F4909680D54C4F1100020218B
:1009A000A1EB4000C01D01A90D5C79490978491CE3
:1009B00004FB01F00321C1EB8000764909680D5466
:1009C000C4F110002021A1EB40000F3001A90D5C03
:1009D0006F490978491C04FB01F00221C1EB80003A
:1009E0006C4909680D54C4F11000202100E010E0AA
:1009F000A1EB4000173001A90D5C65490978491C3D
:100A000004FB01F00121C1EB8000624909680D542B
:100A100000E0B9E0601CC4B2052CA8DB002622E08F
:100A20005D480078E0B15A4B1B789A004FEA860C7B
:100A3000574B1B785B1CDFF85CE1DEF800E00CFB39
:100A400003E3191D4FEA860C514B1B785B1CDFF842
:100A500044E1DEF800E00CFB03E0FBF795FB00E06F
:100A600092E0701CC6B2042EDADB7CE04A480078C3
:100A7000002877D001244AE0A7F12000484901EB83
:100A80000011601E0D5C42490978491C04FB01F00D
:100A90000421C1EB80003F4909680D54A7F12000F3
:100AA0003F4901EB0011E01C0D5C39490978491CF4
:100AB00004FB01F00321C1EB8000364909680D54A5
:100AC000A7F12000364901EB0011E01D0D5C304913
:100AD0000978491C04FB01F00221C1EB80002D497B
:100AE00009680D54A7F120002D4901EB001104F114
:100AF0000B000D5C26490978491C04FB01F001211B
:100B0000C1EB8000234909680D54601CC4B2052C58
:100B1000B2DB002623E020480078E8B11C4B1B78AC
:100B20009A004FEA860C1A4B1B785B1CDFF864E0D6
:100B3000DEF800E00CFB03E3191D4FEA860C144BB2
:100B40001B785B1CDFF84CE0DEF800E00CFB03E0F8
:100B5000FBF71AFB01E005E016E0701CC6B2042E9C
:100B6000D9DB00E010E000E00EE098F8000000287B
:100B70007FF43AAE0848007820B100215846FFF7CC
:100B8000A1FB00E000E000BF01240DB0BDE8F08F44
:100B9000E0000020E4000020E20000201807002010
:100BA0001801002010B586B004464FF4E060FBF752
:100BB000C3FE26208DF8000000208DF801000120E2
:100BC0008DF802008DF803006846FBF779FE4FF4BC
:100BD000C060FBF7B1FE34208DF8000001208DF8D5
:100BE00001008DF802008DF803006846FBF768FEEF
:100BF00001214FF42020FBF7BDFE01210846FBF741
:100C0000C9FE0420ADF8040003208DF8060018206A
:100C10008DF8070001A92A48FBF796FD0820ADF8DA
:100C2000040004208DF8070001A92548FBF78CFD7E
:100C30004FF48060ADF8040003208DF80600182002
:100C40008DF8070001A91F48FBF77EFD4FF40060F7
:100C5000ADF8040004208DF8070001A91948FBF73E
:100C600073FD02940020ADF80C00ADF80E00ADF855
:100C70001000ADF814000C20ADF8120002A91248C3
:100C8000FCF7A6FA02A91148FCF7A2FA01210E48C6
:100C9000FCF760FA01210D48FCF75CFA012240F2F2
:100CA00025510948FCF76FFA012240F22551074807
:100CB000FCF769FA40210448FCF734FA06B010BD8D
:100CC000000801400010014000440040004C00407A
:100CD00070B5054600240026022D02D0042D1CD13B
:100CE0000DE020218648FCF741FA38B120218448E4
:100CF000FCF721FA8248FCF7D7FAC4B20EE02021B3
:100D00008048FCF733FA38B120217E48FCF713FA0B
:100D10007C48FCF7C9FAC4B200E000BF00BF7A48C3
:100D20000078002842D079480078C8B9A52C0ED1A7
:100D3000002077490880084601880088401C744AD2
:100D4000108074484454012070490870D7E0002096
:100D50006F4908806D49087001206B490870CEE02A
:100D60006D4800780028F1D15A2C14D168480188C8
:100D70000088401C664A108066484454002062493E
:100D8000087001206449087000206449087002203E
:100D900063490880B3E000205D4908805B49087022
:100DA0005D490870012058490870A8E05B48007848
:100DB000401C5A4908700846007801280DD10846A1
:100DC0000078401E57490C54514801880088401C47
:100DD0004F4A10804F48445491E050480078022810
:100DE00019D14C484A490988415C4C480078401E5A
:100DF0004C4A1154104600781146497840EA0120C7
:100E000047490880424801880088401C404A1080B9
:100E10004048445473E041480078032816D1052C1B
:100E200008D13B4801880088401C394A1080394865
:100E3000445464E00020364908800120324908709B
:100E40000020324908703449087058E0334800786F
:100E5000092818D134480078A04208D12C480188CC
:100E60000088401C2A4A10802A48445447E0002049
:100E70002749088001202449087000202349087070
:100E8000254908703BE02648018824480078801CEA
:100E900081422CD11E4801880088401C1C4A1080C9
:100EA0001C484454407A214948721A48807A887212
:100EB0000B211E48FDF7E0FB06461C49CE72300AA6
:100EC00008730026FFF734FB18490D48FFF747FB6E
:100ED000FFF726FB0120164908700B490870002017
:100EE0000A4908700C4908700949088007E0084859
:100EF00001880088401C064A10800648445470BD92
:100F000000440040004C004003010020000100208C
:100F1000FC00002000110020010100200801002039
:100F20000401002006010020E10000200A01002049
:100F300009010020F8B506460C4615460121C802F5
:100F4000FBF718FD15480078304014490870284612
:100F5000FDF7B6FA2046FDF7BFFA10480078FDF716
:100F6000A7FA0E480078FDF763FA4FF4A060FBF78C
:100F7000E3FC00208DF8000002208DF80100032022
:100F80008DF8020001208DF803006846FBF798FCFD
:100F9000FDF748FAFDF754FAF8BD000007080020F5
:100FA000A1FBD7F3D7AACDE4D3D2D7AACDE4A1FA37
:100FB000C9B2B3B5A3A100000000211042206330E4
:100FC0008440A550C660E770088129914AA16BB1A1
:100FD0008CC1ADD1CEE1EFF1311210027332522249
:100FE000B5529442F772D662399318837BB35AA3F1
:100FF000BDD39CC3FFF3DEE3622443342004011419
:10100000E664C774A44485546AA54BB52885099540
:10101000EEE5CFF5ACC58DD55336722611163006E8
:10102000D776F6669556B4465BB77AA71997388790
:10103000DFF7FEE79DD7BCC7C448E5588668A778A8
:101040004008611802282338CCC9EDD98EE9AFF9E0
:10105000488969990AA92BB9F55AD44AB77A966A88
:10106000711A500A333A122AFDDBDCCBBFFB9EEB30
:10107000799B588B3BBB1AABA66C877CE44CC55C58
:10108000222C033C600C411CAEED8FFDECCDCDDD80
:101090002AAD0BBD688D499D977EB66ED55EF44E28
:1010A000133E322E511E700E9FFFBEEFDDDFFCCFD0
:1010B0001BBF3AAF599F788F8891A981CAB1EBA124
:1010C0000CD12DC14EF16FE18010A100C230E320A0
:1010D0000450254046706760B9839893FBA3DAB348
:1010E0003DC31CD37FE35EF3B1029012F322D232F0
:1010F0003542145277625672EAB5CBA5A895898518
:101100006EF54FE52CD50DC5E234C324A01481043F
:101110006674476424540544DBA7FAB79987B897E7
:101120005FE77EF71DC73CD7D326F2369106B0168F
:1011300057667676154634564CD96DC90EF92FE9A7
:10114000C899E9898AB9ABA94458654806782768DF
:10115000C018E1088238A3287DCB5CDB3FEB1EFB87
:10116000F98BD89BBBAB9ABB754A545A376A167A2F
:10117000F10AD01AB32A923A2EFD0FED6CDD4DCD57
:10118000AABD8BADE89DC98D267C076C645C454C7F
:10119000A23C832CE01CC10C1FEF3EFF5DCF7CDF27
:1011A0009BAFBABFD98FF89F176E367E554E745ECF
:1011B000932EB23ED10EF01EBBB6D3ADB3CBD7F853
:1011C00000000000E4110108000000203C080000BD
:1011D0001AC40008F01501083C0800208C0F00001C
:1011E00010E5000881700EB5B1C7B0CEC2B6C820F8
:1011F0003030A1E6000938A1FBD7F3D7AACDE42B04
:10120000D3D23E0338A1FA073AC9B2B3B5A3A1E7D6
:10121000B811010810010311FF04592214A55A0D39
:101220001B05010D0316FFFF4A100121331818E5B5
:10123000123624482808242424FE48484804392F1C
:10124000280C385454503018141454543836115053
:101250000C44A4A8A8A8541A2A2A2A441A302930CF
:1012600008506EA494888976C5606020C04D020441
:1012700008087125080804022B40200A29015D1086
:10128000102040913DD63838D65C79A14AFEA3D1D2
:10129000895B1AFF0101124360603D010202047480
:1012A0003C202040604C182442012A24F0195F4A57
:1012B00070905410107C1A3C1B19326D1020427E25
:1012C0001050090418040202424438500C040C1453
:1012D000242444447E04041E8F7E404040586420F1
:1012E0002B1C241089606C7E4444F379603A248579
:1012F000523C390B4E261A020224402913393A492E
:101300000649A449063310202A029C874020100871
:1013100004025AFE0431580F8080C0E0F0F8FCFE51
:10132000FCF8F0E0C080701A62346A08501D38443E
:101330005AAA016AB4B0500C1010182828243C4452
:101340004242E71EF8444444780E544244F82D3E8D
:101350004242800169302AF81C29015920B80CFC4E
:10136000424848784848404242FC104C4040E0F037
:101370001B44443E5C8E8444402AE73C2A7E054957
:10138000706B7C10014A7C707A08013388F0500C35
:10139000EE444850705048484444EE1AE05A39012F
:1013A0004A42F31BEE6C012A540152D6580CC76214
:1013B0006252524A4A4A4646E2F04A820159802A1B
:1013C000FC7B2A7C4149A059206EB2CA4C380620C9
:1013D0002A7C6F4B42E390180842424020180402D6
:1013E00016516BFE92B099D039016A3C10500944F5
:1013F000242428281810101BD692015FAAAA6C4436
:10140000444420480A2424181818242442E7C09D84
:101410004444282850300C7E8404080810202042C0
:1014200042FC6A1E6D2901321E1D404020200B1017
:1014300008080804040402029B7808012278031CAF
:101440001C2212FF4A6095F150083C421E22424283
:101450003F1FC04040405864CF9364581B1C221566
:1014600053221C2D060202022E9C42261B40567E51
:101470004040423C3E0F1110107EAF927C38083E37
:10148000444438403C422229601B5C62405342E79E
:101490002330309A70301B0C0C7019DD19011A447E
:1014A000D1393050084E4850684844EE492CC96044
:1014B0002BFE490192ED9ADC6049A0290149A04127
:1014C0002AD8E075447840E039D075221E02071C06
:1014D000EE3220018AF8C06E42403C024270197A16
:1014E000398019A9712AC65F93463B9008E74224C8
:1014F000242810109008D79292AAAA4444C8086ED3
:10150000241818182476306C1810109030087E4477
:10151000081010227E2B0304013A0806130403DA94
:101520000801113A608A192E290112600410304C0A
:10153000436A7E014123AAA31201100E0380038097
:10154000610C711C39780FE00128090FE03D3871FA
:101550001C610C1618080380F89C44102202201904
:101560000F9E812454A45864291425142208C2080B
:1015700045184924504641843BFBA14411120712EF
:101580000F1E1FFF3FFF7F021E3FFF1FFF0F121A9C
:10159000031A211AFA2211128012C012E01808F060
:1015A000FFF8FFFCFFFE0214FCFFF81AF0121AC04D
:1015B0001A114AF9440919888B3E2D441F7FF87F80
:1015C000FC7FFE029BFC7F44FAFF010111427F1366
:1015D0007BD31408BBD21B08C704130C0862202D50
:1015E0000102030404A00906070809020406080012
:040000050800C151DD
:00000001FF
